:100000000C9483010C94AB010C94AB010C94AB01E8
:100010000C94AB010C94AB010C94AB010C94AB01B0
:100020000C94AB010C94AB010C94B91E0C94851D7F
:100030000C94AB010C94AB010C94AB010C94AB0190
:100040000C94AB010C94AB010C94AB010C94AB0180
:100050000C94AB010C94AB010C94AB010C945E2995
:100060000C94AB010C94DB2C0C940D2D0C94AB0177
:100070000C94AB010C94AB010C94AB010C94AB0150
:100080000C94AB010C94AB010C94AB010C94AB0140
:100090000C94AB010C94AB010C94AB010C94AB0130
:1000A0000C94AB010C94AB010C94AB017B2A802A1D
:1000B000852A8F2A992AE32AE32AE32AA32AAD2A4A
:1000C000B72AC12ACE2AE32AD62A042B072BF62ADE
:1000D000FA2A002B282B282B282B0B2B0F2B132B2A
:1000E000192B1D2B282B232B080B000202020100C9
:1000F000090400000102020000052400100105248B
:1001000001010104240206052406000107058103FC
:1001100010004009040100020A0000000705020265
:100120004000000705830240000000C18081C11229
:100130000100020200004041234180000101020051
:100140000112010002000000404123418000010132
:1001500002000141726475696E6F204C4C4300557A
:10016000534220494F20426F617264000403090426
:1001700072756E2D6272696467650A000A000A0072
:100180000000000200090F0000030401000C000041
:100190000000000000000000000000000000040853
:1001A000020110408040102040804080080204017D
:1001B00080402010020110801020404004040404FC
:1001C00004030405020202020403020202020606FC
:1001D00006060606040402020204000000002500D0
:1001E00028002B002E003100000000002400270012
:1001F0002A002D00300000000000000000002A2B23
:1002000028000000000000000000000000000000C6
:100210000000000000002C9EB4A0A1A2A434A6A758
:10022000A5AE362D3738271E1F2021222324252650
:10023000B333B62EB7B89F8485868788898A8B8C1E
:100240008D8E8F909192939495969798999A9B9C66
:100250009D2F3130A3AD350405060708090A0B0CA4
:100260000D0E0F101112131415161718191A1B1C46
:100270001DAFB1B0B5000904020001030000000980
:1002800021010100012265000705840340000105EA
:10029000010902A1010901A100850105091901292E
:1002A00003150025019503750181029501750581EE
:1002B0000305010930093109381581257F75089535
:1002C000038106C0C005010906A1018502050719C1
:1002D000E029E71500250175019508810295017552
:1002E000088103950675081500256505071900297D
:1002F000658100C04E0E2311BA16B8178F259527B9
:10030000CE2C3D2D800E11241FBECFEFDAE0DEBFD4
:10031000CDBF15E0A0E0B1E0EAE1F2E602C0059051
:100320000D92AE38B107D9F727E0AEE8B5E001C0CD
:100330001D92A032B207E1F712E0C4E0D3E004C09E
:100340002297FE010E94B92DC43FD107C9F70E9430
:10035000A7160C9400310C9400000895CF93DF93FE
:10036000EC01FB014281538122E067E676E00E94C6
:100370008827CE01DF91CF9108950F931F93CF93DC
:10038000DF93CDB7DEB7CA55D1090FB6F894DEBFFB
:100390000FBECDBF8B01BC01CE0101960E94AE0104
:1003A000CE0101960E94C726882359F0B801CE01DC
:1003B00001960E948B198C01CE0101960E94422762
:1003C00002C000E010E0CE0101960E947527C8012E
:1003D000C65ADF4F0FB6F894DEBF0FBECDBFDF9118
:1003E000CF911F910F9108950F931F93CF93DF9398
:1003F000CDB7DEB7CA55D1090FB6F894DEBF0FBE30
:10040000CDBF162FBC01CE0101960E94AE01CE01D8
:1004100001960E94C726882359F0612FCE010196CC
:100420000E948D198C01CE0101960E94422702C0C4
:1004300000E010E0CE0101960E947527C801C65A5F
:10044000DF4F0FB6F894DEBF0FBECDBFDF91CF9167
:100450001F910F9108950F931F93CF93DF93CDB703
:10046000DEB7CA55D1090FB6F894DEBF0FBECDBFB7
:100470008B01BC01CE0101960E94AE01CE01019616
:100480000E94C726882399F0B801CE0101960E94E8
:100490008B198C016FE471E0CE0101960E948B19DB
:1004A000080F191FCE0101960E94422702C000E0EA
:1004B00010E0CE0101960E947527C801C65ADF4F91
:1004C0000FB6F894DEBF0FBECDBFDF91CF911F9165
:1004D0000F9108950F931F93CF93DF93CDB7DEB79E
:1004E000CA55D1090FB6F894DEBF0FBECDBF8B0140
:1004F000BC01CE0101960E94AE01CE0101960E9480
:10050000C726882399F0B801CE0101960E947D1973
:100510008C016FE471E0CE0101960E948B19080FE7
:10052000191FCE0101960E94422702C000E010E090
:10053000CE0101960E947527C801C65ADF4F0FB63B
:10054000F894DEBF0FBECDBFDF91CF911F910F9109
:100550000895AF92BF92CF92DF92EF92FF920F93E6
:100560001F93CF93DF93CDB7DEB762970FB6F894A2
:10057000DEBF0FBECDBF5C018B0161E571E00E9463
:100580009B1FFF24F394D801ED91FC910480F58129
:10059000E02DC8010995181619060CF0BBC042E2FF
:1005A000B801CE010D960E94611B60E671E0CE019C
:1005B0000D960E94D820882331F060E671E0C501D5
:1005C0000E94D11F02C0F11011C066E671E0CE0199
:1005D0000D960E94D820811159C0F12C6BE671E074
:1005E000CE010D960E94D82081116DC067E771E0A1
:1005F000CE010D960E94D820882311F0FF24F39499
:100600006FE771E0CE010D960E94D8208823C9F1D2
:1006100042E2B801CE0101960E94611BCE01019613
:100620000E942D1F42E2B801CE0101960E94611B7B
:10063000BE016F5F7F4FC5010E94B11FCE010196C1
:100640000E942D1F68E871E0CE0107960E949B1F53
:10065000B501CE0107960E949D20BC01CE010196F6
:100660000E94C81FBE016F5F7F4F81EF95E00E941F
:100670000B10CE0101960E942D1FCE0107960E94FD
:100680002D1FCE010D960E942D1F7DCFC8010E9407
:100690005E1B6B017C0169567E4FCE0101960E9464
:1006A0009B1FBE016F5F7F4F81EF95E00E94C310DB
:1006B000CE0101960E942D1FB6016A577C4FC501DD
:1006C0000E9448208ACF42E2B801CE0101960E94E2
:1006D000611BCE0101960E942D1F42E2B801CE019E
:1006E00007960E94611BBE01695F7F4FCE01019694
:1006F0000E94C81FBE016F5F7F4F81EF95E00E948F
:10070000C310CE0101960E942D1FCE0107960E94B4
:100710002D1F6CCFC50162960FB6F894DEBF0FBED9
:10072000CDBFDF91CF911F910F91FF90EF90DF90A0
:10073000CF90BF90AF900895CF93DF93EC0147E047
:1007400050E081EF95E00E94E50E61E571E0CE0199
:100750000E949B1FCE01DF91CF910895EF92FF92EF
:100760000F931F93CF93DF93CDB7DEB762970FB68A
:10077000F894DEBF0FBECDBF7C018B0161E571E057
:100780000E949B1FD801ED91FC910480F581E02D22
:10079000C8010995892B09F44FC042E2B801CE0186
:1007A0000D960E94611B64E771E0CE010D960E94D8
:1007B000D820811118C066EA71E0CE010D960E9422
:1007C000D820811110C06AEA71E0CE010D960E9416
:1007D000D820811108C06EEA71E0CE010D960E940A
:1007E000D820882321F14CE2B801CE0107960E945F
:1007F000611BBE01635F7F4FCE0101960E94C81F3F
:10080000BE01695F7F4FCE0101960E949D2064EA80
:1008100071E00E94B020BC01C7010E944120CE01BE
:1008200001960E942D1FCE0107960E942D1FCE011A
:100830000D960E942D1FA6CFC70162960FB6F894A1
:10084000DEBF0FBECDBFDF91CF911F910F91FF9003
:10085000EF900895CF92DF92EF92FF920F931F9344
:10086000CF93DF93CDB7DEB72C970FB6F894DEBFEA
:100870000FBECDBF7C016B0107E010E042E2B60184
:10088000CE0101960E94611BCE0101960E942D1F90
:100890000150110999F742E2B601CE0107960E9474
:1008A000611B62EB71E0CE0101960E949B1FBE01AD
:1008B000695F7F4FCE0101960E949D206AEB71E037
:1008C0000E94B020BC01C7010E94C81FCE01019642
:1008D0000E942D1FCE0107960E942D1FC7012C9646
:1008E0000FB6F894DEBF0FBECDBFDF91CF911F9141
:1008F0000F91FF90EF90DF90CF900895EF92FF92CD
:100900000F931F93CF93DF931F92CDB7DEB77C0178
:1009100006E011E0F80161918F01C70169830E942F
:10092000A3306981681719F0C7010E94AB30FFEF4F
:10093000EF1AFF0A81E00B33180761F786E091E0B8
:100940000F90DF91CF911F910F91FF90EF9008953D
:1009500086E995E00E942D1F80E995E00E942D1FF9
:100960008CE995E00C943029EF92FF920F931F933E
:10097000CF93DF9300D000D000D0CDB7DEB78C018D
:100980007B016E5F7F4FCE0101960E94C81FB701A9
:10099000685F7F4FCE0101960E949D2060EC71E060
:1009A0000E94B020BC01C8010E94C81FCE01019660
:1009B0000E942D1FC80126960FB6F894DEBF0FBE09
:1009C000CDBFDF91CF911F910F91FF90EF900895D0
:1009D000EF92FF920F931F93CF93DF93CDB7DEB7C4
:1009E0002C970FB6F894DEBF0FBECDBF8C017A01F5
:1009F000CE0107960E94B404BE01695F7F4FCE010D
:100A000001960E94C81FB701CE0101960E94CA201C
:100A100069EC71E00E94B020BC01C8010E94C81FAF
:100A2000CE0101960E942D1FCE0107960E942D1F18
:100A3000C8012C960FB6F894DEBF0FBECDBFDF9174
:100A4000CF911F910F91FF90EF900895EF92FF9239
:100A50000F931F93CF93DF93CDB7DEB72C970FB6CD
:100A6000F894DEBF0FBECDBF8C017A01CE01079690
:100A70000E94B404BE01695F7F4FCE0101960E94BF
:100A8000C81FB701CE0101960E94CA2068EB71E031
:100A90000E94B020BC01C8010E94C81FCE0101966F
:100AA0000E942D1FCE0107960E942D1FC8012C9673
:100AB0000FB6F894DEBF0FBECDBFDF91CF911F916F
:100AC0000F91FF90EF900895EF92FF920F931F9375
:100AD000CF93DF93CDB7DEB762970FB6F894DEBF42
:100AE0000FBECDBF8C01EE24E394F12CD801ED9123
:100AF000FC910480F581E02DC801099518161906AE
:100B00000CF056C042E2B801CE010D960E94611B66
:100B100066E671E0CE010D960E94D8208823A9F0E8
:100B2000C8010E945E1B7B0169567E4FCE01019673
:100B30000E949B1FBE016F5F7F4F81EF95E00E9477
:100B4000C310CE0101960E942D1F6BE671E0CE010D
:100B50000D960E94D820882331F142E2B801CE01DF
:100B600001960E94611BCE0101960E942D1F42E258
:100B7000B801CE0107960E94611BBE01695F7F4FDD
:100B8000CE0101960E94C81FBE016F5F7F4F81EFAB
:100B900095E00E94C310CE0101960E942D1FCE0148
:100BA00007960E942D1FCE010D960E942D1F9ECFED
:100BB000C70162960FB6F894DEBF0FBECDBFDF91BE
:100BC000CF911F910F91FF90EF9008958F929F9278
:100BD000AF92BF92CF92DF92EF92FF920F931F934B
:100BE000CF93DF93CDB7DEB76E970FB6F894DEBF25
:100BF0000FBECDBF5C017B016CED71E0CE0149966B
:100C00000E949B1FC12CD12C00E010E0D701ED9178
:100C1000FC910480F581E02DC7010995181619068D
:100C20000CF06AC042E2B701CE0143960E94611BFC
:100C30006BE7CE0143960E94702197FD02C00F5FC3
:100C40001F4F6DE7CE0143960E94702197FD02C0B1
:100C50000150110962EE71E0CE0101960E949B1FC6
:100C6000BE016F5F7F4FCE0143960E9490214C01E1
:100C7000CE0101960E942D1F97FC02C00150110960
:100C800061EE71E0CE0101960E949B1FBE016F5F75
:100C90007F4FCE0143960E9490214C01CE010196D8
:100CA0000E942D1F97FC02C00150110960E671E0FF
:100CB000CE0143960E94D820882369F0C7010E9484
:100CC00064054AE0BC01C5010E94E91FCE014396BC
:100CD0000E942D1F20C10130110581F5CE014396E0
:100CE0000E94D92116161706180619060CF094C092
:100CF000BFEFCB1ADB0A90C04AE0B601CE010796DF
:100D00000E94E91F65E072E0CE0101960E949B1FE0
:100D10004F81588569817A818CE596E00E94E423B1
:100D2000CE0101960E942D1FCE0107960E942D1F15
:100D300067E771E0C5010E949B1FEDC002301105FD
:100D400021F565EE71E0CE0143960E94D8208823FC
:100D500009F462C065EE71E0CE0149960E94D11F90
:100D600066E671E0CE0143960E94D820811159C0F9
:100D700063E871E0CE0143960E94D82081118EC0B5
:100D8000CE0143960E942D1F41CF0330110509F07B
:100D900043C065EE71E0CE0149960E94D8208823B9
:100DA00079F36BEE71E0CE0143960E94D820882340
:100DB00039F34AE3B701CE0101960E94611BCE01CF
:100DC00001960E942D1FD701ED91FC910680F781BD
:100DD000E02DC70109958437E1F066ED71E0CE01A1
:100DE00001960E949B1F4AE0B601CE010D960E941B
:100DF000E91F65EF71E0CE0107960E949B1FBE01BF
:100E0000635F7F4FCE0107960E949D206BEF71E0DC
:100E10006AC061ED71E0E3CF0230110509F0B0CF97
:100E20009FCF42E2B701CE0101960E94611BCE0125
:100E300001960E942D1F42E2B701CE0101960E9449
:100E4000611B4AE0B601CE010D960E94E91F65EFD5
:100E500071E0CE0107960E949B1FBE01635F7F4F2A
:100E6000CE0107960E949D2060E172E00E94B020B2
:100E700049815A81FC01608171818CE596E00E9474
:100E8000E423CE0107960E942D1FCE010D960E94ED
:100E90002D1FCE0101960E942D1F6ACF42E2B7019D
:100EA000CE0101960E94611BCE0101960E942D1F6A
:100EB00042E2B701CE0101960E94611B4AE0B601F1
:100EC000CE010D960E94E91F65EF71E0CE010796F5
:100ED0000E949B1FBE01635F7F4FCE0107960E9459
:100EE0009D2065E172E00E94B02049815A81DC01B9
:100EF0006D917C918CE596E00E94E423CE010796EB
:100F00000E942D1FCE010D960E942D1FCE0101962D
:100F10000E942D1F35CFCE0149960E942D1FC5017D
:100F20006E960FB6F894DEBF0FBECDBFDF91CF91A6
:100F30001F910F91FF90EF90DF90CF90BF90AF90F7
:100F40009F908F900895EF92FF920F931F93CF93EE
:100F5000DF9300D000D000D0CDB7DEB77C01CE014A
:100F600001960E94B40400E010E026EE35E0AE01E8
:100F70004F5F5F4F66EF75E0C7010E945612CE01CA
:100F800001960E942D1FC70126960FB6F894DEBF6A
:100F90000FBECDBFDF91CF911F910F91FF90EF90CA
:100FA00008958F929F92AF92BF92CF92DF92EF926D
:100FB000FF920F931F93CF93DF93CDB7DEB7629766
:100FC0000FB6F894DEBF0FBECDBF5C016B014A01C6
:100FD00082E0C80ED11C6AE172E0CE010D960E943B
:100FE0009B1FE12CF12C09EA12E09E01235F3F4F89
:100FF000A60166EF75E0CE0107960E94771460E6C1
:1010000071E0CE0101960E949B1FBE016F5F7F4F72
:10101000CE0107960E941B2181110BC061E571E092
:10102000CE0107960E94D82011E0811103C010E084
:1010300001C011E0CE0101960E942D1F112331F154
:101040008114910419F0F401099517C06BE372E063
:10105000CE0101960E949B1FBE016F5F7F4F81EF03
:1010600095E00E946710CE0101960E942D1F68E84E
:1010700073E180E090E00E94D729CE0107960E949C
:101080002D1FCE010D960E942D1FA5CFBE01695FB9
:101090007F4FC5010E94C81FCE0107960E942D1FD9
:1010A000CE010D960E942D1FC50162960FB6F894D1
:1010B000DEBF0FBECDBFDF91CF911F910F91FF908B
:1010C000EF90DF90CF90BF90AF909F908F9008955A
:1010D000CF92DF92EF92FF920F931F93CF93DF9304
:1010E000CDB7DEB762970FB6F894DEBF0FBECDBFA7
:1010F0007C018B016A0180910601181654F566E0A7
:1011000071E0CE0101960E949B1FBE016F5F7F4F71
:10111000C80108960E94B11FCE0101960E942D1FA2
:10112000B801CE0101960E94A30767E771E0CE01E6
:1011300001960E94D820882341F066E071E0C70143
:101140000E949B1FCE01019670C0CE0101960E94A5
:101150002D1F67E672E0CE0101960E949B1FBE0123
:101160006F5F7F4F81EF95E00E940B10CE010196DB
:101170000E942D1FA601B801CE010D960E94D10735
:1011800061E571E0CE010D960E94D820882319F008
:1011900061E571E045C06DE872E0CE0107960E94FE
:1011A0009B1FBE01635F7F4FCE0107960E949D206B
:1011B000BC01CE0101960E94C81FBE016F5F7F4F28
:1011C00081EF95E00E940B10CE0101960E942D1F29
:1011D000CE0107960E942D1F20E030E041E250E052
:1011E00066E071E0CE010D960E942A21F80180810F
:1011F00091810E947E04B801CE0101960E94A3074E
:1012000067E771E0CE0101960E94D820182FCE0129
:1012100001960E942D1F112309F4BACF66E071E0F8
:10122000C7010E949B1FCE010D960E942D1FC70172
:1012300062960FB6F894DEBF0FBECDBFDF91CF919F
:101240001F910F91FF90EF90DF90CF900895DF9264
:10125000EF92FF920F931F93CF93DF93CDB7DEB73B
:1012600062970FB6F894DEBF0FBECDBF8C017B0135
:10127000D42E6AEC72E0CE0101960E949B1FBE0143
:101280006F5F7F4F81EF95E00E94530FCE01019673
:101290000E942D1FA701B801CE010D960E94E804FF
:1012A000DD2019F063EA72E002C066EB72E0CE0165
:1012B00007960E949B1FE12CF12C0CE913E09E0184
:1012C000295F3F4FAE01435F5F4F66EF75E0CE0190
:1012D00001960E944213CE0101960E942D1FCE015D
:1012E00007960E942D1FCE010D960E942D1F62961B
:1012F0000FB6F894DEBF0FBECDBFDF91CF911F9127
:101300000F91FF90EF90DF900895EF92FF920F936F
:101310001F93CF93DF93CDB7DEB762970FB6F894E4
:10132000DEBF0FBECDBF8C017B0169ED72E0CE0147
:1013300001960E949B1FBE016F5F7F4F81EF95E07A
:101340000E94530FCE0101960E942D1FA701B801E4
:10135000CE010D960E94E80469EE72E0CE01079678
:101360000E949B1FE12CF12C0CE913E09E01295FE8
:101370003F4FAE01435F5F4F66EF75E0CE010196D0
:101380000E944213CE0101960E942D1FCE010796A6
:101390000E942D1FCE010D960E942D1F62960FB642
:1013A000F894DEBF0FBECDBFDF91CF911F910F919B
:1013B000FF90EF900895EF92FF920F931F93CF93BA
:1013C000DF93CDB7DEB72C970FB6F894DEBF0FBE14
:1013D000CDBF7C016AEF72E0CE0107960E949B1F91
:1013E00000E010E02AE234E0AE01495F5F4F66EFB3
:1013F00075E0C7010E9456126BE173E0CE010196C1
:101400000E949B1FF7014081518169817A818CE59F
:1014100096E00E94E423CE0101960E942D1FCE018A
:1014200007960E942D1FC7012C960FB6F894DEBFB9
:101430000FBECDBFDF91CF911F910F91FF90EF9025
:101440000895AF92BF92CF92DF92EF92FF920F93E7
:101450001F93CF93DF93CDB7DEB762970FB6F894A3
:10146000DEBF0FBECDBF8C016B01FC01A080B1803F
:1014700096E0E92E91E0F92EC501865091405C017D
:10148000C5018E0D9F1D0E94A330F70181937F013E
:10149000FBE3EF16F1E0FF0699F7809127019091A9
:1014A0002801892B29F0780182E0E80EF11C3FC069
:1014B00061E273E0CE0101960E949B1FBE016F5F47
:1014C0007F4F81EF95E00E946710CE0101960E9448
:1014D0002D1F81E090E0909328018093270183E005
:1014E00090E090932A018093290184E090E090930A
:1014F0002C0180932B01F801808191810E947E0450
:10150000D2CFB801CE0101960E94DB09BE016F5F08
:101510007F4FC7010E94B11FCE0101960E942D1F6F
:1015200061E571E0C7010E94D820811108C061E522
:1015300071E0C7010E94D8208111E3CF0DC0C11412
:10154000D10419F0F6010995F2CF68EE73E080E05E
:1015500090E00E94D729EBCF61E373E0CE010796BC
:101560000E949B1FB701CE0107960E949D20BC01DF
:10157000CE0101960E94C81FBE016F5F7F4F81EFB1
:1015800095E00E940B10CE0101960E942D1FCE0106
:1015900007960E942D1FA601B801CE010D960E944C
:1015A000680860E473E0CE0107960E949B1FBE01AD
:1015B000635F7F4FCE0107960E949D20BC01CE0144
:1015C00001960E94C81FBE016F5F7F4F81EF95E0BB
:1015D0000E940B10CE0101960E942D1FCE0107968E
:1015E0000E942D1F61E571E0CE010D960E94D8206A
:1015F000CE010D960E942D1F62960FB6F894DEBFA5
:101600000FBECDBFDF91CF911F910F91FF90EF9053
:10161000DF90CF90BF90AF900895EF92FF920F931D
:101620001F93CF93DF93CDB7DEB768970FB6F894CB
:10163000DEBF0FBECDBF7B01AB01BC01CE01439627
:101640000E94260500E010E02EEA33E0AE014D5E78
:101650005F4F66EF75E0CE010D960E9456126DE564
:1016600073E0CE0107960E949B1FBE01635F7F4F10
:10167000CE0107960E949D20BC01CE0101960E94DA
:10168000C81FBE016F5F7F4F81EF95E00E94AF0FD3
:10169000CE0101960E942D1FCE0107960E942D1F9C
:1016A0004AE0B701CE0107960E94E91F61E573E0A9
:1016B000CE0101960E949B1FBE01695F7F4FCE0144
:1016C00001960E949D2067E573E00E94B0204D8541
:1016D0005E85FC01608171818CE596E00E94E423C7
:1016E000CE0101960E942D1FCE0107960E942D1F4C
:1016F000CE010D960E942D1FCE0143960E942D1FF4
:1017000068960FB6F894DEBF0FBECDBFDF91CF91C4
:101710001F910F91FF90EF9008950F931F93CF9318
:10172000DF938C01C7E2D1E0699179911616170613
:1017300024F4C8010E940D0BF7CFDF91CF911F91C8
:101740000F910895CF92DF92EF92FF920F931F9324
:10175000CF93DF938C01EB01BA01CE010E9490215F
:101760007C01AC016CE2CE010E9454216C01A70106
:101770006AE3CE010E945421AC014F5F5F4F960196
:10178000BE01C8010E949421C801DF91CF911F9131
:101790000F91FF90EF90DF90CF900895AF92BF929E
:1017A000CF92DF92EF92FF920F931F93CF93DF932D
:1017B000CDB7DEB762970FB6F894DEBF0FBECDBFD0
:1017C0006A015901AB01BC01CE010D960E94E804EB
:1017D0006DE673E0CE0101960E949B1FB601CE011B
:1017E00001960E949D2065E773E00E94B020B5013C
:1017F0000E949D206FE773E00E94B020B8010E9414
:101800009D2069E873E00E94B020B7010E949D20EE
:1018100068EF72E00E94B020BC01CE0107960E94E2
:10182000C81FCE0101960E942D1FE12CF12C0CE95E
:1018300013E09E01295F3F4FAE01435F5F4F66EFAC
:1018400075E0CE0101960E944213CE0101960E94DE
:101850002D1FCE0107960E942D1FCE010D960E94CE
:101860002D1F62960FB6F894DEBF0FBECDBFDF917D
:10187000CF911F910F91FF90EF90DF90CF90BF908D
:10188000AF900895AF92BF92CF92DF92EF92FF9206
:101890000F931F93CF93DF93CDB7DEB7C355D10915
:1018A0000FB6F894DEBF0FBECDBF5C016B014AE0FE
:1018B000CE0184960E94E91F61E573E0CE01019696
:1018C0000E949B1FBE016C5D7F4FCE0101960E945E
:1018D0009D2067E573E00E94B020BC01CE01825BD1
:1018E0009F4F0E94C81FCE0101960E942D1FCE015E
:1018F00084960E942D1F60966EAD7FAD609723E2A7
:1019000030E0AE014F5F5F4F8CE596E00E944124CE
:10191000BE016F5F7F4FCE01885B9F4F0E949B1F70
:1019200063E973E0CE018A960E949B1FBE01685B4B
:101930007F4FCE018A960E949D20BC01CE018496E5
:101940000E94C81FBE016C5D7F4F81EF95E00E9431
:10195000AF0FCE0184960E942D1FCE018A960E9461
:101960002D1F64E771E0CE0184960E949B1FBE018B
:10197000685B7F4FCE018A960E94C81FAE014C5D06
:101980005F4FBE01665D7F4FCE018E5B9F4F0E9411
:10199000A20BCE018A960E942D1FCE0184960E9432
:1019A0002D1F66EA71E0CE0184960E949B1FBE0146
:1019B000685B7F4FCE018A960E94C81FAE014C5DC6
:1019C0005F4FBE01665D7F4FCE01CC960E94A20B99
:1019D000CE018A960E942D1FCE0184960E942D1F53
:1019E0006EEA71E0CE0184960E949B1FBE01685B87
:1019F0007F4FCE018A960E94C81FAE014C5D5F4F9B
:101A0000BE01665D7F4FCE01C6960E94A20BCE013D
:101A10008A960E942D1FCE0184960E942D1F6AEA8D
:101A200071E0CE0184960E949B1FBE01685B7F4FD0
:101A3000CE018A960E94C81FAE014C5D5F4FBE0169
:101A4000665D7F4FCE01C0960E94A20BCE018A96A2
:101A50000E942D1FCE0184960E942D1FCE01C0969C
:101A60007C018E010A5C1F4F9E01245C3F4FAE013A
:101A70004E5B5F4FB601C5010E94CE0BC7010E94AD
:101A80002D1FC8010E942D1FCE01CC960E942D1F34
:101A9000CE018E5B9F4F0E942D1FCE01885B9F4F12
:101AA0000E942D1FCE01825B9F4F0E942D1FCD5A99
:101AB000DF4F0FB6F894DEBF0FBECDBFDF91CF91E1
:101AC0001F910F91FF90EF90DF90CF90BF90AF905C
:101AD00008950F931F93CF93DF938C01C7E2D1E05A
:101AE000699179911616170624F4C8010E94420CD8
:101AF000F7CFDF91CF911F910F9108958F929F9211
:101B0000AF92BF92CF92DF92EF92FF920F931F930B
:101B1000CF93DF93CDB7DEB768970FB6F894DEBFEB
:101B20000FBECDBF6C015B014901442319F061ED8B
:101B300071E002C066ED71E0CE0143960E949B1FEA
:101B40004AE0B401CE010D960E94E91F4AE0B801B7
:101B5000CE0107960E94E91F4AE0B701CE01019627
:101B60000E94E91FCE0101967C018E01095F1F4F83
:101B70009E01235F3F4FAE014D5E5F4FB501C60131
:101B80000E94CE0BC7010E942D1FC8010E942D1F6D
:101B9000CE010D960E942D1FCE0143960E942D1F4F
:101BA00068960FB6F894DEBF0FBECDBFDF91CF9120
:101BB0001F910F91FF90EF90DF90CF90BF90AF906B
:101BC0009F908F9008955F926F927F928F929F92D5
:101BD000AF92BF92CF92DF92EF92FF920F931F933B
:101BE000CF93DF936C01562E5A0149013801C7E2A9
:101BF000D1E0699179911616170644F473018401B6
:101C00009501452DC6010E947E0DF3CFDF91CF9146
:101C10001F910F91FF90EF90DF90CF90BF90AF900A
:101C20009F908F907F906F905F900895DF92EF92DA
:101C3000FF920F931F93CF93DF93EC018B01DD2471
:101C4000D3946115710509F0D12C27E2E22E21E031
:101C5000F22EF701619171917F01161617062CF48F
:101C60004D2DCE010E942709F4CFD1100FC0F801ED
:101C7000099507E211E0F801619171918F01161643
:101C8000170624F4CE010E948509F5CFDF91CF918C
:101C90001F910F91FF90EF90DF90089510929F0594
:101CA00010929E0588EE93E0A0E0B0E08093A0053E
:101CB0009093A105A093A205B093A30583E795E0B7
:101CC00090939D0580939C058CE596E09093A905E3
:101CD0008093A8051092AE051092AF051092B00542
:101CE00010928F0510928E0561E571E080E995E014
:101CF0000E949B1F61E571E086E995E00C949B1FB3
:101D00000C94A8043F924F925F926F927F928F92B1
:101D10009F92AF92BF92CF92DF92EF92FF920F937A
:101D20001F93CF93DF93EC018B01342E290161E0E7
:101D3000842F0E94292BCE01B2010E94812D5B01CC
:101D40006801E12CF12CC0E0D0E088249924801AAD
:101D5000910A662457FC6094762CAE14BF04DCF024
:101D6000BE01832D0E94552ACC0DDD1D1C161D06BB
:101D70003CF4CF3FD1053CF06401CFEFD0E003C08D
:101D80006801C0E0D0E0C301B2010E94D7298FEF03
:101D9000E81AF80AE2CF60E070E0832DDF91CF917E
:101DA0001F910F91FF90EF90DF90CF90BF90AF9079
:101DB0009F908F907F906F905F904F903F900C948A
:101DC000552AFC017283618308950F931F93CF936B
:101DD000DF938C01EB01DC0113968D919C9114979C
:101DE000892B09F45BC011968D919C9112978417F1
:101DF00095070CF448C083E096E00E94A917882359
:101E000009F441C0F80183819481DC01ED91FC91DA
:101E10000190F081E02D6CEA73E00995E881F98189
:101E20000480F581E02DCE010995892BA1F0E88190
:101E3000F9810680F781E02DCE010995F801A38193
:101E4000B481ED91FC9111970280F381E02D682F10
:101E5000CD010995E3CFD80113968D919C911497EC
:101E6000DC01ED91FC910480F581E02D61E571E0EC
:101E70000995F80183819481DC01ED91FC91008446
:101E8000F185E02D06C0E881F9810284F385E02D1B
:101E9000CE01DF91CF911F910F910994DF91CF91E6
:101EA0001F910F910895CF92DF92EF92FF920F93BF
:101EB0001F93CF93DF9300D000D000D0CDB7DEB713
:101EC0008C016B01DC0113968D919C911497892BE9
:101ED000B9F111968D919C91129706978CF183E040
:101EE00096E00E94A917882359F1D8011396ED9125
:101EF000FC9114970190F081E02DE680F78063EB70
:101F000073E0CE0101960E949B1FB601CE0101969F
:101F10000E949D20BC01F80183819481F7010995FD
:101F2000CE0101960E942D1FD80113968D919C9190
:101F30001497DC01ED91FC910084F185E02D099569
:101F400026960FB6F894DEBF0FBECDBFDF91CF91BE
:101F50001F910F91FF90EF90DF90CF900895CF9257
:101F6000DF92EF92FF920F931F93CF93DF9300D0F6
:101F700000D000D0CDB7DEB78C016B01DC01139629
:101F80008D919C911497892BB9F111968D919C910B
:101F9000129705978CF183E096E00E94A917882399
:101FA00059F1D8011396ED91FC9114970190F081AD
:101FB000E02DE680F7806AEB73E0CE0101960E9487
:101FC0009B1FB601CE0101960E949D20BC01F80125
:101FD00083819481F7010995CE0101960E942D1FFE
:101FE000D80113968D919C911497DC01ED91FC9191
:101FF0000084F185E02D099526960FB6F894DEBF92
:102000000FBECDBFDF91CF911F910F91FF90EF9049
:10201000DF90CF900895CF92DF92EF92FF920F93CF
:102020001F93CF93DF9300D000D000D0CDB7DEB7A1
:102030008C016B01DC0113968D919C911497892B77
:10204000B9F111968D919C91129704978CF183E0D0
:1020500096E00E94A917882359F1D8011396ED91B3
:10206000FC9114970190F081E02DE680F78061ECFF
:1020700073E0CE0101960E949B1FB601CE0101962E
:102080000E949D20BC01F80183819481F70109958C
:10209000CE0101960E942D1FD80113968D919C911F
:1020A0001497DC01ED91FC910084F185E02D0995F8
:1020B00026960FB6F894DEBF0FBECDBFDF91CF914D
:1020C0001F910F91FF90EF90DF90CF900895CF92E6
:1020D000DF92EF92FF920F931F93CF93DF9300D085
:1020E00000D000D0CDB7DEB78C016B01DC011396B8
:1020F0008D919C911497892BB9F111968D919C919A
:10210000129703978CF183E096E00E94A917882329
:1021100059F1D8011396ED91FC9114970190F0813B
:10212000E02DE680F78068EC73E0CE0101960E9416
:102130009B1FB601CE0101960E949D20BC01F801B3
:1021400083819481F7010995CE0101960E942D1F8C
:10215000D80113968D919C911497DC01ED91FC911F
:102160000084F185E02D099526960FB6F894DEBF20
:102170000FBECDBFDF91CF911F910F91FF90EF90D8
:10218000DF90CF900895CF92DF92EF92FF920F935E
:102190001F93CF93DF9300D000D000D0CDB7DEB730
:1021A0008C016B01DC0113968D919C911497892B06
:1021B000B9F111968D919C91129702978CF183E061
:1021C00096E00E94A917882359F1D8011396ED9142
:1021D000FC9114970190F081E02DE680F7806FEC80
:1021E00073E0CE0101960E949B1FB601CE010196BD
:1021F0000E949D20BC01F80183819481F70109951B
:10220000CE0101960E942D1FD80113968D919C91AD
:102210001497DC01ED91FC910084F185E02D099586
:1022200026960FB6F894DEBF0FBECDBFDF91CF91DB
:102230001F910F91FF90EF90DF90CF900895FC01D8
:1022400074836383089581E08093F10584E090E0D6
:102250009093F3058093F2050895CF93DF9300D018
:10226000CDB7DEB783E096E069837A830E94A91731
:1022700069817A81882341F083E096E00F900F9086
:10228000DF91CF910C948B1980E090E00F900F902C
:10229000DF91CF910895CF93DF931F92CDB7DEB733
:1022A00083E096E069830E94A9176981882339F049
:1022B00083E096E00F90DF91CF910C948D1980E030
:1022C00090E00F90DF91CF910895CF93DF9300D0EE
:1022D000CDB7DEB783E096E069837A830E94A917C1
:1022E00069817A81882341F083E096E00F900F9016
:1022F000DF91CF910C94AA1980E090E00F900F909D
:10230000DF91CF910895CF93DF9300D0CDB7DEB7A3
:1023100083E096E069837A830E94A91769817A81B4
:10232000882341F083E096E00F900F90DF91CF91EA
:102330000C94981980E090E00F900F90DF91CF916E
:102340000895CF93C42F23EE33E0FC013183208323
:10235000AB01662757FD6095762F83E096E00E94DB
:10236000A317CC2369F083E096E00E94A91781119E
:1023700007C064E670E080E090E00E94D729F3CFC8
:10238000CF91089583E096E00E94A917882321F059
:1023900083E096E00C940D1708950F931F93CF934D
:1023A000DF93EC018B018A819B81DC01ED91FC9133
:1023B0000190F081E02D09958C819D81DC01ED91EA
:1023C000FC910190F081E02DB801DF91CF911F9138
:1023D0000F9109941F93CF93DF93EC01162F8A81FD
:1023E0009B81DC01ED91FC910280F381E02D099548
:1023F0008C819D81DC01ED91FC910280F381E02DC7
:10240000612FDF91CF911F9109940F931F93CF9369
:10241000DF93EC018B018A819B81DC01ED91FC91C2
:102420000480F581E02D09958C819D81DC01ED9181
:10243000FC910480F581E02DB801DF91CF911F91CF
:102440000F9109940F931F93CF93DF93EC018B01AE
:102450008A819B81DC01ED91FC910680F781E02D62
:1024600009958C819D81DC01ED91FC910680F781BD
:10247000E02DB801DF91CF911F910F910994CF9377
:10248000DF93EC018A819B81DC01ED91FC9100845A
:10249000F185E02D09958C819D81DC01ED91FC9108
:1024A0000084F185E02DDF91CF910994AF92BF9226
:1024B000CF92DF92EF92FF920F931F93CF93DF9310
:1024C000CDB7DEB7CB55D1090FB6F894DEBF0FBE3E
:1024D000CDBF7C016A0159016BEF73E0CE018A5ACE
:1024E0009F4F0E949B1FB601CE018A5A9F4F0E94A8
:1024F0009D20BC01CE0101960E94C81FBE016F5FE6
:102500007F4F81EF95E00E94530FCE0101960E940C
:102510002D1FCE018A5A9F4F0E942D1F1C821B82A5
:1025200088EE93E0A0E0B0E08D839E83AF83B88710
:1025300083E795E09A8389838CE596E09E878D8773
:102540001B8A1C8A1D8A6CE074E0CE018A5A9F4F58
:102550000E949B1FBE016A5A7F4FCE0101960E94C6
:102560003729CE018A5A9F4F0E942D1F61E174E0E6
:10257000CE018A5A9F4F0E949B1FBE016A5A7F4F0D
:10258000CE0101960E942728CE018A5A9F4F0E94B1
:102590002D1F64E174E0CE018A5A9F4F0E949B1F59
:1025A000BE016A5A7F4FCE0101960E942728CE01B4
:1025B0008A5A9F4F0E942D1FB601CE0101960E949C
:1025C0002728CE0101960E94F0286C0118161906E2
:1025D0003CF567E174E083E096E00E948B194AE0E5
:1025E00050E0B60183E096E00E945F1A83E096E037
:1025F0000E940D170115110529F0B601CE010196B3
:10260000F8010995CE0101960E949C27CE01019602
:102610000E94062961E571E0C7010E949B1F1BC053
:10262000BE016F5F7F4FCE018A5A9F4FF50109951A
:10263000CE0101960E949C27CE0101960E94062998
:10264000BE016A5A7F4FC7010E94C81FCE018A5A35
:102650009F4F0E942D1FCE0101960E943029C70175
:10266000C55ADF4F0FB6F894DEBF0FBECDBFDF9166
:10267000CF911F910F91FF90EF90DF90CF90BF907F
:10268000AF9008958F929F92AF92BF92CF92DF92B8
:10269000EF92FF920F931F93CF93DF93CDB7DEB7E7
:1026A000CB55D1090FB6F894DEBF0FBECDBF6C017C
:1026B0005A01490164E274E0CE018A5A9F4F0E9498
:1026C0009B1FB501CE018A5A9F4F0E949D2065E352
:1026D00074E00E94B020B4010E949D20BC01CE0194
:1026E00001960E94C81FBE016F5F7F4F81EF95E08A
:1026F0000E94530FCE0101960E942D1FCE018A5ACF
:102700009F4F0E942D1F1C821B8288EE93E0A0E049
:10271000B0E08D839E83AF83B88783E795E09A838B
:1027200089838CE596E09E878D871B8A1C8A1D8A8B
:102730006CE074E0CE018A5A9F4F0E949B1FBE013D
:102740006A5A7F4FCE0101960E943729CE018A5ADC
:102750009F4F0E942D1F63E474E0CE018A5A9F4F61
:102760000E949B1FBE016A5A7F4FCE0101960E94B4
:102770002728CE018A5A9F4F0E942D1F66E474E0DD
:10278000CE018A5A9F4F0E949B1FBE016A5A7F4FFB
:10279000CE0101960E942728CE018A5A9F4F0E949F
:1027A0002D1F67E674E0CE018A5A9F4F0E949B1F3F
:1027B000BE016A5A7F4FCE0101960E942728CE01A2
:1027C0008A5A9F4F0E942D1F6AE674E0CE018A5AF2
:1027D0009F4F0E949B1FBE016A5A7F4FCE010196F8
:1027E0000E942728CE018A5A9F4F0E942D1F6EE615
:1027F00074E0CE018A5A9F4F0E949B1FBE016A5A05
:102800007F4FCE0101960E942728CE018A5A9F4F02
:102810000E942D1FB401CE0101960E942728B50108
:10282000CE0101960E942728CE0101960E94F02831
:102830005C01181619063CF567E174E083E096E048
:102840000E948B194AE050E0B50183E096E00E94B7
:102850005F1A83E096E00E940D17E114F10429F05D
:10286000B501CE010196F7010995CE0101960E94AE
:102870009C27CE0101960E94062961E571E0C60100
:102880000E949B1F1BC0BE016F5F7F4FCE018A5A03
:102890009F4FF8010995CE0101960E949C27CE0119
:1028A00001960E940629BE016A5A7F4FC6010E9406
:1028B000C81FCE018A5A9F4F0E942D1FCE0101963C
:1028C0000E943029C601C55ADF4F0FB6F894DEBF0B
:1028D0000FBECDBFDF91CF911F910F91FF90EF9071
:1028E000DF90CF90BF90AF909F908F9008958F9280
:1028F0009F92AF92BF92CF92DF92EF92FF920F938F
:102900001F93CF93DF93CDB7DEB7CB55D1090FB669
:10291000F894DEBF0FBECDBF6C015A01490161E7DB
:1029200074E0CE018A5A9F4F0E949B1FB501CE01D1
:102930008A5A9F4F0E949D2065E374E00E94B02058
:10294000B4010E949D20BC01CE0101960E94C81FC7
:10295000BE016F5F7F4F81EF95E00E94530FCE0164
:1029600001960E942D1FCE018A5A9F4F0E942D1F53
:102970001C821B8288EE93E0A0E0B0E08D839E83F2
:10298000AF83B88783E795E09A8389838CE596E0E7
:102990009E878D871B8A1C8A1D8A6CE074E0CE019D
:1029A0008A5A9F4F0E949B1FBE016A5A7F4FCE01D9
:1029B00001960E943729CE018A5A9F4F0E942D1FEF
:1029C00063E474E0CE018A5A9F4F0E949B1FBE01B0
:1029D0006A5A7F4FCE0101960E942728CE018A5A5B
:1029E0009F4F0E942D1F66E474E0CE018A5A9F4FCC
:1029F0000E949B1FBE016A5A7F4FCE0101960E9422
:102A00002728CE018A5A9F4F0E942D1F67E674E047
:102A1000CE018A5A9F4F0E949B1FBE016A5A7F4F68
:102A2000CE0101960E942728CE018A5A9F4F0E940C
:102A30002D1F63E874E0CE018A5A9F4F0E949B1FAE
:102A4000BE016A5A7F4FCE0101960E942728CE010F
:102A50008A5A9F4F0E942D1F6EE674E0CE018A5A5B
:102A60009F4F0E949B1FBE016A5A7F4FCE01019665
:102A70000E942728CE018A5A9F4F0E942D1FB40121
:102A8000CE0101960E942728B501CE0101960E9431
:102A90002728CE0101960E94F0285C01181619061D
:102AA0003CF567E174E083E096E00E948B194AE010
:102AB00050E0B50183E096E00E945F1A83E096E063
:102AC0000E940D17E114F10429F0B501CE01019621
:102AD000F7010995CE0101960E949C27CE0101962F
:102AE0000E94062961E571E0C6010E949B1F1BC080
:102AF000BE016F5F7F4FCE018A5A9F4FF801099543
:102B0000CE0101960E949C27CE0101960E940629C3
:102B1000BE016A5A7F4FC6010E94C81FCE018A5A61
:102B20009F4F0E942D1FCE0101960E943029C601A1
:102B3000C55ADF4F0FB6F894DEBF0FBECDBFDF9191
:102B4000CF911F910F91FF90EF90DF90CF90BF90AA
:102B5000AF909F908F90089524E130E04DE050E0D9
:102B60006AE070E080E197E20C94820E24E130E0AC
:102B70004DE050E06AE070E080E197E20C94820E54
:102B80000895CF93DF9300D000D000D0CDB7DEB74B
:102B900068E874E0CE0101960E949B1FBE016F5F42
:102BA0007F4F81EF95E00E940B10CE0101960E94AD
:102BB0002D1F6CEA75E18EE895E00E94210A61E91B
:102BC00074E0CE0101960E949B1FBE016F5F7F4F94
:102BD00081EF95E00E940B10CE0101960E942D1FFF
:102BE00066EB75E18EE895E00E94160E26960FB60C
:102BF000F894DEBF0FBECDBFDF91CF910895CF9384
:102C0000DF9300D000D000D0CDB7DEB726E040E99A
:102C100050ED63E070E080916506909166060E9439
:102C2000B8188CE596E00E94882467EF75E081EF84
:102C300095E00E941F1165E070E081EF95E00E9431
:102C4000E10E67EA74E0CE0101960E949B1FBE016F
:102C50006F5F7F4F81EF95E00E940B10CE010196D0
:102C60000E942D1F0E94C11526960FB6F894DEBF54
:102C70000FBECDBFDF91CF9108950F931F93CF93D8
:102C8000DF9300D000D000D0CDB7DEB76FEA74E09C
:102C9000CE0101960E949B1FBE016F5F7F4F81EFA7
:102CA00095E00E940B10CE0101960E942D1F64EC4E
:102CB00074E0CE0101960E949B1FBE016F5F7F4FA3
:102CC00081EF95E00E940B10CE0101960E942D1F0E
:102CD00024E130E04DE050E065E070E080E197E213
:102CE0000E94820E68ED74E0CE0101960E949B1F47
:102CF000BE016F5F7F4F81EF95E00E940B10CE0108
:102D000001960E942D1F8EE895E00E948D0B0EEF1C
:102D100010E020E030E04EEF50E061E08EE895E01A
:102D20000E94E30D60E177E280E090E00E94D72905
:102D30008EE895E00E94690D26960FB6F894DEBFE6
:102D40000FBECDBFDF91CF911F910F9108950E94CB
:102D5000FF290E94C01583E596E00E940F1F0E9484
:102D6000FF15C2E0D8E10E943D162097E1F30E94D2
:102D70000218F9CFCF93DF9340E060E875E281E07D
:102D800096E00E94A111CDEFD5E086E591E0998310
:102D9000888386EE94E0909300068093FF0587E693
:102DA00096E00E94862781EF93E09093F805809348
:102DB000F705D093FA05C093F90581E096E090936A
:102DC000FC058093FB05DF91CF910895CF93DF93AE
:102DD0001F92CDB7DEB76983DC01ED91FC910280D3
:102DE000F381E02D41E050E0BE016F5F7F4F099518
:102DF0000F90DF91CF910895CF93DF93EC018C85F5
:102E00009D8597FF05C082E00E945A1C9D878C8794
:102E10008C859D85DF91CF91089583E00C94AF1E42
:102E2000FC018485958597FD06C082E00E94021C06
:102E300090E00196089582E00E94021C90E00895BF
:102E4000FC018485958597FD05C02FEF3FEF358701
:102E50002487089582E00C945A1CCF93DF93EC01F1
:102E600080914201882331F083E00E948B1C181668
:102E7000190634F081E090E09B838A8380E090E043
:102E8000DF91CF910895FC0120812E5F208342E4E1
:102E900050E068EE70E080E80C94261DFC01818112
:102EA0009081913A59F4813209F03CC047E050E0FA
:102EB0006BE371E080E00E94261D43C0913291F5E2
:102EC000803239F467E070E08BE391E00E94571D97
:102ED00006C0823209F035C0828180934201809120
:102EE0003B0190913C01A0913D01B0913E01803B9E
:102EF0009440A105B105C1F48091420180FD14C048
:102F000087E797E790930108809300082BE088E11A
:102F100090E00FB6F894A895809360000FBE2093C0
:102F200060000FC080E0089588E10FB6F8948093A8
:102F30006000109260000FBEA895109201081092D8
:102F4000000881E008952FEF3FEFFC0135872487CB
:102F50000895CF93C09142016AE070E080E090E074
:102F60000E94D72981E0C11101C080E0CF9108956E
:102F7000109206061092050688EE93E0A0E0B0E0FD
:102F80008093070690930806A0930906B0930A065B
:102F90008FEF94E090930406809303068FEF9FEFEA
:102FA0009093100680930F060895FC01818D228D69
:102FB00090E0805C9F4F821B91098F739927089541
:102FC000FC01918D828D981731F0828DE80FF11DF3
:102FD000858D90E008958FEF9FEF0895FC01918D0E
:102FE000828D981761F0828DDF01A80FB11D5D966B
:102FF0008C91928D9F5F9F73928F90E008958FEFD9
:103000009FEF089583E39DE2892B49F080E090E0F3
:10301000892B29F00E94332D81110C940000089512
:10302000FC01848DDF01A80FB11DA35ABF4F2C9165
:10303000848D90E001968F739927848FA689B78934
:103040002C93A089B1898C9180648C93938D848D0D
:10305000981306C00288F389E02D80818F7D8083DC
:103060000895CF93DF93EC01888D8823C9F0EA8916
:10307000FB89808185FD05C0A889B9898C9186FD71
:103080000FC00FB607FCF5CF808185FFF2CFA8896E
:10309000B9898C9185FFEDCFCE010E941018E7CF42
:1030A000DF91CF910895CF92DF92FF920F931F93FC
:1030B000CF93DF931F92CDB7DEB76C0181E0D601CD
:1030C00058968C9358975B969C915B975C968C91E5
:1030D0005C97981307C05096ED91FC9151978081B1
:1030E00085FD2EC0F601038D10E00F5F1F4F0F739B
:1030F0001127F02EF601848DF81211C00FB607FCCF
:10310000F9CFD6015096ED91FC915197808185FFC2
:10311000F1CFC60169830E9410186981EBCF838DBE
:10312000E80FF11DE35AFF4F6083D6015B960C93C5
:103130005B975296ED91FC915397808180620CC011
:10314000D6015696ED91FC91579760835096ED917C
:10315000FC91519780818064808381E090E00F90A2
:10316000DF91CF911F910F91FF90DF90CF90089545
:10317000BF92CF92DF92EF92FF92CF93DF93EC0159
:103180006A017B01B22EE889F98982E080834115CA
:1031900081EE580761057105A1F060E079E08DE3EB
:1031A00090E0A70196010E94952D21503109410917
:1031B00051095695479537952795211580E1380790
:1031C00098F0E889F989108260E874E88EE190E06F
:1031D000A70196010E94952D2150310941095109FD
:1031E0005695479537952795EC85FD853083EE8577
:1031F000FF852083188EEC89FD89B082EA89FB89DE
:10320000808180618083EA89FB89808188608083F6
:10321000EA89FB89808180688083EA89FB898081D3
:103220008F7D8083DF91CF91FF90EF90DF90CF90E3
:10323000BF900895CF92DF92EF92FF920F931F936A
:10324000CF93DF936C017A01EB01E60EF71E00E0ED
:1032500010E0CE15DF0561F06991D601ED91FC918A
:103260000190F081E02DC6010995080F191FF1CFDB
:10327000C801DF91CF911F910F91FF90EF90DF90E8
:10328000CF9008956115710581F0DB010D9000204C
:10329000E9F7AD0141505109461B570BDC01ED9197
:1032A000FC910280F381E02D099480E090E0089584
:1032B000EF92FF920F931F93CF93DF938C01FB014B
:1032C000C0E0D0E064917F018FEFE81AF80A66232E
:1032D00061F0D801ED91FC910190F081E02DC801E1
:1032E0000995C80FD91FF701EDCFCE01DF91CF911E
:1032F0001F910F91FF90EF900895DC01ED91FC91EB
:10330000DB0114964D915C9115976D917C91028033
:10331000F381E02D09940C944219DC01ED91FC91AC
:103320000190F081E02D09946FE471E00C94421952
:103330000F931F93CF93DF93EC010E947D198C01B3
:10334000CE010E949419800F911FDF91CF911F91A0
:103350000F9108950F931F93CF93DF93EC010E9479
:1033600042198C01CE010E949419800F911FDF91A8
:10337000CF911F910F9108958F929F92AF92BF921C
:10338000CF92DF92EF92FF920F931F93CF93DF9331
:10339000CDB7DEB7A1970FB6F894DEBF0FBECDBF95
:1033A0007C01C42EE52FCB01D22E19A221E02D15D0
:1033B00010F02AE0D22E8E010F5D1F4F8D2C912C24
:1033C000A12CB12C6C2D7E2FA50194010E94952D6E
:1033D0008C2DD29E80191124015011098A3014F4C9
:1033E000805D01C0895CF8018083211531054105AC
:1033F000510521F0C22EE32FCA01E4CFB801C70165
:103400000E944219A1960FB6F894DEBF0FBECDBF41
:10341000DF91CF911F910F91FF90EF90DF90CF90B0
:10342000BF90AF909F908F900895CF92DF92EF92D0
:10343000FF920F931F93CF93DF93EC016A017B01FF
:103440002115310579F4E881F9810190F081E02DB1
:10345000642FDF91CF911F910F91FF90EF90DF903C
:10346000CF9009942A303105E9F477FF1AC06DE254
:103470000E948D198C0144275527BA014C195D090A
:103480006E097F092AE0CE010E94BC19800F911FAE
:10349000DF91CF911F910F91FF90EF90DF90CF9030
:1034A00008952AE0B701A601CE01DF91CF911F91C7
:1034B0000F91FF90EF90DF90CF900C94BC190F9379
:1034C0001F93CF93DF93EC019A01AB01662757FD61
:1034D0006095762F0E94151A8C01CE010E949419D6
:1034E000800F911FDF91CF911F910F9108950F933E
:1034F0001F93CF93DF93EC010E94A82968877987F7
:103500008A879B87E881F9810680F781E02DCE01CB
:10351000099597FF15C00E94A829088519852A8555
:103520003B85601B710B820B930B0C811D812E81DF
:103530003F81601771078207930720F38FEF9FEF9A
:10354000DF91CF911F910F9108950F931F93CF9308
:10355000DF93EC010E94A829688779878A879B8777
:10356000E881F9810084F185E02DCE01099597FF6E
:1035700015C00E94A829088519852A853B85601BEE
:10358000710B820B930B0C811D812E813F81601783
:1035900071078207930720F38FEF9FEFDF91CF91A1
:1035A0001F910F910895CF93DF93EC01CE010E94FC
:1035B000A51A97FD11C08D32910571F09C01205321
:1035C00031092A30310540F0E881F9810680F78120
:1035D000E02DCE010995EACFDF91CF910895CF92EA
:1035E000DF92FF920F931F93CF93DF9300D000D011
:1035F000CDB7DEB76C01062F0E94D31AFC0197FDF0
:103600004BC020E030E0A901F12C112707FD1095F7
:10361000E017F107E9F0ED32F105C1F0CF01C097F5
:103620000A97B0F4AAE0B0E00E94BD2D9B01AC0166
:10363000CF01AA2797FDA095BA2F280F391F4A1F3F
:103640005B1F205331094109510902C0FF24F39443
:10365000D601ED91FC910680F781E02DC60129830A
:103660003A834B835C830995C6010E94A51AFC012D
:10367000C09729813A814B815C810A9748F2E01713
:10368000F10731F2FF2061F066277727CB01621B3B
:10369000730B840B950B06C060E070E0CB0102C099
:1036A000CA01B9010F900F900F900F90DF91CF9149
:1036B0001F910F91FF90DF90CF90089561E00C94DF
:1036C000EF1AEF92FF920F931F93CF93DF93EC01CA
:1036D0008B01E42E61E571E00E949B1FC8010E94EE
:1036E000771AFF24E7FCF09497FD0BC08E159F0519
:1036F00041F0682FCE010E945820C8010E94771A1D
:10370000F3CFCE01DF91CF911F910F91FF90EF90FA
:1037100008954091570650915806209155063091D2
:10372000560642175307B4F49091E8009570E1F300
:103730009091E80092FD19C08093F10080915706A6
:103740009091580601968F739927892B19F48EEF63
:103750008093E800809157069091580601969093C7
:1037600058068093570681E0089580E00895CF922F
:10377000DF92FF920F931F93CF93DF931F92CDB7EA
:10378000DEB7082F162F862F880F8E5F99830E9431
:10379000891B83E00E94891BF02EC02E9981D92EAF
:1037A0008C2D8F19811778F4F60184910E94891B62
:1037B000082F80E00E94891B8023FFEFCF1ADF0AC9
:1037C0008111EECF01C081E00F90DF91CF911F9169
:1037D0000F91FF90DF90CF900895615030F02091CD
:1037E000F100FC0120830196F8CF289884E68093AD
:1037F0005A0608952FB7FC012083F89467706093F0
:10380000E9000895CF93DF931F92CDB7DEB7682FFD
:10381000CE0101960E94FA1B8091F20099819FBF10
:103820000F90DF91CF910895FF920F931F93CF9345
:10383000DF9300D0CDB7DEB7F62E8A0190915906FE
:10384000992311F057FF03C08FEF9FEF2BC0682F14
:10385000CE0101967A830E94FA1B8091F20090E0DB
:10386000A8017A81801791070CF4AC01EF2DF72F96
:10387000F40E84E6FE1639F0289880935A0690914B
:10388000F1009193F7CF4115510521F08091F2009D
:10389000882321F089818FBFCA0104C08BE6809301
:1038A000E800F8CF0F900F90DF91CF911F910F910B
:1038B000FF900895CF93DF931F92CDB7DEB741E01D
:1038C00050E0BE016F5F7F4F0E94141C019719F4F6
:1038D000898190E002C08FEF9FEF0F90DF91CF9131
:1038E0000895CF93DF931F92CDB7DEB7682FCE0137
:1038F00001960E94FA1B9091E800892F807295FF33
:1039000004C09091F20080E4891B99819FBF0F90C1
:10391000DF91CF9108956F927F928F929F92AF9295
:10392000BF92CF92DF92EF92FF920F931F93CF93AC
:10393000DF931F92CDB7DEB7782E7B01C42EB52E54
:1039400080915906882369F0042F152F8AEFD82E0D
:10395000872D8072982E9AE3A92E872D8074882E49
:1039600011C08FEF9FEF57C0872D0E94711C682EEA
:1039700081110CC0DA94A9F361E070E080E090E07E
:103980000E94D7290115110579F73BC0282F30E097
:10399000021713070CF4602E672DCE0101960E94CA
:1039A000FA1B8091E80085FF29C0262D30E0021B1C
:1039B000130B992039F06A948FEF6816B1F01092CA
:1039C000F100F9CFF701862D77FE07C0815058F03E
:1039D00094919093F1003196F9CF815020F091911C
:1039E0009093F100FACFE20EF31E8091E80085FF7C
:1039F0000FC00115110511F481100AC089818FBF14
:103A0000C1CF5D9884E680935B068C2D9B2D03C00F
:103A1000A092E800F3CF0F90DF91CF911F910F910B
:103A2000FF90EF90DF90CF90BF90AF909F908F90DE
:103A30007F906F9008951092E900109258061092AE
:103A4000570690935606809355060895CF92DF92BD
:103A5000FF920F931F93CF93DF9300D0CDB7DEB7C4
:103A6000F82E8A016B0101151105B1F0F601F7FE80
:103A700002C0849101C0808149835A830E94891BBE
:103A800001501109FFEFCF1ADF0A49815A818111D4
:103A9000EACF8FEF9FEF01C0CA010F900F90DF9127
:103AA000CF911F910F91FF90DF90CF9008951F93BA
:103AB000CF93DF931F92CDB7DEB7162F2091E8008A
:103AC00022FFFCCF612F79830E94ED1B8BEF809347
:103AD000E800812F7981972F0F90DF91CF911F916F
:103AE0000895CF93DF931F92CDB7DEB71982CE0131
:103AF00001960E944317CE0101960E94B62B898140
:103B000090E00F90DF91CF9108951F920F920FB622
:103B10000F921124EF92FF920F931F932F933F93D5
:103B20004F935F936F937F938F939F93AF93BF93C5
:103B3000EF93FF93CF93DF93CDB7DEB76297DEBFEE
:103B4000CDBF1092E9008091E80083FFEBC068E0F0
:103B5000CE010A960E94ED1B82EF8093E8009A85C1
:103B600097FF05C08091E80080FFFCCF03C08EEF77
:103B70008093E800892F807609F0B9C08B85811188
:103B800005C01092F1001092F100C5C0282F2D7FC2
:103B9000213009F4C0C0853049F48091E80080FFED
:103BA000FCCF8C8580688093E300B5C0863009F037
:103BB00076C02D85E888F988223071F580E090E0A4
:103BC0002A8B0E941B1D0E94711D99E08E010F5FC0
:103BD0001F4FF801392F11923A95E9F799832A89F5
:103BE0002A8391E09E8390E898879AEF99872091A5
:103BF000570630915806275F3F4F3C832B838D83B8
:103C0000C7010E941B1D49E050E0B80180E00E94FE
:103C1000261D0E94711D7FC0C7012A8B0E941B1D9B
:103C20002A89223241F482E290E00E94C12B892B42
:103C300009F071C074C0213069F4888999890897A6
:103C400011F42093540680915406811118C061E448
:103C500071E01AC0233009F062C08C85882391F08E
:103C6000823021F46CE08FE591E006C0813009F0EC
:103C700056C06BE083E591E00E94B71B4AC06FE23B
:103C800071E002C06CE671E06115710509F447C08E
:103C9000FB01449150E080E80E94261D3CC0873023
:103CA00009F43DC0883021F481E08093F10033C0F5
:103CB000893089F5937099F5EBE2F1E081E021E03C
:103CC00096E38093E9002093EB0034913093EC006D
:103CD0009093ED008F5F3196853099F78EE7809352
:103CE000EA001092EA008C858093590614C08889F6
:103CF00099890E941B1D8E85811105C0CE010A96EF
:103D00000E944E1706C0823051F4CE010A960E94DE
:103D1000E92B882321F08EEF8093E80003C081E235
:103D20008093EB0062960FB6F894DEBF0FBECDBF56
:103D3000DF91CF91FF91EF91BF91AF919F918F91C3
:103D40007F916F915F914F913F912F911F910F91B3
:103D5000FF90EF900F900FBE0F901F9018958093DB
:103D6000E9008091F200882319F08AE38093E8004B
:103D700008951F920F920FB60F9211242F933F9325
:103D80004F935F936F937F938F939F93AF93BF9363
:103D9000EF93FF938091E1001092E10083FF0FC049
:103DA0001092E90091E09093EB001092EC0092E306
:103DB0009093ED001092590698E09093F00082FFE6
:103DC0001DC083E00E94AF1E80915B06882339F0FE
:103DD00080915B06815080935B06882369F0809117
:103DE0005A06882359F080915A06815080935A06CA
:103DF000811104C0289A02C05D9AF1CFFF91EF9122
:103E0000BF91AF919F918F917F916F915F914F91F2
:103E10003F912F910F900FBE0F901F901895109209
:103E2000590681E08093D70080EA8093D80082E130
:103E300089BD09B400FEFDCF61E070E080E090E054
:103E40000E94D72980E98093D8008CE08093E2001B
:103E50001092E000559A209A0895FC01808191818A
:103E60000C94832ECF93DF93EC0188819981009786
:103E700011F00E94832E198218821D821C821B82DF
:103E80001A82DF91CF9108950F931F93CF93DF9301
:103E9000EC018B016F5F7F4F888199810E94122F07
:103EA000009731F0998388831B830A8381E001C0E6
:103EB00080E0DF91CF911F910F910895CF93DF9311
:103EC000EC0188819981892B29F08A819B81861751
:103ED000970760F4CE010E94441F882341F08C8133
:103EE0009D81892B19F4E881F981108281E0DF91AD
:103EF000CF910895EF92FF920F931F93CF93DF938B
:103F0000EC017B018A01BA010E945E1F811104C08D
:103F1000CE010E94321F07C01D830C83B701888128
:103F200099810E942030CE01DF91CF911F910F9196
:103F3000FF90EF900895FC0111821082138212828B
:103F4000158214826115710559F0FB010190002062
:103F5000E9F7AF0141505109461B570B0C947A1FEA
:103F60000895CF93DF93EC01FB018617970761F06B
:103F7000608171816115710529F0448155810E942C
:103F80007A1F02C00E94321FCE01DF91CF910895A7
:103F9000FC011182108213821282158214820C9409
:103FA000B11FCF93DF93EC016115710561F0FB0147
:103FB00001900020E9F7AF0141505109461B570B12
:103FC0000E947A1F02C00E94321FCE01DF91CF9162
:103FD00008950F931F93CF93DF93CDB7DEB762970A
:103FE0000FB6F894DEBF0FBECDBF8C01CB01F80138
:103FF00011821082138212821582148250E0BE0157
:104000006F5F7F4F0E945E30BE016F5F7F4FC801C0
:104010000E94D11F62960FB6F894DEBF0FBECDBFCF
:10402000DF91CF911F910F910895EF92FF920F931F
:104030001F93CF93DF93EC017B010C811D816115F0
:10404000710511F480E016C04115510591F0040F7F
:10405000151FB8010E945E1F8823A1F328813981B2
:104060008C819D81B701820F931F0E9420301D8398
:104070000C8381E0DF91CF911F910F91FF90EF9022
:104080000895FB0144815581608171810C94152054
:104090006115710559F0FB0101900020E9F7AF01AE
:1040A00041505109461B570B0C94152080E0089590
:1040B000CF93DF9300D0CDB7DEB769831A8241E09A
:1040C00050E0BE016F5F7F4F0E9415200F900F9050
:1040D000DF91CF910895EF92FF920F931F93CF93AB
:1040E000DF93CDB7DEB728970FB6F894DEBF0FBECB
:1040F000CDBF7C01CB014AE050E08E010F5F1F4F26
:10410000B8010E945E30F80101900020E9F7AF018C
:1041100041505109401B510BB801C7010E941520A5
:1041200028960FB6F894DEBF0FBECDBFDF91CF91BA
:104130001F910F91FF90EF900895CF93DF93EC01C3
:10414000FB0144815581608171810E94152081119C
:1041500003C0CE010E94321FCE01DF91CF9108959E
:10416000CF93DF93EC016115710569F0FB010190BC
:104170000020E9F7AF0141505109461B570B0E943F
:104180001520811103C0CE010E94321FCE01DF91A4
:10419000CF910895CF93DF93EC010E946B208111A2
:1041A00003C0CE010E94321FCE01DF91CF9108954E
:1041B000FC0124813581232B31F421E06115710547
:1041C000A1F0FB0108C0FC0180819181611571059E
:1041D00031F421E0FC018081882339F005C00E9480
:1041E000173021E0892B09F020E0822F0895FA0191
:1041F000DB0114964D915C911597DC0114962D917D
:104200003C911597241B350B2E173F0788F08D9195
:104210009C91009769F0DB016D917C9161157105AE
:1042200039F08E0F9F1F0E94273021E0892B09F063
:1042300020E0822F0895FC0144815581FB012481F7
:1042400035814217530720F040E050E00C94F720EE
:1042500080E008950F931F93CF93DF93EB014115F7
:104260005105E9F02097D9F0FC016481758126178A
:104270003707A0F4621B730B8A0101501109601704
:10428000710708F48B01FC0160817181620F731F5B
:10429000A801CE010E943530C00FD11F1882DF91D6
:1042A000CF911F910F910895CF93DF93FC018481EB
:1042B00095814817590778F4C081D181772767FD28
:1042C0007095CE01840F951F0E940C30009719F055
:1042D0008C1B9D0B02C08FEF9FEFDF91CF91089554
:1042E00040E050E00C945421CF93DF93FC01848193
:1042F00095814817590778F4C081D181FB0160810D
:104300007181CE01840F951F0E944430009719F0EF
:104310008C1B9D0B02C08FEF9FEFDF91CF91089513
:1043200040E050E00C947421BF92CF92DF92EF9264
:10433000FF920F931F93CF93DF936C017B01EA01F0
:1043400089012417350720F48D2FE901042F182F38
:1043500061E571E0C6010E949B1FD70114968D9103
:104360009C911597C817D907C8F48017910708F4CE
:104370008C01D701ED91FC911197E00FF11FB080F6
:1043800010826D917C916C0F7D1FC6010E94D11F20
:10439000D701ED91FC91E00FF11FB082C601DF91D2
:1043A000CF911F910F91FF90EF90DF90CF90BF9032
:1043B0000895FC0180819181009711F00C94DC2F0D
:1043C00060E070E0CB010895FC0123813481262751
:1043D000022E2295207F2025032E322F22952F702A
:1043E0000226269532272327220F220F220F20256F
:1043F000FC01348323830895CF93DF93EC018D81F7
:104400009E81DC01ED91FC916C810190F081E02DA9
:1044100009958D819E81DC01ED91FC910190F081E7
:10442000E02D6B81DF91CF9109948F929F92AF9293
:10443000BF92CF92DF92EF92FF92CF93DF93EC0186
:104440006B010E94A8294B015C01E12CF12C8D81AC
:104450009E81DC01ED91FC910680F781E02D0995AC
:1044600097FF0DC00E94A829681979098A099B093C
:104470006C157D058E059F0550F38FEF9FEFDF9143
:10448000CF91FF90EF90DF90CF90BF90AF909F9033
:104490008F900895CF93DF93EC018D819E81DC0195
:1044A000ED91FC910480F581E02D0995181619060F
:1044B00054F48D819E81DC01ED91FC910680F781A1
:1044C000E02D0995EACFDF91CF9108952F923F9289
:1044D0004F925F926F927F928F929F92AF92BF9214
:1044E000CF92DF92EF92FF920F931F93CF93DF93C0
:1044F000CDB7DEB72D970FB6F894DEBF0FBECDBF98
:104500003C011B013C832B83BF82AE825801AC0C63
:10451000BD1CA40EB51EBD824B2C512CCA01860FAA
:10452000971F99878887D901A00FB11FBB87AA87DA
:10453000F601EE0DFF1DFD87EC87D30118968C91D7
:10454000581608F026C1EFEFFFEFD3011496FC9345
:10455000EE93139715968D919C911697DC01ED9132
:10456000FC910190F081E02D6FEF09956FEFC30191
:104570000E94E421F30185819681DC01ED91FC919B
:104580000190F081E02DD3016C910995F3016081D8
:10459000C3010E94E421D30115968D919C91169739
:1045A000DC01ED91FC910190F081E02D6D81099588
:1045B000642DC3010E94E421F30185819681DC0111
:1045C000ED91FC910190F081E02D6A2D09956A2D05
:1045D000C3010E94E421610188859985C816D90626
:1045E000A1F0F301858196818601DC01ED91FC91BA
:1045F0000190F081E02DD6016D916D010995F801D2
:104600006081C3010E94E421E7CFCB80DC808A85F2
:104610009B85C816D906B1F0D30115968D919C9152
:1046200016978601DC01ED91FC910190F081E02D5F
:10463000D6016D916D010995F8016081C3010E9459
:10464000E421E5CF87018C859D8508171907B1F016
:10465000D30115968D919C9116976801DC01ED911F
:10466000FC910190F081E02DD8016D918D010995AB
:10467000F6016081C3010E94E421E5CFC3010E94DD
:10468000FC2164E670E0C3010E9415228F3F910572
:1046900009F074C0EFEFFFEFD3011496FC93EE9393
:1046A00013976FEFC3010E94E42165E070E0C3013E
:1046B0000E941522D3016C91262F30E082179307B8
:1046C00009F05CC0C3010E94E4216AE070E0C3010C
:1046D0000E9415228C0197FD51C0682FC3010E94D2
:1046E000E4216AE070E0C3010E9415226C0197FD8D
:1046F00045C0682FC3010E94E4210A831982098101
:104700001A810C0D1D1DC12CD12C65E070E0C30178
:10471000C016D106A1F0C814D90489F00E94152250
:1047200097FD09C0EE81FF81EC0DFD1D8083682F90
:10473000C3010E94E421BFEFCB1ADB0AE6CF0E943F
:1047400015226C0197FD1AC065E070E0C3010E945C
:10475000152297FD13C0DC2CCC24C80ED91EF30102
:10476000838194818C159D0549F480818F5F8083BE
:10477000C8018016910678F4C4010DC0539464E614
:1047800070E080E090E00E94D729C3010E944A2295
:10479000D4CE8FEF9FEF2D960FB6F894DEBF0FBEED
:1047A000CDBFDF91CF911F910F91FF90EF90DF90E0
:1047B000CF90BF90AF909F908F907F906F905F90C1
:1047C0004F903F902F9008956F927F928F929F927B
:1047D000AF92BF92CF92DF92EF92FF920F931F930F
:1047E000CF93DF93CDB7DEB727970FB6F894DEBF30
:1047F0000FBECDBF3C018B017A0167E275E0CE01AF
:1048000001960E949B1FB801CE0101960E9448208C
:1048100069E275E0CE0101960E944820B701CE0101
:1048200001960E9448204D815E8169817A818824A9
:104830008394912CCE0107965C01C12CD12CE12CE4
:10484000F12C00E010E020E030E0C3010E9466227D
:10485000CE0101960E942D1F27960FB6F894DEBF59
:104860000FBECDBFDF91CF911F910F91FF90EF90C1
:10487000DF90CF90BF90AF909F908F907F906F9080
:1048800008954F925F926F927F928F929F92AF9214
:10489000BF92CF92DF92EF92FF920F931F93CF932D
:1048A000DF931F92CDB7DEB73A01290124E62983B1
:1048B000FB0101900020E9F78F0101501109061B4F
:1048C000170B42015A01C12CD12CE12CF12C9B0178
:1048D00041E050E0BE016F5F7F4F0E946622841569
:1048E000950520F4F301E80FF91F10820F90DF9176
:1048F000CF911F910F91FF90EF90DF90CF90BF90DD
:10490000AF909F908F907F906F905F904F900895A1
:104910003F924F925F926F927F928F929F92AF924F
:10492000BF92CF92DF92EF92FF920F931F93CF939C
:10493000DF93CDB7DEB72E970FB6F894DEBF0FBE6C
:10494000CDBF3C01DC0117968C9117978111CFC028
:1049500081E017968C93C3010E944A2268EE73E0AF
:1049600080E090E00E94D729F30185819681DC01E7
:10497000ED91FC910480F581E02D0995181619063A
:1049800054F355E0552E4424439462E3362EE5E477
:10499000F1E0DE011696852D01900D928A95E1F7E2
:1049A000F3014086812C912CA12CB12CC12CD12C4F
:1049B000E12CF12C00E010E020E030E045E050E098
:1049C000BE016A5F7F4FC3010E94662263E0D3018C
:1049D00015968D919C9116970E948D196AEF70E043
:1049E00080E090E00E94D7296EE771E0F3018581B5
:1049F00096810E9458196AEF70E080E090E00E9472
:104A0000D7296CE771E0D30115968D919C9116978B
:104A10000E94581964EF71E080E090E00E94D7296D
:104A200060E771E0F301858196810E94581964EF77
:104A300071E080E090E00E94D729C3010E944A22E1
:104A4000EAE4F1E0DE011196852D01900D928A9540
:104A5000E1F7D30118963C9244E0842E912CFE019C
:104A60003B965F0120E030E045E050E0BE016F5F23
:104A70007F4FC3010E9466228F3FFFEF9F0739F4EB
:104A800068EE73E080E090E00E94D72980CF2B850C
:104A90002111FFCF049711F52C8530E02053310907
:104AA00044E6429FC001439F900D11242D8530E0C4
:104AB000205331096AE0629FA001639F500D1124C9
:104AC000840F951F2E8530E020533109820F931FEC
:104AD000D30112969C938E93119705C084E690E0C3
:104AE000F3019283818382E3D30118968C932E96EF
:104AF0000FB6F894DEBF0FBECDBFDF91CF911F91EF
:104B00000F91FF90EF90DF90CF90BF90AF909F906C
:104B10008F907F906F905F904F903F90089510928C
:104B20005C068FE796E09093620680936106109290
:104B30006306109264069093660680936506089556
:104B4000CF93DF931F92CDB7DEB76983DC01ED9180
:104B5000FC910280F381E02D41E050E0BE016F5FE7
:104B60007F4F09950F90DF91CF91089508956F922F
:104B70007F928F929F92AF92BF92CF92DF92EF92ED
:104B8000FF920F931F93CF93DF9300D01F92CDB767
:104B9000DEB79B013A01FC01E85AFF4F40814F3FCD
:104BA00021F147E64983319640814A833997882429
:104BB0008394912CCE0103965C01C12CD12CE12C65
:104BC000F12C830142E050E0BE016F5F7F4F808196
:104BD00091810E9466228B81882329F090E0919533
:104BE0008195910904C0C30102C08FEF9FEF0F9020
:104BF0000F900F90DF91CF911F910F91FF90EF9049
:104C0000DF90CF90BF90AF909F908F907F906F90EC
:104C100008958F929F92AF92BF92CF92DF92EF92C0
:104C2000FF920F931F9348015901C12CD12CE12C05
:104C3000F12C00E010E020E030E00E9466221F919D
:104C40000F91FF90EF90DF90CF90BF90AF909F902B
:104C50008F9008952F923F924F925F926F927F9222
:104C60008F929F92AF92BF92CF92DF92EF92FF927C
:104C70000F931F93CF93DF93CDB7DEB728970FB66F
:104C8000F894DEBF0FBECDBF3C018B01FC01138247
:104C9000128288EE93E0A0E0B0E084839583A6833F
:104CA000B78387E595E0918380831301F0E52F0EAC
:104CB000311CF101318320837301F2E5EF0EF11C09
:104CC00061E571E0C70148870E949B1F230188E5C9
:104CD000480E511C4885F2014083B801C7010E946B
:104CE000D11F82E7898387E78A8381E68B8386E405
:104CF0008E83F2018081FE01E80FF11D81818F8397
:104D000081E090E0F30197878687EA5AFF4F0081A0
:104D10001181F7012081318192E0892E912CCE0101
:104D200004965C01C12CD12CE12CF12C42E050E026
:104D3000BE016A5F7F4FF101808191810E946622EE
:104D40008C81882321F08FEFF201808307C0F3016B
:104D5000E75AFF4F8D818083F301148628960FB6A2
:104D6000F894DEBF0FBECDBFDF91CF911F910F91A1
:104D7000FF90EF90DF90CF90BF90AF909F908F907B
:104D80007F906F905F904F903F902F900895FC011F
:104D9000E85AFF4F81E090819F3F09F480E0089539
:104DA000EF92FF920F931F93CF93DF9300D01F9248
:104DB000CDB7DEB77C01FC018485811124C0158646
:104DC00087E489838FE38B83E75AFF4F80818A834F
:104DD00000E410E09701205F3F4F43E050E0BE0148
:104DE0006F5F7F4F3997808191810E940926F7017B
:104DF0008487811102C0148606C0F70195859F5FE4
:104E00009587815084870F900F900F90DF91CF91FD
:104E10001F910F91FF90EF900895CF93DF93EC01D6
:104E20000E94D0268C85882359F081508C878D85EF
:104E300091E0980F9D87C80FD11D888990E002C02E
:104E40008FEF9FEFDF91CF910895CF93DF93EC0128
:104E50000E94D0268C85882331F08D85C80FD11D06
:104E6000888990E002C08FEF9FEFDF91CF91089586
:104E7000CF93DF93EC010E94D0268C8590E0DF91E8
:104E8000CF910895EF92FF920F931F93CF93DF93EB
:104E900000D01F92CDB7DEB77C0128E5E20EF11CF1
:104EA000F70120812F3FB9F026E629833196208132
:104EB0002A83399701E010E09E012D5F3F4F42E0C9
:104EC00050E0BE016F5F7F4F808191810E94092673
:104ED0008FEFF70180830F900F900F90DF91CF91AC
:104EE0001F910F91FF90EF900895CF93DF93EC0106
:104EF00087E595E099838883CE010E944227CE0101
:104F00008E5A9F4FDF91CF910C942D1F81E0089511
:104F1000CF93DF93EC01BA01422F2CE536E00E94DB
:104F20002A26CE01DF91CF9108958CE596E09093EB
:104F3000680680936706089508950F931F93CF9393
:104F4000DF9300D01F92CDB7DEB729E42983FC019F
:104F500026852A836B8300E010E020E030E043E008
:104F600050E0BE016F5F7F4F848595850E940926C2
:104F700081E090E00F900F900F90DF91CF911F9103
:104F80000F910895EF92FF920F931F93CF93DF93AA
:104F900000D01F92CDB7DEB77C01FC01838981115F
:104FA00017C0148A8FE4898386858A8380E48B8383
:104FB00097012B5E3F4F00E410E043E050E0BE015C
:104FC0006F5F7F4F848595850E940926F701838B4B
:104FD0000F900F900F90DF91CF911F910F91FF9045
:104FE000EF900895CF93DF93EC010E94C2278B8945
:104FF00090E0DF91CF910895CF93DF93EC010E9471
:10500000C2278B89882359F081508B8B8C8991E042
:10501000980F9C8BC80FD11D8D8990E002C08FEF37
:105020009FEFDF91CF910895CF93DF93EC010E9422
:10503000C2278B89882331F08C89C80FD11D8D89B7
:1050400090E002C08FEF9FEFDF91CF9108950F9313
:105050001F93CF93DF93EC018B0169E275E08889A0
:1050600099890E944820B80188899989DF91CF9158
:105070001F910F910C9441206F927F928F929F927B
:10508000AF92BF92CF92DF92EF92FF920F931F9356
:10509000CF93DF9300D01F92CDB7DEB73C0182E5FE
:1050A0008B83D3015096ED91FC915197048115812A
:1050B0002081318182E0882E912CFE0131965F01A2
:1050C000C12CD12CE12CF12C41E050E0BE016D5FF0
:1050D0007F4F1C968D919C911D970E9466228A811C
:1050E00090E0D3011F969C938E931E9750960D913E
:1050F0001C9151970115110531F0C8010E942D1F17
:10510000C8010E945C29F301118A108A89818111EA
:1051100002C081E0828B0F900F900F90DF91CF91B2
:105120001F910F91FF90EF90DF90CF90BF90AF90C5
:105130009F908F907F906F9008950F931F93CF93C0
:10514000DF9300D01F92CDB7DEB722E72983FC01A1
:1051500026852A8301E010E09E012D5F3F4F42E04B
:1051600050E0BE016F5F7F4F848595850E940926C0
:1051700081E09B81913009F080E00F900F900F90BB
:10518000DF91CF911F910F9108950F931F93CF93AC
:10519000DF9300D000D0CDB7DEB727E52B83FC012D
:1051A00026852C8302E010E09E012F5F3F4F42E0F6
:1051B00050E0BE016D5F7F4F848595850E94092672
:1051C000898190E0982F88272A81820F911D0F9066
:1051D0000F900F900F90DF91CF911F910F91089535
:1051E000CF93DF93EC010E943C28CE010E949D28C2
:1051F000882339F064E670E080E090E00E94D729CF
:10520000F4CFCE01DF91CF910C94C528EF92FF929D
:105210000F931F93CF93DF9300D0CDB7DEB77C0100
:10522000FC018289882389F087E7898386858A83C0
:1052300000E010E020E030E042E050E0BE016F5FAF
:105240007F4F848595850E940926F701128A0F9069
:105250000F90DF91CF911F910F91FF90EF900895E4
:1052600023E735E0FC01318320830C940629EF927B
:10527000FF920F931F93CF93DF9300D0CDB7DEB78C
:105280007C0169837A830E94062986E090E00E946F
:105290005A298C0169817A810E94C81FF701118BFC
:1052A000008B0F900F90DF91CF911F910F91FF9086
:1052B000EF9008950C94EB2D0C94832E1F920F9277
:1052C0000FB60F9211242F933F938F939F93AF9319
:1052D000BF9380916A0690916B06A0916C06B09185
:1052E0006D063091690623E0230F2D3720F40196D7
:1052F000A11DB11D05C026E8230F0296A11DB11DF9
:105300002093690680936A0690936B06A0936C06BF
:10531000B0936D0680916E0690916F06A091700615
:10532000B09171060196A11DB11D80936E069093F8
:105330006F06A0937006B0937106BF91AF919F91D5
:105340008F913F912F910F900FBE0F901F90189546
:105350002FB7F89460916A0670916B0680916C0685
:1053600090916D062FBF08953FB7F89480916E0617
:1053700090916F06A0917006B091710626B5A89B1A
:1053800005C02F3F19F00196A11DB11D3FBF662733
:10539000782F892F9A2F620F711D811D911D42E078
:1053A000660F771F881F991F4A95D1F70895CF92EE
:1053B000DF92EF92FF92CF93DF936B017C010E940B
:1053C000B429EB01C114D104E104F10489F00E9475
:1053D000802D0E94B4296C1B7D0B683E734090F3B6
:1053E00081E0C81AD108E108F108C851DC4FEACFC2
:1053F000DF91CF91FF90EF90DF90CF900895789458
:1054000084B5826084BD84B5816084BD85B58260C9
:1054100085BD85B5816085BDEEE6F0E08081816067
:105420008083E1E8F0E01082808182608083808167
:1054300081608083E0E8F0E0808181608083E1E941
:10544000F0E0808182608083808181608083E0E9F8
:10545000F0E0808181608083E1ECF0E08081846015
:105460008083808182608083808181608083E3EC9F
:10547000F0E0808181608083E0ECF0E080818260F8
:105480008083E2ECF0E0808181608083EAE7F0E0F5
:10549000808184608083808182608083808181605C
:1054A000808380818068808308951F93CF93DF93EA
:1054B000182FEB0161E00E94292B209711F460E086
:1054C00004C0CF3FD10539F461E0812FDF91CF9146
:1054D0001F910C94622BE12FF0E0E058FE4F4491B5
:1054E00050E0FA013197EF30F10508F06CC0EA5A4C
:1054F000FF4F0C94B72D84B5806884BDC7BD68C0CC
:1055000084B5806284BDC8BD63C08091800080681E
:1055100080938000D0938900C093880059C0809107
:105520008000806280938000D0938B00C0938A00BB
:105530004FC080918000886080938000D0938D0060
:10554000C0938C0045C0809190008068809390004B
:10555000D0939900C09398003BC0809190008062E6
:1055600080939000D0939B00C0939A0031C08091AB
:105570009000886080939000D0939D00C0939C0021
:1055800027C08091C00080688093C0008091C000D7
:105590008F7B8093C000C093CF001AC08091C00061
:1055A00080628093C000C093D00012C08091C2007E
:1055B00088608093C2008091C2008B7F8093C2007C
:1055C000C093D20005C0C038D1050CF07DCF77CF95
:1055D000DF91CF911F91089590E0FC013197EF305A
:1055E000F105B0F5EB59FF4F0C94B72D8091800079
:1055F0008F7703C0809180008F7D80938000089515
:1056000080918000877FF9CF84B58F7702C084B501
:105610008F7D84BD0895809190008F7707C0809121
:1056200090008F7D03C080919000877F80939000D1
:1056300008958091C0008F7703C08091C0008F7D56
:105640008093C00008958091C200877F8093C2003C
:105650000895CF93DF9390E0FC01E256FE4F249132
:10566000FC01E454FE4F8491882349F190E0880FB7
:10567000991FFC01E851FE4FA591B49186529E4FAF
:10568000FC01C591D4919FB7611108C0F8948C9129
:10569000209582238C93888182230AC0623051F442
:1056A000F8948C91322F309583238C938881822BB0
:1056B000888304C0F8948C91822B8C939FBFDF91D8
:1056C000CF9108950F931F93CF93DF931F92CDB780
:1056D000DEB7282F30E0F901E058FE4F8491F90140
:1056E000E256FE4F1491F901E454FE4F0491002359
:1056F000C9F0882321F069830E94EC2A6981E02F98
:10570000F0E0EE0FFF1FE652FE4FA591B4919FB758
:10571000F8948C91611103C01095812301C0812BF5
:105720008C939FBF0F90DF91CF911F910F910895A0
:10573000FF920F931F93CF93DF93EC01F62EE88136
:10574000F9810480F581E02D09958C01E881F981CA
:105750000680F781E02D6F2DCE010995C8019927AC
:10576000DF91CF911F910F91FF900895FC0120814F
:105770002F5F208349E150E066E772E080E80C94F7
:10578000261D45E650E06FE872E080E80C94261D87
:10579000EF92FF920F931F93CF93DF931F92CDB79A
:1057A000DEB789838B017A0141E050E0BE016F5F73
:1057B0007F4F84E00E948B1CA701B80184E40E9403
:1057C0008B1C0F90DF91CF911F910F91FF90EF9065
:1057D0000895FC0191818081813A31F481E091301A
:1057E00091F0933089F411C0813271F49B3021F42F
:1057F00082818093440105C09A3031F48281809384
:10580000430181E00895089580E0089548E050E064
:1058100082E00C94C82BCF93DF93DC01683818F03A
:10582000E8E7E60F25C0E62FF0E067FF11C0E0587B
:10583000F10981E090E001C0880FEA95EAF714963B
:105840009C911497982B14969C931497E0E010C0A9
:10585000EA50FE4FE491EE2309F440C0E7FF08C090
:1058600014968C911497826014968C931497EF770A
:1058700016968C9116978E1741F117968C91179763
:105880008E1719F118968C9118978E17F1F01996BA
:105890008C9119978E17C9F01A968C911A978E17BA
:1058A000A1F01B968C911B978E1779F080E090E009
:1058B000ED01C80FD91F2E81211102C0EE8305C052
:1058C000019686309105A1F709C0BD016C5F7F4F3D
:1058D000CD010E94062C81E090E008C081E090E0BC
:1058E00013969C938E93129780E090E0DF91CF9176
:1058F0000895683818F0E8E7E60F25C0E62FF0E0D5
:1059000067FF12C0E058F10921E030E001C0220F2A
:10591000EA95EAF72095DC0114963C91149732231E
:1059200014963C93E0E00FC0EA50FE4FE491EE2362
:1059300029F1E7FF08C0DC0114962C9114972D7F04
:1059400014962C93EF7720E030E0EE2351F0DC0149
:10595000A20FB31F16964C9116974E1302C01696BF
:105960001C922F5F3F4F2630310579F7BC016C5FE9
:105970007F4F0E94062C81E090E0089580E090E047
:105980000895FC01168217821086118612861386EE
:105990001482BC016C5F7F4F0C94062C10927E0623
:1059A000109275061092740683E895E09093730642
:1059B0008093720608951F920F920FB60F921124D2
:1059C0002F938F939F93EF93FF93E0918F06F09126
:1059D00090068081E0919506F091960682FD12C0B6
:1059E0009081809198068F5F8F732091990682171E
:1059F00051F0E0919806F0E0E158F94F958F8093CF
:105A0000980601C08081FF91EF919F918F912F9116
:105A10000F900FBE0F901F9018951F920F920FB608
:105A20000F9211242F933F934F935F936F937F9324
:105A30008F939F93AF93BF93EF93FF938FE796E07E
:105A40000E941018FF91EF91BF91AF919F918F919C
:105A50007F916F915F914F913F912F910F900FBE6A
:105A60000F901F9018958FE796E00E94D51721E0C0
:105A7000892B09F420E0822F08951092820610925B
:105A8000810688EE93E0A0E0B0E0809383069093D7
:105A90008406A0938506B09386068FE095E09093E8
:105AA000800680937F068DEC90E090938C06809327
:105AB0008B068CEC90E090938E0680938D0688EC9C
:105AC00090E09093900680938F0689EC90E09093FD
:105AD0009206809391068AEC90E0909394068093CE
