:100000000C9484010C94AC010C94AC010C94AC01E4
:100010000C94AC010C94AC010C94AC010C94AC01AC
:100020000C94AC010C94AC010C94400B0C940C0A95
:100030000C94AC010C94AC010C94AC010C94AC018C
:100040000C94AC010C94AC010C94AC010C94AC017C
:100050000C94AC010C94AC010C94AC010C94041104
:100060000C94AC010C9481140C94B3140C94AC015A
:100070000C94AC010C94AC010C94AC010C94AC014C
:100080000C94AC010C94AC010C94AC010C94AC013C
:100090000C94AC010C94AC010C94AC010C94AC012C
:1000A0000C94AC010C94AC010C94AC0121122612FE
:1000B0002B1235123F1289128912891249125312DA
:1000C0005D126712741289127C12AA12AD129C1270
:1000D000A012A612CE12CE12CE12B112B512B912C1
:1000E000BF12C312CE12C912080B00020202010095
:1000F000090400000102020000052400100105248B
:1001000001010104240206052406000107058103FC
:1001100010004009040100020A0000000705020265
:100120004000000705830240000000C18081C11229
:100130000100020200004041234180000101020051
:100140000112010002000000404123418000010132
:1001500002000141726475696E6F204C4C4300557A
:10016000534220494F20426F617264000403090426
:1001700072756E2D6272696467650A000A000A0072
:100180000000000200090F0000030401000C000041
:100190000000000000000000000000000000040853
:1001A000020110408040102040804080080204017D
:1001B00080402010020110801020404004040404FC
:1001C00004030405020202020403020202020606FC
:1001D00006060606040402020204000000002500D0
:1001E00028002B002E003100000000002400270012
:1001F0002A002D00300000000000000000002A2B23
:1002000028000000000000000000000000000000C6
:100210000000000000002C9EB4A0A1A2A434A6A758
:10022000A5AE362D3738271E1F2021222324252650
:10023000B333B62EB7B89F8485868788898A8B8C1E
:100240008D8E8F909192939495969798999A9B9C66
:100250009D2F3130A3AD350405060708090A0B0CA4
:100260000D0E0F101112131415161718191A1B1C46
:100270001DAFB1B0B5000904020001030000000980
:1002800021010100012265000705840340000105EA
:10029000010902A1010901A100850105091901292E
:1002A00003150025019503750181029501750581EE
:1002B0000305010930093109381581257F75089535
:1002C000038106C0C005010906A1018502050719C1
:1002D000E029E71500250175019508810295017552
:1002E000088103950675081500256505071900297D
:1002F000658100C09102E7039F0433050C065F0F80
:10030000910F7414E314C20411241FBECFEFDAE07E
:10031000DEBFCDBF16E0A0E0B1E0E8E7FFE202C03B
:1003200005900D92A434B107D9F728E0A4E4B6E013
:1003300001C01D92AB30B207E1F712E0C6E0D3E096
:1003400004C02297FE010E945F15C43FD107C9F780
:100350000E9420050C94AF170C9400000F931F937C
:10036000CF93DF93CDB7DEB7CB55D1090FB6F89455
:10037000DEBF0FBECDBF8B0140E050E06AED71E003
:1003800082E996E00E94D6031C821B8288EE93E0ED
:10039000A0E0B0E08D839E83AF83B8878AE296E0C9
:1003A0009A83898387E497E09E878D871B8A1C8ABE
:1003B0001D8A60EF71E0CE018A5A9F4F0E94220C85
:1003C000BE016A5A7F4FCE0101960E94DD10CE0118
:1003D0008A5A9F4F0E94B40BCE0101960E942310AF
:1003E000CE0101960E948410882369F00115110541
:1003F00019F0F8010995F4CF64E670E080E090E030
:100400000E947D11EDCF45E050E0BE016F5F7F4F50
:1004100082E996E00E94F902CE0101960E94980FAF
:10042000CE0101960E94AC10CE0101960E94D6101A
:10043000C55ADF4F0FB6F894DEBF0FBECDBFDF91B8
:10044000CF911F910F9108950F931F93CF93DF9337
:10045000CDB7DEB7CB55D1090FB6F894DEBF0FBECE
:10046000CDBF8B0140E050E06CE475E082E996E09E
:100470000E94D6031C821B8288EE93E0A0E0B0E0CD
:100480008D839E83AF83B8878AE296E09A838983BF
:1004900087E497E09E878D871B8A1C8A1D8A66E603
:1004A00075E0CE018A5A9F4F0E94220CBE016A5A03
:1004B0007F4FCE0101960E94DD10CE018A5A9F4FD8
:1004C0000E94B40BCE0101960E942310CE0101962A
:1004D0000E948410882369F00115110519F0F801B4
:1004E0000995F4CF64E670E080E090E00E947D1111
:1004F000EDCFCE0101960E94980FCE0101960E9489
:10050000AC10CE0101960E94D610C55ADF4F0FB62F
:10051000F894DEBF0FBECDBFDF91CF911F910F9139
:100520000895109245061092440608953F924F9206
:100530005F926F927F928F929F92AF92BF92CF9273
:10054000DF92EF92FF920F931F93CF93DF93EC0113
:100550008B01342E290161E0842F0E94CF12CE013D
:10056000B2010E9427155B016801E12CF12CC0E06B
:10057000D0E088249924801A910A662457FC60945C
:10058000762CAE14BF04DCF0BE01832D0E94FB115B
:10059000CC0DDD1D1C161D063CF4CF3FD1053CF0F3
:1005A0006401CFEFD0E003C06801C0E0D0E0C30138
:1005B000B2010E947D118FEFE81AF80AE2CF60E0E5
:1005C00070E0832DDF91CF911F910F91FF90EF90FD
:1005D000DF90CF90BF90AF909F908F907F906F9063
:1005E0005F904F903F900C94FB11FC0172836183EC
:1005F0000895EF92FF920F931F93CF93DF938C0197
:10060000EB017A01DC0113968D919C911497009770
:1006100009F45BC0DC01ED91FC910284F385E02DCF
:100620000995F801818192818E159F050CF440C0D7
:1006300083819481DC01ED91FC910190F081E02DAA
:1006400066E875E00995E881F9810480F581E02D7F
:10065000CE010995892BA1F0E881F9810680F78107
:10066000E02DCE010995F801A381B481ED91FC91B3
:1006700011970280F381E02D682FCD010995E3CF1A
:10068000D80113968D919C911497DC01ED91FC910A
:100690000480F581E02D6DE875E00995F80183810E
:1006A0009481DC01ED91FC910084F185E02D06C080
:1006B000E881F9810284F385E02DCE01DF91CF91AD
:1006C0001F910F91FF90EF900994DF91CF911F91AF
:1006D0000F91FF90EF900895AF92BF92CF92DF926B
:1006E000EF92FF920F931F93CF93DF93EC015B0187
:1006F0006A0179018B819C81009709F44CC0DC016F
:10070000ED91FC910284F385E02D099589819A8110
:100710008A159B050CF43FC08B819C81DC01ED9117
:10072000FC910190F081E02DB60109958B819C81AF
:10073000DC01ED91FC910190F081E02DB70109956C
:100740000115110551F08B819C81DC01ED91FC912B
:100750000190F081E02DB80109958B819C81DC012D
:10076000ED91FC910480F581E02D69E176E0099539
:100770008B819C81DC01ED91FC910084F185E02D61
:10078000DF91CF911F910F91FF90EF90DF90CF906D
:10079000BF90AF900994DF91CF911F910F91FF907F
:1007A000EF90DF90CF90BF90AF9008950F931F937D
:1007B0009B018A0142EA55E064E070E00E946C030C
:1007C0001F910F910895FC0174836383089581E064
:1007D0008093920684E090E0909394068093930631
:1007E00008959091FC068091FD06981739F06AE013
:1007F00070E080E090E00E947D11F3CF0895CF93E8
:10080000DF9300D0CDB7DEB78EEE96E069837A83B2
:100810000E94FD0569817A81882341F08EEE96E081
:100820000F900F90DF91CF910C94DF0780E090E064
:100830000F900F90DF91CF910895CF93DF931F9288
:10084000CDB7DEB78EEE96E069830E94FD05698123
:10085000882339F08EEE96E00F90DF91CF910C94C3
:10086000E10780E090E00F90DF91CF910895CF9362
:10087000DF9300D0CDB7DEB78EEE96E069837A8342
:100880000E94FD0569817A81882341F08EEE96E011
:100890000F900F90DF91CF910C94FE0780E090E0D5
:1008A0000F900F90DF91CF910895CF93DF9300D0F9
:1008B000CDB7DEB78EEE96E069837A830E94FD05A0
:1008C00069817A81882341F08EEE96E00F900F9037
:1008D000DF91CF910C94EC0780E090E00F900F90A7
:1008E000DF91CF910895CF93C42F24EC35E0FC0124
:1008F00031832083AB01662757FD6095762F8EEEFE
:1009000096E00E94F705CC2369F08EEE96E00E94F7
:10091000FD05811107C064E670E080E090E00E9470
:100920007D11F3CFCF9108958EEE96E00E94FD05E4
:10093000882321F08EEE96E00C94610508951092C4
:100940009A061092990688EE93E0A0E0B0E08093BA
:100950009B0690939C06A0939D06B0939E068AE208
:1009600096E0909398068093970687E497E090939B
:10097000A4068093A3061092A9061092AA061092CC
:10098000AB06089587E996E00C94D61024E130E098
:100990004DE050E06AE070E080E197E20C9496024E
:1009A00024E130E04DE050E06AE070E088E893E157
:1009B0000C949602089526E040E950ED63E070E063
:1009C00080915007909151070E940C0787E497E0AF
:1009D0000E94580E6CEE76E082E996E00E94E303F6
:1009E00065E070E082E996E00E94F50240E050E0A8
:1009F00060ED75E082E996E00E94D60340E050E0A9
:100A000068ED75E082E996E00E94D60366EC74E03A
:100A100084E496E00E94AE0140E050E061EE75E0B3
:100A200082E996E00E94D60360ED74E084E496E0EB
:100A30000C94240264E670E080E090E00C947D1158
:100A40000E94A5110E94DA048EE397E00E94960BA3
:100A50000E94DB04C6E5D6E00E941A052097E1F368
:100A60000E945606F9CF40E060E875E28CEE96E011
:100A70000C947304CF93DF931F92CDB7DEB76983D5
:100A8000DC01ED91FC910280F381E02D41E050E02A
:100A9000BE016F5F7F4F09950F90DF91CF91089551
:100AA000CF93DF93EC018C859D8597FF05C082E095
:100AB0000E94E1089D878C878C859D85DF91CF9171
:100AC000089583E00C94360BFC018485958597FD91
:100AD00006C082E00E94890890E00196089582E0B5
:100AE0000E94890890E00895FC018485958597FD12
:100AF00005C02FEF3FEF35872487089582E00C94DF
:100B0000E108CF93DF93EC0180910D01882331F050
:100B100083E00E9412091816190634F081E090E073
:100B20009B838A8380E090E0DF91CF910895FC0160
:100B300020812E5F208342E450E068EE70E080E880
:100B40000C94AD09FC0181819081913A59F4813274
:100B500009F03CC047E050E066E071E080E00E94B0
:100B6000AD0943C0913291F5803239F467E070E00D
:100B700086E091E00E94DE0906C0823209F035C0AD
:100B8000828180930D018091060190910701A091CF
:100B90000801B0910901803B9440A105B105C1F461
:100BA00080910D0180FD14C087E797E790930108BD
:100BB000809300082BE088E190E00FB6F894A895A8
:100BC000809360000FBE209360000FC080E0089506
:100BD00088E10FB6F89480936000109260000FBE19
:100BE000A895109201081092000881E008952FEF57
:100BF0003FEFFC01358724870895CF93C0910D0105
:100C00006AE070E080E090E00E947D1181E0C11117
:100C100001C080E0CF9108951092F1061092F00685
:100C200088EE93E0A0E0B0E08093F2069093F306A4
:100C3000A093F406B093F5068BEF95E09093EF0642
:100C40008093EE068FEF9FEF9093FB068093FA065A
:100C50000895FC01818D228D90E0805C9F4F821B66
:100C600091098F7399270895FC01918D828D9817B2
:100C700031F0828DE80FF11D858D90E008958FEFA2
:100C80009FEF0895FC01918D828D981761F0828D00
:100C9000DF01A80FB11D5D968C91928D9F5F9F73B0
:100CA000928F90E008958FEF9FEF089589ED94E182
:100CB000892B49F080E090E0892B29F00E94D9141B
:100CC00081110C9400000895FC01848DDF01A80FB0
:100CD000B11DA35ABF4F2C91848D90E001968F7364
:100CE0009927848FA689B7892C93A089B1898C9183
:100CF00080648C93938D848D981306C00288F38949
:100D0000E02D80818F7D80830895CF93DF93EC0168
:100D1000888D8823C9F0EA89FB89808185FD05C01B
:100D2000A889B9898C9186FD0FC00FB607FCF5CF55
:100D3000808185FFF2CFA889B9898C9185FFEDCF9D
:100D4000CE010E946406E7CFDF91CF910895CF9244
:100D5000DF92FF920F931F93CF93DF931F92CDB734
:100D6000DEB76C0181E0D60158968C9358975B965C
:100D70009C915B975C968C915C97981307C05096FA
:100D8000ED91FC915197808185FD2EC0F601038D78
:100D900010E00F5F1F4F0F731127F02EF601848DA7
:100DA000F81211C00FB607FCF9CFD6015096ED919D
:100DB000FC915197808185FFF1CFC60169830E9424
:100DC00064066981EBCF838DE80FF11DE35AFF4F75
:100DD0006083D6015B960C935B975296ED91FC91E4
:100DE0005397808180620CC0D6015696ED91FC919C
:100DF000579760835096ED91FC9151978081806464
:100E0000808381E090E00F90DF91CF911F910F914F
:100E1000FF90DF90CF900895BF92CF92DF92EF9234
:100E2000FF92CF93DF93EC016A017B01B22EE88938
:100E3000F98982E08083411581EE580761057105CB
:100E4000A1F060E079E08DE390E0A70196010E94B7
:100E50003B15215031094109510956954795379560
:100E60002795211580E1380798F0E889F9891082E3
:100E700060E874E88EE190E0A70196010E943B15BE
:100E800021503109410951095695479537952795C4
:100E9000EC85FD853083EE85FF852083188EEC89F7
:100EA000FD89B082EA89FB89808180618083EA893B
:100EB000FB89808188608083EA89FB8980818068E2
:100EC0008083EA89FB8980818F7D8083DF91CF9148
:100ED000FF90EF90DF90CF90BF900895CF92DF9278
:100EE000EF92FF920F931F93CF93DF936C017A01E0
:100EF000EB01E60EF71E00E010E0CE15DF0561F015
:100F00006991D601ED91FC910190F081E02DC6012F
:100F10000995080F191FF1CFC801DF91CF911F91DB
:100F20000F91FF90EF90DF90CF90089561157105BC
:100F300081F0DB010D900020E9F7AD01415051092E
:100F4000461B570BDC01ED91FC910280F381E02DF3
:100F5000099480E090E00895EF92FF920F931F9321
:100F6000CF93DF938C01FB01C0E0D0E064917F015F
:100F70008FEFE81AF80A662361F0D801ED91FC9131
:100F80000190F081E02DC8010995C80FD91FF70124
:100F9000EDCFCE01DF91CF911F910F91FF90EF9098
:100FA0000895DC01ED91FC91DB0114964D915C916B
:100FB00015976D917C910280F381E02D09940C943A
:100FC0009607DC01ED91FC910190F081E02D0994F0
:100FD00067E176E00C9496070F931F93CF93DF930E
:100FE000EC010E94D1078C01CE010E94E807800F1E
:100FF000911FDF91CF911F910F9108950F931F9330
:10100000CF93DF93EC010E9496078C01CE010E94E2
:10101000E807800F911FDF91CF911F910F910895E5
:10102000409142075091430720914007309141077A
:1010300042175307B4F49091E8009570E1F3909152
:10104000E80092FD19C08093F100809142079091D1
:10105000430701968F739927892B19F48EEF80939C
:10106000E8008091420790914307019690934307CF
:101070008093420781E0089580E00895CF92DF9247
:10108000FF920F931F93CF93DF931F92CDB7DEB7DD
:10109000082F162F862F880F8E5F99830E941008C5
:1010A00083E00E941008F02EC02E9981D92E8C2D3D
:1010B0008F19811778F4F60184910E941008082F87
:1010C00080E00E9410088023FFEFCF1ADF0A811111
:1010D000EECF01C081E00F90DF91CF911F910F9172
:1010E000FF90DF90CF900895615030F02091F10093
:1010F000FC0120830196F8CF289884E68093450769
:1011000008952FB7FC012083F89467706093E9007D
:101110000895CF93DF931F92CDB7DEB7682FCE012E
:1011200001960E9481088091F20099819FBF0F90E3
:10113000DF91CF910895FF920F931F93CF93DF9389
:1011400000D0CDB7DEB7F62E8A01909144079923DF
:1011500011F057FF03C08FEF9FEF2BC0682FCE0118
:1011600001967A830E9481088091F20090E0A801A4
:101170007A81801791070CF4AC01EF2DF72FF40E54
:1011800084E6FE1639F02898809345079091F10087
:101190009193F7CF4115510521F08091F2008823FA
:1011A00021F089818FBFCA0104C08BE68093E800DB
:1011B000F8CF0F900F90DF91CF911F910F91FF907B
:1011C0000895CF93DF931F92CDB7DEB741E050E093
:1011D000BE016F5F7F4F0E949B08019719F48981C0
:1011E00090E002C08FEF9FEF0F90DF91CF910895B5
:1011F000CF93DF931F92CDB7DEB7682FCE01019654
:101200000E9481089091E800892F807295FF04C0A8
:101210009091F20080E4891B99819FBF0F90DF912C
:10122000CF9108956F927F928F929F92AF92BF92CB
:10123000CF92DF92EF92FF920F931F93CF93DF93A2
:101240001F92CDB7DEB7782E7B01C42EB52E8091CC
:101250004407882369F0042F152F8AEFD82E872D95
:101260008072982E9AE3A92E872D8074882E11C043
:101270008FEF9FEF57C0872D0E94F808682E8111CD
:101280000CC0DA94A9F361E070E080E090E00E9485
:101290007D110115110579F73BC0282F30E00217A9
:1012A00013070CF4602E672DCE0101960E94810871
:1012B0008091E80085FF29C0262D30E0021B130B2A
:1012C000992039F06A948FEF6816B1F01092F1000E
:1012D000F9CFF701862D77FE07C0815058F0949121
:1012E0009093F1003196F9CF815020F09191909335
:1012F000F100FACFE20EF31E8091E80085FF0FC0E7
:101300000115110511F481100AC089818FBFC1CF69
:101310005D9884E6809346078C2D9B2D03C0A09298
:10132000E800F3CF0F90DF91CF911F910F91FF90C5
:10133000EF90DF90CF90BF90AF909F908F907F9075
:101340006F9008951092E90010924307109242079F
:1013500090934107809340070895CF92DF92FF92C8
:101360000F931F93CF93DF9300D0CDB7DEB7F82E46
:101370008A016B0101151105B1F0F601F7FE02C0FB
:10138000849101C0808149835A830E9410080150D2
:101390001109FFEFCF1ADF0A49815A818111EACF83
:1013A0008FEF9FEF01C0CA010F900F90DF91CF9197
:1013B0001F910F91FF90DF90CF9008951F93CF93CF
:1013C000DF931F92CDB7DEB7162F2091E80022FFE2
:1013D000FCCF612F79830E9474088BEF8093E80023
:1013E000812F7981972F0F90DF91CF911F910895D1
:1013F000CF93DF931F92CDB7DEB71982CE0101964E
:101400000E949705CE0101960E945C13898190E0AD
:101410000F90DF91CF9108951F920F920FB60F9208
:101420001124EF92FF920F931F932F933F934F93AB
:101430005F936F937F938F939F93AF93BF93EF933C
:10144000FF93CF93DF93CDB7DEB76297DEBFCDBFFB
:101450001092E9008091E80083FFEBC068E0CE01C4
:101460000A960E94740882EF8093E8009A8597FF9D
:1014700005C08091E80080FFFCCF03C08EEF809311
:10148000E800892F807609F0B9C08B85811105C0ED
:101490001092F1001092F100C5C0282F2D7F21304D
:1014A00009F4C0C0853049F48091E80080FFFCCF8A
:1014B0008C8580688093E300B5C0863009F076C0E3
:1014C0002D85E888F988223071F580E090E02A8B3C
:1014D0000E94A2090E94F80999E08E010F5F1F4F38
:1014E000F801392F11923A95E9F799832A892A83CD
:1014F00091E09E8390E898879AEF99872091420720
:1015000030914307275F3F4F3C832B838D83C70177
:101510000E94A20949E050E0B80180E00E94AD09B4
:101520000E94F8097FC0C7012A8B0E94A2092A895C
:10153000223241F482E290E00E946713892B09F085
:1015400071C074C0213069F488899989089711F4B1
:1015500020933F0780913F07811118C061E471E03B
:101560001AC0233009F062C08C85882391F0823044
:1015700021F46CE08FE591E006C0813009F056C09F
:101580006BE083E591E00E943E084AC06FE271E0A3
:1015900002C06CE671E06115710509F447C0FB01FA
:1015A000449150E080E80E94AD093CC0873009F4C6
:1015B0003DC0883021F481E08093F10033C0893050
:1015C00089F5937099F5EBE2F1E081E021E096E393
:1015D0008093E9002093EB0034913093EC009093DA
:1015E000ED008F5F3196853099F78EE78093EA00A2
:1015F0001092EA008C858093440714C088899989E9
:101600000E94A2098E85811105C0CE010A960E9412
:10161000A20506C0823051F4CE010A960E948F13B3
:10162000882321F08EEF8093E80003C081E280934D
:10163000EB0062960FB6F894DEBF0FBECDBFDF9110
:10164000CF91FF91EF91BF91AF919F918F917F913A
:101650006F915F914F913F912F911F910F91FF904B
:10166000EF900F900FBE0F901F9018958093E90098
:101670008091F200882319F08AE38093E8000895AE
:101680001F920F920FB60F9211242F933F934F93F7
:101690005F936F937F938F939F93AF93BF93EF93DA
:1016A000FF938091E1001092E10083FF0FC0109240
:1016B000E90091E09093EB001092EC0092E390939C
:1016C000ED001092440798E09093F00082FF1DC057
:1016D00083E00E94360B80914607882339F0809181
:1016E0004607815080934607882369F0809145071B
:1016F000882359F0809145078150809345078111D7
:1017000004C0289A02C05D9AF1CFFF91EF91BF917A
:10171000AF919F918F917F916F915F914F913F9189
:101720002F910F900FBE0F901F90189510924407A5
:1017300081E08093D70080EA8093D80082E189BD60
:1017400009B400FEFDCF61E070E080E090E00E940F
:101750007D1180E98093D8008CE08093E2001092A4
:10176000E000559A209A0895FC01808191810C94A3
:101770000F16CF93DF93EC0188819981009711F0C8
:101780000E940F16198218821D821C821B821A82E7
:10179000DF91CF9108950F931F93CF93DF93EC01C7
:1017A0008B016F5F7F4F888199810E949E16009701
:1017B00031F0998388831B830A8381E001C080E034
:1017C000DF91CF911F910F910895CF93DF93EC019B
:1017D00088819981892B29F08A819B8186179707B7
:1017E00060F4CE010E94CB0B882341F08C819D8157
:1017F000892B19F4E881F981108281E0DF91CF9182
:101800000895EF92FF920F931F93CF93DF93EC0114
:101810007B018A01BA010E94E50B811104C0CE014F
:101820000E94B90B07C01D830C83B7018881998181
:101830000E947117CE01DF91CF911F910F91FF9000
:10184000EF900895FC01118210821382128215829A
:1018500014826115710559F0FB0101900020E9F730
:10186000AF0141505109461B570B0C94010C0895D0
:10187000CF93DF93EC01FB018617970761F060813E
:1018800071816115710529F0448155810E94010C17
:1018900002C00E94B90BCE01DF91CF910895FC01E7
:1018A0001182108213821282158214820C94380CD9
:1018B000FC01238134812627022E2295207F2025BA
:1018C000032E322F22952F700226269532272327AA
:1018D000220F220F220F2025FC0134832383089539
:1018E000CF93DF93EC018D819E81DC01ED91FC9122
:1018F0006C810190F081E02D09958D819E81DC0144
:10190000ED91FC910190F081E02D6B81DF91CF9101
:1019100009948F929F92AF92BF92CF92DF92EF92F3
:10192000FF92CF93DF93EC016B010E944E114B01AC
:101930005C01E12CF12C8D819E81DC01ED91FC910B
:101940000680F781E02D099597FF0DC00E944E118A
:10195000681979098A099B096C157D058E059F0513
:1019600050F38FEF9FEFDF91CF91FF90EF90DF90DB
:10197000CF90BF90AF909F908F900895CF93DF93BB
:10198000EC018D819E81DC01ED91FC910480F5815B
:10199000E02D09951816190654F48D819E81DC01FD
:1019A000ED91FC910680F781E02D0995EACFDF915A
:1019B000CF9108952F923F924F925F926F927F92B4
:1019C0008F929F92AF92BF92CF92DF92EF92FF924F
:1019D0000F931F93CF93DF93CDB7DEB72D970FB63D
:1019E000F894DEBF0FBECDBF3C011B013C832B83AF
:1019F000BF82AE825801AC0CBD1CA40EB51EBD82C8
:101A00004B2C512CCA01860F971F99878887D901C3
:101A1000A00FB11FBB87AA87F601EE0DFF1DFD8742
:101A2000EC87D30118968C91581608F026C1EFEF79
:101A3000FFEFD3011496FC93EE93139715968D91B7
:101A40009C911697DC01ED91FC910190F081E02DC5
:101A50006FEF09956FEFC3010E94580CF301858168
:101A60009681DC01ED91FC910190F081E02DD30194
:101A70006C910995F3016081C3010E94580CD30158
:101A800015968D919C911697DC01ED91FC9101903A
:101A9000F081E02D6D810995642DC3010E94580CE1
:101AA000F30185819681DC01ED91FC910190F0813B
:101AB000E02D6A2D09956A2DC3010E94580C610121
:101AC00088859985C816D906A1F0F301858196818C
:101AD0008601DC01ED91FC910190F081E02DD601B1
:101AE0006D916D010995F8016081C3010E94580C48
:101AF000E7CFCB80DC808A859B85C816D906B1F0FC
:101B0000D30115968D919C9116978601DC01ED917C
:101B1000FC910190F081E02DD6016D916D01099548
:101B2000F8016081C3010E94580CE5CF87018C85C4
:101B30009D8508171907B1F0D30115968D919C91D9
:101B400016976801DC01ED91FC910190F081E02D88
:101B5000D8016D918D010995F6016081C3010E9444
:101B6000580CE5CFC3010E94700C64E670E0C3011D
:101B70000E94890C8F3F910509F074C0EFEFFFEFD1
:101B8000D3011496FC93EE9313976FEFC3010E9459
:101B9000580C65E070E0C3010E94890CD3016C9180
:101BA000262F30E08217930709F05CC0C3010E9422
:101BB000580C6AE070E0C3010E94890C8C0197FD0B
:101BC00051C0682FC3010E94580C6AE070E0C30145
:101BD0000E94890C6C0197FD45C0682FC3010E94CB
:101BE000580C0A83198209811A810C0D1D1DC12C04
:101BF000D12C65E070E0C301C016D106A1F0C81475
:101C0000D90489F00E94890C97FD09C0EE81FF81FB
:101C1000EC0DFD1D8083682FC3010E94580CBFEF9F
:101C2000CB1ADB0AE6CF0E94890C6C0197FD1AC023
:101C300065E070E0C3010E94890C97FD13C0DC2CA5
:101C4000CC24C80ED91EF301838194818C159D0587
:101C500049F480818F5F8083C8018016910678F4F3
:101C6000C4010DC0539464E670E080E090E00E94EF
:101C70007D11C3010E94BE0CD4CE8FEF9FEF2D9635
:101C80000FB6F894DEBF0FBECDBFDF91CF911F918D
:101C90000F91FF90EF90DF90CF90BF90AF909F900B
:101CA0008F907F906F905F904F903F902F9008950E
:101CB0003F924F925F926F927F928F929F92AF92DC
:101CC000BF92CF92DF92EF92FF920F931F93CF9329
:101CD000DF93CDB7DEB72E970FB6F894DEBF0FBEF9
:101CE000CDBF3C01DC0117968C9117978111CFC0B5
:101CF00081E017968C93C3010E94BE0C68EE73E0DE
:101D000080E090E00E947D11F30185819681DC01E5
:101D1000ED91FC910480F581E02D099518161906C6
:101D200054F355E0552E4424439462E3362EE0E10B
:101D3000F1E0DE011696852D01900D928A95E1F76E
:101D4000F3014086812C912CA12CB12CC12CD12CDB
:101D5000E12CF12C00E010E020E030E045E050E024
:101D6000BE016A5F7F4FC3010E94DA0C63E0D301BA
:101D700015968D919C9116970E94E1076AEF70E08D
:101D800080E090E00E947D116EE771E0F3018581B3
:101D900096810E94AC076AEF70E080E090E00E94BC
:101DA0007D116CE771E0D30115968D919C9116978A
:101DB0000E94AC0764EF71E080E090E00E947D112A
:101DC00060E771E0F301858196810E94AC0764EFC2
:101DD00071E080E090E00E947D11C3010E94BE0C82
:101DE000E5E1F1E0DE011196852D01900D928A95D5
:101DF000E1F7D30118963C9244E0842E912CFE0129
:101E00003B965F0120E030E045E050E0BE016F5FAF
:101E10007F4FC3010E94DA0C8F3FFFEF9F0739F419
:101E200068EE73E080E090E00E947D1180CF2B850A
:101E30002111FFCF049711F52C8530E02053310993
:101E400044E6429FC001439F900D11242D8530E050
:101E5000205331096AE0629FA001639F500D112455
:101E6000840F951F2E8530E020533109820F931F78
:101E7000D30112969C938E93119705C084E690E04F
:101E8000F3019283818382E3D30118968C932E967B
:101E90000FB6F894DEBF0FBECDBFDF91CF911F917B
:101EA0000F91FF90EF90DF90CF90BF90AF909F90F9
:101EB0008F907F906F905F904F903F900895109219
:101EC00047078AE697E090934D0780934C0710925E
:101ED0004E0710924F079093510780935007089533
:101EE0008F929F92AF92BF92CF92DF92EF92FF922A
:101EF0000F931F9348015901C12CD12CE12CF12CD7
:101F000000E010E020E030E00E94DA0C1F910F9119
:101F1000FF90EF90DF90CF90BF90AF909F908F9009
:101F2000089587E497E090935307809352070895AC
:101F300008950F931F93CF93DF9300D01F92CDB7D7
:101F4000DEB729E42983FC0126852A836B8300E020
:101F500010E020E030E043E050E0BE016F5F7F4FD3
:101F6000848595850E94700F81E090E00F900F901E
:101F70000F90DF91CF911F910F910895EF92FF92F3
:101F80000F931F93CF93DF9300D01F92CDB7DEB78F
:101F90007C01FC018389811117C0148A8FE4898335
:101FA00086858A8380E48B8397012B5E3F4F00E414
:101FB00010E043E050E0BE016F5F7F4F8485958560
:101FC0000E94700FF701838B0F900F900F90DF919D
:101FD000CF911F910F91FF90EF900895CF93DF93D2
:101FE000EC010E94BE0F8B8990E0DF91CF910895A4
:101FF000CF93DF93EC010E94BE0F8B89882359F0A9
:1020000081508B8B8C8991E0980F9C8BC80FD11DD0
:102010008D8990E002C08FEF9FEFDF91CF910895FF
:10202000CF93DF93EC010E94BE0F8B89882331F0A0
:102030008C89C80FD11D8D8990E002C08FEF9FEF72
:10204000DF91CF9108956F927F928F929F92AF927E
:10205000BF92CF92DF92EF92FF920F931F93CF9395
:10206000DF9300D01F92CDB7DEB73C0182E58B83B2
:10207000D3015096ED91FC915197048115812081F7
:10208000318182E0882E912CFE0131965F01C12CB6
:10209000D12CE12CF12C41E050E0BE016D5F7F4F6F
:1020A0001C968D919C911D970E94DA0C8A8190E07C
:1020B000D3011F969C938E931E9750960D911C9161
:1020C00051970115110531F0C8010E94B40BC801E8
:1020D0000E940211F301118A108A8981811102C0C4
:1020E00081E0828B0F900F900F90DF91CF911F9125
:1020F0000F91FF90EF90DF90CF90BF90AF909F90A7
:102100008F907F906F9008950F931F93CF93DF93DD
:1021100000D01F92CDB7DEB722E72983FC012685C8
:102120002A8301E010E09E012D5F3F4F42E050E026
:10213000BE016F5F7F4F848595850E94700F81E09F
:102140009B81913009F080E00F900F900F90DF910C
:10215000CF911F910F910895EF92FF920F931F93CC
:10216000CF93DF9300D0CDB7DEB77C01FC0182892D
:10217000882389F087E7898386858A8300E010E0D9
:1021800020E030E042E050E0BE016F5F7F4F848589
:1021900095850E94700FF701128A0F900F90DF91C2
:1021A000CF911F910F91FF90EF9008952AE236E0B2
:1021B000FC01318320830C94AC10EF92FF920F93BB
:1021C0001F93CF93DF9300D0CDB7DEB77C01698337
:1021D0007A830E94AC1086E090E00E9400118C018E
:1021E00069817A810E944F0CF701118B008B0F904F
:1021F0000F90DF91CF911F910F91FF90EF90089575
:102200000C9477150C940F161F920F920FB60F9225
:1022100011242F933F938F939F93AF93BF938091FC
:10222000550790915607A0915707B09158073091E4
:10223000540723E0230F2D3720F40196A11DB11D73
:1022400005C026E8230F0296A11DB11D2093540757
:102250008093550790935607A0935707B09358075C
:102260008091590790915A07A0915B07B0915C0744
:102270000196A11DB11D8093590790935A07A09311
:102280005B07B0935C07BF91AF919F918F913F9196
:102290002F910F900FBE0F901F9018952FB7F894A5
:1022A0006091550770915607809157079091580794
:1022B0002FBF08953FB7F8948091590790915A071E
:1022C000A0915B07B0915C0726B5A89B05C02F3F86
:1022D00019F00196A11DB11D3FBF6627782F892FE8
:1022E0009A2F620F711D811D911D42E0660F771FAD
:1022F000881F991F4A95D1F70895CF92DF92EF92E8
:10230000FF92CF93DF936B017C010E945A11EB0186
:10231000C114D104E104F10489F00E9426150E9441
:102320005A116C1B7D0B683E734090F381E0C81A14
:10233000D108E108F108C851DC4FEACFDF91CF9115
:10234000FF90EF90DF90CF900895789484B58260ED
:1023500084BD84B5816084BD85B5826085BD85B549
:10236000816085BDEEE6F0E0808181608083E1E8F8
:10237000F0E0108280818260808380818160808330
:10238000E0E8F0E0808181608083E1E9F0E0808135
:1023900082608083808181608083E0E9F0E08081D9
:1023A00081608083E1ECF0E08081846080838081C3
:1023B00082608083808181608083E3ECF0E08081B3
:1023C00081608083E0ECF0E0808182608083E2ECD9
:1023D000F0E0808181608083EAE7F0E080818460C2
:1023E000808380818260808380818160808380811E
:1023F0008068808308951F93CF93DF93182FEB019C
:1024000061E00E94CF12209711F460E004C0CF3F3A
:10241000D10539F461E0812FDF91CF911F910C94A8
:102420000813E12FF0E0E058FE4F449150E0FA012C
:102430003197EF30F10508F06CC0EA5AFF4F0C9469
:102440005D1584B5806884BDC7BD68C084B58062F1
:1024500084BDC8BD63C08091800080688093800087
:10246000D0938900C093880059C080918000806219
:1024700080938000D0938B00C0938A004FC08091DE
:102480008000886080938000D0938D00C0938C0082
:1024900045C080919000806880939000D09399000F
:1024A000C09398003BC08091900080628093900020
:1024B000D0939B00C0939A0031C0809190008860B7
:1024C00080939000D0939D00C0939C0027C0809182
:1024D000C00080688093C0008091C0008F7B809393
:1024E000C000C093CF001AC08091C000806280936A
:1024F000C000C093D00012C08091C2008860809359
:10250000C2008091C2008B7F8093C200C093D20032
:1025100005C0C038D1050CF07DCF77CFDF91CF91CA
:102520001F91089590E0FC013197EF30F105B0F56F
:10253000EB59FF4F0C945D15809180008F7703C09D
:10254000809180008F7D809380000895809180002D
:10255000877FF9CF84B58F7702C084B58F7D84BD26
:102560000895809190008F7707C0809190008F7DB3
:1025700003C080919000877F8093900008958091A0
:10258000C0008F7703C08091C0008F7D8093C00012
:1025900008958091C200877F8093C2000895CF93F1
:1025A000DF9390E0FC01E256FE4F2491FC01E454DD
:1025B000FE4F8491882349F190E0880F991FFC0118
:1025C000E851FE4FA591B49186529E4FFC01C591F2
:1025D000D4919FB7611108C0F8948C912095822303
:1025E0008C93888182230AC0623051F4F8948C91D4
:1025F000322F309583238C938881822B888304C06B
:10260000F8948C91822B8C939FBFDF91CF9108958A
:102610000F931F93CF93DF931F92CDB7DEB7282F71
:1026200030E0F901E058FE4F8491F901E256FE4F87
:102630001491F901E454FE4F04910023C9F088235A
:1026400021F069830E9492126981E02FF0E0EE0F81
:10265000FF1FE652FE4FA591B4919FB7F8948C915D
:10266000611103C01095812301C0812B8C939FBF02
:102670000F90DF91CF911F910F910895FF920F93CB
:102680001F93CF93DF93EC01F62EE881F98104804C
:10269000F581E02D09958C01E881F9810680F781AB
:1026A000E02D6F2DCE010995C8019927DF91CF91BB
:1026B0001F910F91FF900895FC0120812F5F2083CF
:1026C00049E150E066E772E080E80C94AD0945E628
:1026D00050E06FE872E080E80C94AD09EF92FF9251
:1026E0000F931F93CF93DF931F92CDB7DEB78983EC
:1026F0008B017A0141E050E0BE016F5F7F4F84E0C3
:102700000E941209A701B80184E40E9412090F90E7
:10271000DF91CF911F910F91FF90EF900895FC01F1
:1027200091818081813A31F481E0913091F0933050
:1027300089F411C0813271F49B3021F4828180933D
:102740000F0105C09A3031F4828180930E0181E03F
:102750000895089580E0089548E050E082E00C94E8
:102760006E13CF93DF93DC01683818F0E8E7E60FCB
:1027700025C0E62FF0E067FF11C0E058F10981E0C5
:1027800090E001C0880FEA95EAF714969C9114979F
:10279000982B14969C931497E0E010C0EA50FE4FDB
:1027A000E491EE2309F440C0E7FF08C014968C9131
:1027B0001497826014968C931497EF7716968C91E9
:1027C00016978E1741F117968C9117978E1719F15E
:1027D00018968C9118978E17F1F019968C9119977D
:1027E0008E17C9F01A968C911A978E17A1F01B9626
:1027F0008C911B978E1779F080E090E0ED01C80F67
:10280000D91F2E81211102C0EE8305C001968630AA
:102810009105A1F709C0BD016C5F7F4FCD010E94FA
:10282000AC1381E090E008C081E090E013969C93A7
:102830008E93129780E090E0DF91CF9108956838F1
:1028400018F0E8E7E60F25C0E62FF0E067FF12C0BA
:10285000E058F10921E030E001C0220FEA95EAF7E3
:102860002095DC0114963C911497322314963C93E6
:10287000E0E00FC0EA50FE4FE491EE2329F1E7FFBC
:1028800008C0DC0114962C9114972D7F14962C937C
:10289000EF7720E030E0EE2351F0DC01A20FB31F10
:1028A00016964C9116974E1302C016961C922F5FE7
:1028B0003F4F2630310579F7BC016C5F7F4F0E9496
:1028C000AC1381E090E0089580E090E00895FC0171
:1028D0001682178210861186128613861482BC0116
:1028E0006C5F7F4F0C94AC131092690710926007D5
:1028F00010925F078AE396E090935E0780935D07EE
:1029000008951F920F920FB60F9211242F938F9359
:102910009F93EF93FF93E0917A07F0917B0780817B
:10292000E0918007F091810782FD12C09081809133
:1029300083078F5F8F7320918407821751F0E09196
:102940008307F0E0E659F84F958F8093830701C025
:102950008081FF91EF919F918F912F910F900FBEEA
:102960000F901F9018951F920F920FB60F9211247F
:102970002F933F934F935F936F937F938F939F9387
:10298000AF93BF93EF93FF938AE697E00E946406AC
:10299000FF91EF91BF91AF919F918F917F916F9137
:1029A0005F914F913F912F910F900FBE0F901F900D
:1029B00018958AE697E00E94290621E0892B09F400
:1029C00020E0822F089510926D0710926C0788EE18
:1029D00093E0A0E0B0E080936E0790936F07A09320
:1029E0007007B09371078BE096E090936B0780932C
:1029F0006A078DEC90E090937707809376078CECD4
:102A000090E0909379078093780788EC90E090931A
:102A10007B0780937A0789EC90E090937D07809301
:102A20007C078AEC90E090937F0780937E078EEC82
:102A300090E0909381078093800710928307109213
:102A4000840710928507109286070895089597FBD2
:102A5000072E16F4009407D077FD09D00E94631565
:102A600007FC05D03EF4909581959F4F0895709591
:102A700061957F4F0895A1E21A2EAA1BBB1BFD0191
:102A80000DC0AA1FBB1FEE1FFF1FA217B307E4074D
:102A9000F50720F0A21BB30BE40BF50B661F771FA5
:102AA000881F991F1A9469F7609570958095909585
:102AB0009B01AC01BD01CF010895EE0FFF1F0590F2
:102AC000F491E02D0994AA1BBB1B51E107C0AA1F7A
:102AD000BB1FA617B70710F0A61BB70B881F991FBF
:102AE0005A95A9F780959095BC01CD010895CF9393
:102AF000DF938230910510F482E090E0E0910908C4
:102B0000F0910A0820E030E0A0E0B0E0309739F121
:102B10004081518148175907B8F04817590771F497
:102B200082819381109729F013969C938E9312972C
:102B30002CC090930A088093090827C021153105FD
:102B400031F04217530718F0A901DB0101C0EF0172
:102B50009A01BD01DF010280F381E02DD7CF21155D
:102B60003105F9F0281B390B2430310580F48A81B6
:102B70009B816115710521F0FB019383828304C061
:102B800090930A0880930908FE01329644C0FE0122
:102B9000E20FF31F819391932250310939832883E7
:102BA0003AC02091070830910808232B41F4209166
:102BB0000201309103013093080820930708209107
:102BC0000001309101012115310541F42DB73EB7C7
:102BD0004091040150910501241B350BE091070839
:102BE000F0910808E217F307A0F42E1B3F0B2817FB
:102BF000390778F0AC014E5F5F4F2417350748F076
:102C00004E0F5F1F509308084093070881939193DC
:102C100002C0E0E0F0E0CF01DF91CF910895CF93C3
:102C2000DF93009709F487C0FC0132971382128268
:102C3000C0910908D0910A08209781F42081318140
:102C4000280F391F80910708909108088217930771
:102C500079F5F0930808E09307086DC0DE0120E0E5
:102C600030E0AE17BF0750F412964D915C91139768
:102C70009D014115510509F1DA01F3CFB383A28318
:102C800040815181840F951F8A179B0771F48D91A4
:102C90009C911197840F951F0296918380831296C1
:102CA0008D919C911397938382832115310529F48B
:102CB000F0930A08E09309083EC0D9011396FC93EB
:102CC000EE9312974D915D91A40FB51FEA17FB0784
:102CD00079F480819181840F951F0296D901119614
:102CE0009C938E938281938113969C938E931297DB
:102CF000E0E0F0E08A819B81009719F0FE01EC0191
:102D0000F9CFCE01029628813981820F931F20913D
:102D10000708309108082817390769F4309729F413
:102D200010920A081092090802C013821282D093EE
:102D30000808C0930708DF91CF910895A0E0B0E0A4
:102D4000E4EAF6E10C947C17EC01CB01209719F42E
:102D50000E947715B8C0FE01E60FF71F9E012250B2
:102D60003109E217F30708F4ACC0D9010D911C91A9
:102D7000119706171707B8F00530110508F49FC022
:102D8000A801445051094617570708F498C002504B
:102D90001109061B170B019311936D937C93CF01BF
:102DA0000E940F168CC05B01A01AB10A4E01800E62
:102DB000911EA0910908B0910A08612C712C60E065
:102DC00070E0109709F449C0A815B905C9F5ED9050
:102DD000FC901197670142E0C40ED11CCA14DB04B9
:102DE00078F147018A189B08640142E0C40ED11CA7
:102DF0001296BC9012971396AC91B5E0CB16D10405
:102E000040F0B282A38391828082D9018D939C93FA
:102E100009C00E5F1F4F0E0D1F1DF90111830083A6
:102E2000EB2DFA2F6115710531F0DB011396FC9340
:102E3000EE93129744C0F0930A08E09309083FC04C
:102E40006D917C9111976616770608F43B01BD01E0
:102E500012960D90BC91A02DB4CF6091070870918F
:102E6000080868157905E9F468167906D0F44091E8
:102E70000001509101014115510541F44DB75EB774
:102E80006091040170910501461B570BE417F5078B
:102E9000C0F4F0930808E0930708F9019183808358
:102EA0000EC00E9477157C01009759F0A801BE0161
:102EB0000E946817CE010E940F16C70104C0CE0100
:102EC00002C080E090E0CDB7DEB7EEE00C9498173A
:102ED000FB01DC0102C001900D9241505040D8F737
:102EE0000895FB01DC0101900D920020E1F70895A7
:102EF0002F923F924F925F926F927F928F929F920A
:102F0000AF92BF92CF92DF92EF92FF920F931F93F7
:102F1000CF93DF93CDB7DEB7CA1BDB0B0FB6F894A8
:102F2000DEBF0FBECDBF09942A88398848885F84E8
:102F30006E847D848C849B84AA84B984C884DF8059
:102F4000EE80FD800C811B81AA81B981CE0FD11D3D
:102F50000FB6F894DEBF0FBECDBFED01089513E0AC
:102F6000C6E0D3E004C0FE010E945F152296C8307F
:082F7000D107C9F7F894FFCF67
:102F780000000B08800000E10000000000000101D3
:102F8800585858585858583130306572726F720016
:102F980074797065006465736372697074696F6EC3
:102FA800007375636365737300757365726E616D25
:102FB80065004E657720757365724E616D653A20C0
:102FC800004572726F7220636F64653A2000706109
:102FD8007273654C696768745374617465006272D2
:102FE800690073617400687565007B7D007D7D2CC8
:102FF800005573696E67207765616B206465746539
:10300800726D696E6174696F6E206F6620696420E5
:10301800666F722067726F757073004261627948DB
:1030280075650050617273696E6720616E737765AC
:1030380072006964006C69676874730068747470FE
:103048003A2F2F002F6170692F0053657474696ED1
:103058006720757020487565206F6E2059756E0061
:103068002F7573722F426162794875652F2E2F6410
:103078006F537461727459756E4875652E73680064
:10308800547279696E6720746F2063726561746524
:1030980020737472696E67206C6F6E676572207436
:1030A80068616E20617661696C61626C6520627529
:1030B80066666572004275696C7420737472696E15
:1030C800673A20002F6C69676874732F002F677246
:1030D8006F7570732F004261627948756547726F2A
:1030E80075704964005573696E672067726F7570F3
:1030F8002069643A20002F616374696F6E2F007431
:103108007275650066616C736500726F6F74007D1F
:103118007D7D0073746174650072656163686162C6
:103128006C65006C6967687400417661696C6162FE
:103138006C65006E724F664C6967687473005479E9
:103148007065004E616D65004C6967687400537462
:103158006F72696E6720737461746520696E2042AE
:1031680072696467650047726F75702069643A20F8
:10317800007B226C6967687473223A5B2231225D96
:103188002C226E616D65223A22426162794875652A
:10319800227D005061727365642067726F757020BC
:1031A80069643A20004572726F7220696E206772F6
:1031B8006F757020726567697374726174696F6E78
:1031C8002C2072657472792E007B2264657669639F
:1031D8006574797065223A2241726475696E6F234D
:1031E80042616279487565227D005072657373206B
:1031F8007468652048756520627574746F6E206602
:103208006F72207573657220726567697374726175
:1032180074696F6E2E004E6F202876616C69642980
:1032280020757365722C2073657474696E672075D8
:10323800702061206E6577206F6E65005265676942
:10324800737465726564206E657720757365723A6C
:10325800200043616E6E6F7420676574206C696727
:103268006874732077697468206E65772075736554
:1032780072007B22616C657274223A2273656C65F8
:103288006374227D007B22616C657274223A226C21
:1032980073656C656374227D00456E61626C696E4E
:1032A8006720616C6572740044697361626C696E51
:1032B8006720616C657274007B22616C6572742290
:1032C8003A226E6F6E65227D00687474703A2F2FF3
:1032D8007777772E6D6565746875652E636F6D2FCA
:1032E8006170692F6E75706E7000487565524C007C
:1032F8004C696768742025642069643A2025640055
:103308007B226F6E223A2025732C2022627269225A
:103318003A2025642C2022687565223A2025642CE1
:103328002022736174223A2025647D007B22627218
:1033380069223A2025642C2022687565223A2025C6
:10334800642C2022736174223A2025642C20226F79
:103358006E223A2025737D00687474703A2F2F31DD
:1033680039322E3136382E322E322F6170692F3194
:10337800333333653739353333666537363037316C
:103388003466633834363131366635613333332F3A
:103398006C69676874732F312F73746174652F00BB
:1033A800526573746F72696E6720737461746520F7
:1033B80066726F6D20427269646765005265766552
:1033C800616C696E67206C696768747320696E2028
:1033D80067726F7570002F7573722F42616279483A
:1033E80075652F2E2F646F4E6F7469667947726FFB
:1033F80075702E736800444D50202D2000202D201C
:10340800454E4400545243202D2000444247202D6D
:103418002000494E46202D200057524E202D2000D6
:10342800455252202D20004641494C21202D200094
:1034380000000000FF031D04370455049404F10341
:10344800537461727465640048756520696E6974A7
:10345800004E6F74696679696E67207765277265B3
:1034680020746865726500000000003A05810564F3
:103478000574055005610500000000A7066E0729C0
:10348800064206340685060D0A006E616E00696EF6
:1034980066006F76660000000000990F6E07EE0F59
:1034A800F80F1010980F000000003E136E07B113BC
:0434B8001F14671462
:00000001FF
