:100000000C9483010C94AB010C94AB010C94AB01E8
:100010000C94AB010C94AB010C94AB010C94AB01B0
:100020000C94AB010C94AB010C946A1D0C94361C1F
:100030000C94AB010C94AB010C94AB010C94AB0190
:100040000C94AB010C94AB010C94AB010C94AB0180
:100050000C94AB010C94AB010C94AB010C940F28E5
:100060000C94AB010C948C2B0C94BE2B0C94AB0118
:100070000C94AB010C94AB010C94AB010C94AB0150
:100080000C94AB010C94AB010C94AB010C94AB0140
:100090000C94AB010C94AB010C94AB010C94AB0130
:1000A0000C94AB010C94AB010C94AB012C293129BD
:1000B000362940294A2994299429942954295E29CA
:1000C000682972297F2994298729B529B829A72960
:1000D000AB29B129D929D929D929BC29C029C429B1
:1000E000CA29CE29D929D429080B0002020201000D
:1000F000090400000102020000052400100105248B
:1001000001010104240206052406000107058103FC
:1001100010004009040100020A0000000705020265
:100120004000000705830240000000C18081C11229
:100130000100020200004041234180000101020051
:100140000112010002000000404123418000010132
:1001500002000141726475696E6F204C4C4300557A
:10016000534220494F20426F617264000403090426
:1001700072756E2D6272696467650A000A000A0072
:100180000000000200090F0000030401000C000041
:100190000000000000000000000000000000040853
:1001A000020110408040102040804080080204017D
:1001B00080402010020110801020404004040404FC
:1001C00004030405020202020403020202020606FC
:1001D00006060606040402020204000000002500D0
:1001E00028002B002E003100000000002400270012
:1001F0002A002D00300000000000000000002A2B23
:1002000028000000000000000000000000000000C6
:100210000000000000002C9EB4A0A1A2A434A6A758
:10022000A5AE362D3738271E1F2021222324252650
:10023000B333B62EB7B89F8485868788898A8B8C1E
:100240008D8E8F909192939495969798999A9B9C66
:100250009D2F3130A3AD350405060708090A0B0CA4
:100260000D0E0F101112131415161718191A1B1C46
:100270001DAFB1B0B5000904020001030000000980
:1002800021010100012265000705840340000105EA
:10029000010902A1010901A100850105091901292E
:1002A00003150025019503750181029501750581EE
:1002B0000305010930093109381581257F75089535
:1002C000038106C0C005010906A1018502050719C1
:1002D000E029E71500250175019508810295017552
:1002E000088103950675081500256505071900297D
:1002F000658100C0720DEB0F6B1569164024462610
:100300007F2BEE2BA40D11241FBECFEFDAE0DEBF52
:10031000CDBF15E0A0E0B1E0ECE7FFE502C005903D
:100320000D92AC32B107D9F726E0ACE2B5E001C0DE
:100330001D92AE3BB207E1F712E0C4E0D3E004C087
:100340002297FE010E946A2CC43FD107C9F70E9480
:1003500058150C94B12F0C9400000895CF93DF939F
:10036000EC01FB014281538122E065E076E00E94CE
:100370003926CE01DF91CF9108950F931F93CF932C
:10038000DF93CDB7DEB7CA55D1090FB6F894DEBFFB
:100390000FBECDBF8B01BC01CE0101960E94AE0104
:1003A000CE0101960E947825882359F0B801CE012C
:1003B00001960E943C188C01CE0101960E94F32503
:1003C00002C000E010E0CE0101960E942626C8017E
:1003D000C65ADF4F0FB6F894DEBF0FBECDBFDF9118
:1003E000CF911F910F9108950F931F93CF93DF9398
:1003F000CDB7DEB7CA55D1090FB6F894DEBF0FBE30
:10040000CDBF162FBC01CE0101960E94AE01CE01D8
:1004100001960E947825882359F0612FCE0101961C
:100420000E943E188C01CE0101960E94F32502C065
:1004300000E010E0CE0101960E942626C801C65AAF
:10044000DF4F0FB6F894DEBF0FBECDBFDF91CF9167
:100450001F910F9108950F931F93CF93DF93CDB703
:10046000DEB7CA55D1090FB6F894DEBF0FBECDBFB7
:100470008B01BC01CE0101960E94AE01CE01019616
:100480000E947825882399F0B801CE0101960E9438
:100490003C188C016FE471E0CE0101960E943C187B
:1004A000080F191FCE0101960E94F32502C000E03B
:1004B00010E0CE0101960E942626C801C65ADF4FE1
:1004C0000FB6F894DEBF0FBECDBFDF91CF911F9165
:1004D0000F9108950F931F93CF93DF93CDB7DEB79E
:1004E000CA55D1090FB6F894DEBF0FBECDBF8B0140
:1004F000BC01CE0101960E94AE01CE0101960E9480
:100500007825882399F0B801CE0101960E942E1813
:100510008C016FE471E0CE0101960E943C18080F37
:10052000191FCE0101960E94F32502C000E010E0E1
:10053000CE0101960E942626C801C65ADF4F0FB68B
:10054000F894DEBF0FBECDBFDF91CF911F910F9109
:100550000895AF92BF92CF92DF92EF92FF920F93E6
:100560001F93CF93DF93CDB7DEB762970FB6F894A2
:10057000DEBF0FBECDBF5C018B0161E571E00E9463
:100580004C1EFF24F394D801ED91FC910480F58179
:10059000E02DC8010995181619060CF0B0C042E20A
:1005A000B801CE010D960E94121A60E671E0CE01EC
:1005B0000D960E94891F882331F060E671E0C50125
:1005C0000E94821E02C0F11011C066E671E0CE01E9
:1005D0000D960E94891F811159C0F12C6BE671E0C4
:1005E000CE010D960E94891F81116DC067E771E0F1
:1005F000CE010D960E94891F882311F0FF24F394E9
:100600006FE771E0CE010D960E94891F8823C9F122
:1006100042E2B801CE0101960E94121ACE01019663
:100620000E94DE1D42E2B801CE0101960E94121A1C
:10063000BE016F5F7F4FC5010E94621ECE01019611
:100640000E94DE1D68E871E0CE0107960E944C1EF4
:10065000B501CE0107960E944E1FBC01CE01019646
:100660000E94791EBE016F5F7F4F8FE895E00E9468
:100670002F0FCE0101960E94DE1DCE0107960E942B
:10068000DE1DCE010D960E94DE1D7DCFC8010E94A9
:100690000F1A6B017C0169567E4FCE0101960E94B4
:1006A0004C1EBE016F5F7F4F8FE895E00E948B0F5D
:1006B000CE0101960E94DE1DB6016C5B7C4FC50128
:1006C0000E94F91E8ACF42E2B801CE0101960E9433
:1006D000121ACE0101960E94DE1D42E2B801CE013F
:1006E00001960E94121ABE016F5F7F4F8FE895E05E
:1006F0000E948B0FCE0101960E94DE1D77CFC501AF
:1007000062960FB6F894DEBF0FBECDBFDF91CF91DA
:100710001F910F91FF90EF90DF90CF90BF90AF901F
:100720000895CF93DF93EC0145E050E08FE895E02A
:100730000E94090E61E571E0CE010E944C1ECE01BF
:10074000DF91CF910895EF92FF920F931F93CF9374
:10075000DF93CDB7DEB762970FB6F894DEBF0FBE5A
:10076000CDBF7C018B0161E571E00E944C1ED80178
:10077000ED91FC910480F581E02DC8010995892B4C
:1007800009F44FC042E2B801CE010D960E94121A40
:1007900064E771E0CE010D960E94891F811118C097
:1007A00066EA71E0CE010D960E94891F811110C08A
:1007B0006AEA71E0CE010D960E94891F811108C07E
:1007C0006EEA71E0CE010D960E94891F882321F107
:1007D0004CE2B801CE0107960E94121ABE01635F77
:1007E0007F4FCE0101960E94791EBE01695F7F4F47
:1007F000CE0101960E944E1F64EA71E00E94611FC3
:10080000BC01C7010E94F21ECE0101960E94DE1DAE
:10081000CE0107960E94DE1DCE010D960E94DE1DC0
:10082000A6CFC70162960FB6F894DEBF0FBECDBF4C
:10083000DF91CF911F910F91FF90EF900895CF928C
:10084000DF92EF92FF920F931F93CF93DF93CDB779
:10085000DEB72C970FB6F894DEBF0FBECDBF7C017C
:100860006B0107E010E042E2B601CE0101960E9462
:10087000121ACE0101960E94DE1D0150110999F74E
:1008800042E2B601CE0107960E94121A62EB71E0B5
:10089000CE0101960E944C1EBE01695F7F4FCE01C2
:1008A00001960E944E1F6AEB71E00E94611FBC011D
:1008B000C7010E94791ECE0101960E94DE1DCE0165
:1008C00007960E94DE1DC7012C960FB6F894DEBF76
:1008D0000FBECDBFDF91CF911F910F91FF90EF9091
:1008E000DF90CF90089584E395E00E94DE1D8EE2B4
:1008F00095E00E94DE1D8AE395E00C94E127EF92DB
:10090000FF920F931F93CF93DF9300D000D000D0BE
:10091000CDB7DEB78C017B016E5F7F4FCE010196B4
:100920000E94791EB701685F7F4FCE0101960E9439
:100930004E1F60EC71E00E94611FBC01C8010E9463
:10094000791ECE0101960E94DE1DC80126960FB6C3
:10095000F894DEBF0FBECDBFDF91CF911F910F91F5
:10096000FF90EF900895EF92FF920F931F93CF9314
:10097000DF93CDB7DEB72C970FB6F894DEBF0FBE6E
:10098000CDBF8C017A01CE0107960E947F04BE0183
:10099000695F7F4FCE0101960E94791EB701CE019B
:1009A00001960E947B1F69EC71E00E94611FBC01EF
:1009B000C8010E94791ECE0101960E94DE1DCE0163
:1009C00007960E94DE1DC8012C960FB6F894DEBF74
:1009D0000FBECDBFDF91CF911F910F91FF90EF9090
:1009E0000895EF92FF920F931F93CF93DF93CDB7AC
:1009F000DEB72C970FB6F894DEBF0FBECDBF8C01CB
:100A00007A01CE0107960E947F04BE01695F7F4F85
:100A1000CE0101960E94791EB701CE0101960E9477
:100A20007B1F68EB71E00E94611FBC01C8010E943E
:100A3000791ECE0101960E94DE1DCE0107960E940E
:100A4000DE1DC8012C960FB6F894DEBF0FBECDBFD9
:100A5000DF91CF911F910F91FF90EF900895EF924A
:100A6000FF920F931F93CF93DF93CDB7DEB72C97F1
:100A70000FB6F894DEBF0FBECDBF8C01EE24E39419
:100A8000F12CD801ED91FC910480F581E02DC80195
:100A90000995181619060CF04BC042E2B801CE01B8
:100AA00007960E94121A66E671E0CE0107960E9430
:100AB000891F8823A9F0C8010E940F1A7B0169567B
:100AC0007E4FCE0101960E944C1EBE016F5F7F4F8C
:100AD0008FE895E00E948B0FCE0101960E94DE1DEB
:100AE0006BE671E0CE0107960E94891F8823D9F03A
:100AF00042E2B801CE0101960E94121ACE0101967F
:100B00000E94DE1D42E2B801CE0101960E94121A37
:100B1000BE016F5F7F4F8FE895E00E948B0FCE0183
:100B200001960E94DE1DCE0107960E94DE1DA9CF10
:100B3000C7012C960FB6F894DEBF0FBECDBFDF9174
:100B4000CF911F910F91FF90EF9008958F929F92F8
:100B5000AF92BF92CF92DF92EF92FF920F931F93CB
:100B6000CF93DF93CDB7DEB76E970FB6F894DEBFA5
:100B70000FBECDBF5C017B016CED71E0CE014996EB
:100B80000E944C1EC12CD12C00E010E0D701ED9149
:100B9000FC910480F581E02DC7010995181619060E
:100BA0000CF06AC042E2B701CE0143960E94121ACD
:100BB0006BE7CE0143960E94212097FD02C00F5F94
:100BC0001F4F6DE7CE0143960E94212097FD02C082
:100BD0000150110962EE71E0CE0101960E944C1E97
:100BE000BE016F5F7F4FCE0143960E9441204C01B2
:100BF000CE0101960E94DE1D97FC02C00150110932
:100C000061EE71E0CE0101960E944C1EBE016F5F45
:100C10007F4FCE0143960E9441204C01CE010196A8
:100C20000E94DE1D97FC02C00150110960E671E0D0
:100C3000CE0143960E94891F882369F0C7010E9454
:100C40002F054AE0BC01C5010E949A1ECE014396C1
:100C50000E94DE1D20C10130110581F5CE014396B1
:100C60000E948A2016161706180619060CF094C062
:100C7000BFEFCB1ADB0A90C04AE0B601CE0107965F
:100C80000E949A1E65E072E0CE0101960E944C1E01
:100C90004F81588569817A818AEF95E00E9495227B
:100CA000CE0101960E94DE1DCE0107960E94DE1D38
:100CB00067E771E0C5010E944C1EEDC002301105CE
:100CC00021F565EE71E0CE0143960E94891F8823CD
:100CD00009F462C065EE71E0CE0149960E94821E61
:100CE00066E671E0CE0143960E94891F811159C0CA
:100CF00063E871E0CE0143960E94891F81118EC086
:100D0000CE0143960E94DE1D41CF0330110509F04C
:100D100043C065EE71E0CE0149960E94891F882389
:100D200079F36BEE71E0CE0143960E94891F882310
:100D300039F34AE3B701CE0101960E94121ACE019F
:100D400001960E94DE1DD701ED91FC910680F7818E
:100D5000E02DC70109958437E1F066ED71E0CE0121
:100D600001960E944C1E4AE0B601CE010D960E94EB
:100D70009A1E65EF71E0CE0107960E944C1EBE01DF
:100D8000635F7F4FCE0107960E944E1F6BEF71E0AD
:100D90006AC061ED71E0E3CF0230110509F0B0CF18
:100DA0009FCF42E2B701CE0101960E94121ACE01F6
:100DB00001960E94DE1D42E2B701CE0101960E941B
:100DC000121A4AE0B601CE010D960E949A1E65EFF6
:100DD00071E0CE0107960E944C1EBE01635F7F4FFB
:100DE000CE0107960E944E1F60E172E00E94611FD3
:100DF00049815A81FC01608171818AEF95E00E94EE
:100E00009522CE0107960E94DE1DCE010D960E940E
:100E1000DE1DCE0101960E94DE1D6ACF42E2B701BF
:100E2000CE0101960E94121ACE0101960E94DE1D8B
:100E300042E2B701CE0101960E94121A4AE0B601C1
:100E4000CE010D960E949A1E65EF71E0CE010796C5
:100E50000E944C1EBE01635F7F4FCE0107960E9429
:100E60004E1F65E172E00E94611F49815A81DC01D9
:100E70006D917C918AEF95E00E949522CE010796B4
:100E80000E94DE1DCE010D960E94DE1DCE01019650
:100E90000E94DE1D35CFCE0149960E94DE1DC501A0
:100EA0006E960FB6F894DEBF0FBECDBFDF91CF9127
:100EB0001F910F91FF90EF90DF90CF90BF90AF9078
:100EC0009F908F900895EF92FF920F931F93CF936F
:100ED000DF9300D000D000D0CDB7DEB77C01CE01CB
:100EE00001960E947F0400E010E026EA35E0AE01A2
:100EF0004F5F5F4F64E975E0C7010E941E11CE018C
:100F000001960E94DE1DC70126960FB6F894DEBF3B
:100F10000FBECDBFDF91CF911F910F91FF90EF904A
:100F20000895AF92BF92CF92DF92EF92FF920F930C
:100F30001F93CF93DF93CDB7DEB762970FB6F894C8
:100F4000DEBF0FBECDBF5C016B0182E0C80ED11CBD
:100F50006AE172E0CE010D960E944C1EE12CF12C4C
:100F600009EA12E09E01235F3F4FA60164E975E0A4
:100F7000CE0107960E943F1360E671E0CE01019614
:100F80000E944C1EBE016F5F7F4FCE0107960E94EC
:100F9000CC1F81110BC061E571E0CE0107960E9464
:100FA000891F11E0811103C010E001C011E0CE01E2
:100FB00001960E94DE1D112399F024E130E04DE0FE
:100FC00050E06AE070E080ED97E00E94A60DCE014F
:100FD00007960E94DE1DCE010D960E94DE1DB8CF41
:100FE000BE01695F7F4FC5010E94791ECE01079641
:100FF0000E94DE1DCE010D960E94DE1DC501629687
:101000000FB6F894DEBF0FBECDBFDF91CF911F9119
:101010000F91FF90EF90DF90CF90BF90AF90089529
:10102000AF92BF92CF92DF92EF92FF920F931F93F6
:10103000CF93DF93CDB7DEB763970FB6F894DEBFDB
:101040000FBECDBF7C018B01FB01A080B18026E0EB
:10105000C22E21E0D22EC501865091405C01C5010F
:101060008C0D9D1D0E94542FF60181936F01FBE3AF
:10107000CF16F1E0DF0699F780910601181654F5B6
:1010800066E071E0CE0101960E944C1EBE016F5FCA
:101090007F4FC80108960E94621ECE0101960E94F1
:1010A000DE1DB801CE0101960E94630767E771E07B
:1010B000CE0101960E94891F882341F066E071E00D
:1010C000C7010E944C1ECE01019686C0CE0101963A
:1010D0000E94DE1D6BE372E0CE0101960E944C1E61
:1010E000BE016F5F7F4F8FE895E00E942F0FCE010A
:1010F00001960E94DE1DB801CE010D960E94910757
:1011000061E571E0CE010D960E94891F882319F0D8
:1011100061E571E05CC061E672E0CE0107960E9475
:101120004C1EBE01635F7F4FCE0107960E944E1F8B
:10113000BC01CE0101960E94791EBE016F5F7F4FF8
:101140008FE895E00E942F0FCE0101960E94DE1DD0
:10115000CE0107960E94DE1D20E030E041E250E023
:1011600066E071E0CE010D960E94DB1FF801C080A1
:10117000D18096E0A92E91E0B92EF50161915F0131
:10118000C6016B8B0E94542F6B89681719F0C6013A
:101190000E945C2FFFEFCF1ADF0A8BE3A81681E0D5
:1011A000B80659F7B801CE0101960E94630767E7B8
:1011B00071E0CE0101960E94891F182FCE01019681
:1011C0000E94DE1D112309F4A3CF66E071E0C70180
:1011D0000E944C1ECE010D960E94DE1DC701639633
:1011E0000FB6F894DEBF0FBECDBFDF91CF911F9138
:1011F0000F91FF90EF90DF90CF90BF90AF90089548
:10120000DF92EF92FF920F931F93CF93DF93CDB7AF
:10121000DEB762970FB6F894DEBF0FBECDBF8C016C
:101220007B01D42E6EE972E0CE0101960E944C1E25
:10123000BE016F5F7F4F8FE895E00E94770ECE0171
:1012400001960E94DE1DA701B801CE010D960E94F5
:10125000B304DD2019F067E772E002C06AE872E0CB
:10126000CE0107960E944C1EE12CF12C01E913E0FF
:101270009E01295F3F4FAE01435F5F4F64E975E018
:10128000CE0101960E940A12CE0101960E94DE1D37
:10129000CE0107960E94DE1DCE010D960E94DE1D36
:1012A00062960FB6F894DEBF0FBECDBFDF91CF912F
:1012B0001F910F91FF90EF90DF900895EF92FF92B2
:1012C0000F931F93CF93DF93CDB7DEB762970FB61F
:1012D000F894DEBF0FBECDBF8C017B016DEA72E0DA
:1012E000CE0101960E944C1EBE016F5F7F4F8FE8BA
:1012F00095E00E94770ECE0101960E94DE1DA701A7
:10130000B801CE010D960E94B3046DEB72E0CE01E0
:1013100007960E944C1EE12CF12C01E913E09E017E
:10132000295F3F4FAE01435F5F4F64E975E0CE0137
:1013300001960E940A12CE0101960E94DE1DCE0186
:1013400007960E94DE1DCE010D960E94DE1D62965C
:101350000FB6F894DEBF0FBECDBFDF91CF911F91C6
:101360000F91FF90EF900895EF92FF920F931F93CC
:10137000CF93DF93CDB7DEB72C970FB6F894DEBFCF
:101380000FBECDBF7C016EEC72E0CE0107960E94CD
:101390004C1E00E010E02FE134E0AE01495F5F4FEA
:1013A00064E975E0C7010E941E116FEE72E0CE0184
:1013B00001960E944C1EF7014081518169817A811A
:1013C0008AEF95E00E949522CE0101960E94DE1DD3
:1013D000CE0107960E94DE1DC7012C960FB6F89429
:1013E000DEBF0FBECDBFDF91CF911F910F91FF9058
:1013F000EF900895CF92DF92EF92FF920F931F9399
:10140000CF93DF93CDB7DEB762970FB6F894DEBF08
:101410000FBECDBF7C016B018C010E5F1F4F61E5DC
:1014200071E0C8010E94891F882319F1B701CE011C
:1014300001960E94B409BE016F5F7F4FC8010E94F0
:10144000621ECE0101960E94DE1D61E571E0C801B9
:101450000E94891F882319F3C114D10419F0F601E1
:101460000995DDCF68EE73E080E090E00E94882867
:10147000D6CF65EF72E0CE0107960E944C1EB801F0
:10148000CE0107960E944E1FBC01CE0101960E941C
:10149000791EBE016F5F7F4F8FE895E00E942F0F8E
:1014A000CE0101960E94DE1DCE0107960E94DE1D30
:1014B000B701CE010D960E94100864E073E0CE01E2
:1014C00007960E944C1EBE01635F7F4FCE010796B8
:1014D0000E944E1FBC01CE0101960E94791EBE01E2
:1014E0006F5F7F4F8FE895E00E942F0FCE0101962E
:1014F0000E94DE1DCE0107960E94DE1D61E571E0AF
:10150000CE010D960E94891FCE010D960E94DE1D10
:1015100062960FB6F894DEBF0FBECDBFDF91CF91BC
:101520001F910F91FF90EF90DF90CF900895EF9271
:10153000FF920F931F93CF93DF93CDB7DEB76897DA
:101540000FB6F894DEBF0FBECDBF7B01AB01BC016F
:10155000CE0143960E94F10400E010E023EA33E05C
:10156000AE014D5E5F4F64E975E0CE010D960E94BD
:101570001E116BE173E0CE0107960E944C1EBE0166
:10158000635F7F4FCE0107960E944E1FBC01CE01C4
:1015900001960E94791EBE016F5F7F4F8FE895E034
:1015A0000E94D30ECE0101960E94DE1DCE01079649
:1015B0000E94DE1D4AE0B701CE0107960E949A1EE6
:1015C00065E173E0CE0101960E944C1EBE01695F89
:1015D0007F4FCE0101960E944E1F67E573E00E9487
:1015E000611F4D855E85FC01608171818AEF95E008
:1015F0000E949522CE0101960E94DE1DCE01079623
:101600000E94DE1DCE010D960E94DE1DCE01439686
:101610000E94DE1D68960FB6F894DEBF0FBECDBFE8
:10162000DF91CF911F910F91FF90EF900895AF92AE
:10163000BF92CF92DF92EF92FF920F931F93CF93BF
:10164000DF93CDB7DEB762970FB6F894DEBF0FBE5B
:10165000CDBF6A015901AB01BC01CE010D960E94BC
:10166000B3046BE273E0CE0101960E944C1EB601FA
:10167000CE0101960E944E1F63E373E00E94611F3A
:10168000B5010E944E1F6DE373E00E94611FB80117
:101690000E944E1F67E473E00E94611FB7010E9421
:1016A0004E1F6CEC72E00E94611FBC01CE010796D8
:1016B0000E94791ECE0101960E94DE1DE12CF12CC4
:1016C00001E913E09E01295F3F4FAE01435F5F4F89
:1016D00064E975E0CE0101960E940A12CE010196DE
:1016E0000E94DE1DCE0107960E94DE1DCE010D96E2
:1016F0000E94DE1D62960FB6F894DEBF0FBECDBF0E
:10170000DF91CF911F910F91FF90EF90DF90CF90DD
:10171000BF90AF900895CF92DF92EF92FF920F9318
:101720001F93CF93DF938C01EB01BA01CE010E948E
:1017300041207C01AC016CE2CE010E9405206C01CD
:10174000A7016AE3CE010E940520AC014F5F5F4F05
:101750009601BE01C8010E944520C801DF91CF91CA
:101760001F910F91FF90EF90DF90CF900895AF926F
:10177000BF92CF92DF92EF92FF920F931F93CF937E
:10178000DF93CDB7DEB7C955D1090FB6F894DEBFE8
:101790000FBECDBF6C015B0123E230E0AE014F5FB5
:1017A0005F4F61E573E08AEF95E00E94F222BE018F
:1017B0006F5F7F4FCE018C5A9F4F0E944C1E6DE58C
:1017C00073E0CE018A960E944C1EBE016C5A7F4F78
:1017D000CE018A960E944E1FBC01CE0184960E94C3
:1017E000791EBE016C5D7F4F8FE895E00E94D30E9D
:1017F000CE0184960E94DE1DCE018A960E94DE1DD7
:1018000064E771E0CE0184960E944C1EBE016C5AC2
:101810007F4FCE018A960E94791EAE014C5D5F4FCC
:10182000BE01665D7F4FCE01825B9F4F0E948B0B96
:10183000CE018A960E94DE1DCE0184960E94DE1D96
:1018400066EA71E0CE0184960E944C1EBE016C5A7D
:101850007F4FCE018A960E94791EAE014C5D5F4F8C
:10186000BE01665D7F4FCE01885B9F4F0E948B0B50
:10187000CE018A960E94DE1DCE0184960E94DE1D56
:101880006EEA71E0CE0184960E944C1EBE016C5A35
:101890007F4FCE018A960E94791EAE014C5D5F4F4C
:1018A000BE01665D7F4FCE018E5B9F4F0E948B0B0A
:1018B000CE018A960E94DE1DCE0184960E94DE1D16
:1018C0006AEA71E0CE0184960E944C1EBE016C5AF9
:1018D0007F4FCE018A960E94791EAE014C5D5F4F0C
:1018E000BE01665D7F4FCE01CC960E948B0BCE0170
:1018F0008A960E94DE1DCE0184960E94DE1DBE01E6
:10190000645C7F4FCE0184960E94791EBE016E5B9F
:101910007F4FCE018A960E94791EBE01685B7F4F81
:10192000CE01C0960E94791EBE01625B7F4FCE0140
:10193000C6960E94791ECE0184967C018E01065DBA
:101940001F4F9E01205D3F4FAE014A5C5F4FB501C6
:10195000C6010E94170BCE01C6960E94DE1DCE0165
:10196000C0960E94DE1DC8010E94DE1DC7010E94B4
:10197000DE1DCE01CC960E94DE1DCE018E5B9F4FF8
:101980000E94DE1DCE01885B9F4F0E94DE1DCE01AE
:10199000825B9F4F0E94DE1DCE018C5A9F4F0E949A
:1019A000DE1DC75ADF4F0FB6F894DEBF0FBECDBFA6
:1019B000DF91CF911F910F91FF90EF90DF90CF902B
:1019C000BF90AF9008957F928F929F92AF92BF92F7
:1019D000CF92DF92EF92FF920F931F93CF93DF93FB
:1019E000CDB7DEB768970FB6F894DEBF0FBECDBF98
:1019F0006C015B01742E4901B7014AE0CE010796E4
:101A00000E949A1E4AE0B801CE010D960E949A1ECD
:101A10004AE0B401CE0143960E949A1E772019F045
:101A200061ED71E002C066ED71E0CE0101960E94A9
:101A30004C1ECE0107967C018E01035F1F4F9E0155
:101A40002D5E3F4FAE014F5F5F4FB501C6010E9453
:101A5000170BCE0101960E94DE1DCE0143960E9417
:101A6000DE1DC8010E94DE1DC7010E94DE1D6896B2
:101A70000FB6F894DEBF0FBECDBFDF91CF911F919F
:101A80000F91FF90EF90DF90CF90BF90AF909F901D
:101A90008F907F900895FF920F931F93CF93DF93C2
:101AA000EC018B01FF24F3946115710509F0F12C11
:101AB0004F2D61E070E0CE010E940009F1100CC0D2
:101AC000F801099561E070E0CE01DF91CF911F919F
:101AD0000F91FF900C945E09DF91CF911F910F91B0
:101AE000FF90089510923D0510923C0588EE93E01A
:101AF000A0E0B0E080933E0590933F05A0934005A1
:101B0000B093410581E195E090933B0580933A05C0
:101B10008AEF95E0909347058093460510924C0517
:101B200010924D0510924E0510922D0510922C0525
:101B300061E571E08EE295E00E944C1E61E571E086
:101B400084E395E00C944C1E0C9473043F924F92E6
:101B50005F926F927F928F929F92AF92BF92CF923D
:101B6000DF92EF92FF920F931F93CF93DF93EC01DD
:101B70008B01342E290161E0842F0E94DA29CE01E5
:101B8000B2010E94322C5B016801E12CF12CC0E013
:101B9000D0E088249924801A910A662457FC609426
:101BA000762CAE14BF04DCF0BE01832D0E94062902
:101BB000CC0DDD1D1C161D063CF4CF3FD1053CF0BD
:101BC0006401CFEFD0E003C06801C0E0D0E0C30102
:101BD000B2010E9488288FEFE81AF80AE2CF60E08D
:101BE00070E0832DDF91CF911F910F91FF90EF90C7
:101BF000DF90CF90BF90AF909F908F907F906F902D
:101C00005F904F903F900C940629FC017283618392
:101C100008950F931F93CF93DF938C01EB01DC01A9
:101C200013968D919C911497892B09F45BC01196A2
:101C30008D919C911297841795070CF448C081EA06
:101C400095E00E945A16882309F441C0F801838167
:101C50009481DC01ED91FC910190F081E02D66E72B
:101C600073E00995E881F9810480F581E02DCE01CA
:101C70000995892BA1F0E881F9810680F781E02D93
:101C8000CE010995F801A381B481ED91FC911197E2
:101C90000280F381E02D682FCD010995E3CFD801B3
:101CA00013968D919C911497DC01ED91FC91048029
:101CB000F581E02D61E571E00995F801838194815A
:101CC000DC01ED91FC910084F185E02D06C0E881F6
:101CD000F9810284F385E02DCE01DF91CF911F9130
:101CE0000F910994DF91CF911F910F910895CF9299
:101CF000DF92EF92FF920F931F93CF93DF9300D069
:101D000000D000D0CDB7DEB78C016B01DC0113969B
:101D10008D919C911497892BB9F111968D919C917D
:101D2000129705978CF181EA95E00E945A16882354
:101D300059F1D8011396ED91FC9114970190F0811F
:101D4000E02DE680F7806DE773E0CE0101960E94FA
:101D50004C1EB601CE0101960E944E1FBC01F80137
:101D600083819481F7010995CE0101960E94DE1DC1
:101D7000D80113968D919C911497DC01ED91FC9103
:101D80000084F185E02D099526960FB6F894DEBF04
:101D90000FBECDBFDF91CF911F910F91FF90EF90BC
:101DA000DF90CF900895CF92DF92EF92FF920F9342
:101DB0001F93CF93DF9300D000D000D0CDB7DEB714
:101DC0008C016B01DC0113968D919C911497892BEA
:101DD000B9F111968D919C91129704978CF181EA3B
:101DE00095E00E945A16882359F1D8011396ED9177
:101DF000FC9114970190F081E02DE680F78064E873
:101E000073E0CE0101960E944C1EB601CE010196F0
:101E10000E944E1FBC01F80183819481F70109954E
:101E2000CE0101960E94DE1DD80113968D919C91E2
:101E30001497DC01ED91FC910084F185E02D09956A
:101E400026960FB6F894DEBF0FBECDBFDF91CF91BF
:101E50001F910F91FF90EF90DF90CF900895CF9258
:101E6000DF92EF92FF920F931F93CF93DF9300D0F7
:101E700000D000D0CDB7DEB78C016B01DC0113962A
:101E80008D919C911497892BB9F111968D919C910C
:101E9000129703978CF181EA95E00E945A168823E5
:101EA00059F1D8011396ED91FC9114970190F081AE
:101EB000E02DE680F7806BE873E0CE0101960E948A
:101EC0004C1EB601CE0101960E944E1FBC01F801C6
:101ED00083819481F7010995CE0101960E94DE1D50
:101EE000D80113968D919C911497DC01ED91FC9192
:101EF0000084F185E02D099526960FB6F894DEBF93
:101F00000FBECDBFDF91CF911F910F91FF90EF904A
:101F1000DF90CF900895CF92DF92EF92FF920F93D0
:101F20001F93CF93DF9300D000D000D0CDB7DEB7A2
:101F30008C016B01DC0113968D919C911497892B78
:101F4000B9F111968D919C91129702978CF181EACB
:101F500095E00E945A16882359F1D8011396ED9105
:101F6000FC9114970190F081E02DE680F78062E902
:101F700073E0CE0101960E944C1EB601CE0101967F
:101F80000E944E1FBC01F80183819481F7010995DD
:101F9000CE0101960E94DE1DD80113968D919C9171
:101FA0001497DC01ED91FC910084F185E02D0995F9
:101FB00026960FB6F894DEBF0FBECDBFDF91CF914E
:101FC0001F910F91FF90EF90DF90CF900895FC014B
:101FD00074836383089581E080938F0583E090E0AC
:101FE00090939105809390050895CF93DF9300D04F
:101FF000CDB7DEB781EA95E069837A830E945A16ED
:1020000069817A81882341F081EA95E00F900F90F1
:10201000DF91CF910C943C1880E090E00F900F90EE
:10202000DF91CF910895CF93DF931F92CDB7DEB7A5
:1020300081EA95E069830E945A166981882339F004
:1020400081EA95E00F90DF91CF910C943E1880E0EB
:1020500090E00F90DF91CF910895CF93DF9300D060
:10206000CDB7DEB781EA95E069837A830E945A167C
:1020700069817A81882341F081EA95E00F900F9081
:10208000DF91CF910C945B1880E090E00F900F905F
:10209000DF91CF910895CF93DF9300D0CDB7DEB716
:1020A00081EA95E069837A830E945A1669817A8170
:1020B000882341F081EA95E00F900F90DF91CF9156
:1020C0000C94491880E090E00F900F90DF91CF9131
:1020D0000895CF93C42F26EA33E0FC013183208397
:1020E000AB01662757FD6095762F81EA95E00E9447
:1020F0005416CC2369F081EA95E00E945A168111AA
:1021000007C064E670E080E090E00E948828F3CF8A
:10211000CF91089581EA95E00E945A16882321F014
:1021200081EA95E00C94BE1508950F931F93CF9309
:10213000DF93EC018B018A819B81DC01ED91FC91A5
:102140000190F081E02D09958C819D81DC01ED915C
:10215000FC910190F081E02DB801DF91CF911F91AA
:102160000F9109941F93CF93DF93EC01162F8A816F
:102170009B81DC01ED91FC910280F381E02D0995BA
:102180008C819D81DC01ED91FC910280F381E02D39
:10219000612FDF91CF911F9109940F931F93CF93DC
:1021A000DF93EC018B018A819B81DC01ED91FC9135
:1021B0000480F581E02D09958C819D81DC01ED91F4
:1021C000FC910480F581E02DB801DF91CF911F9142
:1021D0000F9109940F931F93CF93DF93EC018B0121
:1021E0008A819B81DC01ED91FC910680F781E02DD5
:1021F00009958C819D81DC01ED91FC910680F78130
:10220000E02DB801DF91CF911F910F910994CF93E9
:10221000DF93EC018A819B81DC01ED91FC910084CC
:10222000F185E02D09958C819D81DC01ED91FC917A
:102230000084F185E02DDF91CF910994AF92BF9298
:10224000CF92DF92EF92FF920F931F93CF93DF9382
:10225000CDB7DEB7CB55D1090FB6F894DEBF0FBEB0
:10226000CDBF7C016A0159016EEB73E0CE018A5A41
:102270009F4F0E944C1EB601CE018A5A9F4F0E946A
:102280004E1FBC01CE0101960E94791EBE016F5FF8
:102290007F4F8FE895E00E94770ECE0101960E9455
:1022A000DE1DCE018A5A9F4F0E94DE1D1C821B82BA
:1022B00088EE93E0A0E0B0E08D839E83AF83B88783
:1022C00081E195E09A8389838AEF95E09E878D87E7
:1022D0001B8A1C8A1D8A6FEC73E0CE018A5A9F4FBD
:1022E0000E944C1EBE016A5A7F4FCE0101960E9489
:1022F000E827CE018A5A9F4F0E94DE1D64ED73E0ED
:10230000CE018A5A9F4F0E944C1EBE016A5A7F4FCF
:10231000CE0101960E94D826CE018A5A9F4F0E9474
:10232000DE1D67ED73E0CE018A5A9F4F0E944C1E5E
:10233000BE016A5A7F4FCE0101960E94D826CE0177
:102340008A5A9F4F0E94DE1DB601CE0101960E945F
:10235000D826CE0101960E94A1276C0118161906F5
:102360003CF56AED73E081EA95E00E943C184AE092
:1023700050E0B60181EA95E00E94101981EA95E0EB
:102380000E94BE150115110529F0B601CE01019676
:10239000F8010995CE0101960E944D26CE010196C5
:1023A0000E94B72761E571E0C7010E944C1E1BC067
:1023B000BE016F5F7F4FCE018A5A9F4FF50109958D
:1023C000CE0101960E944D26CE0101960E94B727AC
:1023D000BE016A5A7F4FC7010E94791ECE018A5AF8
:1023E0009F4F0E94DE1DCE0101960E94E127C7018A
:1023F000C55ADF4F0FB6F894DEBF0FBECDBFDF91D9
:10240000CF911F910F91FF90EF90DF90CF90BF90F1
:10241000AF9008958F929F92AF92BF92CF92DF922A
:10242000EF92FF920F931F93CF93DF93CDB7DEB759
:10243000CB55D1090FB6F894DEBF0FBECDBF6C01EE
:102440005A01490167EE73E0CE018A5A9F4F0E94FC
:102450004C1EB501CE018A5A9F4F0E944E1F68EF55
:1024600073E00E94611FB4010E944E1FBC01CE01A7
:1024700001960E94791EBE016F5F7F4F8FE895E045
:102480000E94770ECE0101960E94DE1DCE018A5A6F
:102490009F4F0E94DE1D1C821B8288EE93E0A0E00D
:1024A000B0E08D839E83AF83B88781E195E09A8306
:1024B00089838AEF95E09E878D871B8A1C8A1D8AF7
:1024C0006FEC73E0CE018A5A9F4F0E944C1EBE01F2
:1024D0006A5A7F4FCE0101960E94E827CE018A5AA0
:1024E0009F4F0E94DE1D66E074E0CE018A5A9F4F26
:1024F0000E944C1EBE016A5A7F4FCE0101960E9477
:10250000D826CE018A5A9F4F0E94DE1D69E074E0F2
:10251000CE018A5A9F4F0E944C1EBE016A5A7F4FBD
:10252000CE0101960E94D826CE018A5A9F4F0E9462
:10253000DE1D6AE274E0CE018A5A9F4F0E944C1E53
:10254000BE016A5A7F4FCE0101960E94D826CE0165
:102550008A5A9F4F0E94DE1D6DE274E0CE018A5AB6
:102560009F4F0E944C1EBE016A5A7F4FCE010196BA
:102570000E94D826CE018A5A9F4F0E94DE1D61E339
:1025800074E0CE018A5A9F4F0E944C1EBE016A5AC7
:102590007F4FCE0101960E94D826CE018A5A9F4FC6
:1025A0000E94DE1DB401CE0101960E94D826B5011D
:1025B000CE0101960E94D826CE0101960E94A12745
:1025C0005C01181619063CF56AED73E081EA95E0A6
:1025D0000E943C184AE050E0B50181EA95E00E9473
:1025E000101981EA95E00E94BE15E114F10429F06A
:1025F000B501CE010196F7010995CE0101960E9421
:102600004D26CE0101960E94B72761E571E0C60113
:102610000E944C1E1BC0BE016F5F7F4FCE018A5AC5
:102620009F4FF8010995CE0101960E944D26CE01DB
:1026300001960E94B727BE016A5A7F4FC6010E94C9
:10264000791ECE018A5A9F4F0E94DE1DCE0101964F
:102650000E94E127C601C55ADF4F0FB6F894DEBFCE
:102660000FBECDBFDF91CF911F910F91FF90EF90E3
:10267000DF90CF90BF90AF909F908F9008958F92F2
:102680009F92AF92BF92CF92DF92EF92FF920F9301
:102690001F93CF93DF93CDB7DEB7CB55D1090FB6DC
:1026A000F894DEBF0FBECDBF6C015A01490164E34F
:1026B00074E0CE018A5A9F4F0E944C1EB501CE0194
:1026C0008A5A9F4F0E944E1F68EF73E00E94611F5D
:1026D000B4010E944E1FBC01CE0101960E94791EDA
:1026E000BE016F5F7F4F8FE895E00E94770ECE01AD
:1026F00001960E94DE1DCE018A5A9F4F0E94DE1D68
:102700001C821B8288EE93E0A0E0B0E08D839E8364
:10271000AF83B88781E195E09A8389838AEF95E05A
:102720009E878D871B8A1C8A1D8A6FEC73E0CE0101
:102730008A5A9F4F0E944C1EBE016A5A7F4FCE019B
:1027400001960E94E827CE018A5A9F4F0E94DE1D03
:1027500066E074E0CE018A5A9F4F0E944C1EBE0173
:102760006A5A7F4FCE0101960E94D826CE018A5A1E
:102770009F4F0E94DE1D69E074E0CE018A5A9F4F90
:102780000E944C1EBE016A5A7F4FCE0101960E94E4
:10279000D826CE018A5A9F4F0E94DE1D6AE274E05D
:1027A000CE018A5A9F4F0E944C1EBE016A5A7F4F2B
:1027B000CE0101960E94D826CE018A5A9F4F0E94D0
:1027C000DE1D66E474E0CE018A5A9F4F0E944C1EC3
:1027D000BE016A5A7F4FCE0101960E94D826CE01D3
:1027E0008A5A9F4F0E94DE1D61E374E0CE018A5A2F
:1027F0009F4F0E944C1EBE016A5A7F4FCE01019628
:102800000E94D826CE018A5A9F4F0E94DE1DB40135
:10281000CE0101960E94D826B501CE0101960E94F4
:10282000D826CE0101960E94A1275C011816190630
:102830003CF56AED73E081EA95E00E943C184AE0BD
:1028400050E0B50181EA95E00E94101981EA95E017
:102850000E94BE15E114F10429F0B501CE010196E4
:10286000F7010995CE0101960E944D26CE010196F1
:102870000E94B72761E571E0C6010E944C1E1BC093
:10288000BE016F5F7F4FCE018A5A9F4FF8010995B5
:10289000CE0101960E944D26CE0101960E94B727D7
:1028A000BE016A5A7F4FC6010E94791ECE018A5A24
:1028B0009F4F0E94DE1DCE0101960E94E127C601B6
:1028C000C55ADF4F0FB6F894DEBF0FBECDBFDF9104
:1028D000CF911F910F91FF90EF90DF90CF90BF901D
:1028E000AF909F908F90089524E130E04DE050E04C
:1028F0006AE070E080E197E20C94A60D24E130E0FC
:102900004DE050E06AE070E080E197E20C94A60DA3
:102910000895CF93DF9300D000D000D0CDB7DEB7BD
:102920006BE474E0CE0101960E944C1EBE016F5F05
:102930007F4F8FE895E00E942F0FCE0101960E94F5
:10294000DE1D64E774E18CE295E00E94FA0964E51B
:1029500074E0CE0101960E944C1EBE016F5F7F4F56
:102960008FE895E00E942F0FCE0101960E94DE1D98
:102970006EE774E18CE295E00E944B0D26960FB64F
:10298000F894DEBF0FBECDBFDF91CF910895CF93F6
:10299000DF9300D000D000D0CDB7DEB726E040E90D
:1029A00050ED63E070E080910306909104060E9470
:1029B00069178AEF95E00E94392365E975E08FE891
:1029C00095E00E94E70F64E070E08FE895E00E94D8
:1029D000050E6AE674E0CE0101960E944C1EBE010F
:1029E0006F5F7F4F8FE895E00E942F0FCE01019619
:1029F0000E94DE1D0E94891426960FB6F894DEBF51
:102A00000FBECDBFDF91CF910895EF92FF920F934C
:102A10001F93CF93DF9300D000D000D0CDB7DEB7A7
:102A200024E130E04DE050E065E070E088E893E1BB
:102A30000E94A60D62E774E0CE0101960E944C1E32
:102A4000BE016F5F7F4F8FE895E00E942F0FCE0190
:102A500001960E94DE1D61E070E08CE295E00E942C
:102A6000970A8EEFE82EF12C00E010E02EEF30E018
:102A700041E061E070E08CE295E00E94E30C60E1EF
:102A800077E280E090E00E94882861E070E08CE2CC
:102A900095E00E94B70B26960FB6F894DEBF0FBEE6
:102AA000CDBFDF91CF911F910F91FF90EF900895CF
:102AB0000E94B0280E94881481EF95E00E94C01DFA
:102AC0000E94C714C3EBD6E10E9405152097E1F3DD
:102AD0000E94B316F9CFCF93DF9340E060E875E230
:102AE0008FE995E00E946910CBE9D5E086E591E099
:102AF0009983888382E894E090939E0580939D0556
:102B000085E096E00E94372684EB93E0909396054B
:102B100080939505D0939805C09397058FE995E02C
:102B200090939A0580939905DF91CF910895CF9363
:102B3000DF931F92CDB7DEB76983DC01ED91FC9185
:102B40000280F381E02D41E050E0BE016F5F7F4FD6
:102B500009950F90DF91CF910895CF93DF93EC010A
:102B60008C859D8597FF05C082E00E940B1B9D8789
:102B70008C878C859D85DF91CF91089583E00C949F
:102B8000601DFC018485958597FD06C082E00E944A
:102B9000B31A90E00196089582E00E94B31A90E083
:102BA0000895FC018485958597FD05C02FEF3FEFC3
:102BB00035872487089582E00C940B1BCF93DF9315
:102BC000EC0180914201882331F083E00E943C1B9C
:102BD0001816190634F081E090E09B838A8380E028
:102BE00090E0DF91CF910895FC0120812E5F20833A
:102BF00042E450E068EE70E080E80C94D71BFC01E2
:102C000081819081913A59F4813209F03CC047E0CA
:102C100050E06BE371E080E00E94D71B43C091322B
:102C200091F5803239F467E070E08BE391E00E9427
:102C3000081C06C0823209F035C0828180934201AF
:102C400080913B0190913C01A0913D01B0913E01EA
:102C5000803B9440A105B105C1F48091420180FD03
:102C600014C087E797E790930108809300082BE052
:102C700088E190E00FB6F894A895809360000FBEAD
:102C8000209360000FC080E0089588E10FB6F894AB
:102C900080936000109260000FBEA895109201080A
:102CA0001092000881E008952FEF3FEFFC01358777
:102CB00024870895CF93C09142016AE070E080E0DC
:102CC00090E00E94882881E0C11101C080E0CF918E
:102CD00008951092A4051092A30588EE93E0A0E059
:102CE000B0E08093A5059093A605A093A705B093A7
:102CF000A8058BE994E09093A2058093A1058FEF3E
:102D00009FEF9093AE058093AD050895FC01818DF2
:102D1000228D90E0805C9F4F821B91098F739927D1
:102D20000895FC01918D828D981731F0828DE80F06
:102D3000F11D858D90E008958FEF9FEF0895FC01C0
:102D4000918D828D981761F0828DDF01A80FB11DE2
:102D50005D968C91928D9F5F9F73928F90E0089506
:102D60008FEF9FEF089584EE9BE2892B49F080E07E
:102D700090E0892B29F00E94E42B81110C94000033
:102D80000895FC01848DDF01A80FB11DA35ABF4F28
:102D90002C91848D90E001968F739927848FA6895A
:102DA000B7892C93A089B1898C9180648C93938D81
:102DB000848D981306C00288F389E02D80818F7D71
:102DC00080830895CF93DF93EC01888D8823C9F029
:102DD000EA89FB89808185FD05C0A889B9898C9124
:102DE00086FD0FC00FB607FCF5CF808185FFF2CFBF
:102DF000A889B9898C9185FFEDCFCE010E94C116BB
:102E0000E7CFDF91CF910895CF92DF92FF920F939A
:102E10001F93CF93DF931F92CDB7DEB76C0181E094
:102E2000D60158968C9358975B969C915B975C96CD
:102E30008C915C97981307C05096ED91FC91519737
:102E4000808185FD2EC0F601038D10E00F5F1F4FBE
:102E50000F731127F02EF601848DF81211C00FB6F2
:102E600007FCF9CFD6015096ED91FC9151978081E6
:102E700085FFF1CFC60169830E94C1166981EBCF3E
:102E8000838DE80FF11DE35AFF4F6083D6015B96F7
:102E90000C935B975296ED91FC91539780818062E1
:102EA0000CC0D6015696ED91FC91579760835096D1
:102EB000ED91FC91519780818064808381E090E066
:102EC0000F90DF91CF911F910F91FF90DF90CF90E6
:102ED0000895BF92CF92DF92EF92FF92CF93DF934C
:102EE000EC016A017B01B22EE889F98982E08083D6
:102EF000411581EE580761057105A1F060E079E0A8
:102F00008DE390E0A70196010E94462C21503109E3
:102F1000410951095695479537952795211580E127
:102F2000380798F0E889F989108260E874E88EE142
:102F300090E0A70196010E94462C215031094109D9
:102F400051095695479537952795EC85FD85308332
:102F5000EE85FF852083188EEC89FD89B082EA8991
:102F6000FB89808180618083EA89FB898081886018
:102F70008083EA89FB89808180688083EA89FB8974
:102F800080818F7D8083DF91CF91FF90EF90DF90E4
:102F9000CF90BF900895CF92DF92EF92FF920F9360
:102FA0001F93CF93DF936C017A01EB01E60EF71EBE
:102FB00000E010E0CE15DF0561F06991D601ED91DA
:102FC000FC910190F081E02DC6010995080F191FB1
:102FD000F1CFC801DF91CF911F910F91FF90EF903A
:102FE000DF90CF9008956115710581F0DB010D90A0
:102FF0000020E9F7AD0141505109461B570BDC0198
:10300000ED91FC910280F381E02D099480E090E045
:103010000895EF92FF920F931F93CF93DF938C014C
:10302000FB01C0E0D0E064917F018FEFE81AF80A5D
:10303000662361F0D801ED91FC910190F081E02DC3
:10304000C8010995C80FD91FF701EDCFCE01DF9157
:10305000CF911F910F91FF90EF900895DC01ED91BA
:10306000FC91DB0114964D915C9115976D917C91CB
:103070000280F381E02D09940C94F317DC01ED91AB
:10308000FC910190F081E02D09946FE471E00C94C3
:10309000F3170F931F93CF93DF93EC010E942E1829
:1030A0008C01CE010E944518800F911FDF91CF91B6
:1030B0001F910F9108950F931F93CF93DF93EC010E
:1030C0000E94F3178C01CE010E944518800F911FBA
:1030D000DF91CF911F910F9108958F929F92AF92A0
:1030E000BF92CF92DF92EF92FF920F931F93CF93F5
:1030F000DF93CDB7DEB7A1970FB6F894DEBF0FBE52
:10310000CDBF7C01C42EE52FCB01D22E19A221E028
:103110002D1510F02AE0D22E8E010F5D1F4F8D2C41
:10312000912CA12CB12C6C2D7E2FA50194010E9415
:10313000462C8C2DD29E80191124015011098A3001
:1031400014F4805D01C0895CF8018083211531058C
:103150004105510521F0C22EE32FCA01E4CFB80189
:10316000C7010E94F317A1960FB6F894DEBF0FBEF9
:10317000CDBFDF91CF911F910F91FF90EF90DF9026
:10318000CF90BF90AF909F908F900895CF92DF9295
:10319000EF92FF920F931F93CF93DF93EC016A019D
:1031A0007B012115310579F4E881F9810190F081E5
:1031B000E02D642FDF91CF911F910F91FF90EF9041
:1031C000DF90CF9009942A303105E9F477FF1AC0D7
:1031D0006DE20E943E188C0144275527BA014C1914
:1031E0005D096E097F092AE0CE010E946D18800FEB
:1031F000911FDF91CF911F910F91FF90EF90DF9082
:10320000CF9008952AE0B701A601CE01DF91CF91BA
:103210001F910F91FF90EF90DF90CF900C946D185D
:103220000F931F93CF93DF93EC019A01AB016627B5
:1032300057FD6095762F0E94C6188C01CE010E9422
:103240004518800F911FDF91CF911F910F91089525
:103250000F931F93CF93DF93EC010E945928688747
:1032600079878A879B87E881F9810680F781E02D3D
:10327000CE01099597FF15C00E9459280885198528
:103280002A853B85601B710B820B930B0C811D8182
:103290002E813F81601771078207930720F38FEF1C
:1032A0009FEFDF91CF911F910F9108950F931F937F
:1032B000CF93DF93EC010E945928688779878A872A
:1032C0009B87E881F9810084F185E02DCE01099585
:1032D00097FF15C00E945928088519852A853B85C6
:1032E000601B710B820B930B0C811D812E813F8122
:1032F000601771078207930720F38FEF9FEFDF912D
:10330000CF911F910F910895CF93DF93EC01CE01E0
:103310000E94561997FD11C08D32910571F09C01E4
:10332000205331092A30310540F0E881F9810680C7
:10333000F781E02DCE010995EACFDF91CF91089575
:10334000CF92DF92FF920F931F93CF93DF9300D022
:1033500000D0CDB7DEB76C01062F0E948419FC01A6
:1033600097FD4BC020E030E0A901F12C112707FDAB
:103370001095E017F107E9F0ED32F105C1F0CF014A
:10338000C0970A97B0F4AAE0B0E00E946E2C9B01AF
:10339000AC01CF01AA2797FDA095BA2F280F391F9E
:1033A0004A1F5B1F205331094109510902C0FF2404
:1033B000F394D601ED91FC910680F781E02DC601D2
:1033C00029833A834B835C830995C6010E94561971
:1033D000FC01C09729813A814B815C810A9748F2B0
:1033E000E017F10731F2FF2061F066277727CB0164
:1033F000621B730B840B950B06C060E070E0CB0181
:1034000002C0CA01B9010F900F900F900F90DF9189
:10341000CF911F910F91FF90DF90CF90089561E0C1
:103420000C94A019EF92FF920F931F93CF93DF9309
:10343000EC018B01E42E61E571E00E944C1EC80195
:103440000E942819FF24E7FCF09497FD0BC08E150D
:103450009F0541F0682FCE010E94091FC8010E94FC
:103460002819F3CFCE01DF91CF911F910F91FF90DB
:10347000EF9008954091F5055091F6052091F305E0
:103480003091F40542175307B4F49091E800957019
:10349000E1F39091E80092FD19C08093F1008091D2
:1034A000F5059091F60501968F739927892B19F4EC
:1034B0008EEF8093E8008091F5059091F6050196D6
:1034C0009093F6058093F50581E0089580E00895D6
:1034D000CF92DF92FF920F931F93CF93DF931F92B0
:1034E000CDB7DEB7082F162F862F880F8E5F9983F2
:1034F0000E943A1A83E00E943A1AF02EC02E998157
:10350000D92E8C2D8F19811778F4F60184910E94A1
:103510003A1A082F80E00E943A1A8023FFEFCF1A50
:10352000DF0A8111EECF01C081E00F90DF91CF91D2
:103530001F910F91FF90DF90CF900895615030F070
:103540002091F100FC0120830196F8CF289884E6B1
:103550008093F80508952FB7FC012083F8946770D5
:103560006093E9000895CF93DF931F92CDB7DEB744
:10357000682FCE0101960E94AB1A8091F2009981CA
:103580009FBF0F90DF91CF910895FF920F931F93EC
:10359000CF93DF9300D0CDB7DEB7F62E8A0190919E
:1035A000F705992311F057FF03C08FEF9FEF2BC052
:1035B000682FCE0101967A830E94AB1A8091F200A7
:1035C00090E0A8017A81801791070CF4AC01EF2DEF
:1035D000F72FF40E84E6FE1639F028988093F8054C
:1035E0009091F1009193F7CF4115510521F0809111
:1035F000F200882321F089818FBFCA0104C08BE6C5
:103600008093E800F8CF0F900F90DF91CF911F913A
:103610000F91FF900895CF93DF931F92CDB7DEB740
:1036200041E050E0BE016F5F7F4F0E94C51A0197D5
:1036300019F4898190E002C08FEF9FEF0F90DF9126
:10364000CF910895CF93DF931F92CDB7DEB7682F48
:10365000CE0101960E94AB1A9091E800892F8072EA
:1036600095FF04C09091F20080E4891B99819FBF6F
:103670000F90DF91CF9108956F927F928F929F92DA
:10368000AF92BF92CF92DF92EF92FF920F931F9370
:10369000CF93DF931F92CDB7DEB7782E7B01C42E78
:1036A000B52E8091F705882369F0042F152F8AEF36
:1036B000D82E872D8072982E9AE3A92E872D80749C
:1036C000882E11C08FEF9FEF57C0872D0E94221BBD
:1036D000682E81110CC0DA94A9F361E070E080E0FB
:1036E00090E00E9488280115110579F73BC0282F2A
:1036F00030E0021713070CF4602E672DCE010196FF
:103700000E94AB1A8091E80085FF29C0262D30E089
:10371000021B130B992039F06A948FEF6816B1F0F1
:103720001092F100F9CFF701862D77FE07C0815086
:1037300058F094919093F1003196F9CF815020F098
:1037400091919093F100FACFE20EF31E8091E80080
:1037500085FF0FC00115110511F481100AC0898180
:103760008FBFC1CF5D9884E68093F9058C2D9B2D8A
:1037700003C0A092E800F3CF0F90DF91CF911F918B
:103780000F91FF90EF90DF90CF90BF90AF909F9000
:103790008F907F906F9008951092E9001092F60537
:1037A0001092F5059093F4058093F3050895CF9258
:1037B000DF92FF920F931F93CF93DF9300D0CDB78B
:1037C000DEB7F82E8A016B0101151105B1F0F60183
:1037D000F7FE02C0849101C0808149835A830E9410
:1037E0003A1A01501109FFEFCF1ADF0A49815A81B5
:1037F0008111EACF8FEF9FEF01C0CA010F900F90A8
:10380000DF91CF911F910F91FF90DF90CF9008959E
:103810001F93CF93DF931F92CDB7DEB7162F209162
:10382000E80022FFFCCF612F79830E949E1A8BEF64
:103830008093E800812F7981972F0F90DF91CF91AE
:103840001F910895CF93DF931F92CDB7DEB71982F2
:10385000CE0101960E94F415CE0101960E94672ABE
:10386000898190E00F90DF91CF9108951F920F9280
:103870000FB60F921124EF92FF920F931F932F9385
:103880003F934F935F936F937F938F939F93AF93E8
:10389000BF93EF93FF93CF93DF93CDB7DEB76297DC
:1038A000DEBFCDBF1092E9008091E80083FFEBC03E
:1038B00068E0CE010A960E949E1A82EF8093E8008B
:1038C0009A8597FF05C08091E80080FFFCCF03C078
:1038D0008EEF8093E800892F807609F0B9C08B8540
:1038E000811105C01092F1001092F100C5C0282F7F
:1038F0002D7F213009F4C0C0853049F48091E80063
:1039000080FFFCCF8C8580688093E300B5C0863053
:1039100009F076C02D85E888F988223071F580E0BD
:1039200090E02A8B0E94CC1B0E94221C99E08E0101
:103930000F5F1F4FF801392F11923A95E9F79983DC
:103940002A892A8391E09E8390E898879AEF998745
:103950002091F5053091F605275F3F4F3C832B837F
:103960008D83C7010E94CC1B49E050E0B80180E084
:103970000E94D71B0E94221C7FC0C7012A8B0E9475
:10398000CC1B2A89223241F482E290E00E94722A02
:10399000892B09F071C074C0213069F48889998934
:1039A000089711F42093F2058091F205811118C057
:1039B00061E471E01AC0233009F062C08C8588236D
:1039C00091F0823021F46CE08FE591E006C0813007
:1039D00009F056C06BE083E591E00E94681A4AC086
:1039E0006FE271E002C06CE671E06115710509F4E7
:1039F00047C0FB01449150E080E80E94D71B3CC0C7
:103A0000873009F43DC0883021F481E08093F100D3
:103A100033C0893089F5937099F5EBE2F1E081E0EC
:103A200021E096E38093E9002093EB0034913093FA
:103A3000EC009093ED008F5F3196853099F78EE71B
:103A40008093EA001092EA008C858093F70514C0F9
:103A5000888999890E94CC1B8E85811105C0CE0171
:103A60000A960E94FF1506C0823051F4CE010A96D4
:103A70000E949A2A882321F08EEF8093E80003C0E9
:103A800081E28093EB0062960FB6F894DEBF0FBE22
:103A9000CDBFDF91CF91FF91EF91BF91AF919F91FA
:103AA0008F917F916F915F914F913F912F911F91D6
:103AB0000F91FF90EF900F900FBE0F901F901895F1
:103AC0008093E9008091F200882319F08AE38093C3
:103AD000E80008951F920F920FB60F9211242F93B2
:103AE0003F934F935F936F937F938F939F93AF9386
:103AF000BF93EF93FF938091E1001092E10083FF69
:103B00000FC01092E90091E09093EB001092EC004E
:103B100092E39093ED001092F70598E09093F000F7
:103B200082FF1DC083E00E94601D8091F9058823FB
:103B300039F08091F90581508093F905882369F067
:103B40008091F805882359F08091F8058150809381
:103B5000F805811104C0289A02C05D9AF1CFFF9147
:103B6000EF91BF91AF919F918F917F916F915F91F5
:103B70004F913F912F910F900FBE0F901F9018956E
:103B80001092F70581E08093D70080EA8093D800F7
:103B900082E189BD09B400FEFDCF61E070E080E004
:103BA00090E00E94882880E98093D8008CE0809380
:103BB000E2001092E000559A209A0895FC0180815D
:103BC00091810C94342DCF93DF93EC0188819981FE
:103BD000009711F00E94342D198218821D821C82D8
:103BE0001B821A82DF91CF9108950F931F93CF9379
:103BF000DF93EC018B016F5F7F4F888199810E9479
:103C0000C32D009731F0998388831B830A8381E059
:103C100001C080E0DF91CF911F910F910895CF9364
:103C2000DF93EC0188819981892B29F08A819B811E
:103C30008617970760F4CE010E94F51D882341F096
:103C40008C819D81892B19F4E881F981108281E0B2
:103C5000DF91CF910895EF92FF920F931F93CF932F
:103C6000DF93EC017B018A01BA010E940F1E8111D2
:103C700004C0CE010E94E31D07C01D830C83B70161
:103C8000888199810E94D12ECE01DF91CF911F9121
:103C90000F91FF90EF900895FC0111821082138222
:103CA0001282158214826115710559F0FB01019091
:103CB0000020E9F7AF0141505109461B570B0C9406
:103CC0002B1E0895CF93DF93EC01FB018617970716
:103CD00061F0608171816115710529F04481558120
:103CE0000E942B1E02C00E94E31DCE01DF91CF91E6
:103CF0000895FC01118210821382128215821482AF
:103D00000C94621ECF93DF93EC016115710561F095
:103D1000FB0101900020E9F7AF0141505109461B1A
:103D2000570B0E942B1E02C00E94E31DCE01DF91A3
:103D3000CF9108950F931F93CF93DF93CDB7DEB745
:103D400062970FB6F894DEBF0FBECDBF8C01CB01DA
:103D5000F80111821082138212821582148250E0BF
:103D6000BE016F5F7F4F0E940F2FBE016F5F7F4FBD
:103D7000C8010E94821E62960FB6F894DEBF0FBE85
:103D8000CDBFDF91CF911F910F910895EF92FF92D8
:103D90000F931F93CF93DF93EC017B010C811D8167
:103DA0006115710511F480E016C04115510591F0BF
:103DB000040F151FB8010E940F1E8823A1F328814C
:103DC00039818C819D81B701820F931F0E94D12E72
:103DD0001D830C8381E0DF91CF911F910F91FF90A4
:103DE000EF900895FB0144815581608171810C94AD
:103DF000C61E6115710559F0FB0101900020E9F71D
:103E0000AF0141505109461B570B0C94C61E80E070
:103E10000895CF93DF9300D0CDB7DEB769831A82C0
:103E200041E050E0BE016F5F7F4F0E94C61E0F90C1
:103E30000F90DF91CF910895EF92FF920F931F9310
:103E4000CF93DF93CDB7DEB728970FB6F894DEBFD8
:103E50000FBECDBF7C01CB014AE050E08E010F5F69
:103E60001F4FB8010E940F2FF80101900020E9F7C1
:103E7000AF0141505109401B510BB801C7010E94CD
:103E8000C61E28960FB6F894DEBF0FBECDBFDF91D9
:103E9000CF911F910F91FF90EF900895CF93DF93F3
:103EA000EC01FB0144815581608171810E94C61E35
:103EB000811103C0CE010E94E31DCE01DF91CF919D
:103EC0000895CF93DF93EC016115710569F0FB0153
:103ED00001900020E9F7AF0141505109461B570BF3
:103EE0000E94C61E811103C0CE010E94E31DCE01B7
:103EF000DF91CF910895CF93DF93EC010E941C1FB7
:103F0000811103C0CE010E94E31DCE01DF91CF914C
:103F10000895FC0124813581232B31F421E06115C2
:103F20007105A1F0FB0108C0FC0180819181611540
:103F3000710531F421E0FC018081882339F005C04E
:103F40000E94C82E21E0892B09F020E0822F0895DD
:103F5000FA01DB0114964D915C911597DC011496E2
:103F60002D913C911597241B350B2E173F0788F098
:103F70008D919C91009769F0DB016D917C916115A9
:103F8000710539F08E0F9F1F0E94D82E21E0892BDA
:103F900009F020E0822F0895FC0144815581FB0146
:103FA000248135814217530720F040E050E00C9403
:103FB000A81F80E008950F931F93CF93DF93EB0129
:103FC00041155105E9F02097D9F0FC016481758114
:103FD00026173707A0F4621B730B8A0101501109E1
:103FE0006017710708F48B01FC0160817181620F19
:103FF000731FA801CE010E94E62EC00FD11F1882A8
:10400000DF91CF911F910F910895CF93DF93FC0122
:10401000848195814817590778F4C081D181772729
:1040200067FD7095CE01840F951F0E94BD2E0097ED
:1040300019F08C1B9D0B02C08FEF9FEFDF91CF918A
:10404000089540E050E00C940520CF93DF93FC01ED
:10405000848195814817590778F4C081D181FB018B
:1040600060817181CE01840F951F0E94F52E00970B
:1040700019F08C1B9D0B02C08FEF9FEFDF91CF914A
:10408000089540E050E00C942520BF92CF92DF923B
:10409000EF92FF920F931F93CF93DF936C017B01FD
:1040A000EA0189012417350720F48D2FE901042F37
:1040B000182F61E571E0C6010E944C1ED7011496CD
:1040C0008D919C911597C817D907C8F4801791074F
:1040D00008F48C01D701ED91FC911197E00FF11FCD
:1040E000B08010826D917C916C0F7D1FC6010E9483
:1040F000821ED701ED91FC91E00FF11FB082C60145
:10410000DF91CF911F910F91FF90EF90DF90CF90B3
:10411000BF900895FC0180819181009711F00C946B
:104120008D2E60E070E0CB010895FC012381348185
:104130002627022E2295207F2025032E322F22951E
:104140002F700226269532272327220F220F220FB7
:104150002025FC01348323830895CF93DF93EC0162
:104160008D819E81DC01ED91FC916C810190F0814B
:10417000E02D09958D819E81DC01ED91FC910190EE
:10418000F081E02D6B81DF91CF9109948F929F9206
:10419000AF92BF92CF92DF92EF92FF92CF93DF93D5
:1041A000EC016B010E9459284B015C01E12CF12CC0
:1041B0008D819E81DC01ED91FC910680F781E02DDF
:1041C000099597FF0DC00E945928681979098A0935
:1041D0009B096C157D058E059F0550F38FEF9FEFB2
:1041E000DF91CF91FF90EF90DF90CF90BF90AF9095
:1041F0009F908F900895CF93DF93EC018D819E81E6
:10420000DC01ED91FC910480F581E02D09951816F3
:10421000190654F48D819E81DC01ED91FC9106809C
:10422000F781E02D0995EACFDF91CF9108952F9284
:104230003F924F925F926F927F928F929F92AF9236
:10424000BF92CF92DF92EF92FF920F931F93CF9383
:10425000DF93CDB7DEB72D970FB6F894DEBF0FBE54
:10426000CDBF3C011B013C832B83BF82AE82580132
:10427000AC0CBD1CA40EB51EBD824B2C512CCA012A
:10428000860F971F99878887D901A00FB11FBB8719
:10429000AA87F601EE0DFF1DFD87EC87D301189666
:1042A0008C91581608F026C1EFEFFFEFD30114965A
:1042B000FC93EE93139715968D919C911697DC01C4
:1042C000ED91FC910190F081E02D6FEF09956FEF7A
:1042D000C3010E949520F30185819681DC01ED9157
:1042E000FC910190F081E02DD3016C910995F301CF
:1042F0006081C3010E949520D30115968D919C91F8
:104300001697DC01ED91FC910190F081E02D6D811B
:104310000995642DC3010E949520F3018581968142
:10432000DC01ED91FC910190F081E02D6A2D099561
:104330006A2DC3010E949520610188859985C81660
:10434000D906A1F0F301858196818601DC01ED910A
:10435000FC910190F081E02DD6016D916D010995E0
:10436000F8016081C3010E949520E7CFCB80DC80FB
:104370008A859B85C816D906B1F0D30115968D9113
:104380009C9116978601DC01ED91FC910190F081E2
:10439000E02DD6016D916D010995F8016081C30191
:1043A0000E949520E5CF87018C859D850817190708
:1043B000B1F0D30115968D919C9116976801DC019F
:1043C000ED91FC910190F081E02DD8016D918D016E
:1043D0000995F6016081C3010E949520E5CFC301D4
:1043E0000E94AD2064E670E0C3010E94C6208F3FAA
:1043F000910509F074C0EFEFFFEFD3011496FC9321
:10440000EE9313976FEFC3010E94952065E070E073
:10441000C3010E94C620D3016C91262F30E0821781
:10442000930709F05CC0C3010E9495206AE070E028
:10443000C3010E94C6208C0197FD51C0682FC301A3
:104440000E9495206AE070E0C3010E94C6206C01C2
:1044500097FD45C0682FC3010E9495200A831982E9
:1044600009811A810C0D1D1DC12CD12C65E070E055
:10447000C301C016D106A1F0C814D90489F00E9466
:10448000C62097FD09C0EE81FF81EC0DFD1D8083E4
:10449000682FC3010E949520BFEFCB1ADB0AE6CF3D
:1044A0000E94C6206C0197FD1AC065E070E0C30150
:1044B0000E94C62097FD13C0DC2CCC24C80ED91E48
:1044C000F301838194818C159D0549F480818F5F70
:1044D0008083C8018016910678F4C4010DC05394FE
:1044E00064E670E080E090E00E948828C3010E94AA
:1044F000FB20D4CE8FEF9FEF2D960FB6F894DEBF42
:104500000FBECDBFDF91CF911F910F91FF90EF9024
:10451000DF90CF90BF90AF909F908F907F906F90E3
:104520005F904F903F902F9008956F927F928F925F
:104530009F92AF92BF92CF92DF92EF92FF920F9332
:104540001F93CF93DF93CDB7DEB727970FB6F894BD
:10455000DEBF0FBECDBF3C018B017A0165EC74E07C
:10456000CE0101960E944C1EB801CE0101960E9418
:10457000F91E67EC74E0CE0101960E94F91EB701A6
:10458000CE0101960E94F91E4D815E8169817A817A
:1045900088248394912CCE0107965C01C12CD12CE8
:1045A000E12CF12C00E010E020E030E0C3010E949B
:1045B0001721CE0101960E94DE1D27960FB6F894B2
:1045C000DEBF0FBECDBFDF91CF911F910F91FF9046
:1045D000EF90DF90CF90BF90AF909F908F907F90A3
:1045E0006F9008954F925F926F927F928F929F92F9
:1045F000AF92BF92CF92DF92EF92FF920F931F93F1
:10460000CF93DF931F92CDB7DEB73A01290124E69D
:104610002983FB0101900020E9F78F010150110966
:10462000061B170B42015A01C12CD12CE12CF12C95
:104630009B0141E050E0BE016F5F7F4F0E94172158
:104640008415950520F4F301E80FF91F10820F90EF
:10465000DF91CF911F910F91FF90EF90DF90CF905E
:10466000BF90AF909F908F907F906F905F904F9092
:1046700008953F924F925F926F927F928F929F9296
:10468000AF92BF92CF92DF92EF92FF920F931F9360
:10469000CF93DF93CDB7DEB72E970FB6F894DEBF7A
:1046A0000FBECDBF3C01DC0117968C91179781118D
:1046B000CFC081E017968C93C3010E94FB2068EE67
:1046C00073E080E090E00E948828F3018581968164
:1046D000DC01ED91FC910480F581E02D099518161F
:1046E000190654F355E0552E4424439462E3362EC4
:1046F000E5E4F1E0DE011696852D01900D928A9594
:10470000E1F7F3014086812C912CA12CB12CC12C16
:10471000D12CE12CF12C00E010E020E030E045E06D
:1047200050E0BE016A5F7F4FC3010E94172163E022
:10473000D30115968D919C9116970E943E186AEFB1
:1047400070E080E090E00E9488286EE771E0F3015D
:10475000858196810E9409186AEF70E080E090E000
:104760000E9488286CE771E0D30115968D919C9189
:1047700016970E94091864EF71E080E090E00E94B3
:10478000882860E771E0F301858196810E9409180D
:1047900064EF71E080E090E00E948828C3010E94ED
:1047A000FB20EAE4F1E0DE011196852D01900D92E7
:1047B0008A95E1F7D30118963C9244E0842E912C1F
:1047C000FE013B965F0120E030E045E050E0BE0195
:1047D0006F5F7F4FC3010E9417218F3FFFEF9F073D
:1047E00039F468EE73E080E090E00E94882880CF82
:1047F0002B852111FFCF049711F52C8530E0205334
:10480000310944E6429FC001439F900D11242D853C
:1048100030E0205331096AE0629FA001639F500D90
:104820001124840F951F2E8530E020533109820F0B
:10483000931FD30112969C938E93119705C084E623
:1048400090E0F3019283818382E3D30118968C93E5
:104850002E960FB6F894DEBF0FBECDBFDF91CF917D
:104860001F910F91FF90EF90DF90CF90BF90AF908E
:104870009F908F907F906F905F904F903F900895A2
:104880001092FA058DE196E0909300068093FF0563
:10489000109201061092020690930406809303067C
:1048A0000895CF93DF931F92CDB7DEB76983DC0104
:1048B000ED91FC910280F381E02D41E050E0BE01DA
:1048C0006F5F7F4F09950F90DF91CF910895089505
:1048D0006F927F928F929F92AF92BF92CF92DF9210
:1048E000EF92FF920F931F93CF93DF9300D01F920D
:1048F000CDB7DEB79B013A01FC01E85AFF4F40817A
:104900004F3F21F147E64983319640814A833997E9
:1049100088248394912CCE0103965C01C12CD12C68
:10492000E12CF12C830142E050E0BE016F5F7F4F2C
:10493000808191810E9417218B81882329F090E04A
:1049400091958195910904C0C30102C08FEF9FEF3B
:104950000F900F900F90DF91CF911F910F91FF90CB
:10496000EF90DF90CF90BF90AF909F908F907F900F
:104970006F9008958F929F92AF92BF92CF92DF92E5
:10498000EF92FF920F931F9348015901C12CD12C34
:10499000E12CF12C00E010E020E030E00E94172133
:1049A0001F910F91FF90EF90DF90CF90BF90AF904D
:1049B0009F908F9008952F923F924F925F926F92A7
:1049C0007F928F929F92AF92BF92CF92DF92EF929F
:1049D000FF920F931F93CF93DF93CDB7DEB7289746
:1049E0000FB6F894DEBF0FBECDBF3C018B01FC01BA
:1049F0001382128288EE93E0A0E0B0E08483958376
:104A0000A683B78385EF94E0918380831301F0E55B
:104A10002F0E311CF101318320837301F2E5EF0E7B
:104A2000F11C61E571E0C70148870E944C1E23011B
:104A300088E5480E511C4885F2014083B801C70142
:104A40000E94821E82E7898387E78A8381E68B83BF
:104A500086E48E83F2018081FE01E80FF11D8181E1
:104A60008F8381E090E0F30197878687EA5AFF4FB2
:104A700000811181F7012081318192E0892E912CF2
:104A8000CE0104965C01C12CD12CE12CF12C42E02A
:104A900050E0BE016A5F7F4FF101808191810E94E9
:104AA00017218C81882321F08FEFF201808307C0CA
:104AB000F301E75AFF4F8D818083F3011486289616
:104AC0000FB6F894DEBF0FBECDBFDF91CF911F911F
:104AD0000F91FF90EF90DF90CF90BF90AF909F909D
:104AE0008F907F906F905F904F903F902F900895A0
:104AF000FC01E85AFF4F81E090819F3F09F480E07C
:104B00000895EF92FF920F931F93CF93DF9300D0FE
:104B10001F92CDB7DEB77C01FC018485811124C0D2
:104B2000158687E489838FE38B83E75AFF4F808163
:104B30008A8300E410E09701205F3F4F43E050E09C
:104B4000BE016F5F7F4F3997808191810E94BA24A7
:104B5000F7018487811102C0148606C0F70195858C
:104B60009F5F9587815084870F900F900F90DF9102
:104B7000CF911F910F91FF90EF900895CF93DF9306
:104B8000EC010E9481258C85882359F081508C8707
:104B90008D8591E0980F9D87C80FD11D888990E081
:104BA00002C08FEF9FEFDF91CF910895CF93DF93F6
:104BB000EC010E9481258C85882331F08D85C80FFA
:104BC000D11D888990E002C08FEF9FEFDF91CF91D8
:104BD0000895CF93DF93EC010E9481258C8590E0AE
:104BE000DF91CF910895EF92FF920F931F93CF9390
:104BF000DF9300D01F92CDB7DEB77C0128E5E20E2F
:104C0000F11CF70120812F3FB9F026E62983319668
:104C100020812A83399701E010E09E012D5F3F4FEC
:104C200042E050E0BE016F5F7F4F808191810E9422
:104C3000BA248FEFF70180830F900F900F90DF91D0
:104C4000CF911F910F91FF90EF900895CF93DF9335
:104C5000EC0185EF94E099838883CE010E94F325CF
:104C6000CE018E5A9F4FDF91CF910C94DE1D81E0D3
:104C70000895CF93DF93EC01BA01422F2AEF35E07C
:104C80000E94DB24CE01DF91CF9108958AEF95E059
:104C90009093060680930506089508950F931F9339
:104CA000CF93DF9300D01F92CDB7DEB729E42983DD
:104CB000FC0126852A836B8300E010E020E030E0D1
:104CC00043E050E0BE016F5F7F4F848595850E9471
:104CD000BA2481E090E00F900F900F90DF91CF9178
:104CE0001F910F910895EF92FF920F931F93CF930F
:104CF000DF9300D01F92CDB7DEB77C01FC01838922
:104D0000811117C0148A8FE4898386858A8380E4A1
:104D10008B8397012B5E3F4F00E410E043E050E0AF
:104D2000BE016F5F7F4F848595850E94BA24F7018D
:104D3000838B0F900F900F90DF91CF911F910F9168
:104D4000FF90EF900895CF93DF93EC010E947326BC
:104D50008B8990E0DF91CF910895CF93DF93EC01A1
:104D60000E9473268B89882359F081508B8B8C8904
:104D700091E0980F9C8BC80FD11D8D8990E002C0E7
:104D80008FEF9FEFDF91CF910895CF93DF93EC01E9
:104D90000E9473268B89882331F08C89C80FD11D1E
:104DA0008D8990E002C08FEF9FEFDF91CF91089542
:104DB0000F931F93CF93DF93EC018B0167EC74E0AB
:104DC000888999890E94F91EB80188899989DF919B
:104DD000CF911F910F910C94F21E6F927F928F9240
:104DE0009F92AF92BF92CF92DF92EF92FF920F937A
:104DF0001F93CF93DF9300D01F92CDB7DEB73C0156
:104E000082E58B83D3015096ED91FC9151970481FB
:104E100015812081318182E0882E912CFE0131960E
:104E20005F01C12CD12CE12CF12C41E050E0BE01FE
:104E30006D5F7F4F1C968D919C911D970E9417214D
:104E40008A8190E0D3011F969C938E931E97509673
:104E50000D911C9151970115110531F0C8010E9467
:104E6000DE1DC8010E940D28F301118A108A898174
:104E7000811102C081E0828B0F900F900F90DF9123
:104E8000CF911F910F91FF90EF90DF90CF90BF9047
:104E9000AF909F908F907F906F9008950F931F9386
:104EA000CF93DF9300D01F92CDB7DEB722E72983DF
:104EB000FC0126852A8301E010E09E012D5F3F4F13
:104EC00042E050E0BE016F5F7F4F848595850E9470
:104ED000BA2481E09B81913009F080E00F900F901F
:104EE0000F90DF91CF911F910F9108950F931F9312
:104EF000CF93DF9300D000D0CDB7DEB727E52B836B
:104F0000FC0126852C8302E010E09E012F5F3F4FBD
:104F100042E050E0BE016D5F7F4F848595850E9421
:104F2000BA24898190E0982F88272A81820F911DC9
:104F30000F900F900F900F90DF91CF911F910F91D5
:104F40000895CF93DF93EC010E94ED26CE010E94DD
:104F50004E27882339F064E670E080E090E00E94FC
:104F60008828F4CFCE01DF91CF910C947627EF9271
:104F7000FF920F931F93CF93DF9300D0CDB7DEB78F
:104F80007C01FC018289882389F087E789838685F3
:104F90008A8300E010E020E030E042E050E0BE0113
:104FA0006F5F7F4F848595850E94BA24F701128A2E
:104FB0000F900F90DF91CF911F910F91FF90EF9085
:104FC000089521E135E0FC01318320830C94B7275B
:104FD000EF92FF920F931F93CF93DF9300D0CDB743
:104FE000DEB77C0169837A830E94B72786E090E070
:104FF0000E940B288C0169817A810E94791EF70139
:10500000118B008B0F900F90DF91CF911F910F911B
:10501000FF90EF9008950C949C2C0C94342D1F92CB
:105020000F920FB60F9211242F933F938F939F935C
:10503000AF93BF938091080690910906A0910A064C
:10504000B0910B063091070623E0230F2D3720F493
:105050000196A11DB11D05C026E8230F0296A11DD2
:10506000B11D209307068093080690930906A0932C
:105070000A06B0930B0680910C0690910D06A09144
:105080000E06B0910F060196A11DB11D80930C066E
:1050900090930D06A0930E06B0930F06BF91AF91AB
:1050A0009F918F913F912F910F900FBE0F901F9066
:1050B00018952FB7F89460910806709109068091B1
:1050C0000A0690910B062FBF08953FB7F894809180
:1050D0000C0690910D06A0910E06B0910F0626B514
:1050E000A89B05C02F3F19F00196A11DB11D3FBF20
:1050F0006627782F892F9A2F620F711D811D911DB0
:1051000042E0660F771F881F991F4A95D1F70895CF
:10511000CF92DF92EF92FF92CF93DF936B017C01EE
:105120000E946528EB01C114D104E104F10489F067
:105130000E94312C0E9465286C1B7D0B683E7340D9
:1051400090F381E0C81AD108E108F108C851DC4F9A
:10515000EACFDF91CF91FF90EF90DF90CF9008954D
:10516000789484B5826084BD84B5816084BD85B542
:10517000826085BD85B5816085BDEEE6F0E0808109
:1051800081608083E1E8F0E010828081826080832A
:10519000808181608083E0E8F0E0808181608083AD
:1051A000E1E9F0E08081826080838081816080839A
:1051B000E0E9F0E0808181608083E1ECF0E08081D3
:1051C000846080838081826080838081816080832D
:1051D000E3ECF0E0808181608083E0ECF0E08081AE
:1051E00082608083E2ECF0E0808181608083EAE786
:1051F000F0E0808184608083808182608083808110
:105200008160808380818068808308951F93CF931D
:10521000DF93182FEB0161E00E94DA29209711F447
:1052200060E004C0CF3FD10539F461E0812FDF9108
:10523000CF911F910C94132AE12FF0E0E058FE4F1C
:10524000449150E0FA013197EF30F10508F06CC05D
:10525000EA5AFF4F0C94682C84B5806884BDC7BDA2
:1052600068C084B5806284BDC8BD63C08091800081
:10527000806880938000D0938900C093880059C0D3
:1052800080918000806280938000D0938B00C093D7
:105290008A004FC080918000886080938000D09306
:1052A0008D00C0938C0045C08091900080688093F1
:1052B0009000D0939900C09398003BC080919000DB
:1052C000806280939000D0939B00C0939A0031C07D
:1052D00080919000886080939000D0939D00C0934F
:1052E0009C0027C08091C00080688093C00080919E
:1052F000C0008F7B8093C000C093CF001AC0809104
:10530000C00080628093C000C093D00012C0809122
:10531000C20088608093C2008091C2008B7F80931E
:10532000C200C093D20005C0C038D1050CF07DCFBB
:1053300077CFDF91CF911F91089590E0FC013197D5
:10534000EF30F105B0F5EB59FF4F0C94682C8091CC
:1053500080008F7703C0809180008F7D80938000D4
:10536000089580918000877FF9CF84B58F7702C040
:1053700084B58F7D84BD0895809190008F7707C09C
:10538000809190008F7D03C080919000877F8093F3
:10539000900008958091C0008F7703C08091C00075
:1053A0008F7D8093C00008958091C200877F809395
:1053B000C2000895CF93DF9390E0FC01E256FE4FC8
:1053C0002491FC01E454FE4F8491882349F190E03C
:1053D000880F991FFC01E851FE4FA591B4918652A8
:1053E0009E4FFC01C591D4919FB7611108C0F894FC
:1053F0008C91209582238C93888182230AC062300D
:1054000051F4F8948C91322F309583238C938881BA
:10541000822B888304C0F8948C91822B8C939FBF3D
:10542000DF91CF9108950F931F93CF93DF931F9236
:10543000CDB7DEB7282F30E0F901E058FE4F849158
:10544000F901E256FE4F1491F901E454FE4F049124
:105450000023C9F0882321F069830E949D29698176
:10546000E02FF0E0EE0FFF1FE652FE4FA591B49142
:105470009FB7F8948C91611103C01095812301C0EE
:10548000812B8C939FBF0F90DF91CF911F910F9134
:105490000895FF920F931F93CF93DF93EC01F62EA5
:1054A000E881F9810480F581E02D09958C01E8817E
:1054B000F9810680F781E02D6F2DCE010995C80195
:1054C0009927DF91CF911F910F91FF900895FC01D3
:1054D00020812F5F208349E150E066E772E080E899
:1054E0000C94D71B45E650E06FE872E080E80C941E
:1054F000D71BEF92FF920F931F93CF93DF931F92CF
:10550000CDB7DEB789838B017A0141E050E0BE015F
:105510006F5F7F4F84E00E943C1BA701B80184E4C9
:105520000E943C1B0F90DF91CF911F910F91FF9034
:10553000EF900895FC0191818081813A31F481E0FE
:10554000913091F0933089F411C0813271F49B3025
:1055500021F482818093440105C09A3031F4828124
:105560008093430181E00895089580E0089548E024
:1055700050E082E00C94792ACF93DF93DC01683805
:1055800018F0E8E7E60F25C0E62FF0E067FF11C04E
:10559000E058F10981E090E001C0880FEA95EAF750
:1055A00014969C911497982B14969C931497E0E072
:1055B00010C0EA50FE4FE491EE2309F440C0E7FF2B
:1055C00008C014968C911497826014968C9314974B
:1055D000EF7716968C9116978E1741F117968C914E
:1055E00017978E1719F118968C9118978E17F1F05E
:1055F00019968C9119978E17C9F01A968C911A9753
:105600008E17A1F01B968C911B978E1779F080E076
:1056100090E0ED01C80FD91F2E81211102C0EE8349
:1056200005C0019686309105A1F709C0BD016C5FE8
:105630007F4FCD010E94B72A81E090E008C081E051
:1056400090E013969C938E93129780E090E0DF9108
:10565000CF910895683818F0E8E7E60F25C0E62FE7
:10566000F0E067FF12C0E058F10921E030E001C02E
:10567000220FEA95EAF72095DC0114963C911497E5
:10568000322314963C93E0E00FC0EA50FE4FE491C1
:10569000EE2329F1E7FF08C0DC0114962C91149742
:1056A0002D7F14962C93EF7720E030E0EE2351F01D
:1056B000DC01A20FB31F16964C9116974E1302C031
:1056C00016961C922F5F3F4F2630310579F7BC01AB
:1056D0006C5F7F4F0E94B72A81E090E0089580E0E0
:1056E00090E00895FC0116821782108611861286BA
:1056F00013861482BC016C5F7F4F0C94B72A109202
:105700001C06109213061092120681E295E0909307
:1057100011068093100608951F920F920FB60F92F4
:1057200011242F938F939F93EF93FF93E0912D0676
:10573000F0912E068081E0913306F091340682FDCF
:1057400012C09081809136068F5F8F73209137064B
:10575000821751F0E0913606F0E0E35EF94F958F45
:105760008093360601C08081FF91EF919F918F91C8
:105770002F910F900FBE0F901F9018951F920F92B0
:105780000FB60F9211242F933F934F935F936F9314
:105790007F938F939F93AF93BF93EF93FF938DE18D
:1057A00096E00E94C116FF91EF91BF91AF919F913A
:1057B0008F917F916F915F914F913F912F910F90BA
:1057C0000FBE0F901F9018958DE196E00E948616EF
:1057D00021E0892B09F420E0822F08951092200601
:1057E00010921F0688EE93E0A0E0B0E080932106BF
:1057F00090932206A0932306B09324068BEA94E0AC
:1058000090931E0680931D068DEC90E090932A06DF
:10581000809329068CEC90E090932C0680932B06C5
:1058200088EC90E090932E0680932D0689EC90E012
:105830009093300680932F068AEC90E09093320686
:10584000809331068EEC90E090933406809333067B
:1058500010923606109237061092380610923906CA
:105860000895089597FB072E16F4009407D077FD4E
:1058700009D00E94792C07FC05D03EF490958195C3
:105880009F4F0895709561957F4F0895A1E21A2E5C
:10589000AA1BBB1BFD010DC0AA1FBB1FEE1FFF1FD4
:1058A000A217B307E407F50720F0A21BB30BE40B24
:1058B000F50B661F771F881F991F1A9469F760956B
:1058C0007095809590959B01AC01BD01CF01089525
:1058D000EE0FFF1F0590F491E02D09940E948D2C8E
:1058E000A59F900DB49F900DA49F800D911D112434
:1058F0000895AA1BBB1B51E107C0AA1FBB1FA61717
:10590000B70710F0A61BB70B881F991F5A95A9F768
:1059100080959095BC01CD010895A29FB001B39FE1
:10592000C001A39F700D811D1124911DB29F700DA8
:10593000811D1124911D0895CF93DF93823091052D
:1059400010F482E090E0E091BC06F091BD0620E00A
:1059500030E0A0E0B0E0309739F140815181481744
:105960005907B8F04817590771F48281938110974D
:1059700029F013969C938E9312972CC09093BD069A
:105980008093BC0627C02115310531F0421753071B
:1059900018F0A901DB0101C0EF019A01BD01DF018F
:1059A0000280F381E02DD7CF21153105F9F0281BB6
:1059B000390B2430310580F48A819B816115710592
:1059C00021F0FB019383828304C09093BD068093F2
:1059D000BC06FE01329644C0FE01E20FF31F819324
:1059E000919322503109398328833AC02091BA0615
:1059F0003091BB06232B41F4209102013091030129
:105A00003093BB062093BA0620910001309101012A
:105A10002115310541F42DB73EB740910401509155
:105A20000501241B350BE091BA06F091BB06E21785
:105A3000F307A0F42E1B3F0B2817390778F0AC01B1
:105A40004E5F5F4F2417350748F04E0F5F1F50938E
:105A5000BB064093BA068193919302C0E0E0F0E068
:105A6000CF01DF91CF910895CF93DF93009709F491
:105A700087C0FC01329713821282C091BC06D0917C
:105A8000BD06209781F420813181280F391F809134
:105A9000BA069091BB068217930779F5F093BB067F
:105AA000E093BA066DC0DE0120E030E0AE17BF071C
:105AB00050F412964D915C9113979D01411551053B
:105AC00009F1DA01F3CFB383A28340815181840FBE
:105AD000951F8A179B0771F48D919C911197840FE4
