:100000000C9481010C94A9010C94A9010C94A901F0
:100010000C94A9010C94A9010C94A9010C94A901B8
:100020000C94A9010C94A9010C941F1A0C94EB18C0
:100030000C94A9010C94A9010C94A9010C94A90198
:100040000C94A9010C94A9010C94A9010C94A90188
:100050000C94A9010C94A9010C94A9010C94F82307
:100060000C94A9010C9475270C94A7270C94A90152
:100070000C94A9010C94A9010C94A9010C94A90158
:100080000C94A9010C94A9010C94A9010C94A90148
:100090000C94A9010C94A9010C94A9010C94A90138
:1000A0000C94A9010C94A9010C94A90115251A25F9
:1000B0001F25292533257D257D257D253D254725A2
:1000C00051255B2568257D2570259E25A125902538
:1000D00094259A25C225C225C225A525A925AD2589
:1000E000B325B725C225BD25080B00020202010079
:1000F000090400000102020000052400100105248B
:1001000001010104240206052406000107058103FC
:1001100010004009040100020A0000000705020265
:100120004000000705830240000000C18081C11229
:100130000100020200004041234180000101020051
:100140000112010002000000404123418000010132
:1001500002000141726475696E6F204C4C4300557A
:10016000534220494F20426F617264000403090426
:1001700072756E2D6272696467650A000A000A0072
:100180000000000200090F0000030401000C000041
:100190000000000000000000000000000000040853
:1001A000020110408040102040804080080204017D
:1001B00080402010020110801020404004040404FC
:1001C00004030405020202020403020202020606FC
:1001D00006060606040402020204000000002500D0
:1001E00028002B002E003100000000002400270012
:1001F0002A002D00300000000000000000002A2B23
:1002000028000000000000000000000000000000C6
:100210000000000000002C9EB4A0A1A2A434A6A758
:10022000A5AE362D3738271E1F2021222324252650
:10023000B333B62EB7B89F8485868788898A8B8C1E
:100240008D8E8F909192939495969798999A9B9C66
:100250009D2F3130A3AD350405060708090A0B0CA4
:100260000D0E0F101112131415161718191A1B1C46
:100270001DAFB1B0B5000904020001030000000980
:1002800021010100012265000705840340000105EA
:10029000010902A1010901A100850105091901292E
:1002A00003150025019503750181029501750581EE
:1002B0000305010930093109381581257F75089535
:1002C000038106C0C005010906A1018502050719C1
:1002D000E029E71500250175019508810295017552
:1002E000088103950675081500256505071900297D
:1002F000658100C014121E1329202F226827D727DA
:10030000481211241FBECFEFDAE0DEBFCDBF14E0EC
:10031000A0E0B1E0EEE4F7E502C005900D92A83947
:10032000B107D9F726E0A8E9B4E001C01D92AA33CD
:10033000B207E1F712E0C0E0D3E004C02297FE016B
:100340000E945328C43FD107C9F70E9401120C94A0
:100350009A2B0C9400000895CF93DF93EC01FB01DE
:100360004281538122E061E875E00E942222CE01A1
:10037000DF91CF9108950F931F93CF93DF93CDB764
:10038000DEB7CA55D1090FB6F894DEBF0FBECDBF98
:100390008B01BC01CE0101960E94AC01CE010196F9
:1003A0000E946121882359F0B801CE0101960E9474
:1003B000F1148C01CE0101960E94DC2102C000E004
:1003C00010E0CE0101960E940F22C801C65ADF4FED
:1003D0000FB6F894DEBF0FBECDBFDF91CF911F9156
:1003E0000F9108950F931F93CF93DF93CDB7DEB78F
:1003F000CA55D1090FB6F894DEBF0FBECDBF162F78
:10040000BC01CE0101960E94AC01CE0101960E9472
:100410006121882359F0612FCE0101960E94F314C7
:100420008C01CE0101960E94DC2102C000E010E0A8
:10043000CE0101960E940F22C801C65ADF4F0FB6A7
:10044000F894DEBF0FBECDBFDF91CF911F910F910A
:1004500008950F931F93CF93DF93CDB7DEB7CA559F
:10046000D1090FB6F894DEBF0FBECDBF8B01BC0122
:10047000CE0101960E94AC01CE0101960E9461213D
:10048000882399F0B801CE0101960E94F1148C01E5
:100490006AE171E0CE0101960E94F114080F191F64
:1004A000CE0101960E94DC2102C000E010E0CE01E6
:1004B00001960E940F22C801C65ADF4F0FB6F8946A
:1004C000DEBF0FBECDBFDF91CF911F910F91089579
:1004D0000F931F93CF93DF93CDB7DEB7CA55D109E2
:1004E0000FB6F894DEBF0FBECDBF8B01BC01CE01AD
:1004F00001960E94AC01CE0101960E9461218823E1
:1005000099F0B801CE0101960E94E3148C016AE1D2
:1005100071E0CE0101960E94F114080F191FCE015F
:1005200001960E94DC2102C000E010E0CE0101969D
:100530000E940F22C801C65ADF4F0FB6F894DEBFE3
:100540000FBECDBFDF91CF911F910F9108958F9274
:100550009F92AF92BF92CF92DF92EF92FF920F9352
:100560001F93CF93DF93CDB7DEB7CB55D1090FB62D
:10057000F894DEBF0FBECDBF7C014B016A0159016B
:100580006BE271E0CE018A5A9F4F0E94011BB601B7
:10059000CE018A5A9F4F0E94D11BBC01CE01019609
:1005A0000E942E1BBE016F5F7F4FC40101960E9407
:1005B000B406CE0101960E94931ACE018A5A9F4F2B
:1005C0000E94931A1C821B8288EE93E0A0E0B0E0A8
:1005D0008D839E83AF83B8878DE794E09A83898368
:1005E00086E795E09E878D871B8A1C8A1D8A6CE3AF
:1005F00071E0CE018A5A9F4F0E94011BBE016A5AC8
:100600007F4FCE0101960E94D123CE018A5A9F4F7F
:100610000E94931A61E471E0CE018A5A9F4F0E94B2
:10062000011BBE016A5A7F4FCE0101960E94C12272
:10063000CE018A5A9F4F0E94931A64E471E0CE0162
:100640008A5A9F4F0E94011BBE016A5A7F4FCE01FA
:1006500001960E94C122CE018A5A9F4F0E94931A8E
:10066000B601CE0101960E94C122CE0101960E94E0
:100670008A236C01181619063CF567E471E08DE1D8
:1006800095E00E94F1144AE050E0B6018DE195E05A
:100690000E94C5158DE195E00E94731201151105A8
:1006A00029F0B601CE010196F8010995CE01019617
:1006B0000E943622CE0101960E94A0236CE171E0D7
:1006C000C7010E94011B1BC0BE016F5F7F4FCE019F
:1006D0008A5A9F4FF5010995CE0101960E94362254
:1006E000CE0101960E94A023BE016A5A7F4FC70126
:1006F0000E942E1BCE018A5A9F4F0E94931ACE0150
:1007000001960E94CA23C701C55ADF4F0FB6F8945D
:10071000DEBF0FBECDBFDF91CF911F910F91FF9034
:10072000EF90DF90CF90BF90AF909F908F90089503
:100730006F927F928F929F92AF92BF92CF92DF92F1
:10074000EF92FF920F931F93CF93DF93CDB7DEB756
:10075000CB55D1090FB6F894DEBF0FBECDBF6C01EB
:100760003B015A01490164E571E0CE018A5A9F4F6D
:100770000E94011BB501CE018A5A9F4F0E94D11BD6
:1007800065E671E00E94E41BB4010E94D11BBC012C
:10079000CE0101960E942E1BBE016F5F7F4FC301E9
:1007A00001960E94B406CE0101960E94931ACE01D2
:1007B0008A5A9F4F0E94931A1C821B8288EE93E0F4
:1007C000A0E0B0E08D839E83AF83B8878DE794E08F
:1007D0009A83898386E795E09E878D871B8A1C8A8A
:1007E0001D8A6CE371E0CE018A5A9F4F0E94011B63
:1007F000BE016A5A7F4FCE0101960E94D123CE01DD
:100800008A5A9F4F0E94931A63E771E0CE018A5A79
:100810009F4F0E94011BBE016A5A7F4FCE01019675
:100820000E94C122CE018A5A9F4F0E94931A66E706
:1008300071E0CE018A5A9F4F0E94011BBE016A5A85
:100840007F4FCE0101960E94C122CE018A5A9F4F4E
:100850000E94931A67E971E0CE018A5A9F4F0E9465
:10086000011BBE016A5A7F4FCE0101960E94C12230
:10087000CE018A5A9F4F0E94931A6AE971E0CE0115
:100880008A5A9F4F0E94011BBE016A5A7F4FCE01B8
:1008900001960E94C122CE018A5A9F4F0E94931A4C
:1008A0006EE971E0CE018A5A9F4F0E94011BBE0182
:1008B0006A5A7F4FCE0101960E94C122CE018A5A08
:1008C0009F4F0E94931AB401CE0101960E94C1224B
:1008D000B501CE0101960E94C122CE0101960E946F
:1008E0008A235C01181619063CF567E471E08DE176
:1008F00095E00E94F1144AE050E0B5018DE195E0E9
:100900000E94C5158DE195E00E947312E114F10477
:1009100029F0B501CE010196F7010995CE010196A6
:100920000E943622CE0101960E94A0236CE171E064
:10093000C6010E94011B1BC0BE016F5F7F4FCE012D
:100940008A5A9F4FF8010995CE0101960E943622DE
:10095000CE0101960E94A023BE016A5A7F4FC601B4
:100960000E942E1BCE018A5A9F4F0E94931ACE01DD
:1009700001960E94CA23C601C55ADF4F0FB6F894EC
:10098000DEBF0FBECDBFDF91CF911F910F91FF90C2
:10099000EF90DF90CF90BF90AF909F908F907F901F
:1009A0006F9008958F929F92AF92BF92CF92DF92F5
:1009B000EF92FF920F931F93CF93DF93CDB7DEB7E4
:1009C000CB55D1090FB6F894DEBF0FBECDBF6C0179
:1009D0005A01490161EA71E0CE0101960E94011BB2
:1009E000B501CE0101960E94D11B65E671E00E941F
:1009F000E41BB4010E94D11BBC018DE195E00E9473
:100A0000FE14CE0101960E94931A1C821B8288EE6E
:100A100093E0A0E0B0E08D839E83AF83B8878DE73D
:100A200094E09A83898386E795E09E878D871B8A69
:100A30001C8A1D8A6CE371E0CE018A5A9F4F0E9486
:100A4000011BBE016A5A7F4FCE0101960E94D1233D
:100A5000CE018A5A9F4F0E94931A63E771E0CE013C
:100A60008A5A9F4F0E94011BBE016A5A7F4FCE01D6
:100A700001960E94C122CE018A5A9F4F0E94931A6A
:100A800066E771E0CE018A5A9F4F0E94011BBE01AA
:100A90006A5A7F4FCE0101960E94C122CE018A5A26
:100AA0009F4F0E94931A67E971E0CE018A5A9F4FC7
:100AB0000E94011BBE016A5A7F4FCE0101960E941F
:100AC000C122CE018A5A9F4F0E94931A63EB71E0B4
:100AD000CE018A5A9F4F0E94011BBE016A5A7F4F66
:100AE000CE0101960E94C122CE018A5A9F4F0E94D8
:100AF000931A6EE971E0CE018A5A9F4F0E94011B42
:100B0000BE016A5A7F4FCE0101960E94C122CE01DA
:100B10008A5A9F4F0E94931AB401CE0101960E94F7
:100B2000C122B501CE0101960E94C122CE010196DB
:100B30000E948A235C01181619063CF567E471E0EF
:100B40008DE195E00E94F1144AE050E0B5018DE19D
:100B500095E00E94C5158DE195E00E947312E114A5
:100B6000F10429F0B501CE010196F7010995CE01F6
:100B700001960E943622CE0101960E94A0236CE1CC
:100B800071E0C6010E94011B1BC0BE016F5F7F4F59
:100B9000CE018A5A9F4FF8010995CE0101960E9415
:100BA0003622CE0101960E94A023BE016A5A7F4FD1
:100BB000C6010E942E1BCE018A5A9F4F0E94931A93
:100BC000CE0101960E94CA23C601C55ADF4F0FB657
:100BD000F894DEBF0FBECDBFDF91CF911F910F9173
:100BE000FF90EF90DF90CF90BF90AF909F908F904D
:100BF00008957F928F929F92AF92BF92CF92DF9291
:100C0000EF92FF920F931F93CF93DF93EC018B0131
:100C1000742E690161E0842F0E94C325CE01B601C4
:100C20000E941B285B01812C912CC0E0D0E0EE24B7
:100C3000D7FCE094FE2CA814B904B4F0BE01872DB3
:100C40000E94EF24C00FD11F209719F0CF3FD1058C
:100C500019F4119501951109C701B6010E9471247B
:100C60008FEF881A980AE7CF60E070E0872DDF9158
:100C7000CF911F910F91FF90EF90DF90CF90BF9099
:100C8000AF909F908F907F900C94EF240F931F93C1
:100C9000CF93DF938C01EB01DC0113968D919C9136
:100CA0001497892B09F45BC011968D919C91129732
:100CB000481759070CF448C08DE195E00E940F13C6
:100CC000882309F441C0F80183819481DC01ED910E
:100CD000FC910190F081E02D68EB71E00995E881CD
:100CE000F9810480F581E02DCE010995892BA1F0D1
:100CF000E881F9810680F781E02DCE010995F801A0
:100D0000A381B481ED91FC9111970280F381E02DD4
:100D1000682FCD010995E3CFD80113968D919C9151
:100D20001497DC01ED91FC910480F581E02D6CE1DC
:100D300071E00995F80183819481DC01ED91FC91CA
:100D40000084F185E02D06C0E881F9810284F385F5
:100D5000E02DCE01DF91CF911F910F910994DF918A
:100D6000CF911F910F910895CF92DF92EF92FF9252
:100D70000F931F93CF93DF9300D000D000D0CDB757
:100D8000DEB78C016B01DC0113968D919C91149759
:100D9000892BC1F111968D919C9112971816190605
:100DA0008CF18DE195E00E940F13882359F1D80151
:100DB0001396ED91FC9114970190F081E02DE6805F
:100DC000F7806FEB71E0CE0101960E94011BB60126
:100DD000CE0101960E94D11BBC01F8018381948150
:100DE000F7010995CE0101960E94931AD801139636
:100DF0008D919C911497DC01ED91FC910084F1851B
:100E0000E02D099526960FB6F894DEBF0FBECDBF34
:100E1000DF91CF911F910F91FF90EF90DF90CF90D6
:100E20000895CF92DF92EF92FF920F931F93CF938B
:100E3000DF9300D000D000D0CDB7DEB78C016B01BE
:100E4000DC0113968D919C911497892BB9F1119621
:100E50008D919C91129703978CF58DE195E00E94FE
:100E60000F13882359F1D8011396ED91FC91149733
:100E70000190F081E02DE680F7806DEC71E0CE010D
:100E800001960E94011BB601CE0101960E94D11B62
:100E9000BC01F80183819481F7010995CE01019687
:100EA0000E94931AD80113968D919C911497DC019E
:100EB000ED91FC910084F185E02D099526960FB601
:100EC000F894DEBF0FBECDBFDF91CF911F910F9180
:100ED000FF90EF90DF90CF900895CF92DF92EF9246
:100EE000FF920F931F93CF93DF9300D000D000D0D9
:100EF000CDB7DEB78C016B01DC0113968D919C910F
:100F00001497892BB9F111968D919C9112970497A2
:100F10008CF58DE195E00E940F13882359F1D801DB
:100F20001396ED91FC9114970190F081E02DE680ED
:100F3000F78064ED71E0CE0101960E94011BB601BD
:100F4000CE0101960E94D11BBC01F80183819481DE
:100F5000F7010995CE0101960E94931AD8011396C4
:100F60008D919C911497DC01ED91FC910084F185A9
:100F7000E02D099526960FB6F894DEBF0FBECDBFC3
:100F8000DF91CF911F910F91FF90EF90DF90CF9065
:100F90000895FC01748363830895CF93DF9300D099
:100FA000CDB7DEB78DE195E069837A830E940F1398
:100FB00069817A81882341F08DE195E00F900F904F
:100FC000DF91CF910C94F11480E090E00F900F909E
:100FD000DF91CF910895CF93DF931F92CDB7DEB706
:100FE0008DE195E069830E940F136981882339F0B0
:100FF0008DE195E00F90DF91CF910C94F31480E098
:1010000090E00F90DF91CF910895CF93DF9300D0C0
:10101000CDB7DEB78DE195E069837A830E940F1327
:1010200069817A81882341F08DE195E00F900F90DE
:10103000DF91CF910C94101580E090E00F900F900D
:10104000DF91CF910895CF93DF9300D0CDB7DEB776
:101050008DE195E069837A830E940F1369817A811B
:10106000882341F08DE195E00F900F90DF91CF91B3
:101070000C94FE1480E090E00F900F90DF91CF91E0
:101080000895CF93C42F28EE31E0FC0131832083F3
:10109000AB01662757FD6095762F8DE195E00E94A4
:1010A0000913CC2369F08DE195E00E940F138111A3
:1010B00007C064E670E080E090E00E947124F3CF06
:1010C000CF9108958DE195E00E940F13882321F0C0
:1010D0008DE195E00C94731208950F931F93CF93B5
:1010E000DF93EC018B018A819B81DC01ED91FC9106
:1010F0000190F081E02D09958C819D81DC01ED91BD
:10110000FC910190F081E02DB801DF91CF911F910A
:101110000F9109941F93CF93DF93EC01162F8A81CF
:101120009B81DC01ED91FC910280F381E02D09951A
:101130008C819D81DC01ED91FC910280F381E02D99
:10114000612FDF91CF911F9109940F931F93CF933C
:10115000DF93EC018B018A819B81DC01ED91FC9195
:101160000480F581E02D09958C819D81DC01ED9154
:10117000FC910480F581E02DB801DF91CF911F91A2
:101180000F9109940F931F93CF93DF93EC018B0181
:101190008A819B81DC01ED91FC910680F781E02D35
:1011A00009958C819D81DC01ED91FC910680F78190
:1011B000E02DB801DF91CF911F910F910994CF934A
:1011C000DF93EC018A819B81DC01ED91FC9100842D
:1011D000F185E02D09958C819D81DC01ED91FC91DB
:1011E0000084F185E02DDF91CF910994AF92BF92F9
:1011F000CF92DF92EF92FF920F931F93CF93DF93E3
:10120000CDB7DEB762970FB6F894DEBF0FBECDBF85
:101210005C018B016CE171E00E94011BFF24F394DF
:10122000D801ED91FC910480F581E02DC80109956C
:10123000181619060CF0B0C042E2B801CE010D96A6
:101240000E94C71660E072E0CE010D960E94FE1B60
:10125000882331F060E072E0C5010E94371B02C0B4
:10126000F11011C066E072E0CE010D960E94FE1BE7
:10127000811159C0F12C6BE072E0CE010D960E94F5
:10128000FE1B81116DC067E172E0CE010D960E94D8
:10129000FE1B882311F0FF24F3946FE172E0CE016E
:1012A0000D960E94FE1B8823C9F142E2B801CE01CF
:1012B00001960E94C716CE0101960E94931A42E23F
:1012C000B801CE0101960E94C716BE016F5F7F4F25
:1012D000C5010E94171BCE0101960E94931A68E275
:1012E00072E0CE0107960E94011BB501CE01079660
:1012F0000E94D11BBC01CE0101960E942E1BBE0193
:101300006F5F7F4F8BEB94E00E941107CE01019637
:101310000E94931ACE0107960E94931ACE010D9651
:101320000E94931A7DCFC8010E94C4166B017C01F4
:10133000695C7D4FCE0101960E94011BBE016F5F6B
:101340007F4F8BEB94E00E946D07CE0101960E94C7
:10135000931AB60160597E4FC5010E94AE1B8ACF19
:1013600042E2B801CE0101960E94C716CE01019655
:101370000E94931A42E2B801CE0101960E94C7165C
:10138000BE016F5F7F4F8BEB94E00E946D07CE0133
:1013900001960E94931A77CFC50162960FB6F89412
:1013A000DEBF0FBECDBFDF91CF911F910F91FF9098
:1013B000EF90DF90CF90BF90AF900895CF93DF93E1
:1013C000EC0140E050E08BEB94E00E9446066CE1BB
:1013D00071E0CE010E94011BCE01DF91CF910895F3
:1013E000CF92DF92EF92FF920F931F93CF93DF93F1
:1013F000CDB7DEB72C970FB6F894DEBF0FBECDBFCA
:101400007C016B0107E010E042E2B601CE010196DB
:101410000E94C716CE0101960E94931A015011092D
:1014200099F742E2B601CE0107960E94C71664E41E
:1014300072E0CE0101960E94011BBE01695F7F4FE1
:10144000CE0101960E94D11B6CE472E00E94E41B65
:10145000BC01C7010E942E1BCE0101960E94931A67
:10146000CE0107960E94931AC7012C960FB6F894E6
:10147000DEBF0FBECDBFDF91CF911F910F91FF90C7
:10148000EF90DF90CF9008950895EF92FF920F9321
:101490001F93CF93DF9300D000D000D0CDB7DEB73D
:1014A0007C0162E572E0CE0101960E94011B00E022
:1014B00010E020EF39E0AE014F5F5F4F60EC74E069
:1014C000C7010E94A702CE0101960E94931A63E70A
:1014D00072E0CE0101960E94011BF701408151810B
:1014E00069817A8186E795E00E94C51ECE0101964A
:1014F0000E94931AC70126960FB6F894DEBF0FBE5E
:10150000CDBFDF91CF911F910F91FF90EF90089584
:10151000EF92FF920F931F93CF93DF9300D000D0F1
:1015200000D0CDB7DEB78C017A01CE0101960E94C2
:101530002E1BB701CE0101960E94D11B69E772E014
:101540000E94E41BBC01C8010E942E1BCE01019623
:101550000E94931AC80126960FB6F894DEBF0FBEFC
:10156000CDBFDF91CF911F910F91FF90EF90089524
:10157000CF92DF92EF92FF920F931F93CF93DF935F
:10158000CDB7DEB768970FB6F894DEBF0FBECDBFFC
:101590008C017B016901BA01CE010D960E942E1BC0
:1015A000B701CE0143960E942E1BAE01435F5F4FF1
:1015B000BE016D5E7F4FCE0107960E94880ABE0174
:1015C000695F7F4FCE0101960E942E1BB601CE01AE
:1015D00001960E94D11B62E872E00E94E41BBC01EC
:1015E000C8010E942E1BCE0101960E94931ACE01C3
:1015F00007960E94931ACE0143960E94931ACE0139
:101600000D960E94931AC80168960FB6F894DEBF33
:101610000FBECDBFDF91CF911F910F91FF90EF9043
:10162000DF90CF900895EF92FF920F931F93CF9387
:10163000DF93CDB7DEB72C970FB6F894DEBF0FBEA1
:10164000CDBF8C01EE24E394F12CD801ED91FC91F7
:101650000480F581E02DC8010995181619060CF0D3
:101660004BC042E2B801CE0107960E94C71666E061
:1016700072E0CE0107960E94FE1B8823A9F0C801E4
:101680000E94C4167B01695C7D4FCE0101960E94C9
:10169000011BBE016F5F7F4F8BEB94E00E946D07D3
:1016A000CE0101960E94931A6BE072E0CE0107967C
:1016B0000E94FE1B8823D9F042E2B801CE010196B8
:1016C0000E94C716CE0101960E94931A42E2B80109
:1016D000CE0101960E94C716BE016F5F7F4F8BEB54
:1016E00094E00E946D07CE0101960E94931ACE01EC
:1016F00007960E94931AA9CFC7012C960FB6F894AB
:10170000DEBF0FBECDBFDF91CF911F910F91FF9034
:10171000EF9008958F929F92AF92BF92CF92DF92F7
:10172000EF92FF920F931F93CF93DF93CDB7DEB766
:101730006E970FB6F894DEBF0FBECDBF5C017B0184
:1017400065E972E0CE0149960E94011BC12CD12CA3
:1017500000E010E0D701ED91FC910480F581E02DCF
:10176000C7010995181619060CF06AC042E2B701C4
:10177000CE0143960E94C7166BE7CE0143960E94A6
:10178000961C97FD02C00F5F1F4F6DE7CE01439679
:101790000E94961C97FD02C0015011096BE972E08E
:1017A000CE0101960E94011BBE016F5F7F4FCE01EB
:1017B00043960E94B61C4C01CE0101960E94931ADA
:1017C00097FC02C0015011096AE972E0CE0101964E
:1017D0000E94011BBE016F5F7F4FCE0143960E94A6
:1017E000B61C4C01CE0101960E94931A97FC02C0D0
:1017F0000150110960E072E0CE0143960E94FE1B89
:10180000882369F0C7010E94130B4AE0BC01C5019F
:101810000E944F1BCE0143960E94931A20C10130B3
:10182000110581F5CE0143960E94BA1C16161706C3
:10183000180619060CF094C0BFEFCB1ADB0A90C053
:101840004AE0B601CE0107960E944F1B6EEB72E094
:10185000CE0101960E94011B4F81588569817A81D2
:1018600086E795E00E94C51ECE0101960E94931A5C
:10187000CE0107960E94931A67E172E0C5010E94AB
:10188000011BEDC00230110521F56EE972E0CE01B9
:1018900043960E94FE1B882309F462C06EE972E041
:1018A000CE0149960E94371B66E072E0CE01439656
:1018B0000E94FE1B811159C063E272E0CE01439683
:1018C0000E94FE1B81118EC0CE0143960E94931A86
:1018D00041CF0330110509F043C06EE972E0CE013B
:1018E00049960E94FE1B882379F364EA72E0CE01D8
:1018F00043960E94FE1B882339F34AE3B701CE01C9
:1019000001960E94C716CE0101960E94931AD70134
:10191000ED91FC910680F781E02DC7010995843790
:10192000E1F06FE872E0CE0101960E94011B4AE0EF
:10193000B601CE010D960E944F1B6EEA72E0CE01F9
:1019400007960E94011BBE01635F7F4FCE01079681
:101950000E94D11B64EB72E06AC06AE872E0E3CFD8
:101960000230110509F0B0CF9FCF42E2B701CE019E
:1019700001960E94C716CE0101960E94931A42E278
:10198000B701CE0101960E94C7164AE0B601CE010A
:101990000D960E944F1B6EEA72E0CE0107960E94E0
:1019A000011BBE01635F7F4FCE0107960E94D11BD2
:1019B00069EC72E00E94E41B49815A81FC0160815C
:1019C000718186E795E00E94C51ECE0107960E94B0
:1019D000931ACE010D960E94931ACE0101960E9491
:1019E000931A6ACF42E2B701CE0101960E94C71650
:1019F000CE0101960E94931A42E2B701CE010196F0
:101A00000E94C7164AE0B601CE010D960E944F1BF8
:101A10006EEA72E0CE0107960E94011BBE01635F71
:101A20007F4FCE0107960E94D11B6EEC72E00E94A0
:101A3000E41B49815A81DC016D917C9186E795E038
:101A40000E94C51ECE0107960E94931ACE010D96E4
:101A50000E94931ACE0101960E94931A35CFCE01AF
:101A600049960E94931AC5016E960FB6F894DEBF90
:101A70000FBECDBFDF91CF911F910F91FF90EF90DF
:101A8000DF90CF90BF90AF909F908F900895EF928E
:101A9000FF920F931F93CF93DF93CDB7DEB762977B
:101AA0000FB6F894DEBF0FBECDBF7C018B01BA012B
:101AB000CE0107960E942E1BB801CE010D960E9402
:101AC0002E1BAE01495F5F4FBE01635F7F4FCE01AA
:101AD00001960E94880A00E010E02AE83BE0AE018F
:101AE0004F5F5F4F60EC74E0C7010E94A702CE0118
:101AF00001960E94931ACE010D960E94931ACE0170
:101B000007960E94931AC70162960FB6F894DEBF3B
:101B10000FBECDBFDF91CF911F910F91FF90EF903E
:101B20000895AF92BF92CF92DF92EF92FF920F9300
:101B30001F93CF93DF93CDB7DEB762970FB6F894BC
:101B4000DEBF0FBECDBF6C015B0163ED72E0CE0165
:101B500001960E94011BB501CE0107960E942E1B23
:101B6000E12CF12C06EF18E09E012F5F3F4FAE01F4
:101B7000495F5F4F60EC74E0CE010D960E94D20485
:101B8000CE0107960E94931ACE0101960E94931AE5
:101B900060E072E0CE0101960E94011BBE016F5F02
:101BA0007F4FCE010D960E94411C81110BC06CE14C
:101BB00071E0CE010D960E94FE1B11E0811103C061
:101BC00010E001C011E0CE0101960E94931A11238A
:101BD00079F024E130E04DE050E06AE070E080ED23
:101BE00097E00E94F905CE010D960E94931AADCFA1
:101BF000BE01635F7F4FC6010E942E1BCE010D9672
:101C00000E94931AC60162960FB6F894DEBF0FBE0B
:101C1000CDBFDF91CF911F910F91FF90EF90DF909B
:101C2000CF90BF90AF900895AF92BF92CF92DF92C6
:101C3000EF92FF920F931F93CF93DF93CDB7DEB751
:101C400069970FB6F894DEBF0FBECDBF8C016B0154
:101C5000A090B904B090BA0428E9E22E24E0F22E54
:101C6000C501885994405C01C5018E0D9F1D0E94DD
:101C70003D2BF70181937F01F9EBEF16F4E0FF06AE
:101C800099F78091980418168CF568E974E0CE01F4
:101C900007960E94011BB601CE0101960E942E1BE1
:101CA000AE01495F5F4FBE016F5F7F4FCE010D9662
:101CB0000E94470DCE0101960E94931ACE0107960D
:101CC0000E94931A67E172E0CE010D960E94FE1BFE
:101CD000882341F068E974E0C8010E94011BCE012D
:101CE0000D96AAC0CE010D960E94931A64EF72E081
:101CF000CE0101960E94011BBE016F5F7F4F8BEBEF
:101D000094E00E941107CE0101960E94931AB60139
:101D1000CE0101960E942E1BBE016F5F7F4FCE0148
:101D200043960E94910DCE0101960E94931A6CE198
:101D300071E0CE0143960E94FE1B882319F06CE1EE
:101D400071E075C06AE173E0CE0107960E94011B45
:101D5000BE016D5E7F4FCE0107960E94D11BBC0174
:101D6000CE0101960E942E1BBE016F5F7F4F8BEB51
:101D700094E00E941107CE0101960E94931ACE01B1
:101D800007960E94931A20E030E041E250E068E9B3
:101D900074E0CE0143960E94501CE090B904F0908C
:101DA000BA0498E9A92E94E0B92EF50161915F017A
:101DB000C701698F0E943D2B698D681719F0C70113
:101DC0000E94452BFFEFEF1AFF0A89EBA81684E06B
:101DD000B80659F768E974E0CE0107960E94011B26
:101DE000B601CE010D960E942E1BAE01495F5F4FDA
:101DF000BE01635F7F4FCE0101960E94470D67E1F0
:101E000072E0CE0101960E94FE1BF82ECE010196D3
:101E10000E94931ACE010D960E94931ACE01079646
:101E20000E94931AFF2009F48ACF68E974E0C80180
:101E30000E94011BCE0143960E94931AC801699625
:101E40000FB6F894DEBF0FBECDBFDF91CF911F91CB
:101E50000F91FF90EF90DF90CF90BF90AF900895DB
:101E6000BF92CF92DF92EF92FF920F931F93CF9387
:101E7000DF93CDB7DEB768970FB6F894DEBF0FBE1D
:101E8000CDBF8C017B016A01B22E63E573E0CE0108
:101E900001960E94011BBE016F5F7F4F8BEB94E0A8
:101EA0000E94B406CE0101960E94931AB601CE019B
:101EB00001960E942E1BB701CE0107960E942E1B91
:101EC000B801CE010D960E942E1B9E012F5F3F4F41
:101ED000AE01495F5F4FBE01635F7F4FCE01439606
:101EE0000E94B80ACE010D960E94931ACE01079661
:101EF0000E94931ACE0101960E94931ABB2019F0FA
:101F00006CE273E002C06FE373E0CE0107960E94BB
:101F1000011BBE016D5E7F4FCE010D960E942E1BF0
:101F2000E12CF12C0EED19E09E01295F3F4FAE012F
:101F3000435F5F4F60EC74E0CE0101960E9498030E
:101F4000CE0101960E94931ACE010D960E94931A1B
:101F5000CE0107960E94931ACE0143960E94931ACF
:101F600068960FB6F894DEBF0FBECDBFDF91CF915C
:101F70001F910F91FF90EF90DF90CF90BF90089549
:101F8000CF92DF92EF92FF920F931F93CF93DF9345
:101F9000CDB7DEB768970FB6F894DEBF0FBECDBFE2
:101FA0008C017B016A0162E673E0CE0101960E941A
:101FB000011BBE016F5F7F4F8BEB94E00E94B40664
:101FC000CE0101960E94931AB601CE0101960E949D
:101FD0002E1BB701CE0107960E942E1BB801CE0121
:101FE0000D960E942E1B9E012F5F3F4FAE01495F51
:101FF0005F4FBE01635F7F4FCE0143960E94B80AD8
:10200000CE010D960E94931ACE0107960E94931A54
:10201000CE0101960E94931A62E773E0CE01079603
:102020000E94011BBE016D5E7F4FCE010D960E9486
:102030002E1BE12CF12C0EED19E09E01295F3F4F84
:10204000AE01435F5F4F60EC74E0CE0101960E94E9
:102050009803CE0101960E94931ACE010D960E941C
:10206000931ACE0107960E94931ACE0143960E94BE
:10207000931A68960FB6F894DEBF0FBECDBFDF91FE
:10208000CF911F910F91FF90EF90DF90CF90089527
:10209000CF93DF93CDB7DEB7A4970FB6F894DEBF2A
:1020A0000FBECDBF6CE171E0CE014F960E94011BC7
:1020B0006CE171E0CE014F960E94FE1B882311F166
:1020C000CE0101960E94450ABE016F5F7F4FCE018F
:1020D0004F960E94171BCE0101960E94931A6CE145
:1020E00071E0CE014F960E94FE1B882309F324E184
:1020F00030E04DE050E06AE070E080E197E20E945D
:10210000F905D6CF63E873E0CE0107960E94011B64
:10211000BE01615E7F4FCE0107960E94D11BBC01BC
:10212000CE0101960E942E1BBE016F5F7F4F8BEB8D
:1021300094E00E941107CE0101960E94931ACE01ED
:1021400007960E94931ABE01615E7F4FCE010196F1
:102150000E942E1BBE016F5F7F4FCE0149960E94E9
:10216000140ECE0101960E94931A62E973E0CE012B
:1021700007960E94011BBE01675E7F4FCE01079646
:102180000E94D11BBC01CE0101960E942E1BBE01F4
:102190006F5F7F4F8BEB94E00E941107CE01019699
:1021A0000E94931ACE0107960E94931A6CE171E087
:1021B000CE0149960E94FE1B811184C063EA73E040
:1021C000CE0101960E94011BBE016F5F7F4F8BEB1A
:1021D00094E00E941107CE0101960E94931A6BEBC6
:1021E00073E0CE0143960E94011B6AE273E0CE01C8
:1021F0000D960E94011BBE01675E7F4FCE010196C6
:102200000E942E1BBE01615E7F4FCE0107960E9489
:102210002E1B20E0AE01435F5F4FBE016F5F7F4F1B
:10222000CE0107960E94300FCE0107960E94931AA6
:10223000CE0101960E94931ACE010D960E94931A28
:10224000CE0143960E94931A24E130E04DE050E025
:1022500068E270E080E197E20E94F9056BEB73E0C1
:10226000CE0143960E94011B6AE273E0CE010D96F7
:102270000E94011BBE01675E7F4FCE0101960E9446
:102280002E1BBE01615E7F4FCE0107960E942E1B62
:10229000AE01435F5F4FBE016F5F7F4FCE01079678
:1022A0000E94C00FCE0107960E94931ACE0101969C
:1022B0000E94931ACE010D960E94931ACE01439666
:1022C0000E94931ACE0149960E94931ACE014F960E
:1022D0000E94931AA4960FB6F894DEBF0FBECDBF2E
:1022E000DF91CF910895EF92FF920F931F93CF93B9
:1022F000DF93CDB7DEB762970FB6F894DEBF0FBE9F
:10230000CDBF26E040E950ED63E070E080917F05AD
:10231000909180050E941E1486E795E00E94221F7E
:102320008E010F5E1F4F40E060E875E2C8010E9419
:10233000410881E291E09E878D8787EC93E0988B3E
:102340008F8781E895E00E9420227E018DE0E80ED3
:10235000F11C6CED73E0C7010E94290286EF91E049
:1023600098878F83FA86E9861C870B87BE01695F91
:102370007F4F8BEB94E00E94C90762EF73E0CE01C0
:1023800001960E94011BBE016F5F7F4F8BEB94E0B3
:102390000E941107CE0101960E94931A6AEF73E022
:1023A000CE0101960E94011BBE016F5F7F4F8BEB38
:1023B00094E00E941107CE0101960E94931A0E9498
:1023C000481062960FB6F894DEBF0FBECDBFDF9106
:1023D000CF911F910F91FF90EF90089580911B0571
:1023E00090911C05892B19F064E170E002C065E052
:1023F00070E024E130E04DE050E088E893E10C9497
:10240000F9050E9499240E94440A8DE695E00E94F5
:10241000751A0E947311C8E6D3E10E94EE1120974D
:10242000E1F30E946813F9CF1092C9041092C80416
:1024300088EE93E0A0E0B0E08093CA049093CB04D0
:10244000A093CC04B093CD048DE794E09093C7049F
:102450008093C60486E795E09093D3048093D204DA
:102460001092D8041092D9041092DA0421E020933B
:10247000C0042093C10482E090E09093C304809351
:10248000C2042093BB049093BD048093BC040895C0
:1024900086EC94E00C94CA23CF93DF931F92CDB7C0
:1024A000DEB76983DC01ED91FC910280F381E02DC0
:1024B00041E050E0BE016F5F7F4F09950F90DF91C3
:1024C000CF910895CF93DF93EC018C859D8597FF85
:1024D00005C082E00E94C0179D878C878C859D85F2
:1024E000DF91CF91089583E00C94151AFC01848547
:1024F000958597FD06C082E00E94681790E00196DE
:10250000089582E00E94681790E00895FC01848598
:10251000958597FD05C02FEF3FEF358724870895F8
:1025200082E00C94C017CF93DF93EC0180910D01F2
:10253000882331F083E00E94F1171816190634F051
:1025400081E090E09B838A8380E090E0DF91CF91EF
:102550000895FC0120812E5F208342E450E068EE64
:1025600070E080E80C948C18FC0181819081913A94
:1025700059F4813209F03CC047E050E066E071E078
:1025800080E00E948C1843C0913291F5803239F47A
:1025900067E070E086E091E00E94BD1806C08232DC
:1025A00009F035C0828180930D01809106019091E0
:1025B0000701A0910801B0910901803B9440A10559
:1025C000B105C1F480910D0180FD14C087E797E744
:1025D00090930108809300082BE088E190E00FB60B
:1025E000F894A895809360000FBE209360000FC000
:1025F00080E0089588E10FB6F8948093600010920F
:1026000060000FBEA895109201081092000881E0AA
:1026100008952FEF3FEFFC01358724870895CF936E
:10262000C0910D016AE070E080E090E00E947124AA
:1026300081E0C11101C080E0CF9108951092200582
:1026400010921F0588EE93E0A0E0B0E08093210592
:1026500090932205A0932305B093240587E094E08E
:1026600090931E0580931D058FEF9FEF90932A0591
:10267000809329050895FC01818D228D90E0805C76
:102680009F4F821B91098F7399270895FC01918DAB
:10269000828D981731F0828DE80FF11D858D90E0C5
:1026A00008958FEF9FEF0895FC01918D828D98170B
:1026B00061F0828DDF01A80FB11D5D968C91928D26
:1026C0009F5F9F73928F90E008958FEF9FEF089523
:1026D0008DEC97E2892B49F080E090E0892B29F07E
:1026E0000E94CD2781110C9400000895FC01848D77
:1026F000DF01A80FB11DA35ABF4F2C91848D90E02C
:1027000001968F739927848FA689B7892C93A08906
:10271000B1898C9180648C93938D848D981306C0BD
:102720000288F389E02D80818F7D80830895CF9387
:10273000DF93EC01888D8823C9F0EA89FB898081C9
:1027400085FD05C0A889B9898C9186FD0FC00FB69B
:1027500007FCF5CF808185FFF2CFA889B9898C91DC
:1027600085FFEDCFCE010E947613E7CFDF91CF91A9
:102770000895CF92DF92FF920F931F93CF93DF9331
:102780001F92CDB7DEB76C0181E0D60158968C93CD
:1027900058975B969C915B975C968C915C9798138D
:1027A00007C05096ED91FC915197808185FD2EC018
:1027B000F601038D10E00F5F1F4F0F731127F02EEE
:1027C000F601848DF81211C00FB607FCF9CFD601BF
:1027D0005096ED91FC915197808185FFF1CFC60114
:1027E00069830E9476136981EBCF838DE80FF11D19
:1027F000E35AFF4F6083D6015B960C935B9752962A
:10280000ED91FC915397808180620CC0D601569661
:10281000ED91FC91579760835096ED91FC91519703
:1028200080818064808381E090E00F90DF91CF9180
:102830001F910F91FF90DF90CF900895BF92CF929C
:10284000DF92EF92FF92CF93DF93EC016A017B015D
:10285000B22EE889F98982E08083411581EE58071C
:1028600061057105A1F060E079E08DE390E0A701DA
:1028700096010E942F28215031094109510956958E
:10288000479537952795211580E1380798F0E88915
:10289000F989108260E874E88EE190E0A701960162
:1028A0000E942F2821503109410951095695479519
:1028B00037952795EC85FD853083EE85FF85208350
:1028C000188EEC89FD89B082EA89FB89808180615C
:1028D0008083EA89FB89808188608083EA89FB891B
:1028E000808180688083EA89FB8980818F7D8083F5
:1028F000DF91CF91FF90EF90DF90CF90BF90089540
:10290000CF92DF92EF92FF920F931F93CF93DF93BB
:102910006C017A01EB01E60EF71E00E010E0CE1527
:10292000DF0561F06991D601ED91FC910190F08194
:10293000E02DC6010995080F191FF1CFC801DF91DD
:10294000CF911F910F91FF90EF90DF90CF9008955E
:102950006115710581F0DB010D900020E9F7AD01F3
:1029600041505109461B570BDC01ED91FC9102804F
:10297000F381E02D099480E090E00895EF92FF92BA
:102980000F931F93CF93DF938C01FB01C0E0D0E046
:1029900064917F018FEFE81AF80A662361F0D8018D
:1029A000ED91FC910190F081E02DC8010995C80FCF
:1029B000D91FF701EDCFCE01DF91CF911F910F917C
:1029C000FF90EF900895DC01ED91FC91DB011496EE
:1029D0004D915C9115976D917C910280F381E02D72
:1029E00009940C94A814DC01ED91FC910190F08104
:1029F000E02D09946AE171E00C94A8140F931F93E1
:102A0000CF93DF93EC010E94E3148C01CE010E946E
:102A1000FA14800F911FDF91CF911F910F910895AC
:102A20000F931F93CF93DF93EC010E94A8148C01A6
:102A3000CE010E94FA14800F911FDF91CF911F9158
:102A40000F9108958F929F92AF92BF92CF92DF9293
:102A5000EF92FF920F931F93CF93DF93CDB7DEB723
:102A6000A1970FB6F894DEBF0FBECDBF7C01C42E78
:102A7000E52FCB01D22E19A221E02D1510F02AE06E
:102A8000D22E8E010F5D1F4F8D2C912CA12CB12CBD
:102A90006C2D7E2FA50194010E942F288C2DD29E93
:102AA00080191124015011098A3014F4805D01C08D
:102AB000895CF8018083211531054105510521F01C
:102AC000C22EE32FCA01E4CFB801C7010E94A814A7
:102AD000A1960FB6F894DEBF0FBECDBFDF91CF91A8
:102AE0001F910F91FF90EF90DF90CF90BF90AF902C
:102AF0009F908F900895CF92DF92EF92FF920F9365
:102B00001F93CF93DF93EC016A017B0121153105FF
:102B100079F4E881F9810190F081E02D642FDF9153
:102B2000CF911F910F91FF90EF90DF90CF9009947C
:102B30002A303105E9F477FF1AC06DE20E94F314E0
:102B40008C0144275527BA014C195D096E097F098C
:102B50002AE0CE010E942215800F911FDF91CF91B4
:102B60001F910F91FF90EF90DF90CF9008952AE092
:102B7000B701A601CE01DF91CF911F910F91FF9078
:102B8000EF90DF90CF900C9422150F931F93CF936B
:102B9000DF93EC019A01AB01662757FD6095762F14
:102BA0000E947B158C01CE010E94FA14800F911FA8
:102BB000DF91CF911F910F9108950F931F93CF93A2
:102BC000DF93EC010E944224688779878A879B877C
:102BD000E881F9810680F781E02DCE01099597FF04
:102BE00015C00E944224088519852A853B85601BF3
:102BF000710B820B930B0C811D812E813F8160171D
:102C000071078207930720F38FEF9FEFDF91CF913A
:102C10001F910F9108950F931F93CF93DF93EC01B2
:102C20000E944224688779878A879B87E881F98197
:102C30000084F185E02DCE01099597FF15C00E9413
:102C40004224088519852A853B85601B710B820B00
:102C5000930B0C811D812E813F81601771078207C4
:102C6000930720F38FEF9FEFDF91CF911F910F918B
:102C70000895CF93DF93EC01CE010E940B1697FDD0
:102C800011C08D32910571F09C01205331092A3019
:102C9000310540F0E881F9810680F781E02DCE0111
:102CA0000995EACFDF91CF910895CF92DF92FF92FD
:102CB0000F931F93CF93DF9300D000D0CDB7DEB733
:102CC0006C01062F0E943916FC0197FD4BC020E0D5
:102CD00030E0A901F12C112707FD1095E017F1074D
:102CE000E9F0ED32F105C1F0CF01C0970A97B0F4D9
:102CF000AAE0B0E00E9457289B01AC01CF01AA27AF
:102D000097FDA095BA2F280F391F4A1F5B1F20532C
:102D100031094109510902C0FF24F394D601ED9114
:102D2000FC910680F781E02DC60129833A834B830D
:102D30005C830995C6010E940B16FC01C09729818E
:102D40003A814B815C810A9748F2E017F10731F232
:102D5000FF2061F066277727CB01621B730B840B82
:102D6000950B06C060E070E0CB0102C0CA01B9015A
:102D70000F900F900F900F90DF91CF911F910F91B7
:102D8000FF90DF90CF90089561E00C945516EF927C
:102D9000FF920F931F93CF93DF93EC018B01E42EEF
:102DA0006CE171E00E94011BC8010E94DD15FF2447
:102DB000E7FCF09497FD0BC08E159F0541F0682F3E
:102DC000CE010E94BE1BC8010E94DD15F3CFCE01CB
:102DD000DF91CF911F910F91FF90EF900895409157
:102DE00071055091720520916F0530917005421761
:102DF0005307B4F49091E8009570E1F39091E800E6
:102E000092FD19C08093F100809171059091720537
:102E100001968F739927892B19F48EEF8093E80020
:102E2000809171059091720501969093720580933F
:102E3000710581E0089580E00895CF92DF92FF92BE
:102E40000F931F93CF93DF931F92CDB7DEB7082F59
:102E5000162F862F880F8E5F99830E94EF1683E0CE
:102E60000E94EF16F02EC02E9981D92E8C2D8F192D
:102E7000811778F4F60184910E94EF16082F80E004
:102E80000E94EF168023FFEFCF1ADF0A8111EECFE9
:102E900001C081E00F90DF91CF911F910F91FF90C2
:102EA000DF90CF900895615030F02091F100FC0147
:102EB00020830196F8CF289884E6809374050895BE
:102EC0002FB7FC012083F89467706093E9000895A0
:102ED000CF93DF931F92CDB7DEB7682FCE01019657
:102EE0000E9460178091F20099819FBF0F90DF913F
:102EF000CF910895FF920F931F93CF93DF9300D04C
:102F0000CDB7DEB7F62E8A0190917305992311F0A3
:102F100057FF03C08FEF9FEF2BC0682FCE010196A4
:102F20007A830E9460178091F20090E0A8017A8174
:102F3000801791070CF4AC01EF2DF72FF40E84E607
:102F4000FE1639F02898809374059091F1009193C2
:102F5000F7CF4115510521F08091F200882321F02F
:102F600089818FBFCA0104C08BE68093E800F8CF47
:102F70000F900F90DF91CF911F910F91FF900895C7
:102F8000CF93DF931F92CDB7DEB741E050E0BE0193
:102F90006F5F7F4F0E947A17019719F4898190E043
:102FA00002C08FEF9FEF0F90DF91CF910895CF93E5
:102FB000DF931F92CDB7DEB7682FCE0101960E9436
:102FC00060179091E800892F807295FF04C090915E
:102FD000F20080E4891B99819FBF0F90DF91CF9110
:102FE00008956F927F928F929F92AF92BF92CF92ED
:102FF000DF92EF92FF920F931F93CF93DF931F9275
:10300000CDB7DEB7782E7B01C42EB52E8091730527
:10301000882369F0042F152F8AEFD82E872D807210
:10302000982E9AE3A92E872D8074882E11C08FEFD9
:103030009FEF57C0872D0E94D717682E81110CC0B3
:10304000DA94A9F361E070E080E090E00E947124DE
:103050000115110579F73BC0282F30E0021713073F
:103060000CF4602E672DCE0101960E9460178091AE
:10307000E80085FF29C0262D30E0021B130B9920A4
:1030800039F06A948FEF6816B1F01092F100F9CF21
:10309000F701862D77FE07C0815058F094919093E8
:1030A000F1003196F9CF815020F091919093F10089
:1030B000FACFE20EF31E8091E80085FF0FC00115E4
:1030C000110511F481100AC089818FBFC1CF5D98AD
:1030D00084E6809375058C2D9B2D03C0A092E8009B
:1030E000F3CF0F90DF91CF911F910F91FF90EF9051
:1030F000DF90CF90BF90AF909F908F907F906F9018
:1031000008951092E9001092720510927105909343
:10311000700580936F050895CF92DF92FF920F9311
:103120001F93CF93DF9300D0CDB7DEB7F82E8A017F
:103130006B0101151105B1F0F601F7FE02C0849193
:1031400001C0808149835A830E94EF160150110902
:10315000FFEFCF1ADF0A49815A818111EACF8FEF41
:103160009FEF01C0CA010F900F90DF91CF911F9187
:103170000F91FF90DF90CF9008951F93CF93DF932F
:103180001F92CDB7DEB7162F2091E80022FFFCCFAB
:10319000612F79830E9453178BEF8093E800812F72
:1031A0007981972F0F90DF91CF911F910895CF9341
:1031B000DF931F92CDB7DEB71982CE0101960E9430
:1031C000A912CE0101960E945026898190E00F90AD
:1031D000DF91CF9108951F920F920FB60F92112495
:1031E000EF92FF920F931F932F933F934F935F9311
:1031F0006F937F938F939F93AF93BF93EF93FF93BF
:10320000CF93DF93CDB7DEB76297DEBFCDBF10920D
:10321000E9008091E80083FFEBC068E0CE010A96E8
:103220000E94531782EF8093E8009A8597FF05C0AC
:103230008091E80080FFFCCF03C08EEF8093E80010
:10324000892F807609F0B9C08B85811105C0109255
:10325000F1001092F100C5C0282F2D7F213009F414
:10326000C0C0853049F48091E80080FFFCCF8C8598
:1032700080688093E300B5C0863009F076C02D8564
:10328000E888F988223071F580E090E02A8B0E946E
:1032900081180E94D71899E08E010F5F1F4FF80127
:1032A000392F11923A95E9F799832A892A8391E077
:1032B0009E8390E898879AEF9987209171053091C5
:1032C0007205275F3F4F3C832B838D83C7010E948C
:1032D000811849E050E0B80180E00E948C180E94FB
:1032E000D7187FC0C7012A8B0E9481182A892232F1
:1032F00041F482E290E00E945B26892B09F071C0C4
:1033000074C0213069F488899989089711F4209351
:103310006E0580916E05811118C061E471E01AC0DC
:10332000233009F062C08C85882391F0823021F42B
:103330006CE08FE591E006C0813009F056C06BE08B
:1033400083E591E00E941D174AC06FE271E002C060
:103350006CE671E06115710509F447C0FB01449109
:1033600050E080E80E948C183CC0873009F43DC0D2
:10337000883021F481E08093F10033C0893089F5F1
:10338000937099F5EBE2F1E081E021E096E3809320
:10339000E9002093EB0034913093EC009093ED0022
:1033A0008F5F3196853099F78EE78093EA0010920F
:1033B000EA008C858093730514C0888999890E94DE
:1033C00081188E85811105C0CE010A960E94B41223
:1033D00006C0823051F4CE010A960E9483268823CB
:1033E00021F08EEF8093E80003C081E28093EB0030
:1033F00062960FB6F894DEBF0FBECDBFDF91CF91BE
:10340000FF91EF91BF91AF919F918F917F916F91BC
:103410005F914F913F912F911F910F91FF90EF90EE
:103420000F900FBE0F901F9018958093E900809128
:10343000F200882319F08AE38093E80008951F9230
:103440000F920FB60F9211242F933F934F935F93D8
:103450006F937F938F939F93AF93BF93EF93FF935C
:103460008091E1001092E10083FF0FC01092E9000B
:1034700091E09093EB001092EC0092E39093ED00BA
:103480001092730598E09093F00082FF1DC083E0D6
:103490000E94151A80917505882339F08091750571
:1034A000815080937505882369F080917405882385
:1034B00059F080917405815080937405811104C086
:1034C000289A02C05D9AF1CFFF91EF91BF91AF9121
:1034D0009F918F917F916F915F914F913F912F912C
:1034E0000F900FBE0F901F9018951092730581E0FA
:1034F0008093D70080EA8093D80082E189BD09B427
:1035000000FEFDCF61E070E080E090E00E94712459
:1035100080E98093D8008CE08093E2001092E00074
:10352000559A209A0895FC01808191810C941D295F
:10353000CF93DF93EC0188819981009711F00E946D
:103540001D29198218821D821C821B821A82DF911A
:10355000CF9108950F931F93CF93DF93EC018B01CD
:103560006F5F7F4F888199810E94AC29009731F06D
:10357000998388831B830A8381E001C080E0DF9107
:10358000CF911F910F910895CF93DF93EC01888124
:103590009981892B29F08A819B818617970760F48E
:1035A000CE010E94AA1A882341F08C819D81892B2B
:1035B00019F4E881F981108281E0DF91CF910895BB
:1035C000EF92FF920F931F93CF93DF93EC017B0158
:1035D0008A01BA010E94C41A811104C0CE010E945E
:1035E000981A07C01D830C83B701888199810E94B6
:1035F000BA2ACE01DF91CF911F910F91FF90EF90EA
:103600000895FC01118210821382128215821482A5
:103610006115710559F0FB0101900020E9F7AF0138
:1036200041505109461B570B0C94E01A0895CF9353
:10363000DF93EC01FB018617970761F060817181D0
:103640006115710529F0448155810E94E01A02C07C
:103650000E94981ACE01DF91CF910895FC0111824A
:10366000108213821282158214820C94171BCF933E
:10367000DF93EC016115710561F0FB010190002001
:10368000E9F7AF0141505109461B570B0E94E01A60
:1036900002C00E94981ACE01DF91CF9108950F9336
:1036A0001F93CF93DF93CDB7DEB762970FB6F89431
:1036B000DEBF0FBECDBF8C01CB01F801118210829D
:1036C000138212821582148250E0BE016F5F7F4F19
:1036D0000E94F82ABE016F5F7F4FC8010E94371B0E
:1036E00062960FB6F894DEBF0FBECDBFDF91CF91CB
:1036F0001F910F910895EF92FF920F931F93CF9315
:10370000DF93EC017B010C811D816115710511F4C2
:1037100080E016C04115510591F0040F151FB80146
:103720000E94C41A8823A1F3288139818C819D814C
:10373000B701820F931F0E94BA2A1D830C8381E078
:10374000DF91CF911F910F91FF90EF900895FB01B2
:1037500044815581608171810C947B1B61157105D9
:1037600059F0FB0101900020E9F7AF0141505109E8
:10377000461B570B0C947B1B80E00895CF93DF937F
:1037800000D0CDB7DEB769831A8241E050E0BE01B8
:103790006F5F7F4F0E947B1B0F900F90DF91CF9147
:1037A0000895CF93DF93EC01FB0144815581608143
:1037B00071810E947B1B811103C0CE010E94981A67
:1037C000CE01DF91CF910895CF93DF93EC01611586
:1037D000710569F0FB0101900020E9F7AF0141504C
:1037E0005109461B570B0E947B1B811103C0CE0160
:1037F0000E94981ACE01DF91CF910895FC01248197
:103800003581232B31F421E061157105A1F0FB0115
:1038100008C0FC01808191816115710531F421E0BE
:10382000FC018081882339F005C00E94B12A21E083
:10383000892B09F020E0822F0895FA01DB0114960C
:103840004D915C911597DC0114962D913C91159743
:10385000241B350B2E173F0788F08D919C91009704
:1038600069F0DB016D917C916115710539F08E0F66
:103870009F1F0E94C12A21E0892B09F020E0822F9E
:103880000895FC0144815581FB0124813581421753
:10389000530720F040E050E00C941D1C80E0089598
:1038A0000F931F93CF93DF93EB0141155105E9F07F
:1038B0002097D9F0FC016481758126173707A0F4A1
:1038C000621B730B8A01015011096017710708F41C
:1038D0008B01FC0160817181620F731FA801CE0111
:1038E0000E94CF2AC00FD11F1882DF91CF911F9164
:1038F0000F910895CF93DF93FC0184819581481740
:10390000590778F4C081D181772767FD7095CE0182
:10391000840F951F0E94A62A009719F08C1B9D0BFF
:1039200002C08FEF9FEFDF91CF91089540E050E00C
:103930000C947A1CCF93DF93FC0184819581481706
:10394000590778F4C081D181FB0160817181CE017A
:10395000840F951F0E94DE2A009719F08C1B9D0B87
:1039600002C08FEF9FEFDF91CF91089540E050E0CC
:103970000C949A1CFC0180819181009711F00C94A9
:10398000762A60E070E0CB010895FC012381348148
:103990002627022E2295207F2025032E322F2295C6
:1039A0002F700226269532272327220F220F220F5F
:1039B0002025FC01348323830895CF93DF93EC010A
:1039C0008D819E81DC01ED91FC916C810190F081F3
:1039D000E02D09958D819E81DC01ED91FC91019096
:1039E000F081E02D6B81DF91CF9109948F929F92AE
:1039F000AF92BF92CF92DF92EF92FF92CF93DF937D
:103A0000EC016B010E9442244B015C01E12CF12C82
:103A10008D819E81DC01ED91FC910680F781E02D86
:103A2000099597FF0DC00E944224681979098A09F7
:103A30009B096C157D058E059F0550F38FEF9FEF59
:103A4000DF91CF91FF90EF90DF90CF90BF90AF903C
:103A50009F908F900895CF93DF93EC018D819E818D
:103A6000DC01ED91FC910480F581E02D099518169B
:103A7000190654F48D819E81DC01ED91FC91068044
:103A8000F781E02D0995EACFDF91CF9108952F922C
:103A90003F924F925F926F927F928F929F92AF92DE
:103AA000BF92CF92DF92EF92FF920F931F93CF932B
:103AB000DF93CDB7DEB72D970FB6F894DEBF0FBEFC
:103AC000CDBF3C011B013C832B83BF82AE825801DA
:103AD000AC0CBD1CA40EB51EBD824B2C512CCA01D2
:103AE000860F971F99878887D901A00FB11FBB87C1
:103AF000AA87F601EE0DFF1DFD87EC87D30118960E
:103B00008C91581608F026C1EFEFFFEFD301149601
:103B1000FC93EE93139715968D919C911697DC016B
:103B2000ED91FC910190F081E02D6FEF09956FEF21
:103B3000C3010E94C51CF30185819681DC01ED91D2
:103B4000FC910190F081E02DD3016C910995F30176
:103B50006081C3010E94C51CD30115968D919C9173
:103B60001697DC01ED91FC910190F081E02D6D81C3
:103B70000995642DC3010E94C51CF30185819681BE
:103B8000DC01ED91FC910190F081E02D6A2D099509
:103B90006A2DC3010E94C51C610188859985C816DC
:103BA000D906A1F0F301858196818601DC01ED91B2
:103BB000FC910190F081E02DD6016D916D01099588
:103BC000F8016081C3010E94C51CE7CFCB80DC8077
:103BD0008A859B85C816D906B1F0D30115968D91BB
:103BE0009C9116978601DC01ED91FC910190F0818A
:103BF000E02DD6016D916D010995F8016081C30139
:103C00000E94C51CE5CF87018C859D850817190783
:103C1000B1F0D30115968D919C9116976801DC0146
:103C2000ED91FC910190F081E02DD8016D918D0115
:103C30000995F6016081C3010E94C51CE5CFC3014F
:103C40000E94DD1C64E670E0C3010E94F61C8F3FF9
:103C5000910509F074C0EFEFFFEFD3011496FC93C8
:103C6000EE9313976FEFC3010E94C51C65E070E0EF
:103C7000C3010E94F61CD3016C91262F30E08217FD
:103C8000930709F05CC0C3010E94C51C6AE070E0A4
:103C9000C3010E94F61C8C0197FD51C0682FC3011F
:103CA0000E94C51C6AE070E0C3010E94F61C6C0112
:103CB00097FD45C0682FC3010E94C51C0A83198265
:103CC00009811A810C0D1D1DC12CD12C65E070E0FD
:103CD000C301C016D106A1F0C814D90489F00E940E
:103CE000F61C97FD09C0EE81FF81EC0DFD1D808360
:103CF000682FC3010E94C51CBFEFCB1ADB0AE6CFB9
:103D00000E94F61C6C0197FD1AC065E070E0C301CB
:103D10000E94F61C97FD13C0DC2CCC24C80ED91EC3
:103D2000F301838194818C159D0549F480818F5F17
:103D30008083C8018016910678F4C4010DC05394A5
:103D400064E670E080E090E00E947124C3010E946C
:103D50002B1DD4CE8FEF9FEF2D960FB6F894DEBFBC
:103D60000FBECDBFDF91CF911F910F91FF90EF90CC
:103D7000DF90CF90BF90AF909F908F907F906F908B
:103D80005F904F903F902F9008956F927F928F9207
:103D90009F92AF92BF92CF92DF92EF92FF920F93DA
:103DA0001F93CF93DF93CDB7DEB727970FB6F89465
:103DB000DEBF0FBECDBF3C018B017A0161E374E031
:103DC000CE0101960E94011BB801CE0101960E940E
:103DD000AE1B63E374E0CE0101960E94AE1BB701F7
:103DE000CE0101960E94AE1B4D815E8169817A8170
:103DF00088248394912CCE0107965C01C12CD12C90
:103E0000E12CF12C00E010E020E030E0C3010E9442
:103E1000471DCE0101960E94931A27960FB6F8947B
:103E2000DEBF0FBECDBFDF91CF911F910F91FF90ED
:103E3000EF90DF90CF90BF90AF909F908F907F904A
:103E40006F9008953F924F925F926F927F928F9200
:103E50009F92AF92BF92CF92DF92EF92FF920F9319
:103E60001F93CF93DF93CDB7DEB72E970FB6F8949D
:103E7000DEBF0FBECDBF3C01DC0117968C911797BA
:103E80008111CFC081E017968C93C3010E942B1D36
:103E900068EE73E080E090E00E947124F301858178
:103EA0009681DC01ED91FC910480F581E02D09956E
:103EB0001816190654F355E0552E4424439462E332
:103EC000362EE0E1F1E0DE011696852D01900D928F
:103ED0008A95E1F7F3014086812C912CA12CB12C1D
:103EE000C12CD12CE12CF12C00E010E020E030E0DE
:103EF00045E050E0BE016A5F7F4FC3010E94471D4D
:103F000063E0D30115968D919C9116970E94F3144E
:103F10006AEF70E080E090E00E9471246EE771E04B
:103F2000F301858196810E94BE146AEF70E080E003
:103F300090E00E9471246CE771E0D30115968D9199
:103F40009C9116970E94BE1464EF71E080E090E0AF
:103F50000E94712460E771E0F301858196810E94DF
:103F6000BE1464EF71E080E090E00E947124C30110
:103F70000E942B1DE5E1F1E0DE011196852D0190F7
:103F80000D928A95E1F7D30118963C9244E0842E75
:103F9000912CFE013B965F0120E030E045E050E0CF
:103FA000BE016F5F7F4FC3010E94471D8F3FFFEF30
:103FB0009F0739F468EE73E080E090E00E9471247E
:103FC00080CF2B852111FFCF049711F52C8530E090
:103FD0002053310944E6429FC001439F900D1124B4
:103FE0002D8530E0205331096AE0629FA001639F74
:103FF000500D1124840F951F2E8530E02053310978
:10400000820F931FD30112969C938E93119705C034
:1040100084E690E0F3019283818382E3D3011896D2
:104020008C932E960FB6F894DEBF0FBECDBFDF91F6
:10403000CF911F910F91FF90EF90DF90CF90BF90A5
:10404000AF909F908F907F906F905F904F903F9038
:1040500008951092760589E995E090937C05809308
:104060007B0510927D0510927E05909380058093CC
:104070007F050895CF93DF931F92CDB7DEB7698395
:10408000DC01ED91FC910280F381E02D41E050E0F4
:10409000BE016F5F7F4F09950F90DF91CF9108951B
:1040A00008956F927F928F929F92AF92BF92CF921C
:1040B000DF92EF92FF920F931F93CF93DF9300D085
:1040C0001F92CDB7DEB79B013A01FC01E85AFF4FC2
:1040D00040814F3F21F147E64983319640814A8331
:1040E000399788248394912CCE0103965C01C12CCE
:1040F000D12CE12CF12C830142E050E0BE016F5F36
:104100007F4F808191810E94471D8B81882329F0F8
:1041100090E091958195910904C0C30102C08FEF91
:104120009FEF0F900F900F90DF91CF911F910F9104
:10413000FF90EF90DF90CF90BF90AF909F908F90C7
:104140007F906F9008958F929F92AF92BF92CF927F
:10415000DF92EF92FF920F931F9348015901C12CF8
:10416000D12CE12CF12C00E010E020E030E00E94A6
:10417000471D1F910F91FF90EF90DF90CF90BF9060
:10418000AF909F908F9008952F923F924F925F92A1
:104190006F927F928F929F92AF92BF92CF92DF9257
:1041A000EF92FF920F931F93CF93DF93CDB7DEB7BC
:1041B00028970FB6F894DEBF0FBECDBF3C018B0130
:1041C000FC011382128288EE93E0A0E0B0E08483C9
:1041D0009583A683B78381E694E09183808313015E
:1041E000F0E52F0E311CF101318320837301F2E5DC
:1041F000EF0EF11C6CE171E0C70148870E94011BC2
:10420000230188E5480E511C4885F2014083B8011E
:10421000C7010E94371B82E7898387E78A8381E68B
:104220008B8386E48E83F2018081FE01E80FF11D0D
:1042300081818F8381E090E0F30197878687EA5A36
:10424000FF4F00811181F7012081318192E0892E99
:10425000912CCE0104965C01C12CD12CE12CF12CC7
:1042600042E050E0BE016A5F7F4FF10180819181A1
:104270000E94471D8C81882321F08FEFF2018083FB
:1042800007C0F301E75AFF4F8D818083F301148645
:1042900028960FB6F894DEBF0FBECDBFDF91CF9149
:1042A0001F910F91FF90EF90DF90CF90BF90AF9054
:1042B0009F908F907F906F905F904F903F902F9046
:1042C0000895FC01E85AFF4F81E090819F3F09F477
:1042D00080E00895EF92FF920F931F93CF93DF93A7
:1042E00000D01F92CDB7DEB77C01FC01848581111F
:1042F00024C0158687E489838FE38B83E75AFF4FB9
:1043000080818A8300E410E09701205F3F4F43E003
:1043100050E0BE016F5F7F4F3997808191810E948D
:10432000A320F7018487811102C0148606C0F7011B
:1043300095859F5F9587815084870F900F900F9090
:10434000DF91CF911F910F91FF90EF900895CF9340
:10435000DF93EC010E946A218C85882359F08150FB
:104360008C878D8591E0980F9D87C80FD11D888916
:1043700090E002C08FEF9FEFDF91CF910895CF9330
:10438000DF93EC010E946A218C85882331F08D85B2
:10439000C80FD11D888990E002C08FEF9FEFDF9199
:1043A000CF910895CF93DF93EC010E946A218C8511
:1043B00090E0DF91CF910895EF92FF920F931F93BA
:1043C000CF93DF9300D01F92CDB7DEB77C0128E5F5
:1043D000E20EF11CF70120812F3FB9F026E6298378
:1043E000319620812A83399701E010E09E012D5FEC
:1043F0003F4F42E050E0BE016F5F7F4F808191816F
:104400000E94A3208FEFF70180830F900F900F90F1
:10441000DF91CF911F910F91FF90EF900895CF936F
:10442000DF93EC0181E694E099838883CE010E94BA
:10443000DC21CE018E5A9F4FDF91CF910C94931ABD
:1044400081E00895CF93DF93EC01BA01422F26E774
:1044500035E00E94C420CE01DF91CF91089586E718
:1044600095E09093820580938105089508950F93B8
:104470001F93CF93DF9300D01F92CDB7DEB729E40F
:104480002983FC0126852A836B8300E010E020E06D
:1044900030E043E050E0BE016F5F7F4F848595853B
:1044A0000E94A32081E090E00F900F900F90DF9189
:1044B000CF911F910F910895EF92FF920F931F9349
:1044C000CF93DF9300D01F92CDB7DEB77C01FC0104
:1044D0008389811117C0148A8FE4898386858A8332
:1044E00080E48B8397012B5E3F4F00E410E043E0B4
:1044F00050E0BE016F5F7F4F848595850E94A320A9
:10450000F701838B0F900F900F90DF91CF911F9148
:104510000F91FF90EF900895CF93DF93EC010E94ED
:104520005C228B8990E0DF91CF910895CF93DF9348
:10453000EC010E945C228B89882359F081508B8B7F
:104540008C8991E0980F9C8BC80FD11D8D8990E0CC
:1045500002C08FEF9FEFDF91CF910895CF93DF934C
:10456000EC010E945C228B89882331F08C89C80F72
:10457000D11D8D8990E002C08FEF9FEFDF91CF9129
:1045800008950F931F93CF93DF93EC018B0163E3A7
:1045900074E0888999890E94AE1BB801888999893D
:1045A000DF91CF911F910F910C94A71B6F927F9277
:1045B0008F929F92AF92BF92CF92DF92EF92FF9233
:1045C0000F931F93CF93DF9300D01F92CDB7DEB729
:1045D0003C0182E58B83D3015096ED91FC9151977C
:1045E000048115812081318182E0882E912CFE0189
:1045F00031965F01C12CD12CE12CF12C41E050E02F
:10460000BE016D5F7F4F1C968D919C911D970E94FE
:10461000471D8A8190E0D3011F969C938E931E972D
:1046200050960D911C9151970115110531F0C8015B
:104630000E94931AC8010E94F623F301118A108A7E
:104640008981811102C081E0828B0F900F900F90C1
:10465000DF91CF911F910F91FF90EF90DF90CF905E
:10466000BF90AF909F908F907F906F9008950F9321
:104670001F93CF93DF9300D01F92CDB7DEB722E711
:104680002983FC0126852A8301E010E09E012D5F2D
:104690003F4F42E050E0BE016F5F7F4F84859585BC
:1046A0000E94A32081E09B81913009F080E00F906F
:1046B0000F900F90DF91CF911F910F9108950F935D
:1046C0001F93CF93DF9300D000D0CDB7DEB727E59F
:1046D0002B83FC0126852C8302E010E09E012F5FD6
:1046E0003F4F42E050E0BE016D5F7F4F848595856E
:1046F0000E94A320898190E0982F88272A81820F29
:10470000911D0F900F900F900F90DF91CF911F91FF
:104710000F910895CF93DF93EC010E94D622CE0132
:104720000E943723882339F064E670E080E090E04F
:104730000E947124F4CFCE01DF91CF910C945F23BE
:10474000EF92FF920F931F93CF93DF9300D0CDB7DB
:10475000DEB77C01FC018289882389F087E78983A1
:1047600086858A8300E010E020E030E042E050E0FF
:10477000BE016F5F7F4F848595850E94A320F7015E
:10478000128A0F900F90DF91CF911F910F91FF90A0
:10479000EF9008952DE734E0FC01318320830C94E1
:1047A000A023EF92FF920F931F93CF93DF9300D03C
:1047B000CDB7DEB77C0169837A830E94A02386E0AF
:1047C00090E00E94F4238C0169817A810E942E1B63
:1047D000F701118B008B0F900F90DF91CF911F91FC
:1047E0000F91FF90EF9008950C9485280C941D294B
:1047F0001F920F920FB60F9211242F933F938F9316
:104800009F93AF93BF938091840590918505A0916C
:104810008605B09187053091830523E0230F2D375E
:1048200020F40196A11DB11D05C026E8230F0296B4
:10483000A11DB11D20938305809384059093850568
:10484000A0938605B093870580918805909189058E
:10485000A0918A05B0918B050196A11DB11D809391
:10486000880590938905A0938A05B0938B05BF9125
:10487000AF919F918F913F912F910F900FBE0F900D
:104880001F9018952FB7F894609184057091850555
:1048900080918605909187052FBF08953FB7F894C2
:1048A0008091880590918905A0918A05B0918B052A
:1048B00026B5A89B05C02F3F19F00196A11DB11D7B
:1048C0003FBF6627782F892F9A2F620F711D811D98
:1048D000911D42E0660F771F881F991F4A95D1F7F7
:1048E0000895CF92DF92EF92FF92CF93DF936B0107
:1048F0007C010E944E24EB01C114D104E104F104B7
:1049000089F00E941A280E944E246C1B7D0B683E81
:10491000734090F381E0C81AD108E108F108C8514A
:10492000DC4FEACFDF91CF91FF90EF90DF90CF90F7
:104930000895789484B5826084BD84B5816084BD17
:1049400085B5826085BD85B5816085BDEEE6F0E008
:10495000808181608083E1E8F0E010828081826064
:104960008083808181608083E0E8F0E080818160E5
:104970008083E1E9F0E080818260808380818160D2
:104980008083E0E9F0E0808181608083E1ECF0E009
:104990008081846080838081826080838081816067
:1049A0008083E3ECF0E0808181608083E0ECF0E0E4
:1049B000808182608083E2ECF0E08081816080838E
:1049C000EAE7F0E080818460808380818260808378
:1049D00080818160808380818068808308951F93B7
:1049E000CF93DF93182FEB0161E00E94C32520973E
:1049F00011F460E004C0CF3FD10539F461E0812FAC
:104A0000DF91CF911F910C94FC25E12FF0E0E0584D
:104A1000FE4F449150E0FA013197EF30F10508F074
:104A20006CC0EA5AFF4F0C94512884B5806884BD4D
:104A3000C7BD68C084B5806284BDC8BD63C08091B5
:104A40008000806880938000D0938900C0938800A4
:104A500059C080918000806280938000D0938B0049
:104A6000C0938A004FC0809180008860809380004E
:104A7000D0938D00C0938C0045C0809190008068D9
:104A800080939000D0939900C09398003BC0809190
:104A90009000806280939000D0939B00C0939A0016
:104AA00031C080919000886080939000D0939D00E9
:104AB000C0939C0027C08091C00080688093C00094
:104AC0008091C0008F7B8093C000C093CF001AC03C
:104AD0008091C00080628093C000C093D00012C05B
:104AE0008091C20088608093C2008091C2008B7F59
:104AF0008093C200C093D20005C0C038D1050CF02D
:104B00007DCF77CFDF91CF911F91089590E0FC0189
:104B10003197EF30F105B0F5EB59FF4F0C94512868
:104B2000809180008F7703C0809180008F7D80937B
:104B30008000089580918000877FF9CF84B58F77BA
:104B400002C084B58F7D84BD0895809190008F77D9
:104B500007C0809190008F7D03C080919000877F77
:104B60008093900008958091C0008F7703C080915A
:104B7000C0008F7D8093C00008958091C200877F20
:104B80008093C2000895CF93DF9390E0FC01E2563A
:104B9000FE4F2491FC01E454FE4F8491882349F197
:104BA00090E0880F991FFC01E851FE4FA591B49148
:104BB00086529E4FFC01C591D4919FB7611108C0E8
:104BC000F8948C91209582238C93888182230AC04B
:104BD000623051F4F8948C91322F309583238C936A
:104BE0008881822B888304C0F8948C91822B8C93CB
:104BF0009FBFDF91CF9108950F931F93CF93DF93C2
:104C00001F92CDB7DEB7282F30E0F901E058FE4FF4
:104C10008491F901E256FE4F1491F901E454FE4FDC
:104C200004910023C9F0882321F069830E9486251E
:104C30006981E02FF0E0EE0FFF1FE652FE4FA591D5
:104C4000B4919FB7F8948C91611103C010958123A2
:104C500001C0812B8C939FBF0F90DF91CF911F914B
:104C60000F910895FF920F931F93CF93DF93EC0161
:104C7000F62EE881F9810480F581E02D09958C01FB
:104C8000E881F9810680F781E02D6F2DCE0109952D
:104C9000C8019927DF91CF911F910F91FF9008953F
:104CA000FC0120812F5F208349E150E066E772E03C
:104CB00080E80C948C1845E650E06FE872E080E8DC
:104CC0000C948C18EF92FF920F931F93CF93DF9366
:104CD0001F92CDB7DEB789838B017A0141E050E0A6
:104CE000BE016F5F7F4F84E00E94F117A701B801FA
:104CF00084E40E94F1170F90DF91CF911F910F91E3
:104D0000FF90EF900895FC0191818081813A31F408
:104D100081E0913091F0933089F411C0813271F4C7
:104D20009B3021F4828180930F0105C09A3031F4C9
:104D3000828180930E0181E00895089580E00895B6
:104D400048E050E082E00C946226CF93DF93DC01D0
:104D5000683818F0E8E7E60F25C0E62FF0E067FFB7
:104D600011C0E058F10981E090E001C0880FEA9598
:104D7000EAF714969C911497982B14969C93149789
:104D8000E0E010C0EA50FE4FE491EE2309F440C089
:104D9000E7FF08C014968C911497826014968C9348
:104DA0001497EF7716968C9116978E1741F11796F8
:104DB0008C9117978E1719F118968C9118978E175A
:104DC000F1F019968C9119978E17C9F01A968C915B
:104DD0001A978E17A1F01B968C911B978E1779F05E
:104DE00080E090E0ED01C80FD91F2E81211102C093
:104DF000EE8305C0019686309105A1F709C0BD017B
:104E00006C5F7F4FCD010E94A02681E090E008C03A
:104E100081E090E013969C938E93129780E090E04F
:104E2000DF91CF910895683818F0E8E7E60F25C0C4
:104E3000E62FF0E067FF12C0E058F10921E030E012
:104E400001C0220FEA95EAF72095DC0114963C9107
:104E50001497322314963C93E0E00FC0EA50FE4FC3
:104E6000E491EE2329F1E7FF08C0DC0114962C91B0
:104E700014972D7F14962C93EF7720E030E0EE23EB
:104E800051F0DC01A20FB31F16964C9116974E13EA
:104E900002C016961C922F5F3F4F2630310579F7DE
:104EA000BC016C5F7F4F0E94A02681E090E00895D6
:104EB00080E090E00895FC0116821782108611862A
:104EC000128613861482BC016C5F7F4F0C94A0265F
:104ED0001092980510928F0510928E058DE894E03F
:104EE00090938D0580938C0508951F920F920FB6B5
:104EF0000F9211242F938F939F93EF93FF93E09141
:104F0000A905F091AA058081E091AF05F091B00567
:104F100082FD12C090818091B2058F5F8F732091C6
:104F2000B305821751F0E091B205F0E0E756FA4F71
:104F3000958F8093B20501C08081FF91EF919F9181
:104F40008F912F910F900FBE0F901F9018951F9269
:104F50000F920FB60F9211242F933F934F935F93AD
:104F60006F937F938F939F93AF93BF93EF93FF9331
:104F700089E995E00E947613FF91EF91BF91AF917F
:104F80009F918F917F916F915F914F913F912F9161
:104F90000F900FBE0F901F90189589E995E00E9421
:104FA0003B1321E0892B09F420E0822F0895109211
:104FB0009C0510929B0588EE93E0A0E0B0E0809302
:104FC0009D0590939E05A0939F05B093A00587E152
:104FD00094E090939A05809399058DEC90E09093DE
:104FE000A6058093A5058CEC90E09093A80580938E
:104FF000A70588EC90E09093AA058093A90589EC19
:1050000090E09093AC058093AB058AEC90E0909390
:10501000AE058093AD058EEC90E09093B005809343
:10502000AF051092B2051092B3051092B40510921C
:10503000B5050895089597FB072E16F4009407D040
:1050400077FD09D00E94622807FC05D03EF49095B8
:1050500081959F4F0895709561957F4F0895A1E2C6
:105060001A2EAA1BBB1BFD010DC0AA1FBB1FEE1FE2
:10507000FF1FA217B307E407F50720F0A21BB30B2D
:10508000E40BF50B661F771F881F991F1A9469F7A9
:1050900060957095809590959B01AC01BD01CF0105
:1050A0000895EE0FFF1F0590F491E02D09940E94E2
:1050B0007628A59F900DB49F900DA49F800D911D03
:1050C00011240895AA1BBB1B51E107C0AA1FBB1FD7
:1050D000A617B70710F0A61BB70B881F991F5A9584
:1050E000A9F780959095BC01CD010895A29FB001CC
:1050F000B39FC001A39F700D811D1124911DB29F0C
:10510000700D811D1124911D0895CF93DF9382307E
:10511000910510F482E090E0E0913806F0913906B4
:1051200020E030E0A0E0B0E0309739F140815181DB
:1051300048175907B8F04817590771F482819381CD
:10514000109729F013969C938E9312972CC09093EE
:1051500039068093380627C02115310531F04217F2
:10516000530718F0A901DB0101C0EF019A01BD014D
:10517000DF010280F381E02DD7CF21153105F9F051
:10518000281B390B2430310580F48A819B816115FD
:10519000710521F0FB019383828304C0909339064B
:1051A00080933806FE01329644C0FE01E20FF31FE1
:1051B0008193919322503109398328833AC02091F9
:1051C000360630913706232B41F4209102013091AD
:1051D0000301309337062093360620910001309169
:1051E00001012115310541F42DB73EB7409104016D
:1051F00050910501241B350BE0913606F0913706DE
:10520000E217F307A0F42E1B3F0B2817390778F09D
:10521000AC014E5F5F4F2417350748F04E0F5F1FFC
:1052200050933706409336068193919302C0E0E095
:10523000F0E0CF01DF91CF910895CF93DF930097F6
:1052400009F487C0FC01329713821282C09138069C
:10525000D0913906209781F420813181280F391FA0
:1052600080913606909137068217930779F5F0936F
:105270003706E09336066DC0DE0120E030E0AE1761
:10528000BF0750F412964D915C9113979D01411503
:10529000510509F1DA01F3CFB383A2834081518133
:1052A000840F951F8A179B0771F48D919C9111971C
:1052B000840F951F02969183808312968D919C9105
:1052C0001397938382832115310529F4F0933906CE
:1052D000E09338063EC0D9011396FC93EE931297E3
:1052E0004D915D91A40FB51FEA17FB0779F48081FA
:1052F0009181840F951F0296D90111969C938E93EC
:105300008281938113969C938E931297E0E0F0E054
:105310008A819B81009719F0FE01EC01F9CFCE0143
:10532000029628813981820F931F20913606309191
:1053300037062817390769F4309729F4109239068F
:105340001092380602C013821282D0933706C0939F
:105350003606DF91CF910895A0E0B0E0E2EBF9E2EC
:105360000C94672BEC01CB01209719F40E9485283F
:10537000B8C0FE01E60FF71F9E0122503109E21767
:10538000F30708F4ACC0D9010D911C9111970617D1
:105390001707B8F00530110508F49FC0A801445064
:1053A00051094617570708F498C002501109061B07
:1053B000170B019311936D937C93CF010E941D29CC
:1053C0008CC05B01A01AB10A4E01800E911EA09103
:1053D0003806B0913906612C712C60E070E01097AE
:1053E00009F449C0A815B905C9F5ED90FC901197CD
:1053F000670142E0C40ED11CCA14DB0478F14701F6
:105400008A189B08640142E0C40ED11C1296BC901D
:1054100012971396AC91B5E0CB16D10440F0B2824E
:10542000A38391828082D9018D939C9309C00E5FE2
:105430001F4F0E0D1F1DF90111830083EB2DFA2F55
:105440006115710531F0DB011396FC93EE93129711
:1054500044C0F0933906E09338063FC06D917C91CB
:1054600011976616770608F43B01BD0112960D9060
:10547000BC91A02DB4CF60913606709137066815A7
:105480007905E9F468167906D0F44091000150914D
:1054900001014115510541F44DB75EB7609104011A
:1054A00070910501461B570BE417F507C0F4F09304
:1054B0003706E0933606F901918380830EC00E947F
:1054C00085287C01009759F0A801BE010E949D2A01
:1054D000CE010E941D29C70104C0CE0102C080E098
:1054E00090E0CDB7DEB7EEE00C94832B1F93FC0168
:1054F00099278827BC01E89411911032E9F31930FB
:1055000010F01E30C8F31B3251F01D3249F468947C
:1055100006C00E940E2B610F711D811D911D1191FE
:1055200010531A30B0F33EF49095809570956195C4
:105530007F4F8F4F9F4F1F910895FB01DC0102C0E9
:1055400001900D9241505040D8F70895FC0181918F
:10555000861721F08823D9F7992708953197CF012D
:105560000895FB01DC018D91019080190110D9F3A0
:10557000990B0895FB01DC0101900D920020E1F7E9
:105580000895FB01DC014150504030F08D910190B5
:10559000801919F40020B9F7881B990B0895FB01B5
:1055A000DC014150504048F001900D920020C9F7B5
:1055B00001C01D9241505040E0F70895FB01519108
:1055C0005523A9F0BF01DC014D9145174111E1F7C9
:1055D00059F4CD010190002049F04D914015411141
:1055E000C9F3FB014111EFCF81E090E001970895ED
:1055F0004532510520F4423010F00C94032BFB018E
:105600001082CB010895BB274A3031F4992322F44C
:10561000BDE2909581959F4F0C94242B592F482FD4
:10562000372F262F660F771F881F991F660F771F4A
:10563000881F991F620F731F841F951F660F771FA6
:10564000881F991F0895BB27FB015527AA27880F9C
:10565000991FAA1FA41710F0A41B83955051B9F7E6
:10566000A05DAA3308F0A95DA193009779F7B11165
:10567000B1931192CB010C94532BF999FECF92BDAB
:1056800081BDF89A992780B50895262FF999FECF04
:105690001FBA92BD81BD20BD0FB6F894FA9AF99A4F
:1056A0000FBE01960895DC01FC01672F71917723ED
:1056B000E1F7329704C07C916D9370836291AE17CD
:1056C000BF07C8F308952F923F924F925F926F9257
:1056D0007F928F929F92AF92BF92CF92DF92EF9282
:1056E000FF920F931F93CF93DF93CDB7DEB7CA1B03
:1056F000DB0B0FB6F894DEBF0FBECDBF09942A882E
:10570000398848885F846E847D848C849B84AA84D5
:10571000B984C884DF80EE80FD800C811B81AA8162
:10572000B981CE0FD11D0FB6F894DEBF0FBECDBF2D
:10573000ED01089513E0C0E0D3E004C0FE010E9433
:0E57400053282296C230D107C9F7F894FFCF44
:10574E0000003A06800000E10000000000000101A8
:10575E00585858585858583130300D0A000000002B
:10576E0000BB01F20129026802AB01457865637541
:10577E00746520474554206F6E3A20006375726C35
:10578E00002D4C002D6B004355524C206572726FEC
:10579E00723A200045786563757465205055542023
:1057AE006F6E3A20002C20776974682064617461F2
:1057BE003A20002D480022436F6E74656E742D548E
:1057CE007970653A206170706C69636174696F6E8F
:1057DE002F6A736F6E22002D5800505554002D64A1
:1057EE00004578656375746520504F5354206F6E75
:1057FE003A2000504F535400444D50202D20005459
:10580E005243202D2000444247202D2000494E4671
:10581E00202D2000455252202D20004641494C217A
:10582E00202D200000000000CD07EB0705082308FF
:10583E006208000000006D088A08A508C208DF088B
:10584E006572726F7200747970650064657363724D
:10585E00697074696F6E0073756363657373007539
:10586E007365726E616D65004E6577207573657236
:10587E004E616D653A20004572726F7220636F64DF
:10588E00653A2000687474703A2F2F002F6170698A
:10589E002F00687474703A2F2F7777772E6D6565A9
:1058AE00746875652E636F6D2F6170692F6E7570DC
:1058BE006E7000487565524C002F6C696768747382
:1058CE002F002F73746174652F00747275650066F6
:1058DE00616C736500726F6F74007D7D7D007374F3
:1058EE0061746500726561636861626C65006C6904
:1058FE0067687400417661696C61626C65006E72F6
:10590E004F664C69676874730054797065004E6118
:10591E006D65007B226465766963657479706522B6
:10592E003A2241726475696E6F23426162794875DD
:10593E0065227D004E6F202876616C696429207582
:10594E007365722C2073657474696E672075702090
:10595E0061206E6577206F6E6500526563656976AE
:10596E00656420757365723A200031007B22616C8C
:10597E00657274223A2273656C656374227D007BB6
:10598E0022616C657274223A226C73656C65637465
:10599E00227D00456E61626C696E6720616C657276
:1059AE00740044697361626C696E6720616C657224
:1059BE0074007B22616C657274223A226E6F6E6582
:1059CE00227D005573696E6720487565206F6E3AAB
:1059DE0020005573696E6720757365726E616D6513
:1059EE003A20004D616E6970756C6174696E672046
:1059FE006C6967687473206E6F7700436F6C6F729B
:105A0E00204C69676874002F746D702F6172647515
:105A1E00696E6F2D6C6F672E747874000D0A0D0A07
:105A2E002D2D2D2D2053746172746564202D2D2D16
:105A3E002D00537461727465640048756520696E3B
:105A4E00697400000000004C1293127612861262E6
:105A5E0012731200000000B91380143B1354134646
:105A6E001397136E616E00696E66006F7666002E78
:105A7E00004400FE006C732000207C2061776B20B8
:105A8E00274E523D3D0027006C73006D6B646972AA
:105A9E00002D7000726D00726D646972000000005E
:105AAE00003A205120D221A721BF2150202F626918
:105ABE006E2F617368002D63000000000037228096
:105ACE00148C229622AE223622000000003226804E
:085ADE0014A52613275B270025
