:100000000C9484010C94AC010C94AC010C94AC01E4
:100010000C94AC010C94AC010C94AC010C94AC01AC
:100020000C94AC010C94AC010C94441C0C94101B6B
:100030000C94AC010C94AC010C94AC010C94AC018C
:100040000C94AC010C94AC010C94AC010C94AC017C
:100050000C94AC010C94AC010C94AC010C94E8240D
:100060000C94AC010C9465280C9497280C94AC016A
:100070000C94AC010C94AC010C94AC010C94AC014C
:100080000C94AC010C94AC010C94AC010C94AC013C
:100090000C94AC010C94AC010C94AC010C94AC012C
:1000A0000C94AC010C94AC010C94AC0105260A260E
:1000B0000F26192623266D266D266D262D2637261A
:1000C00041264B2658266D2660268E2691268026B0
:1000D00084268A26B226B226B226952699269D2601
:1000E000A326A726B226AD26080B000202020100B5
:1000F000090400000102020000052400100105248B
:1001000001010104240206052406000107058103FC
:1001100010004009040100020A0000000705020265
:100120004000000705830240000000C18081C11229
:100130000100020200004041234180000101020051
:100140000112010002000000404123418000010132
:1001500002000141726475696E6F204C4C4300557A
:10016000534220494F20426F617264000403090426
:1001700072756E2D6272696467650A000A000A0072
:100180000000000200090F0000030401000C000041
:100190000000000000000000000000000000040853
:1001A000020110408040102040804080080204017D
:1001B00080402010020110801020404004040404FC
:1001C00004030405020202020403020202020606FC
:1001D00006060606040402020204000000002500D0
:1001E00028002B002E003100000000002400270012
:1001F0002A002D00300000000000000000002A2B23
:1002000028000000000000000000000000000000C6
:100210000000000000002C9EB4A0A1A2A434A6A758
:10022000A5AE362D3738271E1F2021222324252650
:10023000B333B62EB7B89F8485868788898A8B8C1E
:100240008D8E8F909192939495969798999A9B9C66
:100250009D2F3130A3AD350405060708090A0B0CA4
:100260000D0E0F101112131415161718191A1B1C46
:100270001DAFB1B0B5000904020001030000000980
:1002800021010100012265000705840340000105EA
:10029000010902A1010901A100850105091901292E
:1002A00003150025019503750181029501750581EE
:1002B0000305010930093109381581257F75089535
:1002C000038106C0C005010906A1018502050719C1
:1002D000E029E71500250175019508810295017552
:1002E000088103950675081500256505071900297D
:1002F000658100C0CE0E71105C142515FE15ED222F
:100300001F235828C7287F1411241FBECFEFDAE01F
:10031000DEBFCDBF16E0A0E0B1E0E8E7FEE502C039
:1003200005900D92AC3BB107D9F728E0ACEBB6E0F5
:1003300001C01D92AF3EB207E1F712E0C6E0D3E084
:1003400004C02297FE010E944329C43FD107C9F788
:100350000E9412150C942F2F0C940000CF93DF9362
:10036000EC0147E050E086E797E00E943A0F61E831
:1003700076E0CE010E94261DCE01DF91CF91089537
:10038000AF92BF92CF92DF92EF92FF920F931F93A3
:10039000CF93DF93CDB7DEB72C970FB6F894DEBFBF
:1003A0000FBECDBF5C018B0161E876E00E94261D87
:1003B000FF24F394D801ED91FC910480F581E02DA8
:1003C000C8010995181619060CF09CC042E2B80144
:1003D000CE0107960E94EC186AE171E0CE01079603
:1003E0000E94231E882331F06AE171E0C5010E945A
:1003F0005C1D02C0F11011C060E271E0CE010796F1
:100400000E94231E81114EC0F12C65E271E0CE01E5
:1004100007960E94231E811159C061E371E0CE014D
:1004200007960E94231E882311F0FF24F39469E3AA
:1004300071E0CE0107960E94231E882371F142E2EB
:10044000B801CE0101960E94EC18CE0101960E94DF
:10045000B81C42E2B801CE0101960E94EC18BE0120
:100460006F5F7F4FC5010E943C1DCE0101960E9427
:10047000B81C62E471E0CE0101960E94261DB50110
:10048000CE0101960E94F61DBC0186E797E00E940E
:100490004510CE0101960E94B81CCE0107960E941D
:1004A000B81C88CFC8010E94E9186B017C016F5A03
:1004B0007E4F40E050E086E797E00E945910B60179
:1004C00066567A4FC5010E94D31D9ECF42E2B80105
:1004D000CE0101960E94EC18CE0101960E94B81C34
:1004E00042E2B801CE0101960E94EC18BE016F5F96
:1004F0007F4F86E797E00E946610CE0101960E942A
:10050000B81C8BCFC5012C960FB6F894DEBF0FBE7A
:10051000CDBFDF91CF911F910F91FF90EF90DF90B2
:10052000CF90BF90AF900895EF92FF920F931F93DB
:10053000CF93DF93CDB7DEB762970FB6F894DEBFE7
:100540000FBECDBF7C018B0140E050E06EE571E055
:1005500086E797E00E94171061E876E0C7010E94E5
:10056000261DD801ED91FC910480F581E02DC80194
:100570000995892B09F44FC042E2B801CE010D96CE
:100580000E94EC186EE271E0CE010D960E94231ECF
:10059000811118C06EE671E0CE010D960E94231EF7
:1005A000811110C062E771E0CE010D960E94231EFA
:1005B000811108C066E771E0CE010D960E94231EEE
:1005C000882321F14CE2B801CE0107960E94EC1875
:1005D000BE01635F7F4FCE0101960E94531DBE0195
:1005E000695F7F4FCE0101960E94F61D6FE771E0B3
:1005F0000E94091EBC01C7010E94CC1DCE010196BC
:100600000E94B81CCE0107960E94B81CCE010D9620
:100610000E94B81CA6CFC70162960FB6F894DEBF41
:100620000FBECDBFDF91CF911F910F91FF90EF9043
:100630000895EF92FF920F931F93CF93DF93CDB75F
:10064000DEB72C970FB6F894DEBF0FBECDBF8C017E
:100650007B0161E876E00E94261DD701ED91FC91B7
:100660000480F581E02DC7010995892B09F448C064
:1006700042E2B701CE0107960E94EC186AE771E0EA
:10068000CE0107960E94231E811130C061E876E0FA
:10069000C8010E94231E811110C06DE771E0CE01D8
:1006A00007960E94231E8823C9F040E050E061E8CD
:1006B00071E086E797E00E94241042E2B701CE0184
:1006C00001960E94EC18BE016F5F7F4FC8010E9427
:1006D0003C1DCE0101960E94B81C0DC06BEA71E072
:1006E000CE0107960E94231E882329F0CE0107968B
:1006F0000E94B81C05C0CE0107960E94B81CADCF61
:10070000C8012C960FB6F894DEBF0FBECDBFDF91A7
:10071000CF911F910F91FF90EF900895EF92FF926C
:100720000F931F93CF93DF93CDB7DEB72C970FB600
:10073000F894DEBF0FBECDBF7C018B0140E050E0DE
:1007400063EB71E086E797E00E941710D801ED9106
:10075000FC910480F581E02DC8010995892BC9F130
:1007600042E2B801CE0107960E94EC18BE01695F13
:100770007F4F86E797E00E94311062EC71E0CE0176
:1007800007960E94231E8823F9F042E2B801CE01A9
:1007900001960E94EC18CE0101960E94B81C42E21C
:1007A000B801CE0101960E94EC18BE016F5F7F4F29
:1007B000C7010E94531DCE0101960E94B81CCE01B4
:1007C00007960E94B81C05C0CE0107960E94B81C6F
:1007D000BDCFC7012C960FB6F894DEBF0FBECDBFBC
:1007E000DF91CF911F910F91FF90EF900895EF92BD
:1007F000FF920F931F93CF93DF93CDB7DEB72C9764
:100800000FB6F894DEBF0FBECDBF7C018B01D801BF
:10081000ED91FC910480F581E02DC8010995892BAB
:1008200039F142E2B801CE0107960E94EC1865EC5E
:1008300071E0CE0107960E94231E8823A1F04BE5AC
:10084000B801CE0101960E94EC18CE0101960E94DB
:10085000B81C4DE5B801C7010E94EC18CE010796FF
:100860000E94B81C0AC0CE0107960E94B81CCFCFC8
:1008700061E876E0C7010E94261DC7012C960FB6DD
:10088000F894DEBF0FBECDBFDF91CF911F910F91C6
:10089000FF90EF900895CF92DF92EF92FF920F9327
:1008A0001F93CF93DF93CDB7DEB72C970FB6F89495
:1008B000DEBF0FBECDBF7C016B0107E010E042E25E
:1008C000B601CE0101960E94EC18CE0101960E945D
:1008D000B81C0150110999F742E2B601CE01079602
:1008E0000E94EC186CEC71E0CE0101960E94261D6E
:1008F000BE01695F7F4FCE0101960E94F61D64ED37
:1009000071E00E94091EBC01C7010E94531DCE0167
:1009100001960E94B81CCE0107960E94B81CC70120
:100920002C960FB6F894DEBF0FBECDBFDF91CF91EE
:100930001F910F91FF90EF90DF90CF900895CF928D
:10094000DF92EF92FF920F931F93CF93DF93CDB778
:10095000DEB7FE013B968191919100E010E0E12C21
:10096000F12C8B859C850817190754F56F0192E0CF
:10097000C90ED11C60817181FB0101900020E9F753
:100980003197E61BF70BEE0DFF1DEC34F10548F037
:1009900040E050E06AED71E086E797E00E94591070
:1009A0000FC07F018AE097E00115110519F40E943C
:1009B000B52B02C00E94962B0F5F1F4FF601D1CFBF
:1009C0004AE057E06FE072E086E797E00E94171078
:1009D0008AE097E0DF91CF911F910F91FF90EF9008
:1009E000DF90CF9008952EE132E03F932F939C014A
:1009F000235E3F4F3F932F9302969F938F931F92B7
:100A000083E08F930E949F042DB73EB7285F3F4F2E
:100A10000FB6F8943EBF0FBE2DBF08950F931F93DE
:100A2000CF93DF9300D000D000D0CDB7DEB78C01DC
:100A30004AE0CE0101960E94741D82ED91E09F93E1
:100A40008F938A818F9389818F938EE192E09F9318
:100A50008F93C8014D969F938F930E5F1F4F1F93E7
:100A60000F931F9285E08F930E949F048C01CE010B
:100A700001960E94B81C0FB6F894DEBF0FBECDBF22
:100A8000C80126960FB6F894DEBF0FBECDBFDF912A
:100A9000CF911F910F91089527E232E03F932F935A
:100AA0009C01235E3F4F3F932F9302969F938F931A
:100AB0001F9283E08F930E949F042DB73EB7285F5B
:100AC0003F4F0FB6F8943EBF0FBE2DBF0895EF9273
:100AD000FF920F931F93CF93DF9300D01F92CDB758
:100AE000DEB77C0123E030E08E010F5F1F4FA801CD
:100AF00060E372E08BE298E00E949F21A8016FE31F
:100B000072E086E797E00E94381082ED91E09F93B3
:100B10008F931F930F9387E292E09F938F93C70168
:100B20004D969F938F9322E0E20EF11CFF92EF927D
:100B30001F9285E08F930E949F040FB6F894DEBF4A
:100B40000FBECDBF0F900F900F90DF91CF911F91EF
:100B50000F91FF90EF900895EF92FF920F931F93E4
:100B6000CF93DF9300D01F92CDB7DEB77C0123E097
:100B700030E08E010F5F1F4FA80160E372E08BE24F
:100B800098E00E949F21A8016FE372E086E797E05A
:100B90000E94381080E592E09F938F931F930F93EC
:100BA00087E292E09F938F93C7014D969F938F9317
:100BB00022E0E20EF11CFF92EF921F9285E08F93EC
:100BC0000E949F040FB6F894DEBF0FBECDBF0F90FA
:100BD0000F900F90DF91CF911F910F91FF90EF90A9
:100BE0000895EF92FF920F931F93CF93DF93CDB7AA
:100BF000DEB72C970FB6F894DEBF0FBECDBF8C01C9
:100C0000EE24E394F12CD801ED91FC910480F58160
:100C1000E02DC8010995181619060CF042C042E2F1
:100C2000B801CE0107960E94EC1860E271E0CE0197
:100C300007960E94231E882361F0C8010E94E918CC
:100C40007B016F5A7E4F40E050E086E797E00E94BC
:100C5000591065E271E0CE0107960E94231E882399
:100C6000D9F042E2B801CE0101960E94EC18CE0103
:100C700001960E94B81C42E2B801CE0101960E9482
:100C8000EC18BE016F5F7F4F86E797E00E94661009
:100C9000CE0101960E94B81CCE0107960E94B81C96
:100CA000B2CFC7012C960FB6F894DEBF0FBECDBFF2
:100CB000DF91CF911F910F91FF90EF9008958F9248
:100CC0009F92AF92BF92CF92DF92EF92FF920F93DB
:100CD0001F93CF93DF93CDB7DEB76E970FB6F8941F
:100CE000DEBF0FBECDBF5C017B0164E672E0CE01CA
:100CF00049960E94261DC12CD12C00E010E0D7019E
:100D0000ED91FC910480F581E02DC701099518163D
:100D100019060CF06AC042E2B701CE0143960E9468
:100D2000EC186BE7CE0143960E94CE1E97FD02C0E1
:100D30000F5F1F4F6DE7CE0143960E94CE1E97FDB9
:100D400002C0015011096AE672E0CE0101960E94CC
:100D5000261DBE016F5F7F4FCE0143960E94EE1E9F
:100D60004C01CE0101960E94B81C97FC02C00150B4
:100D7000110969E672E0CE0101960E94261DBE01AE
:100D80006F5F7F4FCE0143960E94EE1E4C01CE0155
:100D900001960E94B81C97FC02C0015011096AE13B
:100DA00071E0CE0143960E94231E882369F0C7019B
:100DB0000E94F1054AE0BC01C5010E94741DCE01EC
:100DC00043960E94B81C20C10130110581F5CE0167
:100DD00043960E94371F16161706180619060CF0C0
:100DE00094C0BFEFCB1ADB0A90C04AE0B601CE0137
:100DF00007960E94741D6DE872E0CE0101960E9474
:100E0000261D4F81588569817A818BE298E00E9486
:100E10004221CE0101960E94B81CCE0107960E9485
:100E2000B81C61E371E0C5010E94261DEDC00230CF
:100E3000110521F56DE672E0CE0143960E94231E56
:100E4000882309F462C06DE672E0CE0149960E94E3
:100E50005C1D60E271E0CE0143960E94231E811169
:100E600059C06DE371E0CE0143960E94231E8111AB
:100E70008EC0CE0143960E94B81C41CF03301105AD
:100E800009F043C06DE672E0CE0149960E94231E30
:100E9000882379F363E772E0CE0143960E94231E14
:100EA000882339F34AE3B701CE0101960E94EC187A
:100EB000CE0101960E94B81CD701ED91FC910680ED
:100EC000F781E02DC70109958437E1F06EE572E006
:100ED000CE0101960E94261D4AE0B601CE010D9674
:100EE0000E94741D6DE772E0CE0107960E94261DD8
:100EF000BE01635F7F4FCE0107960E94F61D63E837
:100F000072E06AC069E572E0E3CF0230110509F0D2
:100F1000B0CF9FCF42E2B701CE0101960E94EC18FC
:100F2000CE0101960E94B81C42E2B701CE010196A3
:100F30000E94EC184AE0B601CE010D960E94741D85
:100F40006DE772E0CE0107960E94261DBE01635F29
:100F50007F4FCE0107960E94F61D68E972E00E945D
:100F6000091E49815A81FC01608171818BE298E000
:100F70000E944221CE0107960E94B81CCE010D9618
:100F80000E94B81CCE0101960E94B81C6ACF42E2B2
:100F9000B701CE0101960E94EC18CE0101960E9485
:100FA000B81C42E2B701CE0101960E94EC184AE05B
:100FB000B601CE010D960E94741D6DE772E0CE0160
:100FC00007960E94261DBE01635F7F4FCE010796E4
:100FD0000E94F61D6DE972E00E94091E49815A8146
:100FE000DC016D917C918BE298E00E944221CE0160
:100FF00007960E94B81CCE010D960E94B81CCE0127
:1010000001960E94B81C35CFCE0149960E94B81CAB
:10101000C5016E960FB6F894DEBF0FBECDBFDF914F
:10102000CF911F910F91FF90EF90DF90CF90BF90E5
:10103000AF909F908F900895EF92FF920F931F9320
:10104000CF93DF93CDB7DEB768970FB6F894DEBFC6
:101050000FBECDBF7B010E940E0500E010E024E929
:1010600032E0AC016BE777E0CE0143960E94291194
:101070004AE0B701CE0107960E94741D62EA72E051
:10108000CE0101960E94261DBE01695F7F4FCE01F1
:1010900001960E94F61D68E671E00E94091EBC01DF
:1010A000CE010D960E94531DCE0101960E94B81CE0
:1010B000CE0107960E94B81C40E050E068EA72E05A
:1010C00086E797E00E9417104B895C896D857E85C5
:1010D00086E797E00E9417106D857E85CE01019608
:1010E0000E94261D4B895C8969817A818BE298E098
:1010F0000E944221CE0101960E94B81CCE010D969D
:101100000E94B81CCE0143960E94B81C68960FB688
:10111000F894DEBF0FBECDBFDF91CF911F910F912D
:10112000FF90EF900895CF92DF92EF92FF920F938E
:101130001F93CF93DF938C01EB01BA01CE010E9484
:10114000EE1E7C01AC016CE2CE010E94B21E6C016D
:10115000A7016AE3CE010E94B21EAC014F5F5F4F50
:101160009601BE01C8010E94F21EC801DF91CF9115
:101170001F910F91FF90EF90DF90CF900895AF9265
:10118000BF92CF92DF92EF92FF920F931F93CF9374
:10119000DF93CDB7DEB762970FB6F894DEBF0FBE10
:1011A000CDBF5B010E944C056C0100E010E029E11D
:1011B00033E0AC016BE777E0CE010D960E94291178
:1011C00060EC72E0CE0101960E94261DBE01635FB5
:1011D0007F4FCE0101960E94F61DBC0186E797E085
:1011E0000E943110CE0101960E94B81C61E876E0A1
:1011F000CE010D960E94231E882309F456C0E12CCF
:10120000F12C0EE813E02BEC32E0A6016BE777E05F
:10121000CE0101960E942913BE016F5F7F4FCE0160
:101220000D960E943C1DCE0101960E94B81C6DEEE9
:1012300072E0CE0101960E94261DBE01635F7F4FC2
:10124000CE0101960E94F61DBC01CE0107960E94B8
:10125000531DCE0101960E94B81CBE01695F7F4FED
:1012600086E797E00E94311061E876E0CE010D96A6
:101270000E94231E8823A1F040E050E06FEF72E04F
:1012800086E797E00E944C10A114B10419F0F50113
:10129000099506C068E873E180E090E00E9461254E
:1012A000CE0107960E94B81CA1CF60E372E0CE0188
:1012B00001960E94261D4D855E8569817A818BE2AB
:1012C00098E00E944221CE0101960E94B81CCE01F6
:1012D0000D960E94B81C62960FB6F894DEBF0FBE42
:1012E000CDBFDF91CF911F910F91FF90EF90DF90D5
:1012F000CF90BF90AF9008950F931F93CF93DF933C
:10130000EC01CB010E94F30400E010E02FE536E091
:10131000AC016BE777E0CE010E942911CE01DF918D
:10132000CF911F910F9108958F929F92AF92BF928C
:10133000CF92DF92EF92FF920F931F93CF93DF93A1
:10134000CDB7DEB72C970FB6F894DEBF0FBECDBF7A
:101350005C016B014A0182E0C80ED11C40E050E004
:10136000B60186E797E00E943810E12CF12C00ECE2
:1013700011E023E233E0A6016BE777E0CE010796A8
:101380000E9429136AE171E0CE0101960E94261D98
:10139000BE016F5F7F4FCE0107960E94661E8111CE
:1013A0000BC061E876E0CE0107960E94231E11E093
:1013B000811103C010E001C011E0CE0101960E942E
:1013C000B81C1123C9F08114910419F0F401099596
:1013D0000EC040E050E064E473E086E797E00E94CE
:1013E0004C1068E873E180E090E00E946125CE0136
:1013F00007960E94B81CB9CFBE01695F7F4FC50137
:101400000E94531DCE0107960E94B81CC5012C9660
:101410000FB6F894DEBF0FBECDBFDF91CF911F9105
:101420000F91FF90EF90DF90CF90BF90AF909F9083
:101430008F900895CF92DF92EF92FF920F931F93B8
:10144000CF93DF93CDB7DEB72D970FB6F894DEBFFD
:101450000FBECDBF8C017B018091550718161CF57E
:1014600040E050E065E577E086E797E00E943810BD
:1014700065E577E0C8014D960E94B52BB801CE0115
:1014800001960E947C0961E371E0CE0101960E9401
:10149000231E811105C0CE0101960E94B81C03C015
:1014A000CE01019666C040E050E060E773E086E759
:1014B00097E00E943810A701B801CE0107960E945C
:1014C000940961E876E0CE0107960E94231E8111FF
:1014D0004EC020E030E041E250E065E577E0CE012B
:1014E00007960E94881EF801E080F18095E5C92EDC
:1014F00097E0D92EF60161916F01C7016D870E94B7
:101500002C2E6D85681719F0C7010E94342EFFEF4D
:10151000EF1AFF0A86E7C81687E0D80659F745E5AF
:1015200057E066E973E086E797E00E94381065E5CA
:1015300077E0C8014D960E94B52BB801CE01019607
:101540000E947C0961E371E0CE0101960E94231E96
:10155000182FCE0101960E94B81C111108C040E05E
:1015600050E06CEA73E086E797E00E945910CE01E4
:1015700007960E94B81C2D960FB6F894DEBF0FBEDA
:10158000CDBFDF91CF911F910F91FF90EF90DF9032
:10159000CF900895EF92FF920F931F93CF93DF9315
:1015A00000D000D000D0CDB7DEB77C0100E010E065
:1015B0002BE434E043E254E06BE777E0CE010196A0
:1015C0000E94291182E0E80EF11C20E030E04BE19E
:1015D00050E0B701CE0101960E94881EA70164E485
:1015E00074E08BE298E00E944221CE0101960E94B5
:1015F000B81C26960FB6F894DEBF0FBECDBFDF91A4
:10160000CF911F910F91FF90EF900895CF92DF92AD
:10161000EF92FF920F931F93CF93DF93EC018B0117
:10162000C880D98025E5E22E27E0F22EC601855537
:1016300097406C01C6018E0D9F1D0E942C2EF70154
:1016400081937F01F6E7EF16F7E0FF0699F78A81AD
:10165000811113C0CE010E94CA0A8A818111F7CF7D
:101660000115110519F0F8010995F1CF68EE73E045
:1016700080E090E00E946125EACFAE014E5F5F4FAF
:101680006AE474E086E797E00E943810B801CE0162
:101690000E941A0A7E01FDE1EF0EF11CA70169E527
:1016A00074E086E797E00E94381081E8E81686E04B
:1016B000F806A1F040E050E06AE674E086E797E0C3
:1016C0000E943810B801CE01DF91CF911F910F9188
:1016D000FF90EF90DF90CF900C94BF08DF91CF91F7
:1016E0001F910F91FF90EF90DF90CF900895AF92F0
:1016F000BF92CF92DF92EF92FF920F931F93CF93FF
:10170000DF93CDB7DEB76A970FB6F894DEBF0FBE92
:10171000CDBF7C0180E090E0F701E80FF91F17AE24
:1017200016AE029680319105B9F7C7010E94670590
:1017300000E010E027EF33E0AC016BE777E0CE018B
:1017400045960E942911898D9A8D892B09F450C0E4
:1017500061E876E0CE0101960E94261DC12CD12CB5
:10176000898D9A8D0817190798F5B801CE0145960D
:101770000E94861E823249F1B801CE0145960E9430
:10178000861E8C32C1F456018FEFA81AB80ACE011A
:1017900001960E94371FF6017F96EE0FFF1FEE0D98
:1017A000FF1D7183608361E876E0CE0101960E949F
:1017B0005C1D65010AC0B801CE0145960E94861ED7
:1017C000682FCE0101960E94E31D0F5F1F4FC8CF07
:1017D000CE0101960E94371FF6017F96EE0FFF1F84
:1017E000EE0DFF1D71836083CE0101960E94B81C2F
:1017F00000E010E030E8A32E34E0B32EFE01319675
:101800006F0192E0E90EF11CF70184AD95AD181659
:101810001906DCF49F938F931F930F93BF92AF929F
:10182000DF92CF920E94382C40E050E0B60186E76C
:1018300097E00E9417100F5F1F4F0FB6F894DEBF9E
:101840000FBECDBF00311105E1F6CE0145960E94D5
:10185000B81C6A960FB6F894DEBF0FBECDBFDF91FD
:10186000CF911F910F91FF90EF90DF90CF90BF909D
:10187000AF900895EF92FF920F931F93CF93DF9352
:10188000EC010E94770B8E017E0180E1E80EF11CD5
:10189000F80166AD77AD1616170644F4CE010E9426
:1018A0001C080E5F1F4F0E151F0591F7DF91CF919A
:1018B0001F910F91FF90EF900895CF92DF92EF92DA
:1018C000FF920F931F93CF93DF93CDB7DEB7ED97C2
:1018D0000FB6F894DEBF0FBECDBFCE0101966C01EE
:1018E000442369F0FF92EF921F930F933F932F933E
:1018F00089E592E09F938F9380E994E00CC08EE598
:1019000092E09F938F93FF92EF921F930F933F93D9
:101910002F938CEB94E09F938F93DF92CF920E9452
:10192000382C0FB6F894DEBF0FBECDBFE12CF12CE2
:1019300000E010E0960148EE54E06BE777E0CE015E
:10194000C8960E94F611CE01C8960E94B81CED966A
:101950000FB6F894DEBF0FBECDBFDF91CF911F91C0
:101960000F91FF90EF90DF90CF9008952F923F92CC
:101970004F925F926F927F928F929F92AF92BF929F
:10198000CF92DF92EF92FF920F931F93CF93DF934B
:10199000CDB7DEB7EF970FB6F894DEBF0FBECDBF61
:1019A0001C016B014AE0CE0184960E94741D62EA1C
:1019B00072E0CE0101960E94261DBE016C5D7F4F34
:1019C000CE0101960E94F61D68E671E00E94091E94
:1019D000BC01CE01C6960E94531DCE0101960E9405
:1019E000B81CCE0184960E94B81C6EA97FA923E280
:1019F00030E0AE014F5F5F4F8BE298E00E949F2185
:101A000040E050E060E375E086E797E00E94171041
:101A10006EA97FA9AE014F5F5F4F86E797E00E94F6
:101A200017106EE271E0CE018A960E94261DBE015B
:101A30006F5F7F4FCE01C0960E94261DAE01465DAE
:101A40005F4FBE01605D7F4FCE0184960E94930878
:101A500069E572E0CE0184960E94231E182FCE0104
:101A600084960E94B81CCE01C0960E94B81CCE017C
:101A70008A960E94B81C6EE671E0CE018A960E949A
:101A8000261DBE016F5F7F4FCE01C0960E94261DAE
:101A9000AE01465D5F4FBE01605D7F4FCE01849613
:101AA0000E949308CE0184960E94371F2B013C01AF
:101AB000CE0184960E94B81CCE01C0960E94B81C2C
:101AC000CE018A960E94B81C66E771E0CE018A9624
:101AD0000E94261DBE016F5F7F4FCE01C0960E94FF
:101AE000261DAE01465D5F4FBE01605D7F4FCE019A
:101AF00084960E949308CE0184960E94371F4B0162
:101B00005C01CE0184960E94B81CCE01C0960E9452
:101B1000B81CCE018A960E94B81C62E771E0CE0123
:101B20008A960E94261DBE016F5F7F4FCE01C09630
:101B30000E94261DAE01465D5F4FBE01605D7F4F76
:101B4000CE0184960E949308CE0184960E94371F8E
:101B50006CAF7DAF8EAF9FAFCE0184960E94B81C54
:101B6000CE01C0960E94B81CCE018A960E94B81C75
:101B700041E0111101C040E0ECACFDAC84019201E8
:101B8000B601C1010E945D0CCE01C6960E94B81C30
:101B9000EF960FB6F894DEBF0FBECDBFDF91CF91A9
:101BA0001F910F91FF90EF90DF90CF90BF90AF907B
:101BB0009F908F907F906F905F904F903F902F906D
:101BC0000895EF92FF920F931F93CF93DF938C01B1
:101BD000EC017C0180E1E80EF11C6EAD7FAD1616C4
:101BE00017063CF4C8010E94B60C2296CE15DF05FC
:101BF000A1F7DF91CF911F910F91FF90EF90089582
:101C0000AF92BF92CF92DF92EF92FF920F931F930A
:101C1000CF93DF93CDB7DEB7C254D1090FB6F89496
:101C2000DEBF0FBECDBF22962FAF229723963FAFC8
:101C300023974FAF21965FAF21976EAF0E94AC05FF
:101C40005C01CE0101966C016EAD22962FAD2297FC
:101C500023963FAD23974FAD21965FAD2197662325
:101C600079F01F930F933F932F935F934F9389E5E1
:101C700092E09F938F9380E994E09F938F930EC09F
:101C80006EE572E07F936F931F930F933F932F93B3
:101C90005F934F932CEB34E03F932F93DF92CF92DF
:101CA0000E94382C0FB6F894DEBF0FBECDBFE12CDA
:101CB000F12C00E010E09601A5016BE777E0CE0182
:101CC000C8960E94F611CE01C8960E94B81CCE5B41
:101CD000DF4F0FB6F894DEBF0FBECDBFDF91CF91BF
:101CE0001F910F91FF90EF90DF90CF90BF90AF903A
:101CF00008959F92AF92BF92CF92DF92EF92FF92A0
:101D00000F931F93CF93DF9300D000D000D0CDB7B7
:101D1000DEB75B01992493946115710509F0912C4C
:101D20000E94AC056C01992019F02CEC33E002C044
:101D30002FED33E0E12CF12C0EEA11E0A6016BE768
:101D400077E0CE0101960E94F611CE0101960E9425
:101D5000B81C911011C0F501099500E010E022E1D6
:101D600034E0A6016BE777E0CE0101960E94F61100
:101D7000CE0101960E94B81C26960FB6F894DEBFDD
:101D80000FBECDBFDF91CF911F910F91FF90EF90CC
:101D9000DF90CF90BF90AF909F9008951092BD06B6
:101DA0001092BC0608953F924F925F926F927F927D
:101DB0008F929F92AF92BF92CF92DF92EF92FF925B
:101DC0000F931F93CF93DF93EC018B01342E2901E6
:101DD00061E0842F0E94B326CE01B2010E940B293C
:101DE0005B016801E12CF12CC0E0D0E0882499244B
:101DF000801A910A662457FC6094762CAE14BF04B6
:101E0000DCF0BE01832D0E94DF25CC0DDD1D1C16EC
:101E10001D063CF4CF3FD1053CF06401CFEFD0E08C
:101E200003C06801C0E0D0E0C301B2010E94612597
:101E30008FEFE81AF80AE2CF60E070E0832DDF91BF
:101E4000CF911F910F91FF90EF90DF90CF90BF90B7
:101E5000AF909F908F907F906F905F904F903F904A
:101E60000C94DF25FC01728361830895FC0181815C
:101E700092810895EF92FF920F931F93CF93DF9378
:101E80008C01EB017A01DC0113968D919C911497E2
:101E9000009709F45BC0DC01ED91FC910284F385AD
:101EA000E02D0995F801818192818E159F050CF432
:101EB00040C083819481DC01ED91FC910190F0811F
:101EC000E02D6CE475E00995E881F9810480F581E5
:101ED000E02DCE010995892BA1F0E881F9810680DA
:101EE000F781E02DCE010995F801A381B481ED9130
:101EF000FC9111970280F381E02D682FCD010995A7
:101F0000E3CFD80113968D919C911497DC01ED914C
:101F1000FC910480F581E02D61E876E00995F801F7
:101F200083819481DC01ED91FC910084F185E02DA9
:101F300006C0E881F9810284F385E02DCE01DF91AE
:101F4000CF911F910F91FF90EF900994DF91CF9166
:101F50001F910F91FF90EF900895AF92BF92CF9293
:101F6000DF92EF92FF920F931F93CF93DF93EC01D9
:101F70005B016A0179018B819C81009709F44CC057
:101F8000DC01ED91FC910284F385E02D09958981B6
:101F90009A818A159B050CF43FC08B819C81DC01E2
:101FA000ED91FC910190F081E02DB60109958B81B6
:101FB0009C81DC01ED91FC910190F081E02DB70155
:101FC00009950115110551F08B819C81DC01ED9182
:101FD000FC910190F081E02DB80109958B819C81E5
:101FE000DC01ED91FC910480F581E02D61E876E063
:101FF00009958B819C81DC01ED91FC910084F18538
:10200000E02DDF91CF911F910F91FF90EF90DF9026
:10201000CF90BF90AF900994DF91CF911F910F9116
:10202000FF90EF90DF90CF90BF90AF9008950F9307
:102030001F939B018A0143E555E066E070E00E9432
:10204000AD0F1F910F9108950F931F939B018A016C
:102050004AE555E065E070E00E94AD0F1F910F91D9
:102060000895FB016081718140E050E00C942410E0
:102070000F931F939B018A0141E655E064E070E0F5
:102080000E94AD0F1F910F910895FB016081718136
:1020900040E050E00C9438100F931F939B018A018D
:1020A00048E655E063E070E00E94AD0F1F910F918C
:1020B00008950F931F939B018A014FE655E062E05C
:1020C00070E00E94AD0F1F910F910895FB01608198
:1020D000718140E050E00C945910FC0174836383DB
:1020E000089581E08093760784E090E090937807EC
:1020F0008093770708959091E0078091E107981702
:1021000039F06AE070E080E090E00E946125F3CF52
:102110000895CF93DF9300D0CDB7DEB782ED97E07F
:1021200069837A830E94EF1569817A81882341F05F
:1021300082ED97E00F900F90DF91CF910C94D11723
:1021400080E090E00F900F90DF91CF910895CF93B2
:10215000DF931F92CDB7DEB782ED97E069830E94CF
:10216000EF156981882339F082ED97E00F90DF91B8
:10217000CF910C94D31780E090E00F90DF91CF9136
:102180000895CF93DF9300D0CDB7DEB782ED97E00F
:1021900069837A830E94EF1569817A81882341F0EF
:1021A00082ED97E00F900F90DF91CF910C94F01794
:1021B00080E090E00F900F90DF91CF910895CF9342
:1021C000DF9300D0CDB7DEB782ED97E069837A83E5
:1021D0000E94EF1569817A81882341F082ED97E0B2
:1021E0000F900F90DF91CF910C94DE1780E090E07C
:1021F0000F900F90DF91CF910895CF93C42F23E8D4
:1022000035E0FC0131832083AB01662757FD6095E3
:10221000762F82ED97E00E94E915CC2369F082EDDC
:1022200097E00E94EF15811107C064E670E080E03E
:1022300090E00E946125F3CFCF91089582ED97E061
:102240000E94EF15882321F082ED97E00C9453153E
:1022500008958F929F92AF92BF92CF92DF92EF92AA
:10226000FF920F931F93CF93DF9300D000D000D045
:10227000CDB7DEB76C017B015A01490140E050E067
:102280006FE875E086E797E00E94171040E050E0A5
:10229000B50186E797E00E941710C7010E94272426
:1022A000882339F064E670E080E090E00E946125C8
:1022B000F4CF86E797E00E94360F05971CF06DE992
:1022C00075E002C069EA75E0CE0101960E94261D04
:1022D000BE016F5F7F4FC7010E94C124CE010196EE
:1022E0000E94B81C6EEA75E0CE0101960E94261D80
:1022F000BE016F5F7F4FC7010E94B123CE010196DF
:102300000E94B81C61EB75E0CE0101960E94261D6B
:10231000BE016F5F7F4FC7010E94B123CE010196BE
:102320000E94B81CB501CE0101960E94261DBE0177
:102330006F5F7F4FC7010E94B123CE0101960E94BB
:10234000B81CC7010E947A245C01181619062CF5E6
:102350004AE0BC01CE0101960E94741D49815A8158
:1023600064EB75E086E797E00E945910CE01019674
:102370000E94B81C0115110521F0B501C701F80133
:102380000995C7010E942623C7010E94902461E895
:1023900076E0C6010E94261D15C0B701CE01019648
:1023A000F4010995C7010E942623C7010E949024C9
:1023B000BE016F5F7F4FC6010E94531DCE01019683
:1023C0000E94B81CC60126960FB6F894DEBF0FBE59
:1023D000CDBFDF91CF911F910F91FF90EF90DF90D4
:1023E000CF90BF90AF909F908F9008954F925F9243
:1023F0006F927F928F929F92AF92BF92CF92DF9215
:10240000EF92FF920F931F93CF93DF9300D000D0F2
:1024100000D0CDB7DEB75C016B014A01390140E065
:1024200050E061EC75E086E797E00E94171040E00D
:1024300050E0B40186E797E00E94171040E050E0BA
:10244000B30186E797E00E941710C6010E94272477
:10245000882339F064E670E080E090E00E94612516
:10246000F4CF86E797E00E94360F05971CF06DE9E0
:1024700075E002C069EA75E0CE0101960E94261D52
:10248000BE016F5F7F4FC6010E94C124CE0101963D
:102490000E94B81C6FEC75E0CE0101960E94261DCB
:1024A000BE016F5F7F4FC6010E94B123CE0101962E
:1024B0000E94B81C62ED75E0CE0101960E94261DB7
:1024C000BE016F5F7F4FC6010E94B123CE0101960E
:1024D0000E94B81C63EF75E0CE0101960E94261D94
:1024E000BE016F5F7F4FC6010E94B123CE010196EE
:1024F0000E94B81C66EF75E0CE0101960E94261D71
:10250000BE016F5F7F4FC6010E94B123CE010196CD
:102510000E94B81C6AEF75E0CE0101960E94261D4C
:10252000BE016F5F7F4FC6010E94B123CE010196AD
:102530000E94B81CB301CE0101960E94261DBE0167
:102540006F5F7F4FC6010E94B123CE0101960E94AA
:10255000B81CB401CE0101960E94261DBE016F5F1A
:102560007F4FC6010E94B123CE0101960E94B81C84
:10257000C6010E947A242C01181619069CF54AE01F
:10258000BC01CE0101960E94741D49815A8164EB01
:1025900075E086E797E00E945910CE0101960E94EF
:1025A000B81C40E050E0B40186E797E00E94591063
:1025B00040E050E0B30186E797E00E945910E11433
:1025C000F10421F0B201C601F7010995C6010E948C
:1025D0002623C6010E94902461E876E0C5010E948E
:1025E000261D1FC00115110531F0B601CE0101965F
:1025F000F801099506C061E876E0CE0101960E94D7
:10260000261DC6010E942623C6010E949024BE01F9
:102610006F5F7F4FC5010E94531DCE0101960E943E
:10262000B81CC50126960FB6F894DEBF0FBECDBF0D
:10263000DF91CF911F910F91FF90EF90DF90CF909E
:10264000BF90AF909F908F907F906F905F904F90D2
:1026500008954F925F926F927F928F929F92AF9266
:10266000BF92CF92DF92EF92FF920F931F93CF937F
:10267000DF9300D000D000D0CDB7DEB75C016B0196
:102680004A01390140E050E06DEF75E086E797E0E0
:102690000E94171040E050E0B40186E797E00E94E6
:1026A000171040E050E0B30186E797E00E94171052
:1026B000C6010E942724882339F064E670E080E098
:1026C00090E00E946125F4CF86E797E00E94360FE4
:1026D00005971CF06DE975E002C069EA75E0CE016E
:1026E00001960E94261DBE016F5F7F4FC6010E94AA
:1026F000C124CE0101960E94B81C6FEC75E0CE019A
:1027000001960E94261DBE016F5F7F4FC6010E9489
:10271000B123CE0101960E94B81C62ED75E0CE0196
:1027200001960E94261DBE016F5F7F4FC6010E9469
:10273000B123CE0101960E94B81C63EF75E0CE0173
:1027400001960E94261DBE016F5F7F4FC6010E9449
:10275000B123CE0101960E94B81C6CE076E0CE0158
:1027600001960E94261DBE016F5F7F4FC6010E9429
:10277000B123CE0101960E94B81C6AEF75E0CE012C
:1027800001960E94261DBE016F5F7F4FC6010E9409
:10279000B123CE0101960E94B81CB301CE0101966F
:1027A0000E94261DBE016F5F7F4FC6010E94B123AC
:1027B000CE0101960E94B81CB401CE0101960E9480
:1027C000261DBE016F5F7F4FC6010E94B123CE015F
:1027D00001960E94B81CC6010E947A242C0118168A
:1027E00019069CF54AE0BC01CE0101960E94741DB9
:1027F00049815A8164EB75E086E797E00E945910A1
:10280000CE0101960E94B81C40E050E0B40186E77A
:1028100097E00E94591040E050E0B30186E797E04E
:102820000E945910E114F10421F0B201C601F70130
:102830000995C6010E942623C6010E94902461E8E2
:1028400076E0C5010E94261D1FC00115110531F05B
:10285000B601CE010196F801099506C061E876E05F
:10286000CE0101960E94261DC6010E942623C601A4
:102870000E949024BE016F5F7F4FC5010E94531DCF
:10288000CE0101960E94B81CC50126960FB6F89499
:10289000DEBF0FBECDBFDF91CF911F910F91FF9093
:1028A000EF90DF90CF90BF90AF909F908F907F90F0
:1028B0006F905F904F90089510927E0710927D0761
:1028C00088EE93E0A0E0B0E080937F0790938007CC
:1028D000A0938107B093820782EA96E090937C07E9
:1028E00080937B078BE298E090938807809387071B
:1028F00010928D0710928E0710928F0708958BE724
:1029000097E00C94BA2424E130E04DE050E06AE016
:1029100070E080E197E20C94D30E24E130E04DE0CA
:1029200050E06AE070E080E197E20C94D30E0895E5
:102930000F931F9326E040E950ED63E070E0809133
:102940003408909135080E94FE168BE298E00E94B0
:10295000E62160ED77E086E797E00E946D1065E084
:1029600070E086E797E00E94320F40E050E061E1BE
:1029700076E086E797E00E94381040E050E069E199
:1029800076E086E797E00E94381063E874E18CEB0C
:1029900096E00E94060B40E050E062E276E086E7B7
:1029A00097E00E9438106DE874E18CEB96E00E948D
:1029B000790E40E050E068E376E086E797E00E9419
:1029C00038108CEB96E00E943A0C40E050E065E451
:1029D00076E086E797E00E9438100EEF10E020E0E6
:1029E00030E04EEF50E061E08CEB96E00E94000E8C
:1029F00060E177E280E090E00E94612540E050E0F5
:102A000060E576E086E797E00E9438108CEB96E070
:102A10001F910F910C94E10D64E670E080E090E06E
:102A20000C9461250E9489250E94971482E298E007
:102A30000E949A1C0E949814C8E4D6E10E940C15CA
:102A40002097E1F30E944816F9CF40E060E875E274
:102A500080ED97E00C94FD10CF93DF931F92CDB7DC
:102A6000DEB76983DC01ED91FC910280F381E02DFA
:102A700041E050E0BE016F5F7F4F09950F90DF91FD
:102A8000CF910895CF93DF93EC018C859D8597FFBF
:102A900005C082E00E94E5199D878C878C859D8505
:102AA000DF91CF91089583E00C943A1CFC0184855A
:102AB000958597FD06C082E00E948D1990E00196F1
:102AC000089582E00E948D1990E00895FC018485AC
:102AD000958597FD05C02FEF3FEF35872487089533
:102AE00082E00C94E519CF93DF93EC0180910D0106
:102AF000882331F083E00E94161A1816190634F064
:102B000081E090E09B838A8380E090E0DF91CF9129
:102B10000895FC0120812E5F208342E450E068EE9E
:102B200070E080E80C94B11AFC0181819081913AA7
:102B300059F4813209F03CC047E050E066E071E0B2
:102B400080E00E94B11A43C0913291F5803239F48D
:102B500067E070E086E091E00E94E21A06C08232EF
:102B600009F035C0828180930D018091060190911A
:102B70000701A0910801B0910901803B9440A10593
:102B8000B105C1F480910D0180FD14C087E797E77E
:102B900090930108809300082BE088E190E00FB645
:102BA000F894A895809360000FBE209360000FC03A
:102BB00080E0089588E10FB6F89480936000109249
:102BC00060000FBEA895109201081092000881E0E5
:102BD00008952FEF3FEFFC01358724870895CF93A9
:102BE000C0910D016AE070E080E090E00E946125F4
:102BF00081E0C11101C080E0CF9108951092D50706
:102C00001092D40788EE93E0A0E0B0E08093D6075E
:102C10009093D707A093D807B093D90783E696E09F
:102C20009093D3078093D2078FEF9FEF9093DF07A6
:102C30008093DE070895FC01818D228D90E0805CF9
:102C40009F4F821B91098F7399270895FC01918DE5
:102C5000828D981731F0828DE80FF11D858D90E0FF
:102C600008958FEF9FEF0895FC01918D828D981745
:102C700061F0828DDF01A80FB11D5D968C91928D60
:102C80009F5F9F73928F90E008958FEF9FEF08955D
:102C90008DEB98E2892B49F080E090E0892B29F0B8
:102CA0000E94BD2881110C9400000895FC01848DC0
:102CB000DF01A80FB11DA35ABF4F2C91848D90E066
:102CC00001968F739927848FA689B7892C93A08941
:102CD000B1898C9180648C93938D848D981306C0F8
:102CE0000288F389E02D80818F7D80830895CF93C2
:102CF000DF93EC01888D8823C9F0EA89FB89808104
:102D000085FD05C0A889B9898C9186FD0FC00FB6D5
:102D100007FCF5CF808185FFF2CFA889B9898C9116
:102D200085FFEDCFCE010E945616E7CFDF91CF9100
:102D30000895CF92DF92FF920F931F93CF93DF936B
:102D40001F92CDB7DEB76C0181E0D60158968C9307
:102D500058975B969C915B975C968C915C979813C7
:102D600007C05096ED91FC915197808185FD2EC052
:102D7000F601038D10E00F5F1F4F0F731127F02E28
:102D8000F601848DF81211C00FB607FCF9CFD601F9
:102D90005096ED91FC915197808185FFF1CFC6014E
:102DA00069830E9456166981EBCF838DE80FF11D70
:102DB000E35AFF4F6083D6015B960C935B97529664
:102DC000ED91FC915397808180620CC0D60156969C
:102DD000ED91FC91579760835096ED91FC9151973E
:102DE00080818064808381E090E00F90DF91CF91BB
:102DF0001F910F91FF90DF90CF900895BF92CF92D7
:102E0000DF92EF92FF92CF93DF93EC016A017B0197
:102E1000B22EE889F98982E08083411581EE580756
:102E200061057105A1F060E079E08DE390E0A70114
:102E300096010E941F2921503109410951095695D7
:102E4000479537952795211580E1380798F0E8894F
:102E5000F989108260E874E88EE190E0A70196019C
:102E60000E941F2921503109410951095695479562
:102E700037952795EC85FD853083EE85FF8520838A
:102E8000188EEC89FD89B082EA89FB898081806196
:102E90008083EA89FB89808188608083EA89FB8955
:102EA000808180688083EA89FB8980818F7D80832F
:102EB000DF91CF91FF90EF90DF90CF90BF9008957A
:102EC000CF92DF92EF92FF920F931F93CF93DF93F6
:102ED0006C017A01EB01E60EF71E00E010E0CE1562
:102EE000DF0561F06991D601ED91FC910190F081CF
:102EF000E02DC6010995080F191FF1CFC801DF9118
:102F0000CF911F910F91FF90EF90DF90CF90089598
:102F10006115710581F0DB010D900020E9F7AD012D
:102F200041505109461B570BDC01ED91FC91028089
:102F3000F381E02D099480E090E00895EF92FF92F4
:102F40000F931F93CF93DF938C01FB01C0E0D0E080
:102F500064917F018FEFE81AF80A662361F0D801C7
:102F6000ED91FC910190F081E02DC8010995C80F09
:102F7000D91FF701EDCFCE01DF91CF911F910F91B6
:102F8000FF90EF900895DC01ED91FC91DB01149628
:102F90004D915C9115976D917C910280F381E02DAC
:102FA00009940C948817DC01ED91FC910190F0815B
:102FB000E02D09946FE776E00C9488170F931F9328
:102FC000CF93DF93EC010E94C3178C01CE010E94C6
:102FD000DA17800F911FDF91CF911F910F91089504
:102FE0000F931F93CF93DF93EC010E9488178C01FE
:102FF000CE010E94DA17800F911FDF91CF911F91B0
:103000000F9108950F931F93CF93DF93EC010E94CC
:103010003225688779878A879B87E881F9810680CE
:10302000F781E02DCE01099597FF15C00E9432254A
:10303000088519852A853B85601B710B820B930BD4
:103040000C811D812E813F816017710782079307D4
:1030500020F38FEF9FEFDF91CF911F910F91089594
:103060000F931F93CF93DF93EC010E943225688763
:1030700079878A879B87E881F9810084F185E02D33
:10308000CE01099597FF15C00E9432250885198544
:103090002A853B85601B710B820B930B0C811D8174
:1030A0002E813F81601771078207930720F38FEF0E
:1030B0009FEFDF91CF911F910F910895CF93DF93F1
:1030C000EC01CE010E94301897FD11C08D329105A0
:1030D00071F09C01205331092A30310540F0E8811C
:1030E000F9810680F781E02DCE010995EACFDF91C5
:1030F000CF910895CF92DF92FF920F931F93CF93BA
:10310000DF9300D000D0CDB7DEB76C01062F0E9450
:103110005E18FC0197FD4BC020E030E0A901F12CC6
:10312000112707FD1095E017F107E9F0ED32F105E1
:10313000C1F0CF01C0970A97B0F4AAE0B0E00E94B6
:1031400047299B01AC01CF01AA2797FDA095BA2F73
:10315000280F391F4A1F5B1F2053310941095109AC
:1031600002C0FF24F394D601ED91FC910680F78113
:10317000E02DC60129833A834B835C830995C60100
:103180000E943018FC01C09729813A814B815C81F3
:103190000A9748F2E017F10731F2FF2061F0662745
:1031A0007727CB01621B730B840B950B06C060E085
:1031B00070E0CB0102C0CA01B9010F900F900F90CF
:1031C0000F90DF91CF911F910F91FF90DF90CF90E3
:1031D000089561E00C947A18EF92FF920F931F9379
:1031E000CF93DF93EC018B01E42E61E876E00E943F
:1031F000261DC8010E940218FF24E7FCF09497FDE9
:103200000BC08E159F0541F0682FCE010E94E31D73
:10321000C8010E940218F3CFCE01DF91CF911F9118
:103220000F91FF90EF900895409126085091270844
:10323000209124083091250842175307B4F4909147
:10324000E8009570E1F39091E80092FD19C0809339
:10325000F100809126089091270801968F73992795
:10326000892B19F48EEF8093E800809126089091C5
:1032700027080196909327088093260881E00895F7
:1032800080E00895CF92DF92FF920F931F93CF9328
:10329000DF931F92CDB7DEB7082F162F862F880F2A
:1032A0008E5F99830E94141983E00E941419F02EF6
:1032B000C02E9981D92E8C2D8F19811778F4F601A3
:1032C00084910E941419082F80E00E941419802311
:1032D000FFEFCF1ADF0A8111EECF01C081E00F901E
:1032E000DF91CF911F910F91FF90DF90CF900895C4
:1032F000615030F02091F100FC0120830196F8CF5D
:10330000289884E68093290808952FB7FC0120832C
:10331000F89467706093E9000895CF93DF931F924C
:10332000CDB7DEB7682FCE0101960E948519809136
:10333000F20099819FBF0F90DF91CF910895FF9286
:103340000F931F93CF93DF9300D0CDB7DEB7F62E48
:103350008A0190912808992311F057FF03C08FEF3D
:103360009FEF2BC0682FCE0101967A830E948519AA
:103370008091F20090E0A8017A81801791070CF407
:10338000AC01EF2DF72FF40E84E6FE1639F02898E5
:10339000809329089091F1009193F7CF4115510541
:1033A00021F08091F200882321F089818FBFCA012A
:1033B00004C08BE68093E800F8CF0F900F90DF9168
:1033C000CF911F910F91FF900895CF93DF931F929C
:1033D000CDB7DEB741E050E0BE016F5F7F4F0E9486
:1033E0009F19019719F4898190E002C08FEF9FEF38
:1033F0000F90DF91CF910895CF93DF931F92CDB7B8
:10340000DEB7682FCE0101960E9485199091E800E1
:10341000892F807295FF04C09091F20080E4891B8F
:1034200099819FBF0F90DF91CF9108956F927F9206
:103430008F929F92AF92BF92CF92DF92EF92FF92C4
:103440000F931F93CF93DF931F92CDB7DEB7782EE4
:103450007B01C42EB52E80912808882369F0042FA3
:10346000152F8AEFD82E872D8072982E9AE3A92ED9
:10347000872D8074882E11C08FEF9FEF57C0872D46
:103480000E94FC19682E81110CC0DA94A9F361E046
:1034900070E080E090E00E9461250115110579F748
:1034A0003BC0282F30E0021713070CF4602E672D65
:1034B000CE0101960E9485198091E80085FF29C000
:1034C000262D30E0021B130B992039F06A948FEF00
:1034D0006816B1F01092F100F9CFF701862D77FE52
:1034E00007C0815058F094919093F1003196F9CF34
:1034F000815020F091919093F100FACFE20EF31EEB
:103500008091E80085FF0FC00115110511F48110AD
:103510000AC089818FBFC1CF5D9884E680932A0855
:103520008C2D9B2D03C0A092E800F3CF0F90DF916C
:10353000CF911F910F91FF90EF90DF90CF90BF90B0
:10354000AF909F908F907F906F9008951092E900B8
:10355000109227081092260890932508809324083B
:103560000895CF92DF92FF920F931F93CF93DF9333
:1035700000D0CDB7DEB7F82E8A016B010115110519
:10358000B1F0F601F7FE02C0849101C08081498349
:103590005A830E94141901501109FFEFCF1ADF0A54
:1035A00049815A818111EACF8FEF9FEF01C0CA0193
:1035B0000F900F90DF91CF911F910F91FF90DF90AF
:1035C000CF9008951F93CF93DF931F92CDB7DEB7AF
:1035D000162F2091E80022FFFCCF612F79830E94F3
:1035E00078198BEF8093E800812F7981972F0F90C6
:1035F000DF91CF911F910895CF93DF931F92CDB7A5
:10360000DEB71982CE0101960E948915CE0101967E
:103610000E944027898190E00F90DF91CF9108951B
:103620001F920F920FB60F921124EF92FF920F93F9
:103630001F932F933F934F935F936F937F938F933A
:103640009F93AF93BF93EF93FF93CF93DF93CDB748
:10365000DEB76297DEBFCDBF1092E9008091E8002F
:1036600083FFEBC068E0CE010A960E94781982EFD2
:103670008093E8009A8597FF05C08091E80080FF5D
:10368000FCCF03C08EEF8093E800892F807609F08D
:10369000B9C08B85811105C01092F1001092F10024
:1036A000C5C0282F2D7F213009F4C0C0853049F4D2
:1036B0008091E80080FFFCCF8C8580688093E300D8
:1036C000B5C0863009F076C02D85E888F9882230AB
:1036D00071F580E090E02A8B0E94A61A0E94FC1AE5
:1036E00099E08E010F5F1F4FF801392F11923A9523
:1036F000E9F799832A892A8391E09E8390E8988745
:103700009AEF99872091260830912708275F3F4F2D
:103710003C832B838D83C7010E94A61A49E050E0A9
:10372000B80180E00E94B11A0E94FC1A7FC0C70154
:103730002A8B0E94A61A2A89223241F482E290E062
:103740000E944B27892B09F071C074C0213069F4A5
:1037500088899989089711F4209323088091230878
:10376000811118C061E471E01AC0233009F062C011
:103770008C85882391F0823021F46CE08FE591E014
:1037800006C0813009F056C06BE083E591E00E94ED
:1037900042194AC06FE271E002C06CE671E0611547
:1037A000710509F447C0FB01449150E080E80E9494
:1037B000B11A3CC0873009F43DC0883021F481E063
:1037C0008093F10033C0893089F5937099F5EBE26D
:1037D000F1E081E021E096E38093E9002093EB00A3
:1037E00034913093EC009093ED008F5F31968530EB
:1037F00099F78EE78093EA001092EA008C85809317
:10380000280814C0888999890E94A61A8E8581117A
:1038100005C0CE010A960E94941506C0823051F46C
:10382000CE010A960E947327882321F08EEF8093A1
:10383000E80003C081E28093EB0062960FB6F89433
:10384000DEBF0FBECDBFDF91CF91FF91EF91BF9152
:10385000AF919F918F917F916F915F914F913F9128
:103860002F911F910F91FF90EF900F900FBE0F902F
:103870001F9018958093E9008091F200882319F039
:103880008AE38093E80008951F920F920FB60F927B
:1038900011242F933F934F935F936F937F938F9355
:1038A0009F93AF93BF93EF93FF938091E1001092AA
:1038B000E10083FF0FC01092E90091E09093EB00CC
:1038C0001092EC0092E39093ED001092280898E09B
:1038D0009093F00082FF1DC083E00E943A1C80910B
:1038E0002A08882339F080912A08815080932A0879
:1038F000882369F080912908882359F0809129084C
:10390000815080932908811104C0289A02C05D9AD1
:10391000F1CFFF91EF91BF91AF919F918F917F91E7
:103920006F915F914F913F912F910F900FBE0F902C
:103930001F9018951092280881E08093D70080EAA4
:103940008093D80082E189BD09B400FEFDCF61E01B
:1039500070E080E090E00E94612580E98093D800CB
:103960008CE08093E2001092E000559A209A08952E
:10397000FC01808191810C940D2ACF93DF93EC019F
:1039800088819981009711F00E940D2A198218826E
:103990001D821C821B821A82DF91CF9108950F93A2
:1039A0001F93CF93DF93EC018B016F5F7F4F888173
:1039B00099810E949C2A009731F0998388831B8308
:1039C0000A8381E001C080E0DF91CF911F910F91C8
:1039D0000895CF93DF93EC0188819981892B29F099
:1039E0008A819B818617970760F4CE010E94CF1CC5
:1039F000882341F08C819D81892B19F4E881F9811C
:103A0000108281E0DF91CF910895EF92FF920F93A2
:103A10001F93CF93DF93EC017B018A01BA010E94CF
:103A2000E91C811104C0CE010E94BD1C07C01D838A
:103A30000C83B701888199810E94B52BCE01DF915B
:103A4000CF911F910F91FF90EF900895FC0111828B
:103A5000108213821282158214826115710559F049
:103A6000FB0101900020E9F7AF0141505109461BCD
:103A7000570B0C94051D0895CF93DF93EC01FB01C8
:103A80008617970761F0608171816115710529F0D2
:103A9000448155810E94051D02C00E94BD1CCE01BB
:103AA000DF91CF910895FC0111821082138212825E
:103AB000158214820C943C1DCF93DF93EC016115A9
:103AC000710561F0FB0101900020E9F7AF01415061
:103AD0005109461B570B0E94051D02C00E94BD1CC8
:103AE000CE01DF91CF9108950F931F93CF93DF9372
:103AF000CDB7DEB762970FB6F894DEBF0FBECDBF6D
:103B00008C01CB01F801118210821382128215827E
:103B1000148250E0BE016F5F7F4F0E94F32BBE0105
:103B20006F5F7F4FC8010E945C1D62960FB6F894CC
:103B3000DEBF0FBECDBFDF91CF911F910F910895D2
:103B4000EF92FF920F931F93CF93DF93EC017B01D2
:103B50000C811D816115710511F480E016C04115BD
:103B6000510591F0040F151FB8010E94E91C88232C
:103B7000A1F3288139818C819D81B701820F931F28
:103B80000E94B52B1D830C8381E0DF91CF911F91A3
:103B90000F91FF90EF900895FB0144815581608162
:103BA00071810C94A01D6115710559F0FB01019004
:103BB0000020E9F7AF0141505109461B570B0C9407
:103BC000A01D80E00895CF93DF9300D0CDB7DEB77E
:103BD00069831A8241E050E0BE016F5F7F4F0E940F
:103BE000A01D0F900F90DF91CF910895CF93DF9399
:103BF000EC01FB0144815581608171810E94A01D0F
:103C0000811103C0CE010E94BD1CCE01DF91CF9176
:103C10000895CF93DF93EC016115710569F0FB0105
:103C200001900020E9F7AF0141505109461B570BA5
:103C30000E94A01D811103C0CE010E94BD1CCE01B7
:103C4000DF91CF910895FC0124813581232B31F43C
:103C500021E061157105A1F0FB0108C0FC01808124
:103C600091816115710531F421E0FC018081882387
:103C700039F005C00E94AC2B21E0892B09F020E02F
:103C8000822F0895FA01DB0114964D915C911597EE
:103C9000DC0114962D913C911597241B350B2E17A2
:103CA0003F0788F08D919C91009769F0DB016D9141
:103CB0007C916115710539F08E0F9F1F0E94BC2BFE
:103CC00021E0892B09F020E0822F0895FC01448136
:103CD0005581FB01248135814217530720F040E0D4
:103CE00050E00C94421E80E00895FC01248135814F
:103CF0006217730748F480819181009729F0FC01D5
:103D0000E60FF71F8081089580E008950C94751EDA
:103D10000F931F93CF93DF93EB0141155105E9F00A
:103D20002097D9F0FC016481758126173707A0F42C
:103D3000621B730B8A01015011096017710708F4A7
:103D40008B01FC0160817181620F731FA801CE019C
:103D50000E94CA2BC00FD11F1882DF91CF911F91F3
:103D60000F910895CF93DF93FC01848195814817CB
:103D7000590778F4C081D181772767FD7095CE010E
:103D8000840F951F0E94A12B009719F08C1B9D0B8F
:103D900002C08FEF9FEFDF91CF91089540E050E098
:103DA0000C94B21ECF93DF93FC0184819581481758
:103DB000590778F4C081D181FB0160817181CE0106
:103DC000840F951F0E94D92B009719F08C1B9D0B17
:103DD00002C08FEF9FEFDF91CF91089540E050E058
:103DE0000C94D21EBF92CF92DF92EF92FF920F936C
:103DF0001F93CF93DF936C017B01EA0189012417A4
:103E0000350720F48D2FE901042F182F61E876E0A3
:103E1000C6010E94261DD70114968D919C9115977D
:103E2000C817D907C8F48017910708F48C01D70187
:103E3000ED91FC911197E00FF11FB08010826D9110
:103E40007C916C0F7D1FC6010E945C1DD701ED9116
:103E5000FC91E00FF11FB082C601DF91CF911F915D
:103E60000F91FF90EF90DF90CF90BF900895FC01ED
:103E700080819181009711F00C94662B60E070E0D6
:103E8000CB010895FC01238134812627022E22953F
:103E9000207F2025032E322F22952F700226269573
:103EA00032272327220F220F220F2025FC013483E3
:103EB00023830895CF93DF93EC018D819E81DC01F4
:103EC000ED91FC916C810190F081E02D09958D813F
:103ED0009E81DC01ED91FC910190F081E02D6B81E0
:103EE000DF91CF9109948F929F92AF92BF92CF9220
:103EF000DF92EF92FF92CF93DF93EC016B010E9470
:103F000032254B015C01E12CF12C8D819E81DC017D
:103F1000ED91FC910680F781E02D099597FF0DC08A
:103F20000E943225681979098A099B096C157D055B
:103F30008E059F0550F38FEF9FEFDF91CF91FF909C
:103F4000EF90DF90CF90BF90AF909F908F900895AB
:103F5000CF93DF93EC018D819E81DC01ED91FC918B
:103F60000480F581E02D09951816190654F48D8109
:103F70009E81DC01ED91FC910680F781E02D099591
:103F8000EACFDF91CF9108952F923F924F925F92A7
:103F90006F927F928F929F92AF92BF92CF92DF9259
:103FA000EF92FF920F931F93CF93DF93CDB7DEB7BE
:103FB0002D970FB6F894DEBF0FBECDBF3C011B019D
:103FC0003C832B83BF82AE825801AC0CBD1CA40E77
:103FD000B51EBD824B2C512CCA01860F971F9987A5
:103FE0008887D901A00FB11FBB87AA87F601EE0D04
:103FF000FF1DFD87EC87D30118968C91581608F0A9
:1040000026C1EFEFFFEFD3011496FC93EE931397C5
:1040100015968D919C911697DC01ED91FC91019084
:10402000F081E02D6FEF09956FEFC3010E94421FF1
:10403000F30185819681DC01ED91FC910190F08185
:10404000E02DD3016C910995F3016081C3010E94B9
:10405000421FD30115968D919C911697DC01ED912D
:10406000FC910190F081E02D6D810995642DC301D3
:104070000E94421FF30185819681DC01ED91FC9144
:104080000190F081E02D6A2D09956A2DC3010E94EF
:10409000421F610188859985C816D906A1F0F301F0
:1040A000858196818601DC01ED91FC910190F08182
:1040B000E02DD6016D916D010995F8016081C30174
:1040C0000E94421FE7CFCB80DC808A859B85C81683
:1040D000D906B1F0D30115968D919C911697860162
:1040E000DC01ED91FC910190F081E02DD6016D9104
:1040F0006D010995F8016081C3010E94421FE5CF5F
:1041000087018C859D8508171907B1F0D301159695
:104110008D919C9116976801DC01ED91FC910190C5
:10412000F081E02DD8016D918D010995F601608136
:10413000C3010E94421FE5CFC3010E945A1F64E6DB
:1041400070E0C3010E94731F8F3F910509F074C096
:10415000EFEFFFEFD3011496FC93EE9313976FEFFD
:10416000C3010E94421F65E070E0C3010E94731FFB
:10417000D3016C91262F30E08217930709F05CC0C1
:10418000C3010E94421F6AE070E0C3010E94731FD6
:104190008C0197FD51C0682FC3010E94421F6AE045
:1041A00070E0C3010E94731F6C0197FD45C0682F2A
:1041B000C3010E94421F0A83198209811A810C0DD2
:1041C0001D1DC12CD12C65E070E0C301C016D106C5
:1041D000A1F0C814D90489F00E94731F97FD09C08B
:1041E000EE81FF81EC0DFD1D8083682FC3010E94CD
:1041F000421FBFEFCB1ADB0AE6CF0E94731F6C0190
:1042000097FD1AC065E070E0C3010E94731F97FD1F
:1042100013C0DC2CCC24C80ED91EF30183819481F9
:104220008C159D0549F480818F5F8083C8018016BD
:10423000910678F4C4010DC0539464E670E080E008
:1042400090E00E946125C3010E94A81FD4CE8FEF89
:104250009FEF2D960FB6F894DEBF0FBECDBFDF9156
:10426000CF911F910F91FF90EF90DF90CF90BF9073
:10427000AF909F908F907F906F905F904F903F9006
:104280002F9008956F927F928F929F92AF92BF92DC
:10429000CF92DF92EF92FF920F931F93CF93DF9312
:1042A000CDB7DEB727970FB6F894DEBF0FBECDBFF0
:1042B0003C018B017A016EE876E0CE0101960E9406
:1042C000261DB801CE0101960E94D31D60E976E05B
:1042D000CE0101960E94D31DB701CE0101960E9426
:1042E000D31D4D815E8169817A8188248394912CCC
:1042F000CE0107965C01C12CD12CE12CF12C00E001
:1043000010E020E030E0C3010E94C41FCE010196FE
:104310000E94B81C27960FB6F894DEBF0FBECDBF23
:10432000DF91CF911F910F91FF90EF90DF90CF9091
:10433000BF90AF909F908F907F906F9008954F9215
:104340005F926F927F928F929F92AF92BF92CF9225
:10435000DF92EF92FF920F931F93CF93DF931F9201
:10436000CDB7DEB73A01290124E62983FB0101908C
:104370000020E9F78F0101501109061B170B4201BC
:104380005A01C12CD12CE12CF12C9B0141E050E0D1
:10439000BE016F5F7F4F0E94C41F8415950520F4F6
:1043A000F301E80FF91F10820F90DF91CF911F9159
:1043B0000F91FF90EF90DF90CF90BF90AF909F90C4
:1043C0008F907F906F905F904F9008953F924F92A3
:1043D0005F926F927F928F929F92AF92BF92CF9295
:1043E000DF92EF92FF920F931F93CF93DF93CDB79E
:1043F000DEB72E970FB6F894DEBF0FBECDBF3C01DF
:10440000DC0117968C9117978111CFC081E0179628
:104410008C93C3010E94A81F68EE73E080E090E0D7
:104420000E946125F30185819681DC01ED91FC916B
:104430000480F581E02D09951816190654F355E00E
:10444000552E4424439462E3362EE0E1F1E0DE0190
:104450001696852D01900D928A95E1F7F30140861D
:10446000812C912CA12CB12CC12CD12CE12CF12C24
:1044700000E010E020E030E045E050E0BE016A5F7F
:104480007F4FC3010E94C41F63E0D30115968D9135
:104490009C9116970E94D3176AEF70E080E090E03D
:1044A0000E9461256EE771E0F301858196810E948B
:1044B0009E176AEF70E080E090E00E9461256CE753
:1044C00071E0D30115968D919C9116970E949E17CD
:1044D00064EF71E080E090E00E94612560E771E0A8
:1044E000F301858196810E949E1764EF71E080E060
:1044F00090E00E946125C3010E94A81FE5E1F1E060
:10450000DE011196852D01900D928A95E1F7D30178
:1045100018963C9244E0842E912CFE013B965F015C
:1045200020E030E045E050E0BE016F5F7F4FC30107
:104530000E94C41F8F3FFFEF9F0739F468EE73E0BE
:1045400080E090E00E94612580CF2B852111FFCF74
:10455000049711F52C8530E02053310944E6429F41
:10456000C001439F900D11242D8530E02053310967
:104570006AE0629FA001639F500D1124840F951F74
:104580002E8530E020533109820F931FD3011296FC
:104590009C938E93119705C084E690E0F30192837B
:1045A000818382E3D30118968C932E960FB6F894EC
:1045B000DEBF0FBECDBFDF91CF911F910F91FF9056
:1045C000EF90DF90CF90BF90AF909F908F907F90B3
:1045D0006F905F904F903F90089510922B088EE45B
:1045E00098E090933108809330081092320810922E
:1045F0003308909335088093340808958F929F92E2
:10460000AF92BF92CF92DF92EF92FF920F931F93E0
:1046100048015901C12CD12CE12CF12C00E010E013
:1046200020E030E00E94C41F1F910F91FF90EF9097
:10463000DF90CF90BF90AF909F908F9008958BE2C6
:1046400098E09093370880933608089508950F9363
:104650001F93CF93DF9300D01F92CDB7DEB729E42D
:104660002983FC0126852A836B8300E010E020E08B
:1046700030E043E050E0BE016F5F7F4F8485958559
:104680000E94FE2281E090E00F900F900F90DF914A
:10469000CF911F910F910895EF92FF920F931F9367
:1046A000CF93DF9300D01F92CDB7DEB77C01FC0122
:1046B0008389811117C0148A8FE4898386858A8350
:1046C00080E48B8397012B5E3F4F00E410E043E0D2
:1046D00050E0BE016F5F7F4F848595850E94FE226A
:1046E000F701838B0F900F900F90DF91CF911F9167
:1046F0000F91FF90EF900895CF93DF93EC010E940C
:104700004C238B8990E0DF91CF910895CF93DF9375
:10471000EC010E944C238B89882359F081508B8BAC
:104720008C8991E0980F9C8BC80FD11D8D8990E0EA
:1047300002C08FEF9FEFDF91CF910895CF93DF936A
:10474000EC010E944C238B89882331F08C89C80F9F
:10475000D11D8D8990E002C08FEF9FEFDF91CF9147
:1047600008950F931F93CF93DF93EC018B0160E9C2
:1047700076E0888999890E94D31DB8018889998932
:10478000DF91CF911F910F910C94CC1D6F927F926E
:104790008F929F92AF92BF92CF92DF92EF92FF9251
:1047A0000F931F93CF93DF9300D01F92CDB7DEB747
:1047B0003C0182E58B83D3015096ED91FC9151979A
:1047C000048115812081318182E0882E912CFE01A7
:1047D00031965F01C12CD12CE12CF12C41E050E04D
:1047E000BE016D5F7F4F1C968D919C911D970E941D
:1047F000C41F8A8190E0D3011F969C938E931E97CD
:1048000050960D911C9151970115110531F0C80179
:104810000E94B81CC8010E94E624F301118A108A84
:104820008981811102C081E0828B0F900F900F90DF
:10483000DF91CF911F910F91FF90EF90DF90CF907C
:10484000BF90AF909F908F907F906F9008950F933F
:104850001F93CF93DF9300D01F92CDB7DEB722E72F
:104860002983FC0126852A8301E010E09E012D5F4B
:104870003F4F42E050E0BE016F5F7F4F84859585DA
:104880000E94FE2281E09B81913009F080E00F9030
:104890000F900F90DF91CF911F910F9108950F937B
:1048A0001F93CF93DF9300D000D0CDB7DEB727E5BD
:1048B0002B83FC0126852C8302E010E09E012F5FF4
:1048C0003F4F42E050E0BE016D5F7F4F848595858C
:1048D0000E94FE22898190E0982F88272A81820FEA
:1048E000911D0F900F900F900F90DF91CF911F911E
:1048F0000F910895CF93DF93EC010E94C623CE0160
:104900000E942724882339F064E670E080E090E07C
:104910000E946125F4CFCE01DF91CF910C944F24FA
:10492000EF92FF920F931F93CF93DF9300D0CDB7F9
:10493000DEB77C01FC018289882389F087E78983BF
:1049400086858A8300E010E020E030E042E050E01D
:10495000BE016F5F7F4F848595850E94FE22F7011F
:10496000128A0F900F90DF91CF911F910F91FF90BE
:10497000EF90089522EA36E0FC01318320830C9405
:104980009024EF92FF920F931F93CF93DF9300D069
:10499000CDB7DEB77C0169837A830E94902486E0DC
:1049A00090E00E94E4248C0169817A810E94531D69
:1049B000F701118B008B0F900F90DF91CF911F911A
:1049C0000F91FF90EF9008950C9475290C940D2A87
:1049D0001F920F920FB60F9211242F933F938F9334
:1049E0009F93AF93BF938091390890913A08A0911B
:1049F0003B08B0913C083091380823E0230F2D3755
:104A000020F40196A11DB11D05C026E8230F0296D2
:104A1000A11DB11D209338088093390890933A085E
:104A2000A0933B08B0933C0880913D0890913E08CC
:104A3000A0913F08B09140080196A11DB11D80933F
:104A40003D0890933E08A0933F08B0934008BF9163
:104A5000AF919F918F913F912F910F900FBE0F902B
:104A60001F9018952FB7F8946091390870913A0803
:104A700080913B0890913C082FBF08953FB7F89470
:104A800080913D0890913E08A0913F08B091400868
:104A900026B5A89B05C02F3F19F00196A11DB11D99
:104AA0003FBF6627782F892F9A2F620F711D811DB6
:104AB000911D42E0660F771F881F991F4A95D1F715
:104AC0000895CF92DF92EF92FF92CF93DF936B0125
:104AD0007C010E943E25EB01C114D104E104F104E4
:104AE00089F00E940A290E943E256C1B7D0B683EBE
:104AF000734090F381E0C81AD108E108F108C85169
:104B0000DC4FEACFDF91CF91FF90EF90DF90CF9015
:104B10000895789484B5826084BD84B5816084BD35
:104B200085B5826085BD85B5816085BDEEE6F0E026
:104B3000808181608083E1E8F0E010828081826082
:104B40008083808181608083E0E8F0E08081816003
:104B50008083E1E9F0E080818260808380818160F0
:104B60008083E0E9F0E0808181608083E1ECF0E027
:104B70008081846080838081826080838081816085
:104B80008083E3ECF0E0808181608083E0ECF0E002
:104B9000808182608083E2ECF0E0808181608083AC
:104BA000EAE7F0E080818460808380818260808396
:104BB00080818160808380818068808308951F93D5
:104BC000CF93DF93182FEB0161E00E94B32620976B
:104BD00011F460E004C0CF3FD10539F461E0812FCA
:104BE000DF91CF911F910C94EC26E12FF0E0E0587B
:104BF000FE4F449150E0FA013197EF30F10508F093
:104C00006CC0EA5AFF4F0C94412984B5806884BD7A
:104C1000C7BD68C084B5806284BDC8BD63C08091D3
:104C20008000806880938000D0938900C0938800C2
:104C300059C080918000806280938000D0938B0067
:104C4000C0938A004FC0809180008860809380006C
:104C5000D0938D00C0938C0045C0809190008068F7
:104C600080939000D0939900C09398003BC08091AE
:104C70009000806280939000D0939B00C0939A0034
:104C800031C080919000886080939000D0939D0007
:104C9000C0939C0027C08091C00080688093C000B2
:104CA0008091C0008F7B8093C000C093CF001AC05A
:104CB0008091C00080628093C000C093D00012C079
:104CC0008091C20088608093C2008091C2008B7F77
:104CD0008093C200C093D20005C0C038D1050CF04B
:104CE0007DCF77CFDF91CF911F91089590E0FC01A8
:104CF0003197EF30F105B0F5EB59FF4F0C94412996
:104D0000809180008F7703C0809180008F7D809399
:104D10008000089580918000877FF9CF84B58F77D8
:104D200002C084B58F7D84BD0895809190008F77F7
:104D300007C0809190008F7D03C080919000877F95
:104D40008093900008958091C0008F7703C0809178
:104D5000C0008F7D8093C00008958091C200877F3E
:104D60008093C2000895CF93DF9390E0FC01E25658
:104D7000FE4F2491FC01E454FE4F8491882349F1B5
:104D800090E0880F991FFC01E851FE4FA591B49166
:104D900086529E4FFC01C591D4919FB7611108C006
:104DA000F8948C91209582238C93888182230AC069
:104DB000623051F4F8948C91322F309583238C9388
:104DC0008881822B888304C0F8948C91822B8C93E9
:104DD0009FBFDF91CF9108950F931F93CF93DF93E0
:104DE0001F92CDB7DEB7282F30E0F901E058FE4F13
:104DF0008491F901E256FE4F1491F901E454FE4FFB
:104E000004910023C9F0882321F069830E9476264B
:104E10006981E02FF0E0EE0FFF1FE652FE4FA591F3
:104E2000B4919FB7F8948C91611103C010958123C0
:104E300001C0812B8C939FBF0F90DF91CF911F9169
:104E40000F910895FF920F931F93CF93DF93EC017F
:104E5000F62EE881F9810480F581E02D09958C0119
:104E6000E881F9810680F781E02D6F2DCE0109954B
:104E7000C8019927DF91CF911F910F91FF9008955D
:104E8000FC0120812F5F208349E150E066E772E05A
:104E900080E80C94B11A45E650E06FE872E080E8D3
:104EA0000C94B11AEF92FF920F931F93CF93DF935D
:104EB0001F92CDB7DEB789838B017A0141E050E0C4
:104EC000BE016F5F7F4F84E00E94161AA701B801F0
:104ED00084E40E94161A0F90DF91CF911F910F91D9
:104EE000FF90EF900895FC0191818081813A31F427
:104EF00081E0913091F0933089F411C0813271F4E6
:104F00009B3021F4828180930F0105C09A3031F4E7
:104F1000828180930E0181E00895089580E00895D4
:104F200048E050E082E00C945227CF93DF93DC01FD
:104F3000683818F0E8E7E60F25C0E62FF0E067FFD5
:104F400011C0E058F10981E090E001C0880FEA95B6
:104F5000EAF714969C911497982B14969C931497A7
:104F6000E0E010C0EA50FE4FE491EE2309F440C0A7
:104F7000E7FF08C014968C911497826014968C9366
:104F80001497EF7716968C9116978E1741F1179616
:104F90008C9117978E1719F118968C9118978E1778
:104FA000F1F019968C9119978E17C9F01A968C9179
:104FB0001A978E17A1F01B968C911B978E1779F07C
:104FC00080E090E0ED01C80FD91F2E81211102C0B1
:104FD000EE8305C0019686309105A1F709C0BD0199
:104FE0006C5F7F4FCD010E94902781E090E008C068
:104FF00081E090E013969C938E93129780E090E06E
:10500000DF91CF910895683818F0E8E7E60F25C0E2
:10501000E62FF0E067FF12C0E058F10921E030E030
:1050200001C0220FEA95EAF72095DC0114963C9125
:105030001497322314963C93E0E00FC0EA50FE4FE1
:10504000E491EE2329F1E7FF08C0DC0114962C91CE
:1050500014972D7F14962C93EF7720E030E0EE2309
:1050600051F0DC01A20FB31F16964C9116974E1308
:1050700002C016961C922F5F3F4F2630310579F7FC
:10508000BC016C5F7F4F0E94902781E090E0089503
:1050900080E090E00895FC01168217821086118648
:1050A000128613861482BC016C5F7F4F0C9490278C
:1050B00010924D08109244081092430882EB96E03B
:1050C000909342088093410808951F920F920FB663
:1050D0000F9211242F938F939F93EF93FF93E0915F
:1050E0005E08F0915F088081E0916408F0916508A6
:1050F00082FD12C09081809167088F5F8F7320912D
:105100006808821751F0E0916708F0E0E25BF74F22
:10511000958F8093670801C08081FF91EF919F91E7
:105120008F912F910F900FBE0F901F9018951F9287
:105130000F920FB60F9211242F933F934F935F93CB
:105140006F937F938F939F93AF93BF93EF93FF934F
:105150008EE498E00E945616FF91EF91BF91AF91B7
:105160009F918F917F916F915F914F913F912F917F
:105170000F900FBE0F901F9018958EE498E00E943C
:105180001B1621E0892B09F420E0822F089510924C
:1051900051081092500888EE93E0A0E0B0E08093B0
:1051A000520890935308A0935408B093550883E78E
:1051B00096E090934F0880934E088DEC90E090938A
:1051C0005B0880935A088CEC90E090935D08809384
:1051D0005C0888EC90E090935F0880935E0889EC0F
:1051E00090E090936108809360088AEC90E090933F
:1051F0006308809362088EEC90E09093650880933A
:10520000640810926708109268081092690810925A
:105210006A080895089597FB072E16F4009407D0A6
:1052200077FD09D00E94522907FC05D03EF49095E5
:1052300081959F4F0895709561957F4F0895A1E2E4
:105240001A2EAA1BBB1BFD010DC0AA1FBB1FEE1F00
:10525000FF1FA217B307E407F50720F0A21BB30B4B
:10526000E40BF50B661F771F881F991F1A9469F7C7
:1052700060957095809590959B01AC01BD01CF0123
:105280000895EE0FFF1F0590F491E02D09940E9400
:105290006629A59F900DB49F900DA49F800D911D30
:1052A00011240895AA1BBB1B51E107C0AA1FBB1FF5
:1052B000A617B70710F0A61BB70B881F991F5A95A2
:1052C000A9F780959095BC01CD010895A29FB001EA
:1052D000B39FC001A39F700D811D1124911DB29F2A
:1052E000700D811D1124911D0895CF93DF9382309D
:1052F000910510F482E090E0E091ED08F091EE0865
:1053000020E030E0A0E0B0E0309739F140815181F9
:1053100048175907B8F04817590771F482819381EB
:10532000109729F013969C938E9312972CC090930C
:10533000EE088093ED0827C02115310531F04217A2
:10534000530718F0A901DB0101C0EF019A01BD016B
:10535000DF010280F381E02DD7CF21153105F9F06F
:10536000281B390B2430310580F48A819B8161151B
:10537000710521F0FB019383828304C09093EE08B2
:105380008093ED08FE01329644C0FE01E20FF31F48
:105390008193919322503109398328833AC0209117
:1053A000EB083091EC08232B41F42091020130915D
:1053B00003013093EC082093EB0820910001309119
:1053C00001012115310541F42DB73EB7409104018B
:1053D00050910501241B350BE091EB08F091EC088E
:1053E000E217F307A0F42E1B3F0B2817390778F0BC
:1053F000AC014E5F5F4F2417350748F04E0F5F1F1B
:105400005093EC084093EB088193919302C0E0E045
:10541000F0E0CF01DF91CF910895CF93DF93009714
:1054200009F487C0FC01329713821282C091ED0803
:10543000D091EE08209781F420813181280F391F07
:105440008091EB089091EC088217930779F5F0931F
:10545000EC08E093EB086DC0DE0120E030E0AE1711
:10546000BF0750F412964D915C9113979D01411521
:10547000510509F1DA01F3CFB383A2834081518151
:10548000840F951F8A179B0771F48D919C9111973A
:10549000840F951F02969183808312968D919C9123
:1054A0001397938382832115310529F4F093EE0835
:1054B000E093ED083EC0D9011396FC93EE9312974A
:1054C0004D915D91A40FB51FEA17FB0779F4808118
:1054D0009181840F951F0296D90111969C938E930A
:1054E0008281938113969C938E931297E0E0F0E073
:1054F0008A819B81009719F0FE01EC01F9CFCE0162
:10550000029628813981820F931F2091EB083091F8
:10551000EC082817390769F4309729F41092EE083F
:105520001092ED0802C013821282D093EC08C0934F
:10553000EB08DF91CF910895A0E0B0E0E2EAFAE253
:105540000C94FC2EEC01CB01209719F40E947529D4
:10555000B8C0FE01E60FF71F9E0122503109E21785
:10556000F30708F4ACC0D9010D911C9111970617EF
:105570001707B8F00530110508F49FC0A801445082
:1055800051094617570708F498C002501109061B25
:10559000170B019311936D937C93CF010E940D2AF9
:1055A0008CC05B01A01AB10A4E01800E911EA09121
:1055B000ED08B091EE08612C712C60E070E010975E
:1055C00009F449C0A815B905C9F5ED90FC901197EB
:1055D000670142E0C40ED11CCA14DB0478F1470114
:1055E0008A189B08640142E0C40ED11C1296BC903C
:1055F00012971396AC91B5E0CB16D10440F0B2826D
:10560000A38391828082D9018D939C9309C00E5F00
:105610001F4F0E0D1F1DF90111830083EB2DFA2F73
:105620006115710531F0DB011396FC93EE9312972F
:1056300044C0F093EE08E093ED083FC06D917C917B
:1056400011976616770608F43B01BD0112960D907E
:10565000BC91A02DB4CF6091EB087091EC08681557
:105660007905E9F468167906D0F44091000150916B
:1056700001014115510541F44DB75EB76091040138
:1056800070910501461B570BE417F507C0F4F09322
:10569000EC08E093EB08F901918380830EC00E942F
:1056A00075297C01009759F0A801BE010E948D2B3D
:1056B000CE010E940D2AC70104C0CE0102C080E0C5
:1056C00090E0CDB7DEB7EEE00C94182F1F93FC01ED
:1056D00099278827BC01E89411911032E9F3193019
:1056E00010F01E30C8F31B3251F01D3249F468949B
:1056F00006C00E94092C610F711D811D911D119121
:1057000010531A30B0F33EF49095809570956195E2
:105710007F4F8F4F9F4F1F910895FB01DC0102C007
:1057200001900D9241505040D8F70895FB01DC01E3
:105730000D900020E9F7119701900D920020E1F7FC
:105740000895FC018191861721F08823D9F79927C4
:1057500008953197CF010895FB01DC018D910190EF
:1057600080190110D9F3990B0895FB01DC01019018
:105770000D920020E1F70895FB01DC0141505040FB
:1057800030F08D910190801919F40020B9F7881B31
:10579000990B0895FB01DC014150504048F0019005
:1057A0000D920020C9F701C01D9241505040E0F712
:1057B0000895FB0151915523A9F0BF01DC014D91E2
:1057C00045174111E1F759F4CD010190002049F04E
:1057D0004D9140154111C9F3FB014111EFCF81E01B
:1057E00090E0019708954532510520F4423010F0C1
:1057F0000C94FE2BFB011082CB010895BB274A308D
:1058000031F4992322F4BDE2909581959F4F0C9439
:105810001F2C592F482F372F262F660F771F881FD1
:10582000991F660F771F881F991F620F731F841FB0
:10583000951F660F771F881F991F0895BB27FB01CF
:105840005527AA27880F991FAA1FA41710F0A41B79
:1058500083955051B9F7A05DAA3308F0A95DA193D3
:10586000009779F7B111B1931192CB010C94582E96
:10587000AEE0B0E0EEE3FCE20C94062F0D891E8949
:1058800086E08C831A8309838FEF9FE79E838D8345
:10589000AE01475E5F4F6F89788DCE0101960E9401
:1058A0005A2CEF81F885E00FF11F10822E96E4E06C
:1058B0000C94222FACE0B0E0E0E6FCE20C94F82E71
:1058C0007C016B018A01FC0117821682838181FFB2
:1058D000BDC1CE0101964C01F7019381F60193FD04
:1058E000859193FF81916F01882309F4ABC18532C3
:1058F00039F493FD859193FF81916F01853229F4ED
:10590000B70190E00E94682EE7CF512C312C20E0A7
:105910002032A0F48B3269F030F4803259F08332B7
:1059200069F420612CC08D3239F0803339F4216064
:1059300026C02260246023C0286021C027FD27C024
:1059400030ED380F3A3078F426FF06C0FAE05F9E5B
:10595000300D1124532E13C08AE0389E300D1124CF
:10596000332E20620CC08E3221F426FD6BC12064E0
:1059700006C08C3611F4206802C0883641F4F60166
:1059800093FD859193FF81916F018111C1CF982F74
:105990009F7D9554933028F40C5F1F4FFFE3F983EC
:1059A0000DC0833631F0833771F0833509F05BC069
:1059B00022C0F801808189830E5F1F4F44244394E5
:1059C000512C540115C03801F2E06F0E711CF80122
:1059D000A080B18026FF03C0652D70E002C06FEF8C
:1059E0007FEFC5012C870E944D2E2C0183012C8551
:1059F0002F77222E17C03801F2E06F0E711CF801CC
:105A0000A080B18026FF03C0652D70E002C06FEF5B
:105A10007FEFC5012C870E94422E2C012C85206827
:105A2000222E830123FC1BC0832D90E048165906CB
:105A3000B0F4B70180E290E00E94682E3A94F4CF6F
:105A4000F50127FC859127FE81915F01B70190E068
:105A50000E94682E31103A94F1E04F1A5108411417
:105A6000510471F7E5C0843611F0893639F5F80133
:105A700027FF07C060817181828193810C5F1F4F76
:105A800008C060817181882777FD8095982F0E5F0F
:105A90001F4F2F76B22E97FF09C090958095709575
:105AA00061957F4F8F4F9F4F2068B22E2AE030E0E4
:105AB000A4010E949A2EA82EA81844C0853729F464
:105AC0002F7EB22E2AE030E025C0F22FF97FBF2EC4
:105AD0008F36C1F018F4883579F0B4C0803719F0EA
