:100000000C9480010C94A8010C94A8010C94A801F4
:100010000C94A8010C94A8010C94A8010C94A801BC
:100020000C94A8010C94A8010C9456170C94221659
:100030000C94A8010C94A8010C94A8010C94A8019C
:100040000C94A8010C94A8010C94A8010C94A8018C
:100050000C94A8010C94A8010C94A8010C94541FB2
:100060000C94A8010C94D1220C9403230C94A801A5
:100070000C94A8010C94A8010C94A8010C94A8015C
:100080000C94A8010C94A8010C94A8010C94A8014C
:100090000C94A8010C94A8010C94A8010C94A8013C
:1000A0000C94A8010C94A8010C94A801712076204E
:1000B0007B2085208F20D920D920D9209920A320EA
:1000C000AD20B720C420D920CC20FA20FD20EC2080
:1000D000F020F6201E211E211E21012105210921CB
:1000E0000F2113211E211921080B00020202010019
:1000F000090400000102020000052400100105248B
:1001000001010104240206052406000107058103FC
:1001100010004009040100020A0000000705020265
:100120004000000705830240000000C18081C11229
:100130000100020200004041234180000101020051
:100140000112010002000000404123418000010132
:1001500002000141726475696E6F204C4C4300557A
:10016000534220494F20426F617264000403090426
:1001700072756E2D6272696467650A000A000A0072
:100180000000000200090F0000030401000C000041
:100190000000000000000000000000000000040853
:1001A000020110408040102040804080080204017D
:1001B00080402010020110801020404004040404FC
:1001C00004030405020202020403020202020606FC
:1001D00006060606040402020204000000002500D0
:1001E00028002B002E003100000000002400270012
:1001F0002A002D00300000000000000000002A2B23
:1002000028000000000000000000000000000000C6
:100210000000000000002C9EB4A0A1A2A434A6A758
:10022000A5AE362D3738271E1F2021222324252650
:10023000B333B62EB7B89F8485868788898A8B8C1E
:100240008D8E8F909192939495969798999A9B9C66
:100250009D2F3130A3AD350405060708090A0B0CA4
:100260000D0E0F101112131415161718191A1B1C46
:100270001DAFB1B0B5000904020001030000000980
:1002800021010100012265000705840340000105EA
:10029000010902A1010901A100850105091901292E
:1002A00003150025019503750181029501750581EE
:1002B0000305010930093109381581257F75089535
:1002C000038106C0C005010906A1018502050719C1
:1002D000E029E71500250175019508810295017552
:1002E000088103950675081500256505071900297D
:1002F000658100C04B0F5510601DC42233237F0F52
:1003000011241FBECFEFDAE0DEBFCDBF14E0A0E0C6
:10031000B1E0EEEDFDE402C005900D92A632B1070A
:10032000D9F725E0A6E2B4E001C01D92A43CB207D3
:10033000E1F712E0CEEFD2E004C02297FE010E9466
:10034000AF23C43FD107C9F70E94380F0C94E226AF
:100350000C9400008F929F92AF92BF92CF92DF9247
:10036000EF92FF920F931F93CF93DF93CDB7DEB73A
:10037000CB55D1090FB6F894DEBF0FBECDBF7C01BF
:100380004B016A0159016EE171E0CE018A5A9F4F1B
:100390000E943818B601CE018A5A9F4F0E94081950
:1003A000BC01CE0101960E946518BE016F5F7F4FB0
:1003B000C40101960E943C05CE0101960E94CA1715
:1003C000CE018A5A9F4F0E94CA171C821B8288EE58
:1003D00093E0A0E0B0E08D839E83AF83B8878CE08C
:1003E00094E09A83898382E095E09E878D871B8ABB
:1003F0001C8A1D8A6FE271E0CE018A5A9F4F0E94CB
:100400003818BE016A5A7F4FCE0101960E942D1FF7
:10041000CE018A5A9F4F0E94CA1764E371E0CE0151
:100420008A5A9F4F0E943818BE016A5A7F4FCE01E8
:1004300001960E941D1ECE018A5A9F4F0E94CA1724
:1004400067E371E0CE018A5A9F4F0E943818BE01BF
:100450006A5A7F4FCE0101960E941D1ECE018A5A14
:100460009F4F0E94CA17B601CE0101960E941D1E21
:10047000CE0101960E94E61E6C01181619063CF585
:100480006AE371E089EA94E00E9428124AE050E0B1
:10049000B60189EA94E00E94FC1289EA94E00E9485
:1004A000AA0F0115110529F0B601CE010196F80138
:1004B0000995CE0101960E94711DCE0101960E9400
:1004C000FC1E69EE73E0C7010E9438181BC0BE0114
:1004D0006F5F7F4FCE018A5A9F4FF5010995CE017C
:1004E00001960E94711DCE0101960E94FC1EBE0164
:1004F0006A5A7F4FC7010E946518CE018A5A9F4FE2
:100500000E94CA17CE0101960E94261FC701C55A34
:10051000DF4F0FB6F894DEBF0FBECDBFDF91CF9196
:100520001F910F91FF90EF90DF90CF90BF90AF9011
:100530009F908F9008956F927F928F929F92AF922B
:10054000BF92CF92DF92EF92FF920F931F93CF93C0
:10055000DF93CDB7DEB7CB55D1090FB6F894DEBF28
:100560000FBECDBF6C013B015A01490167E471E048
:10057000CE018A5A9F4F0E943818B501CE018A5A7F
:100580009F4F0E94081968E571E00E941B19B40191
:100590000E940819BC01CE0101960E946518BE0197
:1005A0006F5F7F4FC30101960E943C05CE0101960B
:1005B0000E94CA17CE018A5A9F4F0E94CA171C82F6
:1005C0001B8288EE93E0A0E0B0E08D839E83AF8332
:1005D000B8878CE094E09A83898382E095E09E87D7
:1005E0008D871B8A1C8A1D8A6FE271E0CE018A5AB0
:1005F0009F4F0E943818BE016A5A7F4FCE01019664
:100600000E942D1FCE018A5A9F4F0E94CA1766E68C
:1006100071E0CE018A5A9F4F0E943818BE016A5A73
:100620007F4FCE0101960E941D1ECE018A5A9F4F18
:100630000E94CA1769E671E0CE018A5A9F4F0E9454
:100640003818BE016A5A7F4FCE0101960E941D1EC6
:10065000CE018A5A9F4F0E94CA176AE871E0CE0104
:100660008A5A9F4F0E943818BE016A5A7F4FCE01A6
:1006700001960E941D1ECE018A5A9F4F0E94CA17E2
:100680006DE871E0CE018A5A9F4F0E943818BE0172
:100690006A5A7F4FCE0101960E941D1ECE018A5AD2
:1006A0009F4F0E94CA1761E971E0CE018A5A9F4F9D
:1006B0000E943818BE016A5A7F4FCE0101960E94EF
:1006C0001D1ECE018A5A9F4F0E94CA17B401CE0147
:1006D00001960E941D1EB501CE0101960E941D1EAD
:1006E000CE0101960E94E61E5C01181619063CF523
:1006F0006AE371E089EA94E00E9428124AE050E03F
:10070000B50189EA94E00E94FC1289EA94E00E9413
:10071000AA0FE114F10429F0B501CE010196F70109
:100720000995CE0101960E94711DCE0101960E948D
:10073000FC1E69EE73E0C6010E9438181BC0BE01A2
:100740006F5F7F4FCE018A5A9F4FF8010995CE0106
:1007500001960E94711DCE0101960E94FC1EBE01F1
:100760006A5A7F4FC6010E946518CE018A5A9F4F70
:100770000E94CA17CE0101960E94261FC601C55AC3
:10078000DF4F0FB6F894DEBF0FBECDBFDF91CF9124
:100790001F910F91FF90EF90DF90CF90BF90AF909F
:1007A0009F908F907F906F9008958F929F92AF92BD
:1007B000BF92CF92DF92EF92FF920F931F93CF934E
:1007C000DF93CDB7DEB7CB55D1090FB6F894DEBFB6
:1007D0000FBECDBF6C015A01490164E971E0CE0141
:1007E00001960E943818B501CE0101960E940819A1
:1007F00068E571E00E941B19B4010E940819BC0150
:1008000089EA94E00E943512CE0101960E94CA172F
:100810001C821B8288EE93E0A0E0B0E08D839E8373
:10082000AF83B8878CE094E09A83898382E095E077
:100830009E878D871B8A1C8A1D8A6FE271E0CE011C
:100840008A5A9F4F0E943818BE016A5A7F4FCE01C4
:1008500001960E942D1FCE018A5A9F4F0E94CA17EF
:1008600066E671E0CE018A5A9F4F0E943818BE0199
:100870006A5A7F4FCE0101960E941D1ECE018A5AF0
:100880009F4F0E94CA1769E671E0CE018A5A9F4FB6
:100890000E943818BE016A5A7F4FCE0101960E940D
:1008A0001D1ECE018A5A9F4F0E94CA176AE871E046
:1008B000CE018A5A9F4F0E943818BE016A5A7F4F54
:1008C000CE0101960E941D1ECE018A5A9F4F0E94A2
:1008D000CA1766EA71E0CE018A5A9F4F0E94381803
:1008E000BE016A5A7F4FCE0101960E941D1ECE01A5
:1008F0008A5A9F4F0E94CA1761E971E0CE018A5A55
:100900009F4F0E943818BE016A5A7F4FCE01019650
:100910000E941D1ECE018A5A9F4F0E94CA17B40121
:10092000CE0101960E941D1EB501CE0101960E94C6
:100930001D1ECE0101960E94E61E5C0118161906C6
:100940003CF56AE371E089EA94E00E9428124AE0EB
:1009500050E0B50189EA94E00E94FC1289EA94E033
:100960000E94AA0FE114F10429F0B501CE0101960D
:10097000F7010995CE0101960E94711DCE010196E5
:100980000E94FC1E69EE73E0C6010E9438181BC06D
:10099000BE016F5F7F4FCE018A5A9F4FF8010995C4
:1009A000CE0101960E94711DCE0101960E94FC1E8F
:1009B000BE016A5A7F4FC6010E946518CE018A5A4D
:1009C0009F4F0E94CA17CE0101960E94261FC601A2
:1009D000C55ADF4F0FB6F894DEBF0FBECDBFDF9113
:1009E000CF911F910F91FF90EF90DF90CF90BF902C
:1009F000AF909F908F900895CF93DF93EB01FC0110
:100A0000818192814817590734F089EA94E00E9465
:100A10004610811109C0E881F9810284F385E02D37
:100A2000CE01DF91CF9109946BEA71E089EA94E0FD
:100A30000E942812E881F9810480F581E02DCE0121
:100A40000995892B69F0E881F9810680F781E02D0D
:100A5000CE010995682F89EA94E00E942A12EACF14
:100A600069EE73E089EA94E00E94471289EA94E013
:100A7000DF91CF910C94AA0F0F931F93CF93DF9325
:100A800000D000D000D0CDB7DEB78B01FC01818152
:100A9000928118161906F4F089EA94E00E94461033
:100AA0008823C1F062EB71E0CE0101960E943818F4
:100AB000B801CE0101960E940819BC0189EA94E0B0
:100AC0000E943512CE0101960E94CA1789EA94E06D
:100AD0000E94AA0F26960FB6F894DEBF0FBECDBFB8
:100AE000DF91CF911F910F9108950F931F93CF9393
:100AF000DF9300D000D000D0CDB7DEB78B01FC0172
:100B0000818192810397F4F489EA94E00E9446106F
:100B10008823C1F060EC71E0CE0101960E94381884
:100B2000B801CE0101960E940819BC0189EA94E03F
:100B30000E943512CE0101960E94CA1789EA94E0FC
:100B40000E94AA0F26960FB6F894DEBF0FBECDBF47
:100B5000DF91CF911F910F9108950F931F93CF9322
:100B6000DF9300D000D000D0CDB7DEB78B01FC0101
:100B7000818192810497F4F489EA94E00E944610FE
:100B80008823C1F067EC71E0CE0101960E9438180D
:100B9000B801CE0101960E940819BC0189EA94E0CF
:100BA0000E943512CE0101960E94CA1789EA94E08C
:100BB0000E94AA0F26960FB6F894DEBF0FBECDBFD7
:100BC000DF91CF911F910F910895AF92BF92CF9275
:100BD000DF92EF92FF920F931F93CF93DF93CDB7E6
:100BE000DEB762970FB6F894DEBF0FBECDBF5C01D3
:100BF0008B0169EE73E00E943818FF24F394D8014A
:100C0000ED91FC910480F581E02DC801099518163D
:100C100019060CF0B0C042E2B801CE010D960E9458
:100C2000FE1367ED71E0CE010D960E943519882301
:100C300031F067ED71E0C5010E946E1802C0F1103D
:100C400011C06DED71E0CE010D960E943519811134
:100C500059C0F12C62EE71E0CE010D960E9435195B
:100C600081116DC06EEE71E0CE010D960E943519B6
:100C7000882311F0FF24F39466EF71E0CE010D9606
:100C80000E9435198823C9F142E2B801CE010196CC
:100C90000E94FE13CE0101960E94CA1742E2B801DB
:100CA000CE0101960E94FE13BE016F5F7F4FC5010A
:100CB0000E944E18CE0101960E94CA176FEF71E094
:100CC000CE0107960E943818B501CE0107960E9402
:100CD0000819BC01CE0101960E946518BE016F5F24
:100CE0007F4F89E494E00E947505CE0101960E9431
:100CF000CA17CE0107960E94CA17CE010D960E9410
:100D0000CA177DCFC8010E94FB136B017C01625F93
:100D10007D4FCE0101960E943818BE016F5F7F4F54
:100D200089E494E00E94AD05CE0101960E94CA17A5
:100D3000B6016D597E4FC5010E94E5188ACF42E287
:100D4000B801CE0101960E94FE13CE0101960E94C9
:100D5000CA1742E2B801CE0101960E94FE13BE01FD
:100D60006F5F7F4F89E494E00E94AD05CE0101964C
:100D70000E94CA1777CFC50162960FB6F894DEBFFE
:100D80000FBECDBFDF91CF911F910F91FF90EF90DC
:100D9000DF90CF90BF90AF900895CF93DF93EC0199
:100DA00040E050E089E494E00E94FC0469EE73E0C6
:100DB000CE010E943818CE01DF91CF910895CF92D5
:100DC000DF92EF92FF920F931F93CF93DF93CDB7F4
:100DD000DEB72C970FB6F894DEBF0FBECDBF7C01F7
:100DE0006B0107E010E042E2B601CE0101960E94DD
:100DF000FE13CE0101960E94CA170150110999F7FE
:100E000042E2B601CE0107960E94FE136BE172E04A
:100E1000CE0101960E943818BE01695F7F4FCE0156
:100E200001960E94081963E272E00E941B19BC013E
:100E3000C7010E946518CE0101960E94CA17CE0113
:100E400007960E94CA17C7012C960FB6F894DEBF0A
:100E50000FBECDBFDF91CF911F910F91FF90EF900B
:100E6000DF90CF9008950895CF92DF92EF92FF9296
:100E70000F931F93CF93DF936B010E9477238B0116
:100E8000C0E0D0E0EE24D7FCE094FE2C0C171D0748
:100E900040F16091A5047091A604809108010E9420
:100EA0004B2020910601309107018091A50490917B
:100EB000A604820F931F9093A6048093A504009725
:100EC00019F08F3F910539F431952195310930930F
:100ED000070120930601C701B6010E94CD1F21968C
:100EE000D5CF60E070E080910801DF91CF911F9134
:100EF0000F91FF90EF90DF90CF900C944B20EF92EA
:100F0000FF920F931F93CF93DF9300D000D000D0B8
:100F1000CDB7DEB77C0169E272E0CE0101960E9496
:100F2000381800E010E02FED36E0AE014F5F5F4F64
:100F30006CE474E0C7010E94AA01CE0101960E94F0
:100F4000CA176AE472E0CE0101960E943818F701D0
:100F50004081518169817A8182E095E00E94FC1B89
:100F6000CE0101960E94CA17C70126960FB6F894C3
:100F7000DEBF0FBECDBFDF91CF911F910F91FF90CC
:100F8000EF900895EF92FF920F931F93CF93DF930B
:100F900000D000D000D0CDB7DEB78C017A01CE01F1
:100FA00001960E946518B701CE0101960E940819AA
:100FB00060E572E00E941B19BC01C8010E9465181F
:100FC000CE0101960E94CA17C80126960FB6F89462
:100FD000DEBF0FBECDBFDF91CF911F910F91FF906C
:100FE000EF900895CF92DF92EF92FF920F931F93AD
:100FF000CF93DF93CDB7DEB768970FB6F894DEBF17
:101000000FBECDBF8C017B016901BA01CE010D96E7
:101010000E946518B701CE0143960E946518AE0183
:10102000435F5F4FBE016D5E7F4FCE0107960E940A
:10103000C207BE01695F7F4FCE0101960E9465180D
:10104000B601CE0101960E94081969E572E00E947E
:101050001B19BC01C8010E946518CE0101960E94AF
:10106000CA17CE0107960E94CA17CE0143960E9466
:10107000CA17CE010D960E94CA17C80168960FB60E
:10108000F894DEBF0FBECDBFDF91CF911F910F91BE
:10109000FF90EF90DF90CF900895EF92FF920F9323
:1010A0001F93CF93DF93CDB7DEB72C970FB6F8948D
:1010B000DEBF0FBECDBF8C01EE24E394F12CD8012E
:1010C000ED91FC910480F581E02DC8010995181679
:1010D00019060CF04BC042E2B801CE0107960E94FF
:1010E000FE136DED71E0CE0107960E94351988233D
:1010F000A9F0C8010E94FB137B01625F7D4FCE0106
:1011000001960E943818BE016F5F7F4F89E494E01A
:101110000E94AD05CE0101960E94CA1762EE71E0F1
:10112000CE0107960E9435198823D9F042E2B80112
:10113000CE0101960E94FE13CE0101960E94CA17AD
:1011400042E2B801CE0101960E94FE13BE016F5F1C
:101150007F4F89E494E00E94AD05CE0101960E9484
:10116000CA17CE0107960E94CA17A9CFC7012C96AD
:101170000FB6F894DEBF0FBECDBFDF91CF911F91A8
:101180000F91FF90EF9008958F929F92AF92BF9230
:10119000CF92DF92EF92FF920F931F93CF93DF9343
:1011A000CDB7DEB76E970FB6F894DEBF0FBECDBFDA
:1011B0005C017B016CE672E0CE0149960E94381812
:1011C000C12CD12C00E010E0D701ED91FC910480FE
:1011D000F581E02DC7010995181619060CF06AC0B3
:1011E00042E2B701CE0143960E94FE136BE7CE01A7
:1011F00043960E94CD1997FD02C00F5F1F4F6DE708
:10120000CE0143960E94CD1997FD02C001501109ED
:1012100062E772E0CE0101960E943818BE016F5F4E
:101220007F4FCE0143960E94ED194C01CE010196ED
:101230000E94CA1797FC02C00150110961E772E0D1
:10124000CE0101960E943818BE016F5F7F4FCE011C
:1012500043960E94ED194C01CE0101960E94CA17D7
:1012600097FC02C00150110967ED71E0CE01439671
:101270000E943519882369F0C7010E944D084AE091
:10128000BC01C5010E948618CE0143960E94CA1770
:1012900020C10130110581F5CE0143960E94F1195C
:1012A00016161706180619060CF094C0BFEFCB1AD5
:1012B000DB0A90C04AE0B601CE0107960E9486186C
:1012C00065E972E0CE0101960E9438184F81588579
:1012D00069817A8182E095E00E94FC1BCE01019633
:1012E0000E94CA17CE0107960E94CA176EEE71E0DF
:1012F000C5010E943818EDC00230110521F565E7DF
:1013000072E0CE0143960E943519882309F462C029
:1013100065E772E0CE0149960E946E186DED71E0AE
:10132000CE0143960E943519811159C06AEF71E0D0
:10133000CE0143960E94351981118EC0CE0143968D
:101340000E94CA1741CF0330110509F043C065E779
:1013500072E0CE0149960E943519882379F36BE734
:1013600072E0CE0143960E943519882339F34AE38F
:10137000B701CE0101960E94FE13CE0101960E9494
:10138000CA17D701ED91FC910680F781E02DC701C6
:1013900009958437E1F066E672E0CE0101960E947D
:1013A00038184AE0B601CE010D960E94861865E80D
:1013B00072E0CE0107960E943818BE01635F7F4F2E
:1013C000CE0107960E9408196BE872E06AC061E6D8
:1013D00072E0E3CF0230110509F0B0CF9FCF42E2B7
:1013E000B701CE0101960E94FE13CE0101960E9424
:1013F000CA1742E2B701CE0101960E94FE134AE0ED
:10140000B601CE010D960E94861865E872E0CE0105
:1014100007960E943818BE01635F7F4FCE01079682
:101420000E94081960EA72E00E941B1949815A81E2
:10143000FC016081718182E095E00E94FC1BCE017D
:1014400007960E94CA17CE010D960E94CA17CE01B8
:1014500001960E94CA176ACF42E2B701CE010196F7
:101460000E94FE13CE0101960E94CA1742E2B70104
:10147000CE0101960E94FE134AE0B601CE010D9600
:101480000E94861865E872E0CE0107960E9438181F
:10149000BE01635F7F4FCE0107960E94081965EA7F
:1014A00072E00E941B1949815A81DC016D917C9187
:1014B00082E095E00E94FC1BCE0107960E94CA17AD
:1014C000CE010D960E94CA17CE0101960E94CA173E
:1014D00035CFCE0149960E94CA17C5016E960FB648
:1014E000F894DEBF0FBECDBFDF91CF911F910F915A
:1014F000FF90EF90DF90CF90BF90AF909F908F9034
:101500000895EF92FF920F931F93CF93DF93CDB780
:10151000DEB762970FB6F894DEBF0FBECDBF7C0179
:101520008B01BA01CE0107960E946518B801CE0161
:101530000D960E946518AE01495F5F4FBE01635F63
:101540007F4FCE0101960E94C20700E010E024EC1C
:1015500038E0AE014F5F5F4F6CE474E0C7010E945A
:10156000AA01CE0101960E94CA17CE010D960E94D3
:10157000CA17CE0107960E94CA17C70162960FB616
:10158000F894DEBF0FBECDBFDF91CF911F910F91B9
:10159000FF90EF900895AF92BF92CF92DF92EF92BB
:1015A000FF920F931F93CF93DF93CDB7DEB7629770
:1015B0000FB6F894DEBF0FBECDBF6C015B016AEAC7
:1015C00072E0CE0101960E943818B501CE0107964F
:1015D0000E946518E12CF12C05EE15E09E012F5FAD
:1015E0003F4FAE01495F5F4F6CE474E0CE010D9652
:1015F0000E94D503CE0107960E94CA17CE0101961C
:101600000E94CA1767ED71E0CE0101960E9438185A
:10161000BE016F5F7F4FCE010D960E947819811138
:101620000BC069EE73E0CE010D960E94351911E0F2
:10163000811103C010E001C011E0CE0101960E94AB
:10164000CA17112359F06AE070E080ED97E00E941C
:101650003407CE010D960E94CA17B1CFBE01635F59
:101660007F4FC6010E946518CE010D960E94CA17D1
:10167000C60162960FB6F894DEBF0FBECDBFDF91F4
:10168000CF911F910F91FF90EF90DF90CF90BF907F
:10169000AF900895AF92BF92CF92DF92EF92FF92F8
:1016A0000F931F93CF93DF93CDB7DEB769970FB634
:1016B000F894DEBF0FBECDBF8C016B01A090470434
:1016C000B090480426E2E22E24E0F22EC5018652B4
:1016D00094405C01C5018E0D9F1D0E948526F70177
:1016E00081937F01F7E4EF16F4E0FF0699F780910C
:1016F000260418168CF566E274E0CE0107960E9467
:101700003818B601CE0101960E946518AE01495FF6
:101710005F4FBE016F5F7F4FCE010D960E94810A21
:10172000CE0101960E94CA17CE0107960E94CA17E1
:101730006EEE71E0CE010D960E943519882341F0BE
:1017400066E274E0C8010E943818CE010D96AAC066
:10175000CE010D960E94CA176BEC72E0CE01019685
:101760000E943818BE016F5F7F4F89E494E00E94A9
:101770007505CE0101960E94CA17B601CE010196E9
:101780000E946518BE016F5F7F4FCE0143960E9495
:10179000CB0ACE0101960E94CA1769EE73E0CE0112
:1017A00043960E943519882319F069EE73E075C0DD
:1017B00061EF72E0CE0107960E943818BE016D5E9F
:1017C0007F4FCE0107960E940819BC01CE010196F9
:1017D0000E946518BE016F5F7F4F89E494E00E940C
:1017E0007505CE0101960E94CA17CE0107960E9488
:1017F000CA1720E030E041E250E066E274E0CE013A
:1018000043960E948719E0904704F090480496E2BE
:10181000A92E94E0B92EF50161915F01C701698F8E
:101820000E948526698D681719F0C7010E948D26D0
:10183000FFEFEF1AFF0A87E4A81684E0B80659F70D
:1018400066E274E0CE0107960E943818B601CE0118
:101850000D960E946518AE01495F5F4FBE01635F40
:101860007F4FCE0101960E94810A6EEE71E0CE019B
:1018700001960E943519F82ECE0101960E94CA17D2
:10188000CE010D960E94CA17CE0107960E94CA1774
:10189000FF2009F48ACF66E274E0C8010E9438187C
:1018A000CE0143960E94CA17C80169960FB6F894F4
:1018B000DEBF0FBECDBFDF91CF911F910F91FF9083
:1018C000EF90DF90CF90BF90AF900895BF92CF92EE
:1018D000DF92EF92FF920F931F93CF93DF93CDB7D9
:1018E000DEB768970FB6F894DEBF0FBECDBF8C0190
:1018F0007B016A01B22E6AE273E0CE0101960E947A
:101900003818BE016F5F7F4F89E494E00E943C0568
:10191000CE0101960E94CA17B601CE0101960E941F
:101920006518B701CE0107960E946518B801CE016F
:101930000D960E9465189E012F5F3F4FAE01495FD3
:101940005F4FBE01635F7F4FCE0143960E94F20757
:10195000CE010D960E94CA17CE0107960E94CA17A3
:10196000CE0101960E94CA17BB2019F063E073E014
:1019700002C066E173E0CE0107960E943818BE01EE
:101980006D5E7F4FCE010D960E946518E12CF12C03
:101990000DEC16E09E01295F3F4FAE01435F5F4FA4
:1019A0006CE474E0CE0101960E949B02CE01019688
:1019B0000E94CA17CE010D960E94CA17CE01079643
:1019C0000E94CA17CE0143960E94CA1768960FB6A6
:1019D000F894DEBF0FBECDBFDF91CF911F910F9165
:1019E000FF90EF90DF90CF90BF900895CF92DF925D
:1019F000EF92FF920F931F93CF93DF93CDB7DEB794
:101A000068970FB6F894DEBF0FBECDBF8C017B0187
:101A10006A0169E373E0CE0101960E943818BE01A5
:101A20006F5F7F4F89E494E00E943C05CE010196F0
:101A30000E94CA17B601CE0101960E946518B7012F
:101A4000CE0107960E946518B801CE010D960E943E
:101A500065189E012F5F3F4FAE01495F5F4FBE018A
:101A6000635F7F4FCE0143960E94F207CE010D9631
:101A70000E94CA17CE0107960E94CA17CE0101968E
:101A80000E94CA1769E473E0CE0107960E943818D5
:101A9000BE016D5E7F4FCE010D960E946518E12C50
:101AA000F12C0DEC16E09E01295F3F4FAE01435F24
:101AB0005F4F6CE474E0CE0101960E949B02CE0160
:101AC00001960E94CA17CE010D960E94CA17CE0138
:101AD00007960E94CA17CE0143960E94CA176896BD
:101AE0000FB6F894DEBF0FBECDBFDF91CF911F912F
:101AF0000F91FF90EF90DF90CF900895CF93DF93F9
:101B0000CDB7DEB7A4970FB6F894DEBF0FBECDBF3A
:101B100069EE73E0CE014F960E94381869EE73E0CB
:101B2000CE014F960E9435198823F1F0CE0101961F
:101B30000E947F07BE016F5F7F4FCE014F960E94CC
:101B40004E18CE0101960E94CA1769EE73E0CE01CD
:101B50004F960E943519882309F36AE070E080E10E
:101B600097E20E943407DACF6AE573E0CE01079668
:101B70000E943818BE01615E7F4FCE0107960E9419
:101B80000819BC01CE0101960E946518BE016F5F65
:101B90007F4F89E494E00E947505CE0101960E9472
:101BA000CA17CE0107960E94CA17BE01615E7F4F19
:101BB000CE0101960E946518BE016F5F7F4FCE0176
:101BC00049960E944A0BCE0101960E94CA1769E607
:101BD00073E0CE0107960E943818BE01675E7F4F02
:101BE000CE0107960E940819BC01CE0101960E9401
:101BF0006518BE016F5F7F4F89E494E00E94750510
:101C0000CE0101960E94CA17CE0107960E94CA17FC
:101C100069EE73E0CE0149960E943519811180C0AA
:101C20006AE773E0CE0101960E943818BE016F5F2B
:101C30007F4F89E494E00E947505CE0101960E94D1
:101C4000CA1762E973E0CE0143960E94381861E03A
:101C500073E0CE010D960E943818BE01675E7F4F7B
:101C6000CE0101960E946518BE01615E7F4FCE01D4
:101C700007960E94651820E0AE01435F5F4FBE01EA
:101C80006F5F7F4FCE0107960E94660CCE010796CC
:101C90000E94CA17CE0101960E94CA17CE010D9666
:101CA0000E94CA17CE0143960E94CA1768E270E0EC
:101CB00080E197E20E94340762E973E0CE01439627
:101CC0000E94381861E073E0CE010D960E9438182A
:101CD000BE01675E7F4FCE0101960E946518BE016E
:101CE000615E7F4FCE0107960E946518AE01435F8B
:101CF0005F4FBE016F5F7F4FCE0107960E94F60CCB
:101D0000CE0107960E94CA17CE0101960E94CA17FB
:101D1000CE010D960E94CA17CE0143960E94CA17A3
:101D2000CE0149960E94CA17CE014F960E94CA174B
:101D3000A4960FB6F894DEBF0FBECDBFDF91CF9152
:101D400008950F931F93CF93DF9300D000D000D05E
:101D5000CDB7DEB76EE973E0CE0101960E94381868
:101D6000BE016F5F7F4F89E494E00E947505CE014C
:101D700001960E94CA1766EA73E0CE0101960E949E
:101D80003818BE016F5F7F4F89E494E00E947505AB
:101D9000CE0101960E94CA1726E040E950ED63E0AB
:101DA00070E080910B0590910C050E94551182E026
:101DB00095E00E94591C62EB73E0CE0101960E94EF
:101DC0003818BE016F5F7F4F89E494E00E9475056B
:101DD000CE0101960E94CA1740E855E260E070E02B
:101DE00089EA94E00E94401061E0809108010E941D
:101DF0001F2104E010E089EA94E00E94461081115E
:101E000003C001501109F1F46EEB73E0CE010196AD
:101E10000E943818BE016F5F7F4F89E494E00E94F2
:101E20007505CE0101960E94CA170E947E0D269666
:101E30000FB6F894DEBF0FBECDBFDF91CF911F91DB
:101E40000F91089563E070E088EE93E00E943407FC
:101E5000D2CF8091A7049091A804892B19F064E156
:101E600070E002C065E070E088E893E10C9434070C
:101E70000E94F51F0E94330789EF94E00E94AC177F
:101E80000E94A10ECFE9D0E10E94290F2097E1F333
:101E90000E949F10F9CF109253041092520488EEC2
:101EA00093E0A0E0B0E08093540490935504A09395
:101EB0005604B09357048CE094E0909351048093BF
:101EC000500482E095E090935D0480935C0410924E
:101ED0006204109263041092640421E020934C0485
:101EE00020934D0482E090E090934F0480934E0441
:101EF0002093490490934B0480934A04089580E50D
:101F000094E00C94261FCF93DF931F92CDB7DEB7DA
:101F10006983DC01ED91FC910280F381E02D41E0C9
:101F200050E0BE016F5F7F4F09950F90DF91CF9119
:101F30000895CF93DF93EC018C859D8597FF05C0B5
:101F400082E00E94F7149D878C878C859D85DF91A8
:101F5000CF91089583E00C944C17FC0184859585FE
:101F600097FD06C082E00E949F1490E001960895BC
:101F700082E00E949F1490E00895FC01848595857D
:101F800097FD05C02FEF3FEF35872487089582E046
:101F90000C94F714CF93DF93EC0180911101882307
:101FA00031F083E00E9428151816190634F081E0FC
:101FB00090E09B838A8380E090E0DF91CF91089549
:101FC000FC0120812E5F208342E450E068EE70E047
:101FD00080E80C94C315FC0181819081913A59F4F9
:101FE000813209F03CC047E050E06AE071E080E0F7
:101FF0000E94C31543C0913291F5803239F467E0F5
:1020000070E08AE091E00E94F41506C0823209F087
:1020100035C082818093110180910A0190910B015A
:10202000A0910C01B0910D01803B9440A105B10538
:10203000C1F48091110180FD14C087E797E7909368
:102040000108809300082BE088E190E00FB6F89437
:10205000A895809360000FBE209360000FC080E0C1
:10206000089588E10FB6F8948093600010926000A4
:102070000FBEA895109201081092000881E0089503
:102080002FEF3FEFFC01358724870895CF93C09150
:1020900011016AE070E080E090E00E94CD1F81E0D5
:1020A000C11101C080E0CF9108951092AC0410924C
:1020B000AB0488EE93E0A0E0B0E08093AD04909391
:1020C000AE04A093AF04B093B0048BEC93E0909374
:1020D000AA048093A9048FEF9FEF9093B604809396
:1020E000B5040895FC01818D228D90E0805C9F4FA6
:1020F000821B91098F7399270895FC01918D828D20
:10210000981731F0828DE80FF11D858D90E00895CC
:102110008FEF9FEF0895FC01918D828D981761F0EC
:10212000828DDF01A80FB11D5D968C91928D9F5F0E
:102130009F73928F90E008958FEF9FEF089589E24B
:1021400093E2892B49F080E090E0892B29F00E94EE
:10215000292381110C9400000895FC01848DDF0176
:10216000A80FB11DA35ABF4F2C91848D90E001960A
:102170008F739927848FA689B7892C93A089B189F9
:102180008C9180648C93938D848D981306C0028803
:10219000F389E02D80818F7D80830895CF93DF9335
:1021A000EC01888D8823C9F0EA89FB89808185FD4F
:1021B00005C0A889B9898C9186FD0FC00FB607FCB0
:1021C000F5CF808185FFF2CFA889B9898C9185FFF1
:1021D000EDCFCE010E94AD10E7CFDF91CF910895F2
:1021E000CF92DF92FF920F931F93CF93DF931F92B3
:1021F000CDB7DEB76C0181E0D60158968C93589725
:102200005B969C915B975C968C915C97981307C04A
:102210005096ED91FC915197808185FD2EC0F6017D
:10222000038D10E00F5F1F4F0F731127F02EF60183
:10223000848DF81211C00FB607FCF9CFD601509665
:10224000ED91FC915197808185FFF1CFC6016983A3
:102250000E94AD106981EBCF838DE80FF11DE35A29
:10226000FF4F6083D6015B960C935B975296ED917E
:10227000FC915397808180620CC0D6015696ED91F7
:10228000FC91579760835096ED91FC915197808116
:102290008064808381E090E00F90DF91CF911F9167
:1022A0000F91FF90DF90CF900895BF92CF92DF9271
:1022B000EF92FF92CF93DF93EC016A017B01B22E84
:1022C000E889F98982E08083411581EE580761052C
:1022D0007105A1F060E079E08DE390E0A70196013F
:1022E0000E948B2321503109410951095695479588
:1022F00037952795211580E1380798F0E889F98905
:10230000108260E874E88EE190E0A70196010E94D7
:102310008B2321503109410951095695479537952D
:102320002795EC85FD853083EE85FF852083188E0B
:10233000EC89FD89B082EA89FB8980818061808394
:10234000EA89FB89808188608083EA89FB898081B2
:1023500080688083EA89FB8980818F7D8083DF911B
:10236000CF91FF90EF90DF90CF90BF900895CF92E4
:10237000DF92EF92FF920F931F93CF93DF936C0145
:102380007A01EB01E60EF71E00E010E0CE15DF0546
:1023900061F06991D601ED91FC910190F081E02D01
:1023A000C6010995080F191FF1CFC801DF91CF9120
:1023B0001F910F91FF90EF90DF90CF9008956115DE
:1023C000710581F0DB010D900020E9F7AD0141506E
:1023D0005109461B570BDC01ED91FC910280F38102
:1023E000E02D099480E090E00895EF92FF920F9322
:1023F0001F93CF93DF938C01FB01C0E0D0E0649189
:102400007F018FEFE81AF80A662361F0D801ED9199
:10241000FC910190F081E02DC8010995C80FD91FEA
:10242000F701EDCFCE01DF91CF911F910F91FF907A
:10243000EF900895DC01ED91FC91DB0114964D9134
:102440005C9115976D917C910280F381E02D099448
:102450000C94DF11DC01ED91FC910190F081E02DF5
:10246000099467EE73E00C94DF110F931F93CF93E1
:10247000DF93EC010E941A128C01CE010E943112EE
:10248000800F911FDF91CF911F910F9108950F93AE
:102490001F93CF93DF93EC010E94DF118C01CE01DB
:1024A0000E943112800F911FDF91CF911F910F91E8
:1024B00008958F929F92AF92BF92CF92DF92EF9248
:1024C000FF920F931F93CF93DF93CDB7DEB7A19702
:1024D0000FB6F894DEBF0FBECDBF7C01C42EE52F32
:1024E000CB01D22E19A221E02D1510F02AE0D22E18
:1024F0008E010F5D1F4F8D2C912CA12CB12C6C2DBA
:102500007E2FA50194010E948B238C2DD29E8019D1
:102510001124015011098A3014F4805D01C0895CD6
:10252000F8018083211531054105510521F0C22EA6
:10253000E32FCA01E4CFB801C7010E94DF11A196C1
:102540000FB6F894DEBF0FBECDBFDF91CF911F91C4
:102550000F91FF90EF90DF90CF90BF90AF909F9042
:102560008F900895CF92DF92EF92FF920F931F9377
:10257000CF93DF93EC016A017B012115310579F4DA
:10258000E881F9810190F081E02D642FDF91CF91F6
:102590001F910F91FF90EF90DF90CF9009942A3018
:1025A0003105E9F477FF1AC06DE20E942A128C010E
:1025B00044275527BA014C195D096E097F092AE0A5
:1025C000CE010E945912800F911FDF91CF911F9170
:1025D0000F91FF90EF90DF90CF9008952AE0B70120
:1025E000A601CE01DF91CF911F910F91FF90EF9047
:1025F000DF90CF900C9459120F931F93CF93DF93DA
:10260000EC019A01AB01662757FD6095762F0E9479
:10261000B2128C01CE010E943112800F911FDF9106
:10262000CF911F910F9108950F931F93CF93DF9335
:10263000EC010E949E1F688779878A879B87E881C3
:10264000F9810680F781E02DCE01099597FF15C02D
:102650000E949E1F088519852A853B85601B710B8A
:10266000820B930B0C811D812E813F8160177107B6
:102670008207930720F38FEF9FEFDF91CF911F9198
:102680000F9108950F931F93CF93DF93EC010E9456
:102690009E1F688779878A879B87E881F9810084F4
:1026A000F185E02DCE01099597FF15C00E949E1F70
:1026B000088519852A853B85601B710B820B930B5E
:1026C0000C811D812E813F8160177107820793075E
:1026D00020F38FEF9FEFDF91CF911F910F9108951E
:1026E000CF93DF93EC01CE010E94421397FD11C0FE
:1026F0008D32910571F09C01205331092A3031054A
:1027000040F0E881F9810680F781E02DCE0109953E
:10271000EACFDF91CF910895CF92DF92FF920F938E
:102720001F93CF93DF9300D000D0CDB7DEB76C01FD
:10273000062F0E947013FC0197FD4BC020E030E093
:10274000A901F12C112707FD1095E017F107E9F019
:10275000ED32F105C1F0CF01C0970A97B0F4AAE0BD
:10276000B0E00E94B3239B01AC01CF01AA2797FDE3
:10277000A095BA2F280F391F4A1F5B1F205331091C
:102780004109510902C0FF24F394D601ED91FC9157
:102790000680F781E02DC60129833A834B835C8351
:1027A0000995C6010E944213FC01C09729813A8114
:1027B0004B815C810A9748F2E017F10731F2FF2064
:1027C00061F066277727CB01621B730B840B950B97
:1027D00006C060E070E0CB0102C0CA01B9010F90F1
:1027E0000F900F900F90DF91CF911F910F91FF905D
:1027F000DF90CF90089561E00C948C13EF92FF92DC
:102800000F931F93CF93DF93EC018B01E42E69EEBE
:1028100073E00E943818C8010E941413FF24E7FCDB
:10282000F09497FD0BC08E159F0541F0682FCE01E7
:102830000E94F518C8010E941413F3CFCE01DF9156
:10284000CF911F910F91FF90EF9008954091FD045B
:102850005091FE042091FB043091FC044217530771
:10286000B4F49091E8009570E1F39091E80092FD46
:1028700019C08093F1008091FD049091FE040196AF
:102880008F739927892B19F48EEF8093E80080913C
:10289000FD049091FE0401969093FE048093FD0444
:1028A00081E0089580E00895CF92DF92FF920F9328
:1028B0001F93CF93DF931F92CDB7DEB7082F162F4C
:1028C000862F880F8E5F99830E94261483E00E94D2
:1028D0002614F02EC02E9981D92E8C2D8F19811798
:1028E00078F4F60184910E942614082F80E00E945B
:1028F00026148023FFEFCF1ADF0A8111EECF01C02B
:1029000081E00F90DF91CF911F910F91FF90DF90A9
:10291000CF900895615030F02091F100FC012083A8
:102920000196F8CF289884E68093000508952FB784
:10293000FC012083F89467706093E9000895CF93B9
:10294000DF931F92CDB7DEB7682FCE0101960E94AC
:1029500097148091F20099819FBF0F90DF91CF91E2
:102960000895FF920F931F93CF93DF9300D0CDB7BD
:10297000DEB7F62E8A019091FF04992311F057FFDC
:1029800003C08FEF9FEF2BC0682FCE0101967A8393
:102990000E9497148091F20090E0A8017A8180173C
:1029A00091070CF4AC01EF2DF72FF40E84E6FE1620
:1029B00039F02898809300059091F1009193F7CF1A
:1029C0004115510521F08091F200882321F0898181
:1029D0008FBFCA0104C08BE68093E800F8CF0F9048
:1029E0000F90DF91CF911F910F91FF900895CF939A
:1029F000DF931F92CDB7DEB741E050E0BE016F5FBD
:102A00007F4F0E94B114019719F4898190E002C0B0
:102A10008FEF9FEF0F90DF91CF910895CF93DF93CA
:102A20001F92CDB7DEB7682FCE0101960E94971492
:102A30009091E800892F807295FF04C09091F20078
:102A400080E4891B99819FBF0F90DF91CF910895FA
:102A50006F927F928F929F92AF92BF92CF92DF92AE
:102A6000EF92FF920F931F93CF93DF931F92CDB7F7
:102A7000DEB7782E7B01C42EB52E8091FF0488230B
:102A800069F0042F152F8AEFD82E872D8072982E8B
:102A90009AE3A92E872D8074882E11C08FEF9FEFA7
:102AA00057C0872D0E940E15682E81110CC0DA9434
:102AB000A9F361E070E080E090E00E94CD1F011575
:102AC000110579F73BC0282F30E0021713070CF4EB
:102AD000602E672DCE0101960E9497148091E80028
:102AE00085FF29C0262D30E0021B130B992039F0F9
:102AF0006A948FEF6816B1F01092F100F9CFF701E8
:102B0000862D77FE07C0815058F094919093F10084
:102B10003196F9CF815020F091919093F100FACF46
:102B2000E20EF31E8091E80085FF0FC0011511052C
:102B300011F481100AC089818FBFC1CF5D9884E6EE
:102B4000809301058C2D9B2D03C0A092E800F3CF4C
:102B50000F90DF91CF911F910F91FF90EF90DF9039
:102B6000CF90BF90AF909F908F907F906F9008957F
:102B70001092E9001092FE041092FD049093FC0460
:102B80008093FB040895CF92DF92FF920F931F93DF
:102B9000CF93DF9300D0CDB7DEB7F82E8A016B015B
:102BA00001151105B1F0F601F7FE02C0849101C0D4
:102BB000808149835A830E94261401501109FFEF36
:102BC000CF1ADF0A49815A818111EACF8FEF9FEF37
:102BD00001C0CA010F900F90DF91CF911F910F910B
:102BE000FF90DF90CF9008951F93CF93DF931F92B4
:102BF000CDB7DEB7162F2091E80022FFFCCF612F62
:102C000079830E948A148BEF8093E800812F798169
:102C1000972F0F90DF91CF911F910895CF93DF935E
:102C20001F92CDB7DEB71982CE0101960E94E00F48
:102C3000CE0101960E94AC21898190E00F90DF9136
:102C4000CF9108951F920F920FB60F921124EF9219
:102C5000FF920F931F932F933F934F935F936F9325
:102C60007F938F939F93AF93BF93EF93FF93CF93F4
:102C7000DF93CDB7DEB76297DEBFCDBF1092E9001C
:102C80008091E80083FFEBC068E0CE010A960E94C5
:102C90008A1482EF8093E8009A8597FF05C080919F
:102CA000E80080FFFCCF03C08EEF8093E800892FFF
:102CB000807609F0B9C08B85811105C01092F100B2
:102CC0001092F100C5C0282F2D7F213009F4C0C01B
:102CD000853049F48091E80080FFFCCF8C858068C6
:102CE0008093E300B5C0863009F076C02D85E88872
:102CF000F988223071F580E090E02A8B0E94B815A7
:102D00000E940E1699E08E010F5F1F4FF801392FB8
:102D100011923A95E9F799832A892A8391E09E8353
:102D200090E898879AEF99872091FD043091FE04EE
:102D3000275F3F4F3C832B838D83C7010E94B815CB
:102D400049E050E0B80180E00E94C3150E940E16D1
:102D50007FC0C7012A8B0E94B8152A89223241F40C
:102D600082E290E00E94B721892B09F071C074C003
:102D7000213069F488899989089711F42093FA041D
:102D80008091FA04811118C061E471E01AC0233007
:102D900009F062C08C85882391F0823021F46CE0C8
:102DA0008FE591E006C0813009F056C06BE083E505
:102DB00091E00E9454144AC06FE271E002C06CE6D8
:102DC00071E06115710509F447C0FB01449150E0C1
:102DD00080E80E94C3153CC0873009F43DC08830AC
:102DE00021F481E08093F10033C0893089F593703C
:102DF00099F5EBE2F1E081E021E096E38093E900D0
:102E00002093EB0034913093EC009093ED008F5FB2
:102E10003196853099F78EE78093EA001092EA00A8
:102E20008C858093FF0414C0888999890E94B81505
:102E30008E85811105C0CE010A960E94EB0F06C057
:102E4000823051F4CE010A960E94DF21882321F0BE
:102E50008EEF8093E80003C081E28093EB006296DE
:102E60000FB6F894DEBF0FBECDBFDF91CF91FF91BB
:102E7000EF91BF91AF919F918F917F916F915F91F2
:102E80004F913F912F911F910F91FF90EF900F90D5
:102E90000FBE0F901F9018958093E9008091F2006B
:102EA000882319F08AE38093E80008951F920F9217
:102EB0000FB60F9211242F933F934F935F936F930D
:102EC0007F938F939F93AF93BF93EF93FF938091E3
:102ED000E1001092E10083FF0FC01092E90091E041
:102EE0009093EB001092EC0092E39093ED0010921F
:102EF000FF0498E09093F00082FF1DC083E00E94E1
:102F00004C1780910105882339F08091010581508B
:102F100080930105882369F080910005882359F08A
:102F200080910005815080930005811104C0289A8A
:102F300002C05D9AF1CFFF91EF91BF91AF919F9148
:102F40008F917F916F915F914F913F912F910F9052
:102F50000FBE0F901F9018951092FF0481E0809390
:102F6000D70080EA8093D80082E189BD09B400FED1
:102F7000FDCF61E070E080E090E00E94CD1F80E92D
:102F80008093D8008CE08093E2001092E000559A84
:102F9000209A0895FC01808191810C946524CF933F
:102FA000DF93EC0188819981009711F00E946524DC
:102FB000198218821D821C821B821A82DF91CF9196
:102FC00008950F931F93CF93DF93EC018B016F5FF5
:102FD0007F4F888199810E94F424009731F0998372
:102FE00088831B830A8381E001C080E0DF91CF9159
:102FF0001F910F910895CF93DF93EC018881998100
:10300000892B29F08A819B818617970760F4CE016E
:103010000E94E117882341F08C819D81892B19F44E
:10302000E881F981108281E0DF91CF910895EF92DC
:10303000FF920F931F93CF93DF93EC017B018A01E3
:10304000BA010E94FB17811104C0CE010E94CF1764
:1030500007C01D830C83B701888199810E940226D5
:10306000CE01DF91CF911F910F91FF90EF900895C6
:10307000FC01118210821382128215821482611562
:10308000710559F0FB0101900020E9F7AF014150B3
:103090005109461B570B0C9417180895CF93DF93D3
:1030A000EC01FB018617970761F060817181611562
:1030B000710529F0448155810E94171802C00E94B1
:1030C000CF17CE01DF91CF910895FC0111821082BC
:1030D00013821282158214820C944E18CF93DF93C0
:1030E000EC016115710561F0FB0101900020E9F729
:1030F000AF0141505109461B570B0E94171802C0DF
:103100000E94CF17CE01DF91CF9108950F931F93A7
:10311000CF93DF93CDB7DEB762970FB6F894DEBFDB
:103120000FBECDBF8C01CB01F8011182108213823A
:1031300012821582148250E0BE016F5F7F4F0E94A1
:103140004026BE016F5F7F4FC8010E946E186296D5
:103150000FB6F894DEBF0FBECDBFDF91CF911F91A8
:103160000F910895EF92FF920F931F93CF93DF93E8
:10317000EC017B010C811D816115710511F480E06A
:1031800016C04115510591F0040F151FB8010E949A
:10319000FB178823A1F3288139818C819D81B70198
:1031A000820F931F0E9402261D830C8381E0DF9112
:1031B000CF911F910F91FF90EF900895FB014481F3
:1031C0005581608171810C94B2186115710559F0B7
:1031D000FB0101900020E9F7AF0141505109461B66
:1031E000570B0C94B21880E00895CF93DF9300D072
:1031F000CDB7DEB769831A8241E050E0BE016F5F50
:103200007F4F0E94B2180F900F90DF91CF910895D9
:10321000CF93DF93EC01FB01448155816081718183
:103220000E94B218811103C0CE010E94CF17CE01B7
:10323000DF91CF910895CF93DF93EC016115710574
:1032400069F0FB0101900020E9F7AF0141505109FD
:10325000461B570B0E94B218811103C0CE010E9479
:10326000CF17CE01DF91CF910895FC0124813581E4
:10327000232B31F421E061157105A1F0FB0108C099
:10328000FC01808191816115710531F421E0FC011F
:103290008081882339F005C00E94F92521E0892B1F
:1032A00009F020E0822F0895FA01DB0114964D9178
:1032B0005C911597DC0114962D913C911597241B78
:1032C000350B2E173F0788F08D919C91009769F080
:1032D000DB016D917C916115710539F08E0F9F1F97
:1032E0000E94092621E0892B09F020E0822F089511
:1032F000FC0144815581FB0124813581421753072C
:1033000020F040E050E00C94541980E008950F93B1
:103310001F93CF93DF93EB0141155105E9F02097FF
:10332000D9F0FC016481758126173707A0F4621B70
:10333000730B8A01015011096017710708F48B01A2
:10334000FC0160817181620F731FA801CE010E9490
:103350001726C00FD11F1882DF91CF911F910F91B7
:103360000895CF93DF93FC01848195814817590715
:1033700078F4C081D181772767FD7095CE01840FE5
:10338000951F0E94EE25009719F08C1B9D0B02C023
:103390008FEF9FEFDF91CF91089540E050E00C94C4
:1033A000B119CF93DF93FC018481958148175907A8
:1033B00078F4C081D181FB0160817181CE01840FDD
:1033C000951F0E942626009719F08C1B9D0B02C0AA
:1033D0008FEF9FEFDF91CF91089540E050E00C9484
:1033E000D119FC0180819181009711F00C94BE25C8
:1033F00060E070E0CB010895FC0123813481262731
:10340000022E2295207F2025032E322F22952F7009
:103410000226269532272327220F220F220F20254E
:10342000FC01348323830895CF93DF93EC018D81D6
:103430009E81DC01ED91FC916C810190F081E02D89
:1034400009958D819E81DC01ED91FC910190F081C7
:10345000E02D6B81DF91CF9109948F929F92AF9273
:10346000BF92CF92DF92EF92FF92CF93DF93EC0166
:103470006B010E949E1F4B015C01E12CF12C8D81A0
:103480009E81DC01ED91FC910680F781E02D09958C
:1034900097FF0DC00E949E1F681979098A099B0930
:1034A0006C157D058E059F0550F38FEF9FEFDF9123
:1034B000CF91FF90EF90DF90CF90BF90AF909F9013
:1034C0008F900895CF93DF93EC018D819E81DC0175
:1034D000ED91FC910480F581E02D099518161906EF
:1034E00054F48D819E81DC01ED91FC910680F78181
:1034F000E02D0995EACFDF91CF9108952F923F9269
:103500004F925F926F927F928F929F92AF92BF92F3
:10351000CF92DF92EF92FF920F931F93CF93DF939F
:10352000CDB7DEB72D970FB6F894DEBF0FBECDBF77
:103530003C011B013C832B83BF82AE825801AC0C43
:10354000BD1CA40EB51EBD824B2C512CCA01860F8A
:10355000971F99878887D901A00FB11FBB87AA87BA
:10356000F601EE0DFF1DFD87EC87D30118968C91B7
:10357000581608F026C1EFEFFFEFD3011496FC9325
:10358000EE93139715968D919C911697DC01ED9112
:10359000FC910190F081E02D6FEF09956FEFC30171
:1035A0000E94FC19F30185819681DC01ED91FC916B
:1035B0000190F081E02DD3016C910995F3016081B8
:1035C000C3010E94FC19D30115968D919C91169709
:1035D000DC01ED91FC910190F081E02D6D81099568
:1035E000642DC3010E94FC19F30185819681DC01E1
:1035F000ED91FC910190F081E02D6A2D09956A2DE5
:10360000C3010E94FC19610188859985C816D906F5
:10361000A1F0F301858196818601DC01ED91FC9199
:103620000190F081E02DD6016D916D010995F801B1
:103630006081C3010E94FC19E7CFCB80DC808A85C2
:103640009B85C816D906B1F0D30115968D919C9132
:1036500016978601DC01ED91FC910190F081E02D3F
:10366000D6016D916D010995F8016081C3010E9439
:10367000FC19E5CF87018C859D8508171907B1F0E6
:10368000D30115968D919C9116976801DC01ED91FF
:10369000FC910190F081E02DD8016D918D0109958B
:1036A000F6016081C3010E94FC19E5CFC3010E94AD
:1036B000141A64E670E0C3010E942D1A8F3F910531
:1036C00009F074C0EFEFFFEFD3011496FC93EE9373
:1036D00013976FEFC3010E94FC1965E070E0C3010E
:1036E0000E942D1AD3016C91262F30E08217930788
:1036F00009F05CC0C3010E94FC196AE070E0C301DC
:103700000E942D1A8C0197FD51C0682FC3010E94A1
:10371000FC196AE070E0C3010E942D1A6C0197FD4C
:1037200045C0682FC3010E94FC190A8319820981D0
:103730001A810C0D1D1DC12CD12C65E070E0C30158
:10374000C016D106A1F0C814D90489F00E942D1A20
:1037500097FD09C0EE81FF81EC0DFD1D8083682F70
:10376000C3010E94FC19BFEFCB1ADB0AE6CF0E940F
:103770002D1A6C0197FD1AC065E070E0C3010E942C
:103780002D1A97FD13C0DC2CCC24C80ED91EF301D2
:10379000838194818C159D0549F480818F5F80839E
:1037A000C8018016910678F4C4010DC0539464E6F4
:1037B00070E080E090E00E94CD1FC3010E94621A79
:1037C000D4CE8FEF9FEF2D960FB6F894DEBF0FBECD
:1037D000CDBFDF91CF911F910F91FF90EF90DF90C0
:1037E000CF90BF90AF909F908F907F906F905F90A1
:1037F0004F903F902F9008956F927F928F929F925B
:10380000AF92BF92CF92DF92EF92FF920F931F93EE
:10381000CF93DF93CDB7DEB727970FB6F894DEBF0F
:103820000FBECDBF3C018B017A0168EF73E0CE0182
:1038300001960E943818B801CE0101960E94E51841
:103840006AEF73E0CE0101960E94E518B701CE0140
:1038500001960E94E5184D815E8169817A818824F4
:103860008394912CCE0107965C01C12CD12CE12CC4
:10387000F12C00E010E020E030E0C3010E947E1A4D
:10388000CE0101960E94CA1727960FB6F894DEBFA4
:103890000FBECDBFDF91CF911F910F91FF90EF90A1
:1038A000DF90CF90BF90AF909F908F907F906F9060
:1038B00008953F924F925F926F927F928F929F9264
:1038C000AF92BF92CF92DF92EF92FF920F931F932E
:1038D000CF93DF93CDB7DEB72E970FB6F894DEBF48
:1038E0000FBECDBF3C01DC0117968C91179781115B
:1038F000CFC081E017968C93C3010E94621A68EED4
:1039000073E080E090E00E94CD1FF30185819681F5
:10391000DC01ED91FC910480F581E02D09951816EC
:10392000190654F355E0552E4424439462E3362E91
:10393000E4E1F1E0DE011696852D01900D928A9565
:10394000E1F7F3014086812C912CA12CB12CC12CE4
:10395000D12CE12CF12C00E010E020E030E045E03B
:1039600050E0BE016A5F7F4FC3010E947E1A63E090
:10397000D30115968D919C9116970E942A126AEF99
:1039800070E080E090E00E94CD1F6EE771E0F301EF
:10399000858196810E94F5116AEF70E080E090E0E9
:1039A0000E94CD1F6CE771E0D30115968D919C911B
:1039B00016970E94F51164EF71E080E090E00E949C
:1039C000CD1F60E771E0F301858196810E94F511BA
:1039D00064EF71E080E090E00E94CD1FC3010E947F
:1039E000621AE9E1F1E0DE011196852D01900D9258
:1039F0008A95E1F7D30118963C9244E0842E912CED
:103A0000FE013B965F0120E030E045E050E0BE0162
:103A10006F5F7F4FC3010E947E1A8F3FFFEF9F07AA
:103A200039F468EE73E080E090E00E94CD1F80CF13
:103A30002B852111FFCF049711F52C8530E0205301
:103A4000310944E6429FC001439F900D11242D850A
:103A500030E0205331096AE0629FA001639F500D5E
:103A60001124840F951F2E8530E020533109820FD9
:103A7000931FD30112969C938E93119705C084E6F1
:103A800090E0F3019283818382E3D30118968C93B3
:103A90002E960FB6F894DEBF0FBECDBFDF91CF914B
:103AA0001F910F91FF90EF90DF90CF90BF90AF905C
:103AB0009F908F907F906F905F904F903F90089570
:103AC0001092020583E295E0909308058093070524
:103AD0001092090510920A0590930C0580930B052E
:103AE000089508958F929F92AF92BF92CF92DF92E6
:103AF000EF92FF920F931F9348015901C12CD12CD3
:103B0000E12CF12C00E010E020E030E00E947E1A71
:103B10001F910F91FF90EF90DF90CF90BF90AF90EB
:103B20009F908F9008950F931F93CF93DF9300D0B2
:103B30001F92CDB7DEB729E42983FC0126852A83AD
:103B40006B8300E010E020E030E043E050E0BE0195
:103B50006F5F7F4F848595850E94721D81E090E0A4
:103B60000F900F900F90DF91CF911F910F910895BB
:103B7000EF92FF920F931F93CF93DF9300D01F928A
:103B8000CDB7DEB77C01FC018389811117C0148A8F
:103B90008FE4898386858A8380E48B8397012B5EFB
:103BA0003F4F00E410E043E050E0BE016F5F7F4F05
:103BB000848595850E94721DF701838B0F900F906D
:103BC0000F90DF91CF911F910F91FF90EF9008958B
:103BD000CF93DF93EC010E94B81D8B8990E0DF91B9
:103BE000CF910895CF93DF93EC010E94B81D8B898C
:103BF000882359F081508B8B8C8991E0980F9C8B96
:103C0000C80FD11D8D8990E002C08FEF9FEFDF912B
:103C1000CF910895CF93DF93EC010E94B81D8B895B
:103C2000882331F08C89C80FD11D8D8990E002C0A6
:103C30008FEF9FEFDF91CF9108950F931F93CF9355
:103C4000DF93EC018B016AEF73E0888999890E9408
:103C5000E518B80188899989DF91CF911F910F915B
:103C60000C94DE186F927F928F929F92AF92BF92C8
:103C7000CF92DF92EF92FF920F931F93CF93DF9338
:103C800000D01F92CDB7DEB73C0182E58B83D30114
:103C90005096ED91FC9151970481158120813181DD
:103CA00082E0882E912CFE0131965F01C12CD12C2F
:103CB000E12CF12C41E050E0BE016D5F7F4F1C967E
:103CC0008D919C911D970E947E1A8A8190E0D3016C
:103CD0001F969C938E931E9750960D911C91519711
:103CE0000115110531F0C8010E94CA17C8010E94D0
:103CF000521FF301118A108A8981811102C081E06B
:103D0000828B0F900F900F90DF91CF911F910F91A9
:103D1000FF90EF90DF90CF90BF90AF909F908F90EB
:103D20007F906F9008950F931F93CF93DF9300D0F0
:103D30001F92CDB7DEB722E72983FC0126852A83AF
:103D400001E010E09E012D5F3F4F42E050E0BE01D8
:103D50006F5F7F4F848595850E94721D81E09B81F6
:103D6000913009F080E00F900F900F90DF91CF918C
:103D70001F910F9108950F931F93CF93DF9300D05E
:103D800000D0CDB7DEB727E52B83FC0126852C8339
:103D900002E010E09E012F5F3F4F42E050E0BE0185
:103DA0006D5F7F4F848595850E94721D898190E0AB
:103DB000982F88272A81820F911D0F900F900F90C6
:103DC0000F90DF91CF911F910F910895CF93DF93C3
:103DD000EC010E94321ECE010E94931E882339F00E
:103DE00064E670E080E090E00E94CD1FF4CFCE0149
:103DF000DF91CF910C94BB1EEF92FF920F931F9314
:103E0000CF93DF9300D0CDB7DEB77C01FC01828970
:103E1000882389F087E7898386858A8300E010E01C
:103E200020E030E042E050E0BE016F5F7F4F8485CC
:103E300095850E94721DF701128A0F900F90DF91F5
:103E4000CF911F910F91FF90EF9008952CE034E0F7
:103E5000FC01318320830C94FC1EEF92FF920F93A0
:103E60001F93CF93DF9300D0CDB7DEB77C0169837A
:103E70007A830E94FC1E86E090E00E94501F8C0115
:103E800069817A810E946518F701118B008B0F9070
:103E90000F90DF91CF911F910F91FF90EF900895B8
:103EA0000C94CD230C9465241F920F920FB60F92A1
:103EB00011242F933F938F939F93AF93BF93809140
:103EC0000E0590910F05A0911005B091110530914C
:103ED0000D0523E0230F2D3720F40196A11DB11D00
:103EE00005C026E8230F0296A11DB11D20930D05E4
:103EF00080930E0590930F05A0931005B0931105C4
:103F00008091120590911305A0911405B0911505AB
:103F10000196A11DB11D8093120590931305A093E6
:103F20001405B0931505BF91AF919F918F913F916B
:103F30002F910F900FBE0F901F9018952FB7F894E8
:103F400060910E0570910F058091100590911105FB
:103F50002FBF08953FB7F8948091120590911305F3
:103F6000A0911405B091150526B5A89B05C02F3F5B
:103F700019F00196A11DB11D3FBF6627782F892F2B
:103F80009A2F620F711D811D911D42E0660F771FF0
:103F9000881F991F4A95D1F70895CF92DF92EF922B
:103FA000FF92CF93DF936B017C010E94AA1FEB016C
:103FB000C114D104E104F10489F00E9476230E9427
:103FC000AA1F6C1B7D0B683E734090F381E0C81AFA
:103FD000D108E108F108C851DC4FEACFDF91CF9159
:103FE000FF90EF90DF90CF900895789484B5826031
:103FF00084BD84B5816084BD85B5826085BD85B58D
:10400000816085BDEEE6F0E0808181608083E1E83B
:10401000F0E0108280818260808380818160808373
:10402000E0E8F0E0808181608083E1E9F0E0808178
:1040300082608083808181608083E0E9F0E080811C
:1040400081608083E1ECF0E0808184608083808106
:1040500082608083808181608083E3ECF0E08081F6
:1040600081608083E0ECF0E0808182608083E2EC1C
:10407000F0E0808181608083EAE7F0E08081846005
:104080008083808182608083808181608083808161
:104090008068808308951F93CF93DF93182FEB01DF
:1040A00061E00E941F21209711F460E004C0CF3F1F
:1040B000D10539F461E0812FDF91CF911F910C94EC
:1040C0005821E12FF0E0E058FE4F449150E0FA0112
:1040D0003197EF30F10508F06CC0EA5AFF4F0C94AD
:1040E000AD2384B5806884BDC7BD68C084B58062D7
:1040F00084BDC8BD63C080918000806880938000CB
:10410000D0938900C093880059C08091800080625C
:1041100080938000D0938B00C0938A004FC0809121
:104120008000886080938000D0938D00C0938C00C5
:1041300045C080919000806880939000D093990052
:10414000C09398003BC08091900080628093900063
:10415000D0939B00C0939A0031C0809190008860FA
:1041600080939000D0939D00C0939C0027C08091C5
:10417000C00080688093C0008091C0008F7B8093D6
:10418000C000C093CF001AC08091C00080628093AD
:10419000C000C093D00012C08091C200886080939C
:1041A000C2008091C2008B7F8093C200C093D20076
:1041B00005C0C038D1050CF07DCF77CFDF91CF910E
:1041C0001F91089590E0FC013197EF30F105B0F5B3
:1041D000EB59FF4F0C94AD23809180008F7703C083
:1041E000809180008F7D8093800008958091800071
:1041F000877FF9CF84B58F7702C084B58F7D84BD6A
:104200000895809190008F7707C0809190008F7DF6
:1042100003C080919000877F8093900008958091E3
:10422000C0008F7703C08091C0008F7D8093C00055
:1042300008958091C200877F8093C2000895CF9334
:10424000DF9390E0FC01E256FE4F2491FC01E45420
:10425000FE4F8491882349F190E0880F991FFC015B
:10426000E851FE4FA591B49186529E4FFC01C59135
:10427000D4919FB7611108C0F8948C912095822346
:104280008C93888182230AC0623051F4F8948C9117
:10429000322F309583238C938881822B888304C0AE
:1042A000F8948C91822B8C939FBFDF91CF910895CE
:1042B0000F931F93CF93DF931F92CDB7DEB7282FB5
:1042C00030E0F901E058FE4F8491F901E256FE4FCB
:1042D0001491F901E454FE4F04910023C9F088239E
:1042E00021F069830E94E2206981E02FF0E0EE0F67
:1042F000FF1FE652FE4FA591B4919FB7F8948C91A1
:10430000611103C01095812301C0812B8C939FBF45
:104310000F90DF91CF911F910F910895FF920F930E
:104320001F93CF93DF93EC01F62EE881F98104808F
:10433000F581E02D09958C01E881F9810680F781EE
:10434000E02D6F2DCE010995C8019927DF91CF91FE
:104350001F910F91FF900895FC0120812F5F208312
:1043600049E150E066E772E080E80C94C31545E649
:1043700050E06FE872E080E80C94C315EF92FF9272
:104380000F931F93CF93DF931F92CDB7DEB789832F
:104390008B017A0141E050E0BE016F5F7F4F84E006
:1043A0000E942815A701B80184E40E9428150F90E7
:1043B000DF91CF911F910F91FF90EF900895FC0135
:1043C00091818081813A31F481E0913091F0933094
:1043D00089F411C0813271F49B3021F48281809381
:1043E000130105C09A3031F482818093120181E07B
:1043F0000895089580E0089548E050E082E00C942C
:10440000BE21CF93DF93DC01683818F0E8E7E60FB0
:1044100025C0E62FF0E067FF11C0E058F10981E008
:1044200090E001C0880FEA95EAF714969C911497E2
:10443000982B14969C931497E0E010C0EA50FE4F1E
:10444000E491EE2309F440C0E7FF08C014968C9174
:104450001497826014968C931497EF7716968C912C
:1044600016978E1741F117968C9117978E1719F1A1
:1044700018968C9118978E17F1F019968C911997C0
:104480008E17C9F01A968C911A978E17A1F01B9669
:104490008C911B978E1779F080E090E0ED01C80FAA
:1044A000D91F2E81211102C0EE8305C001968630EE
:1044B0009105A1F709C0BD016C5F7F4FCD010E943E
:1044C000FC2181E090E008C081E090E013969C938D
:1044D0008E93129780E090E0DF91CF910895683835
:1044E00018F0E8E7E60F25C0E62FF0E067FF12C0FE
:1044F000E058F10921E030E001C0220FEA95EAF727
:104500002095DC0114963C911497322314963C9329
:10451000E0E00FC0EA50FE4FE491EE2329F1E7FFFF
:1045200008C0DC0114962C9114972D7F14962C93BF
:10453000EF7720E030E0EE2351F0DC01A20FB31F53
:1045400016964C9116974E1302C016961C922F5F2A
:104550003F4F2630310579F7BC016C5F7F4F0E94D9
:10456000FC2181E090E0089580E090E00895FC0156
:104570001682178210861186128613861482BC0159
:104580006C5F7F4F0C94FC2110922205109219054C
:10459000109218058CE194E090931705809316050E
:1045A00008951F920F920FB60F9211242F938F939D
:1045B0009F93EF93FF93E0913305F0913405808151
:1045C000E0913905F0913A0582FD12C09081809109
:1045D0003C058F5F8F7320913D05821751F0E0916C
:1045E0003C05F0E0ED5DFA4F958F80933C0501C0EE
:1045F0008081FF91EF919F918F912F910F900FBE2E
:104600000F901F9018951F920F920FB60F921124C2
:104610002F933F934F935F936F937F938F939F93CA
:10462000AF93BF93EF93FF9383E295E00E94AD10A9
:10463000FF91EF91BF91AF919F918F917F916F917A
:104640005F914F913F912F910F900FBE0F901F9050
:10465000189583E295E00E94721021E0892B09F4FD
:1046600020E0822F0895109226051092250588EEED
:1046700093E0A0E0B0E08093270590932805A093F5
:104680002905B0932A058BED93E090932405809340
:1046900023058DEC90E09093300580932F058CECF2
:1046A00090E0909332058093310588EC90E09093F0
:1046B00034058093330589EC90E090933605809320
:1046C00035058AEC90E090933805809337058EECA1
:1046D00090E090933A058093390510923C05109232
:1046E0003D0510923E0510923F0508950895AA1BBE
:1046F000BB1B51E107C0AA1FBB1FA617B70710F0CD
:10470000A61BB70B881F991F5A95A9F780959095FE
:10471000BC01CD010895A1E21A2EAA1BBB1BFD010D
:104720000DC0AA1FBB1FEE1FFF1FA217B307E40790
:10473000F50720F0A21BB30BE40BF50B661F771FE8
:10474000881F991F1A9469F76095709580959095C8
:104750009B01AC01BD01CF010895EE0FFF1F059035
:10476000F491E02D09940E94BE23A59F900DB49F63
:10477000900DA49F800D911D11240895A29FB0015A
:10478000B39FC001A39F700D811D1124911DB29F85
:10479000700D811D1124911D0895CF93DF938230F8
:1047A000910510F482E090E0E091C205F091C3051C
:1047B00020E030E0A0E0B0E0309739F14081518155
:1047C00048175907B8F04817590771F48281938147
:1047D000109729F013969C938E9312972CC0909368
:1047E000C3058093C20527C02115310531F042175A
:1047F000530718F0A901DB0101C0EF019A01BD01C7
:10480000DF010280F381E02DD7CF21153105F9F0CA
:10481000281B390B2430310580F48A819B81611576
:10482000710521F0FB019383828304C09093C3053B
:104830008093C205FE01329644C0FE01E20FF31FD1
:104840008193919322503109398328833AC0209172
:10485000C0053091C105232B41F420910201309114
:1048600003013093C1052093C005209100013091D0
:1048700001012115310541F42DB73EB740910401E6
:1048800050910501241B350BE091C005F091C10545
:10489000E217F307A0F42E1B3F0B2817390778F017
:1048A000AC014E5F5F4F2417350748F04E0F5F1F76
:1048B0005093C1054093C0058193919302C0E0E0FD
:1048C000F0E0CF01DF91CF910895CF93DF93009770
:1048D00009F487C0FC01329713821282C091C2058D
:1048E000D091C305209781F420813181280F391F91
:1048F0008091C0059091C1058217930779F5F093D7
:10490000C105E093C0056DC0DE0120E030E0AE17C8
:10491000BF0750F412964D915C9113979D0141157C
:10492000510509F1DA01F3CFB383A28340815181AC
:10493000840F951F8A179B0771F48D919C91119795
:10494000840F951F02969183808312968D919C917E
:104950001397938382832115310529F4F093C305BE
:10496000E093C2053EC0D9011396FC93EE931297D3
:104970004D915D91A40FB51FEA17FB0779F4808173
:104980009181840F951F0296D90111969C938E9365
:104990008281938113969C938E931297E0E0F0E0CE
:1049A0008A819B81009719F0FE01EC01F9CFCE01BD
:1049B000029628813981820F931F2091C005309182
:1049C000C1052817390769F4309729F41092C305F7
:1049D0001092C20502C013821282D093C105C09307
:1049E000C005DF91CF910895A0E0B0E0EAEFF4E2D6
:1049F0000C94AF26EC01CB01209719F40E94CD2333
:104A0000B8C0FE01E60FF71F9E0122503109E217E0
:104A1000F30708F4ACC0D9010D911C91119706174A
:104A20001707B8F00530110508F49FC0A8014450DD
:104A300051094617570708F498C002501109061B80
:104A4000170B019311936D937C93CF010E94652402
:104A50008CC05B01A01AB10A4E01800E911EA0917C
:104A6000C205B091C305612C712C60E070E0109715
:104A700009F449C0A815B905C9F5ED90FC90119746
:104A8000670142E0C40ED11CCA14DB0478F147016F
:104A90008A189B08640142E0C40ED11C1296BC9097
:104AA00012971396AC91B5E0CB16D10440F0B282C8
:104AB000A38391828082D9018D939C9309C00E5F5C
:104AC0001F4F0E0D1F1DF90111830083EB2DFA2FCF
:104AD0006115710531F0DB011396FC93EE9312978B
:104AE00044C0F093C305E093C2053FC06D917C9133
:104AF00011976616770608F43B01BD0112960D90DA
:104B0000BC91A02DB4CF6091C0057091C10568150E
:104B10007905E9F468167906D0F4409100015091C6
:104B200001014115510541F44DB75EB76091040193
:104B300070910501461B570BE417F507C0F4F0937D
:104B4000C105E093C005F901918380830EC00E94E6
:104B5000CD237C01009759F0A801BE010E94E525F4
:104B6000CE010E946524C70104C0CE0102C080E0CE
:104B700090E0CDB7DEB7EEE00C94CB261F93FC019E
:104B800099278827BC01E89411911032E9F3193074
:104B900010F01E30C8F31B3251F01D3249F46894F6
:104BA00006C00E945626610F711D811D911D119135
:104BB00010531A30B0F33EF490958095709561953E
:104BC0007F4F8F4F9F4F1F910895FB01DC0102C063
:104BD00001900D9241505040D8F70895FC01819109
:104BE000861721F08823D9F7992708953197CF01A7
:104BF0000895FB01DC018D91019080190110D9F31A
:104C0000990B0895FB01DC0101900D920020E1F762
:104C10000895FB01DC014150504030F08D9101902E
:104C2000801919F40020B9F7881B990B0895FB012E
:104C3000DC014150504048F001900D920020C9F72E
:104C400001C01D9241505040E0F70895FB01519181
:104C50005523A9F0BF01DC014D9145174111E1F742
:104C600059F4CD010190002049F04D9140154111BA
:104C7000C9F3FB014111EFCF81E090E00197089566
:104C80004532510520F4423010F00C944B26FB01C4
:104C90001082CB010895BB274A3031F4992322F4C6
:104CA000BDE2909581959F4F0C946C26592F482F0B
:104CB000372F262F660F771F881F991F660F771FC4
:104CC000881F991F620F731F841F951F660F771F20
:104CD000881F991F0895BB27FB015527AA27880F16
:104CE000991FAA1FA41710F0A41B83955051B9F760
:104CF000A05DAA3308F0A95DA193009779F7B111DF
:104D0000B1931192CB010C949B26F999FECF92BDE1
:104D100081BDF89A992780B50895262FF999FECF7D
:104D20001FBA92BD81BD20BD0FB6F894FA9AF99AC8
:104D30000FBE01960895DC01FC01672F7191772366
:104D4000E1F7329704C07C916D9370836291AE1746
:104D5000BF07C8F308952F923F924F925F926F92D0
:104D60007F928F929F92AF92BF92CF92DF92EF92FB
:104D7000FF920F931F93CF93DF93CDB7DEB7CA1B7C
:104D8000DB0B0FB6F894DEBF0FBECDBF09942A88A7
:104D9000398848885F846E847D848C849B84AA844F
:104DA000B984C884DF80EE80FD800C811B81AA81DC
:104DB000B981CE0FD11D0FB6F894DEBF0FBECDBFA7
:104DC000ED01089513E0CEEFD2E004C0FE010E9491
:0E4DD000AF232296C030D107C9F7F894FFCF69
:104DDE000000C405800005000D0000E10000000089
:104DEE0000000101585858585858583130304578FD
:104DFE00656375746520474554206F6E3A200063D5
:104E0E0075726C002D4C002D6B004355524C206575
:104E1E0072726F723A200045786563757465205022
:104E2E005554206F6E3A20002C20776974682064E8
:104E3E006174613A20002D480022436F6E74656ED6
:104E4E00742D547970653A206170706C6963617469
:104E5E00696F6E2F6A736F6E22002D580050555475
:104E6E00002D64004578656375746520504F53546A
:104E7E00206F6E3A2000504F535400444D50202D59
:104E8E002000545243202D2000444247202D200064
:104E9E00494E46202D2000455252202D20004641DD
:104EAE00494C21202D20006572726F72007479704A
:104EBE0065006465736372697074696F6E007375F3
:104ECE00636365737300757365726E616D65004E15
:104EDE00657720757365724E616D653A2000457277
:104EEE00726F7220636F64653A2000687474703A52
:104EFE002F2F002F6170692F00687474703A2F2F56
:104F0E007777772E6D6565746875652E636F6D2F77
:104F1E006170692F6E75706E7000487565524C0029
:104F2E002F6C69676874732F002F73746174652F0B
:104F3E0000747275650066616C736500726F6F74D4
:104F4E00007D7D7D007374617465007265616368B8
:104F5E0061626C65006C6967687400417661696CAA
:104F6E0061626C65006E724F664C6967687473009F
:104F7E0054797065004E616D65007B2264657669BB
:104F8E00636574797065223A2241726475696E6F39
:104F9E002342616279487565227D004E6F20287626
:104FAE00616C69642920757365722C207365747445
:104FBE00696E672075702061206E6577206F6E6553
:104FCE0000526563656976656420757365723A2073
:104FDE000031007B22616C657274223A2273656C1B
:104FEE00656374227D007B22616C657274223A22A5
:104FFE006C73656C656374227D00456E61626C69CD
:10500E006E6720616C6572740044697361626C69CD
:10501E006E6720616C657274007B22616C657274C0
:10502E00223A226E6F6E65227D005573696E67207F
:10503E00487565206F6E3A20005573696E6720754E
:10504E007365726E616D653A20004D616E697075A3
:10505E006C6174696E67206C6967687473206E6F1B
:10506E007700436F6C6F72204C69676874005374DD
:10507E0061727465640042726964676520696E6965
:10508E00740053657269616C20696E6974004875AD
:10509E006520696E69740000000000830FCA0FADB1
:1050AE000FBD0F990FAA0F00000000F010B711727C
:1050BE00108B107D10CE100D0A006E616E00696EA1
:1050CE0066006F7666002E004400FE002F62696E49
:1050DE002F617368002D630000000000931DB7114F
:1050EE00E81DF21D0A1E711D000000008E21B71171
:0650FE0001226F22B7221F
:00000001FF
