:100000000C9481010C94A9010C94A9010C94A901F0
:100010000C94A9010C94A9010C94A9010C94A901B8
:100020000C94A9010C94A9010C94EE0F0C94BA0E37
:100030000C94A9010C94A9010C94A9010C94A90198
:100040000C94A9010C94A9010C94A9010C94A90188
:100050000C94A9010C94A9010C94A9010C941819F1
:100060000C94A9010C94951C0C94C71C0C94A90128
:100070000C94A9010C94A9010C94A9010C94A90158
:100080000C94A9010C94A9010C94A9010C94A90148
:100090000C94A9010C94A9010C94A9010C94A90138
:1000A0000C94A9010C94A9010C94A901351A3A1ACF
:1000B0003F1A491A531A9D1A9D1A9D1A5D1A671AFA
:1000C000711A7B1A881A9D1A901ABE1AC11AB01A90
:1000D000B41ABA1AE21AE21AE21AC51AC91ACD1AE1
:1000E000D31AD71AE21ADD1A080B00020202010025
:1000F000090400000102020000052400100105248B
:1001000001010104240206052406000107058103FC
:1001100010004009040100020A0000000705020265
:100120004000000705830240000000C18081C11229
:100130000100020200004041234180000101020051
:100140000112010002000000404123418000010132
:1001500002000141726475696E6F204C4C4300557A
:10016000534220494F20426F617264000403090426
:1001700072756E2D6272696467650A000A000A0072
:100180000000000200090F0000030401000C000041
:100190000000000000000000000000000000040853
:1001A000020110408040102040804080080204017D
:1001B00080402010020110801020404004040404FC
:1001C00004030405020202020403020202020606FC
:1001D00006060606040402020204000000002500D0
:1001E00028002B002E003100000000002400270012
:1001F0002A002D00300000000000000000002A2B23
:1002000028000000000000000000000000000000C6
:100210000000000000002C9EB4A0A1A2A434A6A758
:10022000A5AE362D3738271E1F2021222324252650
:10023000B333B62EB7B89F8485868788898A8B8C1E
:100240008D8E8F909192939495969798999A9B9C66
:100250009D2F3130A3AD350405060708090A0B0CA4
:100260000D0E0F101112131415161718191A1B1C46
:100270001DAFB1B0B5000904020001030000000980
:1002800021010100012265000705840340000105EA
:10029000010902A1010901A100850105091901292E
:1002A00003150025019503750181029501750581EE
:1002B0000305010930093109381581257F75089535
:1002C000038106C0C005010906A1018502050719C1
:1002D000E029E71500250175019508810295017552
:1002E000088103950675081500256505071900297D
:1002F000658100C0C4054508430908150E17881C10
:10030000F71C11241FBECFEFDAE0DEBFCDBF14E033
:10031000A0E0B1E0E8E4F6E402C005900D92A2315D
:10032000B107D9F725E0A2E1B4E001C01D92A134E4
:10033000B207E1F712E0C2E0D3E004C02297FE0169
:100340000E94A21DC43FD107C9F70E9432080C9435
:1003500022230C94000008950895CF93DF93EC01BD
:10036000FB014281538122E068E874E00E9401179A
:10037000CE01DF91CF9108950F931F93CF93DF9319
:10038000CDB7DEB7CA55D1090FB6F894DEBF0FBEA0
:10039000CDBF8B01BC01CE0101960E94AD01CE0103
:1003A00001960E944016882359F0B801CE010196AB
:1003B0000E94160B8C01CE0101960E94BB1602C052
:1003C00000E010E0CE0101960E94EE16C801C65A68
:1003D000DF4F0FB6F894DEBF0FBECDBFDF91CF91D8
:1003E0001F910F9108950F931F93CF93DF93CDB774
:1003F000DEB7CA55D1090FB6F894DEBF0FBECDBF28
:10040000162FBC01CE0101960E94AD01CE010196CE
:100410000E944016882359F0612FCE0101960E9458
:10042000180B8C01CE0101960E94BB1602C000E0A1
:1004300010E0CE0101960E94EE16C801C65ADF4FA9
:100440000FB6F894DEBF0FBECDBFDF91CF911F91E5
:100450000F9108950F931F93CF93DF93CDB7DEB71E
:10046000CA55D1090FB6F894DEBF0FBECDBF8B01C0
:10047000BC01CE0101960E94AD01CE0101960E9401
:100480004016882399F0B801CE0101960E94160B00
:100490008C016EE171E0CE0101960E94160B080FEF
:1004A000191FCE0101960E94BB1602C000E010E0A9
:1004B000CE0101960E94EE16C801C65ADF4F0FB654
:1004C000F894DEBF0FBECDBFDF91CF911F910F918A
:1004D00008950F931F93CF93DF93CDB7DEB7CA551F
:1004E000D1090FB6F894DEBF0FBECDBF8B01BC01A2
:1004F000CE0101960E94AD01CE0101960E944016E8
:10050000882399F0B801CE0101960E94080B8C0156
:100510006EE171E0CE0101960E94160B080F191FC3
:10052000CE0101960E94BB1602C000E010E0CE0191
:1005300001960E94EE16C801C65ADF4F0FB6F89416
:10054000DEBF0FBECDBFDF91CF911F910F910895F8
:100550000F931F93CF93DF93CDB7DEB7CB55D10960
:100560000FB6F894DEBF0FBECDBF8B0140E050E068
:1005700061E371E083E194E00E94A6051C821B8286
:1005800088EE93E0A0E0B0E08D839E83AF83B887D0
:1005900088EF93E09A8389838DE794E09E878D8727
:1005A0001B8A1C8A1D8A67E471E0CE018A5A9F4F1C
:1005B0000E941711BE016A5A7F4FCE0101960E9418
:1005C0009A18CE018A5A9F4F0E94A910CE01019617
:1005D0000E94B517CE0101960E941618882369F073
:1005E0000115110519F0F8010995F4CF64E670E0E2
:1005F00080E090E00E949119EDCFCE0101960E941B
:100600001517CE0101960E946918CE0101960E942D
:100610009318C55ADF4F0FB6F894DEBF0FBECDBF9B
:10062000DF91CF911F910F910895CF93DF93CDB7B5
:10063000DEB7CB55D1090FB6F894DEBF0FBECDBFE4
:1006400040E050E067E671E083E194E00E94A60597
:100650001C821B8288EE93E0A0E0B0E08D839E8335
:10066000AF83B88788EF93E09A8389838DE794E01E
:100670009E878D871B8A1C8A1D8A6CE771E0CE01DC
:100680008A5A9F4F0E941711BE016A5A7F4FCE01AE
:1006900001960E949A18CE018A5A9F4F0E94A91073
:1006A000CE0101960E94B517CE0101960E94161840
:1006B000882339F064E670E080E090E00E949119B0
:1006C000F3CFCE0101960E941517CE0101960E942C
:1006D0006918CE0101960E949318C55ADF4F0FB6D4
:1006E000F894DEBF0FBECDBFDF91CF9108957F920A
:1006F0008F929F92AF92BF92CF92DF92EF92FF9232
:100700000F931F93CF93DF93CDB7DEB7C15AD109B3
:100710000FB6F894DEBF0FBECDBF962E5A01822EC3
:10072000732E662319F089EE91E002C08EEE91E0FF
:10073000FF92EF927F928F921F930F93BF92AF928F
:100740009F938F9384EF91E09F938F936E0186E543
:10075000C80ED11CDF92CF920E94412040E050E0B1
:10076000B60183E194E00E94A6051C821B8288EEFC
:1007700093E0A0E0B0E08D839E83AF83B88788EFDD
:1007800093E09A8389838DE794E09E878D871B8A07
:100790001C8A1D8A6DE272E0CE0184569F4F0E9432
:1007A0001711BE0164567F4FCE0101960E949A1820
:1007B000CE0184569F4F0E94A9100FB6F894DEBF59
:1007C0000FBECDBF992019F069EE71E002C06EEE48
:1007D00071E0CE0184569F4F0E941711BE016456EE
:1007E0007F4FCE0101960E94A017CE0184569F4FE5
:1007F0000E94A9104AE0B501CE0184569F4F0E9485
:100800006511BE0164567F4FCE0101960E94A0176C
:10081000CE0184569F4F0E94A9102AE0A801682D9E
:10082000772DCE0184569F4F0E949111BE016456D0
:100830007F4FCE0101960E94A017CE0184569F4F94
:100840000E94A9104AE0B701CE0184569F4F0E9432
:100850006511BE0164567F4FCE0101960E94A0171C
:10086000CE0184569F4F0E94A910CE0101960E948E
:10087000B517CE0101960E941618882339F064E658
:1008800070E080E090E00E949119F3CFCE010196D4
:100890000E941517CE0101960E946918CE0101969B
:1008A0000E949318CF55DF4F0FB6F894DEBF0FBEEE
:1008B000CDBFDF91CF911F910F91FF90EF90DF900F
:1008C000CF90BF90AF909F908F907F9008950F939F
:1008D0001F93CF93DF93CDB7DEB7CB55D1090FB6BA
:1008E000F894DEBF0FBECDBF8B0140E050E065E560
:1008F00072E083E194E00E94B3051C821B8288EEC3
:1009000093E0A0E0B0E08D839E83AF83B88788EF4B
:1009100093E09A8389838DE794E09E878D871B8A75
:100920001C8A1D8A6FE672E0CE018A5A9F4F0E9490
:100930001711BE016A5A7F4FCE0101960E949A1884
:10094000CE018A5A9F4F0E94A910CE0101960E94A3
:10095000B517CE0101960E941618882369F001157B
:10096000110519F0F8010995F4CF64E670E080E014
:1009700090E00E949119EDCFCE0101960E941517CB
:10098000CE0101960E946918CE0101960E9493182B
:10099000C55ADF4F0FB6F894DEBF0FBECDBFDF9153
:1009A000CF911F910F9108953F924F925F926F9256
:1009B0007F928F929F92AF92BF92CF92DF92EF92EF
:1009C000FF920F931F93CF93DF93EC018B01342E93
:1009D000290161E0842F0E94E31ACE01B2010E9436
:1009E0004B1D5B016801E12CF12CC0E0D0E08824B4
:1009F0009924801A910A662457FC6094762CAE14D0
:100A0000BF04DCF0BE01832D0E940F1ACC0DDD1D4A
:100A10001C161D063CF4CF3FD1053CF06401CFEF1E
:100A2000D0E003C06801C0E0D0E0C301B2010E9481
:100A300091198FEFE81AF80AE2CF60E070E0832D99
:100A4000DF91CF911F910F91FF90EF90DF90CF90AA
:100A5000BF90AF909F908F907F906F905F904F90DE
:100A60003F900C940F1A262FBC01822F0C940F1A62
:100A7000FC01728361830895AF92BF92CF92DF929F
:100A8000EF92FF920F931F93CF93DF93EC015B01E3
:100A90006A0179018B819C81009709F44CC0DC01CB
:100AA000ED91FC910284F385E02D099589819A816D
:100AB0008A159B050CF43FC08B819C81DC01ED9174
:100AC000FC910190F081E02DB60109958B819C810C
:100AD000DC01ED91FC910190F081E02DB7010995C9
:100AE0000115110551F08B819C81DC01ED91FC9188
:100AF0000190F081E02DB80109958B819C81DC018A
:100B0000ED91FC910480F581E02D60E271E00995A2
:100B10008B819C81DC01ED91FC910084F185E02DBD
:100B2000DF91CF911F910F91FF90EF90DF90CF90C9
:100B3000BF90AF900994DF91CF911F910F91FF90DB
:100B4000EF90DF90CF90BF90AF9008950F931F93D9
:100B50009B018A0144EA52E065E070E00E943C0596
:100B60001F910F9108950F931F939B018A014BEAE8
:100B700052E064E070E00E943C051F910F910895DF
:100B8000FC0174836383089581E08093130484E0FF
:100B900090E090931504809314040895909132048A
:100BA00080913304981739F06AE070E080E090E0BB
:100BB0000E949119F3CF0895CF93DF9300D0CDB762
:100BC000DEB784E294E069837A830E943409698104
:100BD0007A81882341F084E294E00F900F90DF91B6
:100BE000CF910C94160B80E090E00F900F90DF9166
:100BF000CF910895CF93DF931F92CDB7DEB784E2F4
:100C000094E069830E9434096981882339F084E281
:100C100094E00F90DF91CF910C94180B80E090E05E
:100C20000F90DF91CF910895CF93DF9300D0CDB790
:100C3000DEB784E294E069837A830E943409698193
:100C40007A81882341F084E294E00F900F90DF9145
:100C5000CF910C94350B80E090E00F900F90DF91D6
:100C6000CF910895CF93DF9300D0CDB7DEB784E264
:100C700094E069837A830E94340969817A818823A8
:100C800041F084E294E00F900F90DF91CF910C94AB
:100C9000230B80E090E00F900F90DF91CF910895AB
:100CA000CF93C42F2DEC32E0FC0131832083AB01C4
:100CB000662757FD6095762F84E294E00E942E0906
:100CC000CC2369F084E294E00E943409811107C0CA
:100CD00064E670E080E090E00E949119F3CFCF913C
:100CE000089584E294E00E943409882321F084E28C
:100CF00094E00C94980808950F931F93CF93DF937B
:100D0000EC018B018A819B81DC01ED91FC910190CA
:100D1000F081E02D09958C819D81DC01ED91FC91A4
:100D20000190F081E02DB801DF91CF911F910F91DB
:100D300009941F93CF93DF93EC01162F8A819B8137
:100D4000DC01ED91FC910280F381E02D09958C810D
:100D50009D81DC01ED91FC910280F381E02D612FFA
:100D6000DF91CF911F9109940F931F93CF93DF933E
:100D7000EC018B018A819B81DC01ED91FC91048067
:100D8000F581E02D09958C819D81DC01ED91FC912F
:100D90000480F581E02DB801DF91CF911F910F9173
:100DA00009940F931F93CF93DF93EC018B018A81FA
:100DB0009B81DC01ED91FC910680F781E02D099586
:100DC0008C819D81DC01ED91FC910680F781E02D05
:100DD000B801DF91CF911F910F910994CF93DF93C9
:100DE000EC018A819B81DC01ED91FC910084F1850D
:100DF000E02D09958C819D81DC01ED91FC910084B1
:100E0000F185E02DDF91CF910994CF93DF93EC0131
:100E10008A819B81DC01ED91FC910284F385E02DB8
:100E200009958C819D81DC01ED91FC910284F38513
:100E3000E02DDF91CF91099424E130E04DE050E0C6
:100E40006AE070E080E197E20C94D40424E130E0A1
:100E50004DE050E06AE070E088E893E10C94D4043F
:100E6000089526E040E950ED63E070E0809186044B
:100E7000909187040E94430A8DE794E00E94011438
:100E800068E174E083E194E00E94C00565E070E0F1
:100E900083E194E00E94380540E050E069EE72E0A2
:100EA00083E194E00E94B30540E050E061EF72E01E
:100EB00083E194E00E94B3056CE177E082E194E085
:100EC0000E94A80240E050E06AEF72E083E194E003
:100ED0000E94B30566E277E082E194E00E94670435
:100EE00040E050E060E173E083E194E00E94B305EC
:100EF00060E070E082E194E00C9415033F924F9221
:100F00005F926F927F928F929F92AF92BF92CF9299
:100F1000DF92EF92FF920F931F93CF93DF93CDB7A2
:100F2000DEB7CB55D1090FB6F894DEBF0FBECDBFEB
:100F30001C821B8288EE93E0A0E0B0E08D839E834C
:100F4000AF83B88788EF93E09A8389838DE794E035
:100F50009E878D871B8A1C8A1D8A67E273E0CE01FB
:100F60008A5A9F4F0E941711BE016A5A7F4FCE01C5
:100F700001960E94FE18CE018A5A9F4F0E94A91026
:100F8000CE0101960E9416188111FACF33243A94AB
:100F9000CE0101960E946B17892B09F440C0CE0147
:100FA00001960E94BB0C2B013C016115710581F378
:100FB000882777FD8095982F1F921F921F923F924E
:100FC000A12CB12C65011BE4E12EF12C00E010E016
:100FD00028E230E040E050E00E9462104B015C01EA
:100FE0006DE070E0C4010E9433054AE050E0B201B8
:100FF00084E294E00E94EA0BC12CD12CEE24EA9406
:10100000FE2C0FEF1FEF9801A40161E082E194E054
:101010000E9477030F900F900F900F90B9CF68EE5A
:1010200073E080E090E00E949119CE0101960E9449
:101030009318C55ADF4F0FB6F894DEBF0FBECDBF71
:10104000DF91CF911F910F91FF90EF90DF90CF90A4
:10105000BF90AF909F908F907F906F905F904F90D8
:101060003F9008950E94B9190E94300784E794E0E8
:101070000E9444100E943107CDE8D9E00E947E070B
:101080002097E1F30E948D09F9CFCF93DF9340E0E1
:1010900060E875E282E294E00E945006CEE1D4E07E
:1010A00085E291E0998388838BE693E09093210415
:1010B0008093200488E894E00E94FF168DED92E072
:1010C0009093190480931804D0931B04C0931A04BE
:1010D00082E294E090931D0480931C04DF91CF91F1
:1010E0000895CF93DF931F92CDB7DEB76983DC01FC
:1010F000ED91FC910280F381E02D41E050E0BE01D2
:101100006F5F7F4F09950F90DF91CF910895CF9337
:10111000DF93EC018C859D8597FF05C082E00E94DE
:101120008F0D9D878C878C859D85DF91CF9108954C
:1011300083E00C94E40FFC018485958597FD06C03F
:1011400082E00E94370D90E00196089582E00E94AF
:10115000370D90E00895FC018485958597FD05C0C5
:101160002FEF3FEF35872487089582E00C948F0D91
:10117000CF93DF93EC0180911101882331F083E05C
:101180000E94C00D1816190634F081E090E09B8390
:101190008A8380E090E0DF91CF910895FC01208167
:1011A0002E5F208342E450E068EE70E080E80C940B
:1011B0005B0EFC0181819081913A59F4813209F0F2
:1011C0003CC047E050E06AE071E080E00E945B0EC6
:1011D00043C0913291F5803239F467E070E08AE0E3
:1011E00091E00E948C0E06C0823209F035C08281E7
:1011F0008093110180910A0190910B01A0910C0143
:10120000B0910D01803B9440A105B105C1F48091DE
:10121000110180FD14C087E797E790930108809340
:1012200000082BE088E190E00FB6F894A895809331
:1012300060000FBE209360000FC080E0089588E139
:101240000FB6F89480936000109260000FBEA895CE
:10125000109201081092000881E008952FEF3FEFEF
:10126000FC01358724870895CF93C09111016AE06E
:1012700070E080E090E00E94911981E0C11101C00E
:1012800080E0CF910895109227041092260488EEF2
:1012900093E0A0E0B0E08093280490932904A09309
:1012A0002A04B0932B0484E893E090932504809360
:1012B00024048FEF9FEF90933104809330040895BE
:1012C000FC01818D228D90E0805C9F4F821B9109F3
:1012D0008F7399270895FC01918D828D981731F0B5
:1012E000828DE80FF11D858D90E008958FEF9FEFBF
:1012F0000895FC01918D828D981761F0828DDF0138
:10130000A80FB11D5D968C91928D9F5F9F73928FF8
:1013100090E008958FEF9FEF08958DEE9CE1892B6B
:1013200049F080E090E0892B29F00E94ED1C8111AA
:101330000C9400000895FC01848DDF01A80FB11DFD
:10134000A35ABF4F2C91848D90E001968F739927FB
:10135000848FA689B7892C93A089B1898C918064E8
:101360008C93938D848D981306C00288F389E02DA9
:1013700080818F7D80830895CF93DF93EC01888DEA
:101380008823C9F0EA89FB89808185FD05C0A88989
:10139000B9898C9186FD0FC00FB607FCF5CF80810F
:1013A00085FFF2CFA889B9898C9185FFEDCFCE0159
:1013B0000E949B09E7CFDF91CF910895CF92DF92F2
:1013C000FF920F931F93CF93DF931F92CDB7DEB79A
:1013D0006C0181E0D60158968C9358975B969C914E
:1013E0005B975C968C915C97981307C05096ED9133
:1013F000FC915197808185FD2EC0F601038D10E090
:101400000F5F1F4F0F731127F02EF601848DF81216
:1014100011C00FB607FCF9CFD6015096ED91FC91A3
:101420005197808185FFF1CFC60169830E949B0996
:101430006981EBCF838DE80FF11DE35AFF4F608385
:10144000D6015B960C935B975296ED91FC91539766
:10145000808180620CC0D6015696ED91FC91579721
:1014600060835096ED91FC915197808180648083D8
:1014700081E090E00F90DF91CF911F910F91FF904D
:10148000DF90CF900895BF92CF92DF92EF92FF92BC
:10149000CF93DF93EC016A017B01B22EE889F989D1
:1014A00082E08083411581EE580761057105A1F046
:1014B00060E079E08DE390E0A70196010E945F1D56
:1014C000215031094109510956954795379527957E
:1014D000211580E1380798F0E889F989108260E8E1
:1014E00074E88EE190E0A70196010E945F1D2150F3
:1014F0003109410951095695479537952795EC854E
:10150000FD853083EE85FF852083188EEC89FD896B
:10151000B082EA89FB89808180618083EA89FB89C6
:10152000808188608083EA89FB89808180688083EC
:10153000EA89FB8980818F7D8083DF91CF91FF9045
:10154000EF90DF90CF90BF900895CF92DF92EF920F
:10155000FF920F931F93CF93DF936C017A01EB01FE
:10156000E60EF71E00E010E0CE15DF0561F0699190
:10157000D601ED91FC910190F081E02DC601099515
:10158000080F191FF1CFC801DF91CF911F910F9163
:10159000FF90EF90DF90CF9008956115710581F075
:1015A000DB010D900020E9F7AD0141505109461BC8
:1015B000570BDC01ED91FC910280F381E02D099441
:1015C00080E090E00895EF92FF920F931F93CF93E6
:1015D000DF938C01FB01C0E0D0E064917F018FEFCD
:1015E000E81AF80A662361F0D801ED91FC910190A8
:1015F000F081E02DC8010995C80FD91FF701EDCF83
:10160000CE01DF91CF911F910F91FF90EF90089540
:10161000DC01ED91FC91DB0114964D915C911597E5
:101620006D917C910280F381E02D09940C94CD0A98
:10163000DC01ED91FC910190F081E02D09946EE1C7
:1016400071E00C94CD0A0F931F93CF93DF93EC01BD
:101650000E94080B8C01CE010E941F0B800F911F6E
:10166000DF91CF911F910F9108950F931F93CF9307
:10167000DF93EC010E94CD0A8C01CE010E941F0B6A
:10168000800F911FDF91CF911F910F9108958F923D
:101690009F92AF92BF92CF92DF92EF92FF920F9301
:1016A0001F93CF93DF93CDB7DEB7A1970FB6F89412
:1016B000DEBF0FBECDBF7C01C42EE52FCB01D22EE5
:1016C00019A221E02D1510F02AE0D22E8E010F5D17
:1016D0001F4F8D2C912CA12CB12C6C2D7E2FA50190
:1016E00094010E945F1D8C2DD29E801911240150FF
:1016F00011098A3014F4805D01C0895CF80180838F
:10170000211531054105510521F0C22EE32FCA01F3
:10171000E4CFB801C7010E94CD0AA1960FB6F89494
:10172000DEBF0FBECDBFDF91CF911F910F91FF9014
:10173000EF90DF90CF90BF90AF909F908F900895E3
:10174000CF92DF92EF92FF920F931F93CF93DF938D
:10175000EC016A017B012115310579F4E881F981F9
:101760000190F081E02D642FDF91CF911F910F91B7
:10177000FF90EF90DF90CF9009942A303105E9F483
:1017800077FF1AC06DE20E94180B8C014427552781
:10179000BA014C195D096E097F092AE0CE010E9449
:1017A000470B800F911FDF91CF911F910F91FF90F9
:1017B000EF90DF90CF9008952AE0B701A601CE0107
:1017C000DF91CF911F910F91FF90EF90DF90CF901D
:1017D0000C94470B0F931F93CF93DF93EC019A0167
:1017E000AB01662757FD6095762F0E94A00B8C01F8
:1017F000CE010E941F0B800F911FDF91CF911F918F
:101800000F9108950F931F93CF93DF93EC010E94E4
:101810006219688779878A879B87E881F9810084C4
:10182000F185E02DCE01099597FF15C00E94621940
:10183000088519852A853B85601B710B820B930BEC
:101840000C811D812E813F816017710782079307EC
:1018500020F38FEF9FEFDF91CF911F910F910895AC
:10186000CF93DF93EC01CE010E94020C97FD11C0D3
:101870008D32910571F09C01205331092A303105D8
:1018800040F0E881F9810680F781E02DCE010995CD
:10189000EACFDF91CF910895CF92DF92FF920F931D
:1018A0001F93CF93DF9300D000D0CDB7DEB76C018C
:1018B000062F0E94300CFC0197FD4BC020E030E069
:1018C000A901F12C112707FD1095E017F107E9F0A8
:1018D000ED32F105C1F0CF01C0970A97B0F4AAE04C
:1018E000B0E00E94A61D9B01AC01CF01AA2797FD85
:1018F000A095BA2F280F391F4A1F5B1F20533109AB
:101900004109510902C0FF24F394D601ED91FC91E5
:101910000680F781E02DC60129833A834B835C83DF
:101920000995C6010E94020CFC01C09729813A81E9
:101930004B815C810A9748F2E017F10731F2FF20F2
:1019400061F066277727CB01621B730B840B950B25
:1019500006C060E070E0CB0102C0CA01B9010F907F
:101960000F900F900F90DF91CF911F910F91FF90EB
:10197000DF90CF90089561E00C944C0C4091780476
:1019800050917904209176043091770442175307DF
:10199000B4F49091E8009570E1F39091E80092FD25
:1019A00019C08093F1008091780490917904019698
:1019B0008F739927892B19F48EEF8093E80080911B
:1019C0007804909179040196909379048093780437
:1019D00081E0089580E00895CF92DF92FF920F9307
:1019E0001F93CF93DF931F92CDB7DEB7082F162F2B
:1019F000862F880F8E5F99830E94BE0C83E00E9421
:101A0000BE0CF02EC02E9981D92E8C2D8F198117E6
:101A100078F4F60184910E94BE0C082F80E00E94A9
:101A2000BE0C8023FFEFCF1ADF0A8111EECF01C079
:101A300081E00F90DF91CF911F910F91FF90DF9088
:101A4000CF900895615030F02091F100FC01208387
:101A50000196F8CF289884E680937B0408952FB7E9
:101A6000FC012083F89467706093E9000895CF9398
:101A7000DF931F92CDB7DEB7682FCE0101960E948B
:101A80002F0D8091F20099819FBF0F90DF91CF9130
:101A90000895FF920F931F93CF93DF9300D0CDB79C
:101AA000DEB7F62E8A0190917A04992311F057FF40
:101AB00003C08FEF9FEF2BC0682FCE0101967A8372
:101AC0000E942F0D8091F20090E0A8017A8180178A
:101AD00091070CF4AC01EF2DF72FF40E84E6FE16FF
:101AE00039F0289880937B049091F1009193F7CF7F
:101AF0004115510521F08091F200882321F0898160
:101B00008FBFCA0104C08BE68093E800F8CF0F9026
:101B10000F90DF91CF911F910F91FF900895CF9378
:101B2000DF931F92CDB7DEB741E050E0BE016F5F9B
:101B30007F4F0E94490D019719F4898190E002C0FE
:101B40008FEF9FEF0F90DF91CF910895CF93DF93A9
:101B50001F92CDB7DEB7682FCE0101960E942F0DE0
:101B60009091E800892F807295FF04C09091F20057
:101B700080E4891B99819FBF0F90DF91CF910895D9
:101B80006F927F928F929F92AF92BF92CF92DF928D
:101B9000EF92FF920F931F93CF93DF931F92CDB7D6
:101BA000DEB7782E7B01C42EB52E80917A0488236F
:101BB00069F0042F152F8AEFD82E872D8072982E6A
:101BC0009AE3A92E872D8074882E11C08FEF9FEF86
:101BD00057C0872D0E94A60D682E81110CC0DA9483
:101BE000A9F361E070E080E090E00E949119011596
:101BF000110579F73BC0282F30E0021713070CF4CA
:101C0000602E672DCE0101960E942F0D8091E80075
:101C100085FF29C0262D30E0021B130B992039F0D7
:101C20006A948FEF6816B1F01092F100F9CFF701C6
:101C3000862D77FE07C0815058F094919093F10063
:101C40003196F9CF815020F091919093F100FACF25
:101C5000E20EF31E8091E80085FF0FC0011511050B
:101C600011F481100AC089818FBFC1CF5D9884E6CD
:101C700080937C048C2D9B2D03C0A092E800F3CFB1
:101C80000F90DF91CF911F910F91FF90EF90DF9018
:101C9000CF90BF90AF909F908F907F906F9008955E
:101CA0001092E900109279041092780490937704CE
:101CB000809376040895CF92DF92FF920F931F9343
:101CC000CF93DF9300D0CDB7DEB7F82E8A016B013A
:101CD00001151105B1F0F601F7FE02C0849101C0B3
:101CE000808149835A830E94BE0C01501109FFEF85
:101CF000CF1ADF0A49815A818111EACF8FEF9FEF16
:101D000001C0CA010F900F90DF91CF911F910F91E9
:101D1000FF90DF90CF9008951F93CF93DF931F9292
:101D2000CDB7DEB7162F2091E80022FFFCCF612F40
:101D300079830E94220D8BEF8093E800812F7981B7
:101D4000972F0F90DF91CF911F910895CF93DF933D
:101D50001F92CDB7DEB71982CE0101960E94CE0840
:101D6000CE0101960E94701B898190E00F90DF9157
:101D7000CF9108951F920F920FB60F921124EF92F8
:101D8000FF920F931F932F933F934F935F936F9304
:101D90007F938F939F93AF93BF93EF93FF93CF93D3
:101DA000DF93CDB7DEB76297DEBFCDBF1092E900FB
:101DB0008091E80083FFEBC068E0CE010A960E94A4
:101DC000220D82EF8093E8009A8597FF05C08091ED
:101DD000E80080FFFCCF03C08EEF8093E800892FDE
:101DE000807609F0B9C08B85811105C01092F10091
:101DF0001092F100C5C0282F2D7F213009F4C0C0FA
:101E0000853049F48091E80080FFFCCF8C858068A4
:101E10008093E300B5C0863009F076C02D85E88850
:101E2000F988223071F580E090E02A8B0E94500EF4
:101E30000E94A60E99E08E010F5F1F4FF801392F07
:101E400011923A95E9F799832A892A8391E09E8332
:101E500090E898879AEF99872091780430917904D7
:101E6000275F3F4F3C832B838D83C7010E94500E19
:101E700049E050E0B80180E00E945B0E0E94A60E8F
:101E80007FC0C7012A8B0E94500E2A89223241F45A
:101E900082E290E00E947B1B892B09F071C074C024
:101EA000213069F488899989089711F42093750481
:101EB00080917504811118C061E471E01AC023306B
:101EC00009F062C08C85882391F0823021F46CE0A7
:101ED0008FE591E006C0813009F056C06BE083E5E4
:101EE00091E00E94EC0C4AC06FE271E002C06CE627
:101EF00071E06115710509F447C0FB01449150E0A0
:101F000080E80E945B0E3CC0873009F43DC08830F9
:101F100021F481E08093F10033C0893089F593701A
:101F200099F5EBE2F1E081E021E096E38093E900AE
:101F30002093EB0034913093EC009093ED008F5F91
:101F40003196853099F78EE78093EA001092EA0087
:101F50008C8580937A0414C0888999890E94500ED8
:101F60008E85811105C0CE010A960E94D90806C04F
:101F7000823051F4CE010A960E94A31B882321F0DF
:101F80008EEF8093E80003C081E28093EB006296BD
:101F90000FB6F894DEBF0FBECDBFDF91CF91FF919A
:101FA000EF91BF91AF919F918F917F916F915F91D1
:101FB0004F913F912F911F910F91FF90EF900F90B4
:101FC0000FBE0F901F9018958093E9008091F2004A
:101FD000882319F08AE38093E80008951F920F92F6
:101FE0000FB60F9211242F933F934F935F936F93EC
:101FF0007F938F939F93AF93BF93EF93FF938091C2
:10200000E1001092E10083FF0FC01092E90091E01F
:102010009093EB001092EC0092E39093ED001092FD
:102020007A0498E09093F00082FF1DC083E00E9444
:10203000E40F80917C04882339F080917C048150E6
:1020400080937C04882369F080917B04882359F075
:1020500080917B04815080937B04811104C0289A75
:1020600002C05D9AF1CFFF91EF91BF91AF919F9127
:102070008F917F916F915F914F913F912F910F9031
:102080000FBE0F901F90189510927A0481E08093F4
:10209000D70080EA8093D80082E189BD09B400FEB0
:1020A000FDCF61E070E080E090E00E94911980E94E
:1020B0008093D8008CE08093E2001092E000559A63
:1020C000209A08954F925F926F927F92AF92BF9243
:1020D000CF92DF92EF92FF920F931F93CF93DF93F4
:1020E000CDB7DEB729013A01621B730B840B950B48
:1020F00029893A894B895C892A193B094C095D0970
:10210000298B3A8B4B8B5C8B9B01AC0169897A895B
:102110008B899C890E943B1DE418F5080609170964
:10212000A80197010E94811D2A0D3B1D4C1D5D1DBC
:10213000CA01B901DF91CF911F910F91FF90EF90EC
:10214000DF90CF90BF90AF907F906F905F904F9057
:102150000895FC01808191810C946C1ECF93DF93D4
:10216000EC0188819981009711F00E946C1E198200
:1021700018821D821C821B821A82DF91CF910895E2
:102180000F931F93CF93DF93EC018B016F5F7F4F12
:10219000888199810E94FB1E009731F09983888382
:1021A0001B830A8381E001C080E0DF91CF911F9102
:1021B0000F910895CF93DF93EC0188819981892B4A
:1021C00029F08A819B818617970760F4CE010E94CF
:1021D000C010882341F08C819D81892B19F4E881FE
:1021E000F981108281E0DF91CF910895EF92FF9203
:1021F0000F931F93CF93DF93EC017B018A01BA0108
:102200000E94DA10811104C0CE010E94AE1007C0F6
:102210001D830C83B701888199810E94CE1FCE0156
:10222000DF91CF911F910F91FF90EF900895FC01E6
:102230001182108213821282158214826115710537
:1022400059F0FB0101900020E9F7AF01415051091D
:10225000461B570B0C94F6100895CF93DF93EC01B7
:10226000FB018617970761F0608171816115710527
:1022700029F0448155810E94F61002C00E94AE10E0
:10228000CE01DF91CF910895FC011182108213825B
:102290001282158214820C942D11CF93DF93EC01DE
:1022A0006115710561F0FB0101900020E9F7AF01B4
:1022B00041505109461B570B0E94F61002C00E9464
:1022C000AE10CE01DF91CF9108950F931F93CF935E
:1022D000DF93CDB7DEB762970FB6F894DEBF0FBEBF
:1022E000CDBF8C01CB01F8011182108213821282C2
:1022F0001582148250E0BE016F5F7F4F0E94D51F90
:10230000BE016F5F7F4FC8010E944D1162960FB6EC
:10231000F894DEBF0FBECDBFDF91CF911F910F911B
:1023200008950F931F93CF93DF93CDB7DEB7A29796
:102330000FB6F894DEBF0FBECDBF8C01CB01BA0142
:10234000F80111821082138212821582148230E009
:10235000AE014F5F5F4F0E94EB1FBE016F5F7F4F6B
:10236000C8010E944D11A2960FB6F894DEBF0FBEB1
:10237000CDBFDF91CF911F910F910895EF92FF9202
:102380000F931F93CF93DF93EC017B010C811D8191
:102390006115710511F480E016C04115510591F0E9
:1023A000040F151FB8010E94DA108823A1F32881B9
:1023B00039818C819D81B701820F931F0E94CE1FAE
:1023C0001D830C8381E0DF91CF911F910F91FF90CE
:1023D000EF900895FB0144815581608171810C94D7
:1023E000BE116115710559F0FB0101900020E9F75C
:1023F000AF0141505109461B570B0C94BE1180E0B0
:102400000895FC01238134812627022E2295207F06
:102410002025032E322F22952F7002262695322753
:102420002327220F220F220F2025FC013483238330
:102430000895CF93DF93EC018D819E81DC01ED91B6
:10244000FC916C810190F081E02D09958D819E8138
:10245000DC01ED91FC910190F081E02D6B81DF9129
:10246000CF9109948F929F92AF92BF92CF92DF92B9
:10247000EF92FF92CF93DF93EC016B010E94621900
:102480004B015C01E12CF12C8D819E81DC01ED91F1
:10249000FC910680F781E02D099597FF0DC00E9401
:1024A0006219681979098A099B096C157D058E05E1
:1024B0009F0550F38FEF9FEFDF91CF91FF90EF904B
:1024C000DF90CF90BF90AF909F908F900895CF9363
:1024D000DF93EC018D819E81DC01ED91FC91048004
:1024E000F581E02D09951816190654F48D819E8109
:1024F000DC01ED91FC910680F781E02D0995EACF92
:10250000DF91CF9108952F923F924F925F926F92F9
:102510007F928F929F92AF92BF92CF92DF92EF9273
:10252000FF920F931F93CF93DF93CDB7DEB72D9715
:102530000FB6F894DEBF0FBECDBF3C011B013C833C
:102540002B83BF82AE825801AC0CBD1CA40EB51EFD
:10255000BD824B2C512CCA01860F971F9987888703
:10256000D901A00FB11FBB87AA87F601EE0DFF1D91
:10257000FD87EC87D30118968C91581608F026C178
:10258000EFEFFFEFD3011496FC93EE93139715969C
:102590008D919C911697DC01ED91FC910190F08159
:1025A000E02D6FEF09956FEFC3010E940112F30157
:1025B00085819681DC01ED91FC910190F081E02D07
:1025C000D3016C910995F3016081C3010E9401124E
:1025D000D30115968D919C911697DC01ED91FC919C
:1025E0000190F081E02D6D810995642DC3010E9459
:1025F0000112F30185819681DC01ED91FC9101903E
:10260000F081E02D6A2D09956A2DC3010E94011207
:10261000610188859985C816D906A1F0F3018581E5
:1026200096818601DC01ED91FC910190F081E02D15
:10263000D6016D916D010995F8016081C3010E9479
:102640000112E7CFCB80DC808A859B85C816D9062E
:10265000B1F0D30115968D919C9116978601DC01FE
:10266000ED91FC910190F081E02DD6016D916D010D
:102670000995F8016081C3010E940112E5CF87012D
:102680008C859D8508171907B1F0D30115968D919A
:102690009C9116976801DC01ED91FC910190F0810D
:1026A000E02DD8016D918D010995F6016081C3017E
:1026B0000E940112E5CFC3010E94191264E670E086
:1026C000C3010E9432128F3F910509F074C0EFEFF1
:1026D000FFEFD3011496FC93EE9313976FEFC301B2
:1026E0000E94011265E070E0C3010E943212D30122
:1026F0006C91262F30E08217930709F05CC0C3016C
:102700000E9401126AE070E0C3010E9432128C0143
:1027100097FD51C0682FC3010E9401126AE070E06A
:10272000C3010E9432126C0197FD45C0682FC3019E
:102730000E9401120A83198209811A810C0D1D1D44
:10274000C12CD12C65E070E0C301C016D106A1F008
:10275000C814D90489F00E94321297FD09C0EE8195
:10276000FF81EC0DFD1D8083682FC3010E940112C3
:10277000BFEFCB1ADB0AE6CF0E9432126C0197FD45
:102780001AC065E070E0C3010E94321297FD13C0C9
:10279000DC2CCC24C80ED91EF301838194818C15C6
:1027A0009D0549F480818F5F8083C8018016910662
:1027B00078F4C4010DC0539464E670E080E090E0CA
:1027C0000E949119C3010E946712D4CE8FEF9FEF30
:1027D0002D960FB6F894DEBF0FBECDBFDF91CF911F
:1027E0001F910F91FF90EF90DF90CF90BF90AF902F
:1027F0009F908F907F906F905F904F903F902F9021
:1028000008953F924F925F926F927F928F929F9224
:10281000AF92BF92CF92DF92EF92FF920F931F93EE
:10282000CF93DF93CDB7DEB72E970FB6F894DEBF08
:102830000FBECDBF3C01DC0117968C91179781111B
:10284000CFC081E017968C93C3010E94671268EE97
:1028500073E080E090E00E949119F30185819681F8
:10286000DC01ED91FC910480F581E02D09951816AD
:10287000190654F355E0552E4424439462E3362E52
:10288000E4E1F1E0DE011696852D01900D928A9526
:10289000E1F7F3014086812C912CA12CB12CC12CA5
:1028A000D12CE12CF12C00E010E020E030E045E0FC
:1028B00050E0BE016A5F7F4FC3010E94831263E054
:1028C000D30115968D919C9116970E94180B6AEF73
:1028D00070E080E090E00E9491196EE771E0F301F2
:1028E000858196810E94E30A6AEF70E080E090E0C3
:1028F0000E9491196CE771E0D30115968D919C911E
:1029000016970E94E30A64EF71E080E090E00E9475
:10291000911960E771E0F301858196810E94E30AD5
:1029200064EF71E080E090E00E949119C3010E9481
:102930006712E9E1F1E0DE011196852D01900D921B
:102940008A95E1F7D30118963C9244E0842E912CAD
:10295000FE013B965F0120E030E045E050E0BE0123
:102960006F5F7F4FC3010E9483128F3FFFEF9F076E
:1029700039F468EE73E080E090E00E94911980CF16
:102980002B852111FFCF049711F52C8530E02053C2
:10299000310944E6429FC001439F900D11242D85CB
:1029A00030E0205331096AE0629FA001639F500D1F
:1029B0001124840F951F2E8530E020533109820F9A
:1029C000931FD30112969C938E93119705C084E6B2
:1029D00090E0F3019283818382E3D30118968C9374
:1029E0002E960FB6F894DEBF0FBECDBFDF91CF910C
:1029F0001F910F91FF90EF90DF90CF90BF90AF901D
:102A00009F908F907F906F905F904F903F90089530
:102A100010927D0480EA94E0909383048093820472
:102A20001092840410928504909387048093860406
:102A30000895CF93DF931F92CDB7DEB76983DC0192
:102A4000ED91FC910280F381E02D41E050E0BE0168
:102A50006F5F7F4F09950F90DF91CF910895089593
:102A60006F927F928F929F92AF92BF92CF92DF929E
:102A7000EF92FF920F931F93CF93DF9300D01F929B
:102A8000CDB7DEB79B013A01FC01E85AFF4F408108
:102A90004F3F21F147E64983319640814A83399778
:102AA00088248394912CCE0103965C01C12CD12CF7
:102AB000E12CF12C830142E050E0BE016F5F7F4FBB
:102AC000808191810E9483128B81882329F090E07C
:102AD00091958195910904C0C30102C08FEF9FEFCA
:102AE0000F900F900F90DF91CF911F910F91FF905A
:102AF000EF90DF90CF90BF90AF909F908F907F909E
:102B00006F9008958F929F92AF92BF92CF92DF9273
:102B1000EF92FF920F931F9348015901C12CD12CC2
:102B2000E12CF12C00E010E020E030E00E94831264
:102B30001F910F91FF90EF90DF90CF90BF90AF90DB
:102B40009F908F9008952F923F924F925F926F9235
:102B50007F928F929F92AF92BF92CF92DF92EF922D
:102B6000FF920F931F93CF93DF93CDB7DEB72897D4
:102B70000FB6F894DEBF0FBECDBF3C018B01FC0148
:102B80001382128288EE93E0A0E0B0E08483958304
:102B9000A683B7838AED93E0918380831301F0E5E8
:102BA0002F0E311CF101318320837301F2E5EF0E0A
:102BB000F11C60E271E0C70148870E9417112301F0
:102BC00088E5480E511C4885F2014083B801C701D1
:102BD0000E944D1182E7898387E78A8381E68B8390
:102BE00086E48E83F2018081FE01E80FF11D818170
:102BF0008F8381E090E0F30197878687EA5AFF4F41
:102C000000811181F7012081318192E0892E912C80
:102C1000CE0104965C01C12CD12CE12CF12C42E0B8
:102C200050E0BE016A5F7F4FF101808191810E9477
:102C300083128C81882321F08FEFF201808307C0FB
:102C4000F301E75AFF4F8D818083F30114862896A4
:102C50000FB6F894DEBF0FBECDBFDF91CF911F91AD
:102C60000F91FF90EF90DF90CF90BF90AF909F902B
:102C70008F907F906F905F904F903F902F9008952E
:102C8000FC01E85AFF4F81E090819F3F09F480E00A
:102C90000895EF92FF920F931F93CF93DF9300D08D
:102CA0001F92CDB7DEB77C01FC018485811124C061
:102CB000158687E489838FE38B83E75AFF4F8081F2
:102CC0008A8300E410E09701205F3F4F43E050E02B
:102CD000BE016F5F7F4F3997808191810E9482157D
:102CE000F7018487811102C0148606C0F70195851B
:102CF0009F5F9587815084870F900F900F90DF9191
:102D0000CF911F910F91FF90EF900895CF93DF9394
:102D1000EC010E9449168C85882359F081508C87DC
:102D20008D8591E0980F9D87C80FD11D888990E00F
:102D300002C08FEF9FEFDF91CF910895CF93DF9384
:102D4000EC010E9449168C85882331F08D85C80FCF
:102D5000D11D888990E002C08FEF9FEFDF91CF9166
:102D60000895CF93DF93EC010E9449168C8590E083
:102D7000DF91CF910895EF92FF920F931F93CF931E
:102D8000DF9300D01F92CDB7DEB77C0128E5E20EBD
:102D9000F11CF70120812F3FB9F026E629833196F7
:102DA00020812A83399701E010E09E012D5F3F4F7B
:102DB00042E050E0BE016F5F7F4F808191810E94B1
:102DC00082158FEFF70180830F900F900F90DF91A6
:102DD000CF911F910F91FF90EF900895CF93DF93C4
:102DE000EC018AED93E099838883CE010E94BB16A3
:102DF000CE018E5A9F4FDF91CF910C94A91081E0A4
:102E00000895CF93DF93EC01BA01422F2DE734E010
:102E10000E94A315CE01DF91CF9108958DE794E034
:102E20009093890480938804089508950F931F93C5
:102E3000CF93DF9300D01F92CDB7DEB729E429836B
:102E4000FC0126852A836B8300E010E020E030E05F
:102E500043E050E0BE016F5F7F4F848595850E94FF
:102E6000821581E090E00F900F900F90DF91CF914D
:102E70001F910F910895EF92FF920F931F93CF939D
:102E8000DF9300D01F92CDB7DEB77C01FC018389B0
:102E9000811117C0148A8FE4898386858A8380E430
:102EA0008B8397012B5E3F4F00E410E043E050E03E
:102EB000BE016F5F7F4F848595850E948215F70163
:102EC000838B0F900F900F90DF91CF911F910F91F7
:102ED000FF90EF900895CF93DF93EC010E943B1792
:102EE0008B8990E0DF91CF910895CF93DF93EC0130
:102EF0000E943B178B89882359F081508B8B8C89DA
:102F000091E0980F9C8BC80FD11D8D8990E002C075
:102F10008FEF9FEFDF91CF910895CF93DF93EC0177
:102F20000E943B178B89882331F08C89C80FD11DF3
:102F30008D8990E002C08FEF9FEFDF91CF910895D0
:102F40000F931F93CF93DF93EC018B0166EE73E039
:102F5000888999890E94F111B80188899989DF913E
:102F6000CF911F910F910C94EA116F927F928F92E3
:102F70009F92AF92BF92CF92DF92EF92FF920F9308
:102F80001F93CF93DF9300D01F92CDB7DEB73C01E4
:102F900082E58B83D3015096ED91FC91519704818A
:102FA00015812081318182E0882E912CFE0131969D
:102FB0005F01C12CD12CE12CF12C41E050E0BE018D
:102FC0006D5F7F4F1C968D919C911D970E9483127F
:102FD0008A8190E0D3011F969C938E931E97509602
:102FE0000D911C9151970115110531F0C8010E94F6
:102FF000A910C8010E941619F301118A108A89814B
:10300000811102C081E0828B0F900F900F90DF91B1
:10301000CF911F910F91FF90EF90DF90CF90BF90D5
:10302000AF909F908F907F906F9008950F931F9314
:10303000CF93DF9300D01F92CDB7DEB722E729836D
:10304000FC0126852A8301E010E09E012D5F3F4FA1
:1030500042E050E0BE016F5F7F4F848595850E94FE
:10306000821581E09B81913009F080E00F900F90F4
:103070000F90DF91CF911F910F9108950F931F93A0
:10308000CF93DF9300D000D0CDB7DEB727E52B83F9
:10309000FC0126852C8302E010E09E012F5F3F4F4C
:1030A00042E050E0BE016D5F7F4F848595850E94B0
:1030B0008215898190E0982F88272A81820F911D9F
:1030C0000F900F900F900F90DF91CF911F910F9164
:1030D0000895EF92FF920F931F93CF93DF9300D049
:1030E000CDB7DEB77C01FC018289882389F087E7B0
:1030F000898386858A8300E010E020E030E042E0AA
:1031000050E0BE016F5F7F4F848595850E948215D8
:10311000F701128A0F900F90DF91CF911F910F91BD
:10312000FF90EF90089528EF33E0FC013183208376
:103130000C946918EF92FF920F931F93CF93DF9334
:1031400000D0CDB7DEB77C0169837A830E9469180D
:1031500086E090E00E9414198C0169817A810E94B6
:103160004411F701118B008B0F900F90DF91CF91DD
:103170001F910F91FF90EF900895EF92FF920F93A0
:103180001F93CF93DF9300D000D000D0CDB7DEB730
:103190008C017B0168EE73E0CE0101960E9417114D
:1031A000BE016F5F7F4FC8010E949A18CE01019641
:1031B0000E94A91061EF73E0CE0101960E941711E1
:1031C000BE016F5F7F4FC8010E94A017CE0101961C
:1031D0000E94A910B701C8010E94A017C8010E944F
:1031E000B51726960FB6F894DEBF0FBECDBFDF91A0
:1031F000CF911F910F91FF90EF900895CF93DF93A0
:10320000EC010E94BD18CE010E941618882339F0E7
:1032100064E670E080E090E00E949119F4CFCE0166
:10322000DF91CF910C943E180C94D41D0C946C1E1D
:103230001F920F920FB60F9211242F933F938F93EB
:103240009F93AF93BF9380918B0490918C04A09136
:103250008D04B0918E0430918A0423E0230F2D3722
:1032600020F40196A11DB11D05C026E8230F02968A
:10327000A11DB11D20938A0480938B0490938C042C
:10328000A0938D04B0938E0480918F04909190044C
:10329000A0919104B09192040196A11DB11D80935B
:1032A0008F0490939004A0939104B0939204BF91E3
:1032B000AF919F918F913F912F910F900FBE0F90E3
:1032C0001F9018952FB7F89460918B0470918C041F
:1032D00080918D0490918E042FBF08953FB7F8948C
:1032E00080918F0490919004A0919104B0919204E8
:1032F00026B5A89B05C02F3F19F00196A11DB11D51
:103300003FBF6627782F892F9A2F620F711D811D6D
:10331000911D42E0660F771F881F991F4A95D1F7CC
:103320000895CF92DF92EF92FF92CF93DF936B01DC
:103330007C010E946E19EB01C114D104E104F10477
:1033400089F00E943A1D0E946E196C1B7D0B683E2D
:10335000734090F381E0C81AD108E108F108C85120
:10336000DC4FEACFDF91CF91FF90EF90DF90CF90CD
:103370000895789484B5826084BD84B5816084BDED
:1033800085B5826085BD85B5816085BDEEE6F0E0DE
:10339000808181608083E1E8F0E01082808182603A
:1033A0008083808181608083E0E8F0E080818160BB
:1033B0008083E1E9F0E080818260808380818160A8
:1033C0008083E0E9F0E0808181608083E1ECF0E0DF
:1033D000808184608083808182608083808181603D
:1033E0008083E3ECF0E0808181608083E0ECF0E0BA
:1033F000808182608083E2ECF0E080818160808364
:10340000EAE7F0E08081846080838081826080834D
:1034100080818160808380818068808308951F938C
:10342000CF93DF93182FEB0161E00E94E31A2097FE
:1034300011F460E004C0CF3FD10539F461E0812F81
:10344000DF91CF911F910C941C1BE12FF0E0E0580D
:10345000FE4F449150E0FA013197EF30F10508F04A
:103460006CC0EA5AFF4F0C94A01D84B5806884BDDF
:10347000C7BD68C084B5806284BDC8BD63C080918B
:103480008000806880938000D0938900C09388007A
:1034900059C080918000806280938000D0938B001F
:1034A000C0938A004FC08091800088608093800024
:1034B000D0938D00C0938C0045C0809190008068AF
:1034C00080939000D0939900C09398003BC0809166
:1034D0009000806280939000D0939B00C0939A00EC
:1034E00031C080919000886080939000D0939D00BF
:1034F000C0939C0027C08091C00080688093C0006A
:103500008091C0008F7B8093C000C093CF001AC011
:103510008091C00080628093C000C093D00012C030
:103520008091C20088608093C2008091C2008B7F2E
:103530008093C200C093D20005C0C038D1050CF002
:103540007DCF77CFDF91CF911F91089590E0FC015F
:103550003197EF30F105B0F5EB59FF4F0C94A01DFA
:10356000809180008F7703C0809180008F7D809351
:103570008000089580918000877FF9CF84B58F7790
:1035800002C084B58F7D84BD0895809190008F77AF
:1035900007C0809190008F7D03C080919000877F4D
:1035A0008093900008958091C0008F7703C0809130
:1035B000C0008F7D8093C00008958091C200877FF6
:1035C0008093C2000895CF93DF9390E0FC01E25610
:1035D000FE4F2491FC01E454FE4F8491882349F16D
:1035E00090E0880F991FFC01E851FE4FA591B4911E
:1035F00086529E4FFC01C591D4919FB7611108C0BE
:10360000F8948C91209582238C93888182230AC020
:10361000623051F4F8948C91322F309583238C933F
:103620008881822B888304C0F8948C91822B8C93A0
:103630009FBFDF91CF9108950F931F93CF93DF9397
:103640001F92CDB7DEB7282F30E0F901E058FE4FCA
:103650008491F901E256FE4F1491F901E454FE4FB2
:1036600004910023C9F0882321F069830E94A61ADF
:103670006981E02FF0E0EE0FFF1FE652FE4FA591AB
:10368000B4919FB7F8948C91611103C01095812378
:1036900001C0812B8C939FBF0F90DF91CF911F9121
:1036A0000F910895FF920F931F93CF93DF93EC0137
:1036B000F62EE881F9810480F581E02D09958C01D1
:1036C000E881F9810680F781E02D6F2DCE01099503
:1036D000C8019927DF91CF911F910F91FF90089515
:1036E000FC0120812F5F208349E150E066E772E012
:1036F00080E80C945B0E45E650E06FE872E080E8ED
:103700000C945B0EEF92FF920F931F93CF93DF9376
:103710001F92CDB7DEB789838B017A0141E050E07B
:10372000BE016F5F7F4F84E00E94C00DA701B8010A
:1037300084E40E94C00D0F90DF91CF911F910F91F3
:10374000FF90EF900895FC0191818081813A31F4DE
:1037500081E0913091F0933089F411C0813271F49D
:103760009B3021F482818093130105C09A3031F49B
:1037700082818093120181E00895089580E0089588
:1037800048E050E082E00C94821BCF93DF93DC0191
:10379000683818F0E8E7E60F25C0E62FF0E067FF8D
:1037A00011C0E058F10981E090E001C0880FEA956E
:1037B000EAF714969C911497982B14969C9314975F
:1037C000E0E010C0EA50FE4FE491EE2309F440C05F
:1037D000E7FF08C014968C911497826014968C931E
:1037E0001497EF7716968C9116978E1741F11796CE
:1037F0008C9117978E1719F118968C9118978E1730
:10380000F1F019968C9119978E17C9F01A968C9130
:103810001A978E17A1F01B968C911B978E1779F033
:1038200080E090E0ED01C80FD91F2E81211102C068
:10383000EE8305C0019686309105A1F709C0BD0150
:103840006C5F7F4FCD010E94C01B81E090E008C0FB
:1038500081E090E013969C938E93129780E090E025
:10386000DF91CF910895683818F0E8E7E60F25C09A
:10387000E62FF0E067FF12C0E058F10921E030E0E8
:1038800001C0220FEA95EAF72095DC0114963C91DD
:103890001497322314963C93E0E00FC0EA50FE4F99
:1038A000E491EE2329F1E7FF08C0DC0114962C9186
:1038B00014972D7F14962C93EF7720E030E0EE23C1
:1038C00051F0DC01A20FB31F16964C9116974E13C0
:1038D00002C016961C922F5F3F4F2630310579F7B4
:1038E000BC016C5F7F4F0E94C01B81E090E0089597
:1038F00080E090E00895FC01168217821086118600
:10390000128613861482BC016C5F7F4F0C94C01B1F
:1039100010929F04109296041092950488E094E00F
:10392000909394048093930408951F920F920FB67E
:103930000F9211242F938F939F93EF93FF93E09116
:10394000B004F091B1048081E091B604F091B70425
:1039500082FD12C090818091B9048F5F8F73209196
:10396000BA04821751F0E091B904F0E0E056FB4F41
:10397000958F8093B90401C08081FF91EF919F9151
:103980008F912F910F900FBE0F901F9018951F923F
:103990000F920FB60F9211242F933F934F935F9383
:1039A0006F937F938F939F93AF93BF93EF93FF9307
:1039B00080EA94E00E949B09FF91EF91BF91AF9143
:1039C0009F918F917F916F915F914F913F912F9137
:1039D0000F900FBE0F901F90189580EA94E00E9400
:1039E000600921E0892B09F420E0822F08951092CC
:1039F000A3041092A20488EE93E0A0E0B0E08093CC
:103A0000A4049093A504A093A604B093A70484E90A
:103A100093E09093A1048093A0048DEC90E09093A8
:103A2000AD048093AC048CEC90E09093AF04809351
:103A3000AE0488EC90E09093B1048093B00489ECDC
:103A400090E09093B3048093B2048AEC90E090935A
:103A5000B5048093B4048EEC90E09093B704809307
:103A6000B6041092B9041092BA041092BB041092DA
:103A7000BC0408950895DB018F939F930E94A61DB7
:103A8000BF91AF91A29F800D911DA39F900DB29FFA
:103A9000900D1124089597FB072E16F4009407D07B
:103AA00077FD09D00E94B11D07FC05D03EF490952A
:103AB00081959F4F0895709561957F4F0895A1E27C
:103AC0001A2EAA1BBB1BFD010DC0AA1FBB1FEE1F98
:103AD000FF1FA217B307E407F50720F0A21BB30BE3
:103AE000E40BF50B661F771F881F991F1A9469F75F
:103AF00060957095809590959B01AC01BD01CF01BB
:103B00000895052E97FB1EF400940E94981D57FD02
:103B100007D00E945F1D07FC03D04EF40C94981D43
:103B200050954095309521953F4F4F4F5F4F0895E9
:103B300090958095709561957F4F8F4F9F4F089519
:103B4000EE0FFF1F0590F491E02D09940E94C51D12
:103B5000A59F900DB49F900DA49F800D911D1124E1
:103B60000895AA1BBB1B51E107C0AA1FBB1FA617C4
:103B7000B70710F0A61BB70B881F991F5A95A9F716
:103B800080959095BC01CD010895A29FB001B39F8F
:103B9000C001A39F700D811D1124911DB29F700D56
:103BA000811D1124911D0895CF93DF9382309105DB
:103BB00010F482E090E0E0913F05F091400520E0B4
:103BC00030E0A0E0B0E0309739F1408151814817F2
:103BD0005907B8F04817590771F4828193811097FB
:103BE00029F013969C938E9312972CC090934005C6
:103BF00080933F0527C02115310531F04217530747
:103C000018F0A901DB0101C0EF019A01BD01DF013C
:103C10000280F381E02DD7CF21153105F9F0281B63
:103C2000390B2430310580F48A819B81611571053F
:103C300021F0FB019383828304C09093400580931D
:103C40003F05FE01329644C0FE01E20FF31F81934F
:103C5000919322503109398328833AC020913D0540
:103C600030913E05232B41F4209102013091030154
:103C700030933E0520933D052091000130910101D4
:103C80002115310541F42DB73EB740910401509103
:103C90000501241B350BE0913D05F0913E05E2172F
:103CA000F307A0F42E1B3F0B2817390778F0AC015F
:103CB0004E5F5F4F2417350748F04E0F5F1F50933C
:103CC0003E0540933D058193919302C0E0E0F0E012
:103CD000CF01DF91CF910895CF93DF93009709F43F
:103CE00087C0FC01329713821282C0913F05D091A8
:103CF0004005209781F420813181280F391F809160
:103D00003D0590913E058217930779F5F0933E05A6
:103D1000E0933D056DC0DE0120E030E0AE17BF0747
:103D200050F412964D915C9113979D0141155105E8
:103D300009F1DA01F3CFB383A28340815181840F6B
:103D4000951F8A179B0771F48D919C911197840F91
:103D5000951F02969183808312968D919C91139763
:103D6000938382832115310529F4F0934005E09374
:103D70003F053EC0D9011396FC93EE9312974D91E7
:103D80005D91A40FB51FEA17FB0779F4808191813B
:103D9000840F951F0296D90111969C938E93828170
:103DA000938113969C938E931297E0E0F0E08A81C2
:103DB0009B81009719F0FE01EC01F9CFCE0102962C
:103DC00028813981820F931F20913D0530913E0556
:103DD0002817390769F4309729F41092400510929A
:103DE0003F0502C013821282D0933E05C0933D0569
:103DF000DF91CF910895A0E0B0E0E1E0FFE10C9405
:103E0000EF22EC01CB01209719F40E94D41DB8C019
:103E1000FE01E60FF71F9E0122503109E217F3075A
:103E200008F4ACC0D9010D911C9111970617170722
:103E3000B8F00530110508F49FC0A801445051099D
:103E40004617570708F498C002501109061B170BB4
:103E5000019311936D937C93CF010E946C1E8CC0D3
:103E60005B01A01AB10A4E01800E911EA0913F0580
:103E7000B0914005612C712C60E070E0109709F45E
:103E800049C0A815B905C9F5ED90FC9011976701D7
:103E900042E0C40ED11CCA14DB0478F147018A1831
:103EA0009B08640142E0C40ED11C1296BC9012978C
:103EB0001396AC91B5E0CB16D10440F0B282A38347
:103EC00091828082D9018D939C9309C00E5F1F4F10
:103ED0000E0D1F1DF90111830083EB2DFA2F6115C3
:103EE000710531F0DB011396FC93EE93129744C0F9
:103EF000F0934005E0933F053FC06D917C91119791
:103F00006616770608F43B01BD0112960D90BC9130
:103F1000A02DB4CF60913D0570913E0568157905DF
:103F2000E9F468167906D0F440910001509101013E
:103F30004115510541F44DB75EB760910401709190
:103F40000501461B570BE417F507C0F4F0933E0537
:103F5000E0933D05F901918380830EC00E94D41D3A
:103F60007C01009759F0A801BE010E94C51FCE0137
:103F70000E946C1EC70104C0CE0102C080E090E028
:103F8000CDB7DEB7EEE00C940B23FB01DC0102C0E1
:103F900001900D9241505040D8F70895FB01DC018B
:103FA00001900D920020E1F708954532510520F46B
:103FB000423010F00C94E01FFB011082CB010895F9
:103FC000BB274A3031F4992322F4BDE290958195C4
:103FD0009F4F0C9428202532310520F4223010F018
:103FE0000C94F61FFA011082CA010895BB272A30EB
:103FF00051F4992342F4BDE29095809570956195B6
:104000007F4F8F4F9F4F0C940620BB27FA01A62F9E
:104010006217710581059105330B30FB66F0AA2705
:10402000660F771F881F991FAA1FA21710F0A21BE7
:1040300063953850A9F7A05DAA3308F0A95DA19354
:1040400036F7B111B1931082CA010C944B22BB27F1
:10405000FB015527AA27880F991FAA1FA41710F044
:10406000A41B83955051B9F7A05DAA3308F0A95D50
:10407000A193009779F7B111B1931192CB010C94F0
:104080004B22AEE0B0E0E7E4F0E20C94F9220D89B7
:104090001E8986E08C831A8309838FEF9FE79E83B6
:1040A0008D83AE01475E5F4F6F89788DCE0101969B
:1040B0000E946320EF81F885E00FF11F10822E9699
:1040C000E4E00C941523ACE0B0E0E9E6F0E20C94F7
:1040D000EB227C016B018A01FC011782168283812D
:1040E00081FFBDC1CE0101964C01F7019381F6011C
:1040F00093FD859193FF81916F01882309F4ABC1F2
:10410000853239F493FD859193FF81916F0185325A
:1041100029F4B70190E00E945B22E7CF512C312CAB
:1041200020E02032A0F48B3269F030F4803259F074
:10413000833269F420612CC08D3239F0803339F438
:10414000216026C02260246023C0286021C027FD92
:1041500027C030ED380F3A3078F426FF06C0FAE079
:104160005F9E300D1124532E13C08AE0389E300D0F
:104170001124332E20620CC08E3221F426FD6BC137
:10418000206406C08C3611F4206802C0883641F4E1
:10419000F60193FD859193FF81916F018111C1CF4C
:1041A000982F9F7D9554933028F40C5F1F4FFFE3A9
:1041B000F9830DC0833631F0833771F0833509F010
:1041C0005BC022C0F801808189830E5F1F4F4424A9
:1041D0004394512C540115C03801F2E06F0E711C4C
:1041E000F801A080B18026FF03C0652D70E002C0F9
:1041F0006FEF7FEFC5012C870E9440222C018301C5
:104200002C852F77222E17C03801F2E06F0E711C1B
:10421000F801A080B18026FF03C0652D70E002C0C8
:104220006FEF7FEFC5012C870E9435222C012C8572
:104230002068222E830123FC1BC0832D90E04816AA
:104240005906B0F4B70180E290E00E945B223A94F4
:10425000F4CFF50127FC859127FE81915F01B7011D
:1042600090E00E945B2231103A94F1E04F1A51081D
:104270004114510471F7E5C0843611F0893639F5DF
:10428000F80127FF07C060817181828193810C5FF3
:104290001F4F08C060817181882777FD8095982F16
:1042A0000E5F1F4F2F76B22E97FF09C09095809515
:1042B000709561957F4F8F4F9F4F2068B22E2AE0F7
:1042C00030E0A4010E948D22A82EA81844C0853792
:1042D00029F42F7EB22E2AE030E025C0F22FF97F9C
:1042E000BF2E8F36C1F018F4883579F0B4C080370E
:1042F00019F0883721F0AFC02F2F2061B22EB4FE05
:104300000DC08B2D8460B82E09C024FF0AC09F2FDA
:104310009660B92E06C028E030E005C020E130E00C
:1043200002C020E132E0F801B7FE07C06081718170
:10433000828193810C5F1F4F06C06081718180E094
:1043400090E00E5F1F4FA4010E948D22A82EA81896
:10435000FB2DFF77BF2EB6FE0BC02B2D2E7FA51495
:1043600050F4B4FE0AC0B2FC08C02B2D2E7E05C04E
:104370007A2C2B2D03C07A2C01C0752C24FF0DC084
:10438000FE01EA0DF11D8081803311F4297E09C000
:1043900022FF06C07394739404C0822F867809F0BC
:1043A000739423FD13C020FF06C05A2C731418F415
:1043B000530C5718732C731468F4B70180E290E023
:1043C0002C870E945B2273942C85F5CF731410F414
:1043D000371801C0312C24FF12C0B70180E390E0F0
:1043E0002C870E945B222C8522FF17C021FF03C06F
:1043F00088E590E002C088E790E0B7010CC0822F0A
:10440000867859F021FD02C080E201C08BE227FDD1
:104410008DE2B70190E00E945B22A51438F4B70149
:1044200080E390E00E945B225A94F7CFAA94F401B3
:10443000EA0DF11D8081B70190E00E945B22A1107E
:10444000F5CF332009F451CEB70180E290E00E940D
:104450005B223A94F6CFF7018681978102C08FEFF5
:104460009FEF2C96E2E10C940723FC01059061502C
:1044700070400110D8F7809590958E0F9F1F08957A
:10448000FC016150704001900110D8F78095909523
:104490008E0F9F1F0895DC01FC01672F7191772318
:1044A000E1F7329704C07C916D9370836291AE17EF
:1044B000BF07C8F308950F931F93CF93DF93182F6F
:1044C000092FEB018B8181FD03C08FEF9FEF20C08F
:1044D00082FF10C04E815F812C813D8142175307BE
:1044E0007CF4E881F9819F012F5F3F4F3983288356
:1044F000108306C0E885F985812F0995892B29F756
:104500002E813F812F5F3F4F3F832E83812F902F3E
:10451000DF91CF911F910F910895FA01AA272830BA
:1045200051F1203181F1E8946F936E7F6E5F7F4F80
:104530008F4F9F4FAF4FB1E03ED0B4E03CD0670FFC
:10454000781F891F9A1FA11D680F791F8A1F911D4F
:10455000A11D6A0F711D811D911DA11D20D009F49F
:1045600068943F912AE0269F11243019305D3193E1
:10457000DEF6CF010895462F4770405D4193B3E0CA
:104580000FD0C9F7F6CF462F4F70405D4A3318F071
:10459000495D31FD4052419302D0A9F7EACFB4E022
:1045A000A6959795879577956795BA95C9F70097DA
:1045B0006105710508959B01AC010A2E069457957B
:1045C000479537952795BA95C9F7620F731F841FD2
:1045D000951FA01D08952F923F924F925F926F9268
:1045E0007F928F929F92AF92BF92CF92DF92EF9283
:1045F000FF920F931F93CF93DF93CDB7DEB7CA1B04
:10460000DB0B0FB6F894DEBF0FBECDBF09942A882E
:10461000398848885F846E847D848C849B84AA84D6
:10462000B984C884DF80EE80FD800C811B81AA8163
:10463000B981CE0FD11D0FB6F894DEBF0FBECDBF2E
:08464000ED010895F894FFCF8D
:104648000000410580000100000000E100000000BA
:1046580000000101585858585858583130300D0A40
:104668000000000000BC01F3012A026902AB01ACA2
:104678000153657474696E672075702048756520EC
:104688006F6E2059756E002F7573722F42616279B3
:104698004875652F2E2F646F537461727459756E47
:1046A8004875652E73680053746F72696E67206C65
:1046B8006967687420737461746573002F75737209
:1046C8002F426162794875652F2E2F646F53746F7E
:1046D800726547726F75704C69676874735374615B
:1046E80074652E736800526573746F72696E672003
:1046F8006C6967687420737461746573002F7573CF
:10470800722F426162794875652F2E2F646F52654A
:1047180073746F726547726F75704C6967687473EC
:1047280053746174652E73680074727565006661F0
:104738006C73650053657474696E67206C6967688B
:10474800747320696E2067726F757020746F206FA4
:104758006E3A25732C206272693A25642C2068759C
:10476800653A25642C207361743A2564002F7573AB
:10477800722F426162794875652F2E2F646F5365D9
:104788007447726F75704C69676874735374617499
:10479800652E73680052657665616C696E67206C7A
:1047A800696768747320696E2067726F7570002F6F
:1047B8007573722F426162794875652F2E2F646F69
:1047C8004E6F7469667947726F75702E736800440E
:1047D8004D50202D2000202D20454E44005452439A
:1047E800202D2000444247202D2000494E46202DF0
:1047F800200057524E202D2000455252202D2000D7
:104808004641494C21202D200000000000DC05FA1B
:1048180005140632067106CE05000000007C0699D4
:1048280006B406D106EE0605075374617274656412
:104838000048756520696E6974004E6F7469667901
:10484800696E6720776527726520746865726500F0
:1048580053746F72652073746174657320696E692F
:104868007469616C6C79002F7573722F62696E2F91
:104878007072657474792D776966692D696E666FD3
:104888002E6C7561207C2067726570205369676E95
:10489800616C207C206567726570202D6F20275B16
:1048A800302D395D7B312C337D27002F746D702FAF
:1048B80061726475696E6F2D6C6F672E7478740001
:1048C800000000007108B8089B08AB088708980822
:1048D80000000000DE09A50A600979096B09BC0916
:1048E8006E616E00696E66006F7666002E006C73EE
:1048F8002000207C2061776B20274E523D3D002F01
:10490800006C73006D6B646972002D7000726D002D
:10491800726D646972000000000019153015B11637
:1049280086169E162F15FE002F62696E2F6173681A
:10493800002D6300000000001617A50A6B177517F5
:104948008D17151700000000521BA50AC51B331C44
:024958007B1CC6
:00000001FF
