:100000000C9481010C94A9010C94A9010C94A901F0
:100010000C94A9010C94A9010C94A9010C94A901B8
:100020000C94A9010C94A9010C94540E0C94200D6D
:100030000C94A9010C94A9010C94A9010C94A90198
:100040000C94A9010C94A9010C94A9010C94A90188
:100050000C94A9010C94A9010C94A9010C94881684
:100060000C94A9010C94051A0C94371A0C94A9014C
:100070000C94A9010C94A9010C94A9010C94A90158
:100080000C94A9010C94A9010C94A9010C94A90148
:100090000C94A9010C94A9010C94A9010C94A90138
:1000A0000C94A9010C94A9010C94A901A517AA17F5
:1000B000AF17B917C3170D180D180D18CD17D7178F
:1000C000E117EB17F8170D1800182E183118201823
:1000D00024182A18521852185218351839183D1871
:1000E0004318471852184D18080B0002020201006D
:1000F000090400000102020000052400100105248B
:1001000001010104240206052406000107058103FC
:1001100010004009040100020A0000000705020265
:100120004000000705830240000000C18081C11229
:100130000100020200004041234180000101020051
:100140000112010002000000404123418000010132
:1001500002000141726475696E6F204C4C4300557A
:10016000534220494F20426F617264000403090426
:1001700072756E2D6272696467650A000A000A0072
:100180000000000200090F0000030401000C000041
:100190000000000000000000000000000000040853
:1001A000020110408040102040804080080204017D
:1001B00080402010020110801020404004040404FC
:1001C00004030405020202020403020202020606FC
:1001D00006060606040402020204000000002500D0
:1001E00028002B002E003100000000002400270012
:1001F0002A002D00300000000000000000002A2B23
:1002000028000000000000000000000000000000C6
:100210000000000000002C9EB4A0A1A2A434A6A758
:10022000A5AE362D3738271E1F2021222324252650
:10023000B333B62EB7B89F8485868788898A8B8C1E
:100240008D8E8F909192939495969798999A9B9C66
:100250009D2F3130A3AD350405060708090A0B0CA4
:100260000D0E0F101112131415161718191A1B1C46
:100270001DAFB1B0B5000904020001030000000980
:1002800021010100012265000705840340000105EA
:10029000010902A1010901A100850105091901292E
:1002A00003150025019503750181029501750581EE
:1002B0000305010930093109381581257F75089535
:1002C000038106C0C005010906A1018502050719C1
:1002D000E029E71500250175019508810295017552
:1002E000088103950675081500256505071900297D
:1002F000658100C01A0622082009FA120015F819B3
:10030000671A11241FBECFEFDAE0DEBFCDBF13E0C6
:10031000A0E0B1E0EEE1F0E402C005900D92AC3D4A
:10032000B107D9F725E0ACEDB3E001C01D92AB30C9
:10033000B207E1F712E0C2E0D3E004C02297FE0169
:100340000E94E31AC43FD107C9F70E940F080C941A
:100350000D200C94000008950895CF93DF93EC01D5
:10036000FB014281538122E062E574E00E94F314B4
:10037000CE01DF91CF9108950F931F93CF93DF9319
:10038000CDB7DEB7CA55D1090FB6F894DEBF0FBEA0
:10039000CDBF8B01BC01CE0101960E94AD01CE0103
:1003A00001960E943214882359F0B801CE010196BB
:1003B0000E94F30A8C01CE0101960E94AD1402C086
:1003C00000E010E0CE0101960E94E014C801C65A78
:1003D000DF4F0FB6F894DEBF0FBECDBFDF91CF91D8
:1003E0001F910F9108950F931F93CF93DF93CDB774
:1003F000DEB7CA55D1090FB6F894DEBF0FBECDBF28
:10040000162FBC01CE0101960E94AD01CE010196CE
:100410000E943214882359F0612FCE0101960E9468
:10042000F50A8C01CE0101960E94AD1402C000E0D5
:1004300010E0CE0101960E94E014C801C65ADF4FB9
:100440000FB6F894DEBF0FBECDBFDF91CF911F91E5
:100450000F9108950F931F93CF93DF93CDB7DEB71E
:10046000CA55D1090FB6F894DEBF0FBECDBF8B01C0
:10047000BC01CE0101960E94AD01CE0101960E9401
:100480003214882399F0B801CE0101960E94F30A34
:100490008C016AE171E0CE0101960E94F30A080F17
:1004A000191FCE0101960E94AD1402C000E010E0B9
:1004B000CE0101960E94E014C801C65ADF4F0FB664
:1004C000F894DEBF0FBECDBFDF91CF911F910F918A
:1004D00008950F931F93CF93DF93CDB7DEB7CA551F
:1004E000D1090FB6F894DEBF0FBECDBF8B01BC01A2
:1004F000CE0101960E94AD01CE0101960E943214F8
:10050000882399F0B801CE0101960E94E50A8C017A
:100510006AE171E0CE0101960E94F30A080F191FEB
:10052000CE0101960E94AD1402C000E010E0CE01A1
:1005300001960E94E014C801C65ADF4F0FB6F89426
:10054000DEBF0FBECDBFDF91CF911F910F910895F8
:100550000F931F93CF93DF93CDB7DEB7CB55D10960
:100560000FB6F894DEBF0FBECDBF8B0140E050E068
:100570006DE271E08DED93E00E94FC051C821B8210
:1005800088EE93E0A0E0B0E08D839E83AF83B887D0
:1005900082EC93E09A83898387E494E09E878D8739
:1005A0001B8A1C8A1D8A63E471E0CE018A5A9F4F20
:1005B0000E94360FBE016A5A7F4FCE0101960E94FB
:1005C0006116CE018A5A9F4F0E94C80ECE01019635
:1005D0000E94A715CE0101960E940816882369F093
:1005E0000115110519F0F8010995F4CF64E670E0E2
:1005F00080E090E00E940117EDCFCE0101960E94AD
:100600000715CE0101960E943016CE0101960E9478
:100610005A16C55ADF4F0FB6F894DEBF0FBECDBFD6
:10062000DF91CF911F910F910895CF93DF93CDB7B5
:10063000DEB7CB55D1090FB6F894DEBF0FBECDBFE4
:1006400040E050E063E671E08DED93E00E94FC0530
:100650001C821B8288EE93E0A0E0B0E08D839E8335
:10066000AF83B88782EC93E09A83898387E494E030
:100670009E878D871B8A1C8A1D8A68E771E0CE01E0
:100680008A5A9F4F0E94360FBE016A5A7F4FCE0191
:1006900001960E946116CE018A5A9F4F0E94C80E91
:1006A000CE0101960E94A715CE0101960E94081660
:1006B000882339F064E670E080E090E00E94011742
:1006C000F3CFCE0101960E940715CE0101960E943C
:1006D0003016CE0101960E945A16C55ADF4F0FB64A
:1006E000F894DEBF0FBECDBFDF91CF910895CF93B9
:1006F000DF93CDB7DEB7CB55D1090FB6F894DEBF87
:100700000FBECDBF40E050E062EA71E08DED93E0B6
:100710000E94FC051C821B8288EE93E0A0E0B0E002
:100720008D839E83AF83B88782EC93E09A8389831D
:1007300087E494E09E878D871B8A1C8A1D8A69EB5B
:1007400071E0CE018A5A9F4F0E94360FBE016A5A4D
:100750007F4FCE0101960E946116CE018A5A9F4FAB
:100760000E94C80ECE0101960E94A715CE010196E7
:100770000E940816882339F064E670E080E090E07B
:100780000E940117F3CFCE0101960E940715CE01FA
:1007900001960E943016CE0101960E945A16C55A43
:1007A000DF4F0FB6F894DEBF0FBECDBFDF91CF9104
:1007B00008959F92AF92BF92CF92DF92EF92FF92F5
:1007C0000F931F93CF93DF93CDB7DEB7C15AD109F3
:1007D0000FB6F894DEBF0FBECDBFB62E6A01922EC3
:1007E000A32E662319F085EE91E002C08AEE91E017
:1007F0001F930F93AF929F92DF92CF929F938F930D
:1008000080EF91E09F938F937E0186E5E80EF11CC7
:10081000FF92EF920E942C1D40E050E0B7018DED59
:1008200093E00E94FC051C821B8288EE93E0A0E00E
:10083000B0E08D839E83AF83B88782EC93E09A8388
:10084000898387E494E09E878D871B8A1C8A1D8A92
:1008500069E272E0CE0184569F4F0E94360FBE01BE
:1008600064567F4FCE0101960E946116CE018456D8
:100870009F4F0E94C80E0FB6F894DEBF0FBECDBFCB
:10088000BB2019F065EE71E002C06AEE71E0CE01A6
:1008900084569F4F0E94360FBE0164567F4FCE0193
:1008A00001960E949215CE0184569F4F0E94C80E59
:1008B0004AE0B601CE0184569F4F0E94840FBE01CC
:1008C00064567F4FCE0101960E949215CE01845648
:1008D0009F4F0E94C80E4AE0692D7A2DCE018456A2
:1008E0009F4F0E94840FBE0164567F4FCE01019638
:1008F0000E949215CE0184569F4F0E94C80E4AE076
:10090000B801CE0184569F4F0E94840FBE016456E9
:100910007F4FCE0101960E949215CE0184569F4FC3
:100920000E94C80ECE0101960E94A715CE01019625
:100930000E940816882339F064E670E080E090E0B9
:100940000E940117F3CFCE0101960E940715CE0138
:1009500001960E943016CE0101960E945A16CF557C
:10096000DF4F0FB6F894DEBF0FBECDBFDF91CF9142
:100970001F910F91FF90EF90DF90CF90BF90AF90BD
:100980009F9008950F931F93CF93DF93CDB7DEB75A
:10099000CB55D1090FB6F894DEBF0FBECDBF8B018A
:1009A00040E050E061E572E08DED93E00E940906C1
:1009B0001C821B8288EE93E0A0E0B0E08D839E83D2
:1009C000AF83B88782EC93E09A83898387E494E0CD
:1009D0009E878D871B8A1C8A1D8A6BE672E0CE017A
:1009E0008A5A9F4F0E94360FBE016A5A7F4FCE012E
:1009F00001960E946116CE018A5A9F4F0E94C80E2E
:100A0000CE0101960E94A715CE0101960E940816FC
:100A1000882369F00115110519F0F8010995F4CF43
:100A200064E670E080E090E00E940117EDCFCE0117
:100A300001960E940715CE0101960E943016CE0144
:100A400001960E945A16C55ADF4F0FB6F894DEBFC2
:100A50000FBECDBFDF91CF911F910F9108953F92AF
:100A60004F925F926F927F928F929F92AF92BF92BE
:100A7000CF92DF92EF92FF920F931F93CF93DF936A
:100A8000EC018B01342E290161E0842F0E94531860
:100A9000CE01B2010E94AB1A5B016801E12CF12C7E
:100AA000C0E0D0E088249924801A910A662457FC7B
:100AB0006094762CAE14BF04DCF0BE01832D0E943E
:100AC0007F17CC0DDD1D1C161D063CF4CF3FD10554
:100AD0003CF06401CFEFD0E003C06801C0E0D0E09B
:100AE000C301B2010E9401178FEFE81AF80AE2CFA2
:100AF00060E070E0832DDF91CF911F910F91FF9007
:100B0000EF90DF90CF90BF90AF909F908F907F90AD
:100B10006F905F904F903F900C947F17FC01728311
:100B200061830895AF92BF92CF92DF92EF92FF92CE
:100B30000F931F93CF93DF93EC015B016A0179015F
:100B40008B819C81009709F44CC0DC01ED91FC91F4
:100B50000284F385E02D099589819A818A159B0588
:100B60000CF43FC08B819C81DC01ED91FC910190E4
:100B7000F081E02DB60109958B819C81DC01ED911E
:100B8000FC910190F081E02DB70109950115110547
:100B900051F08B819C81DC01ED91FC910190F08101
:100BA000E02DB80109958B819C81DC01ED91FC91D0
:100BB0000480F581E02D6CE171E009958B819C81C9
:100BC000DC01ED91FC910084F185E02DDF91CF9166
:100BD0001F910F91FF90EF90DF90CF90BF90AF905B
:100BE0000994DF91CF911F910F91FF90EF90DF90CB
:100BF000CF90BF90AF9008950F931F939B018A01F0
:100C000040EA52E065E070E00E9492051F910F916A
:100C100008950F931F939B018A0147EA52E064E015
:100C200070E00E9492051F910F910895FC0174835A
:100C30006383089581E08093DD0384E090E09093E6
:100C4000DF038093DE0308959091FC038091FD0300
:100C5000981739F06AE070E080E090E00E94011798
:100C6000F3CF0895CF93DF9300D0CDB7DEB78EEEEC
:100C700093E069837A830E94110969817A818823CC
:100C800041F08EEE93E00F900F90DF91CF910C9496
:100C9000F30A80E090E00F900F90DF91CF910895DC
:100CA000CF93DF931F92CDB7DEB78EEE93E06983CB
:100CB0000E9411096981882339F08EEE93E00F902C
:100CC000DF91CF910C94F50A80E090E00F90DF91D6
:100CD000CF910895CF93DF9300D0CDB7DEB78EEEDE
:100CE00093E069837A830E94110969817A8188235C
:100CF00041F08EEE93E00F900F90DF91CF910C9426
:100D0000120B80E090E00F900F90DF91CF9108954B
:100D1000CF93DF9300D0CDB7DEB78EEE93E069833B
:100D20007A830E94110969817A81882341F08EEECD
:100D300093E00F900F90DF91CF910C94000B80E027
:100D400090E00F900F90DF91CF910895CF93C42F33
:100D500029EC32E0FC0131832083AB01662757FD8B
:100D60006095762F8EEE93E00E940B09CC2369F0FC
:100D70008EEE93E00E941109811107C064E670E0D5
:100D800080E090E00E940117F3CFCF9108958EEE9E
:100D900093E00E941109882321F08EEE93E00C94D9
:100DA000750808950F931F93CF93DF93EC018B0188
:100DB0008A819B81DC01ED91FC910190F081E02D15
:100DC00009958C819D81DC01ED91FC910190F08170
:100DD000E02DB801DF91CF911F910F9109941F93DE
:100DE000CF93DF93EC01162F8A819B81DC01ED917B
:100DF000FC910280F381E02D09958C819D81DC01BD
:100E0000ED91FC910280F381E02D612FDF91CF9174
:100E10001F9109940F931F93CF93DF93EC018B01E4
:100E20008A819B81DC01ED91FC910480F581E02DAC
:100E300009958C819D81DC01ED91FC910480F58107
:100E4000E02DB801DF91CF911F910F9109940F937D
:100E50001F93CF93DF93EC018B018A819B81DC018F
:100E6000ED91FC910680F781E02D09958C819D81A3
:100E7000DC01ED91FC910680F781E02DB801DF9156
:100E8000CF911F910F910994CF93DF93EC018A8149
:100E90009B81DC01ED91FC910084F185E02D0995A9
:100EA0008C819D81DC01ED91FC910084F185E02D28
:100EB000DF91CF910994CF93DF93EC018A819B81DD
:100EC000DC01ED91FC910284F385E02D09958C8184
:100ED0009D81DC01ED91FC910284F385E02DDF9191
:100EE000CF91099424E130E04DE050E06AE070E0F9
:100EF00080E197E20C942F0524E130E04DE050E0D2
:100F00006AE070E088E893E10C942F050895EF9271
:100F1000FF920F931F9326E040E950ED63E070E0ED
:100F200080915004909151040E94200A87E494E03B
:100F30000E94F31162EE73E08DED93E00E941606BD
:100F400065E070E08DED93E00E948E0540E050E09A
:100F500065EE72E08DED93E00E94090640E050E0FE
:100F60006DEE72E08DED93E00E94090662E777E096
:100F70008CED93E00E94A80240E050E066EF72E042
:100F80008DED93E00E9409066CE777E08CED93E02D
:100F90000E94C20440E050E06CE073E08DED93E00D
:100FA0000E94090660E070E08CED93E00E9415035A
:100FB00040E050E069E173E08DED93E00E940906A6
:100FC000E12CF12C0EEF10E020E030E04EEF50E08D
:100FD00061E08CED93E00E94D90324E130E04DE024
:100FE00050E062E370E080E197E20E942F0540E06C
:100FF00050E064E273E08DED93E00E94090660E04A
:1010000070E08CED93E01F910F91FF90EF900C94A6
:10101000770364E670E080E090E00C9401170E9492
:1010200029170E9486078EE394E00E94AA0E0E9470
:101030008707CAE6D9E00E9409082097E1F30E94D9
:101040006A09F9CFCF93DF9340E060E875E28CEE58
:1010500093E00E94A606C8EED3E081E291E0998376
:10106000888383E393E09093EB038093EA0382E524
:1010700094E00E94F11489ED92E09093E303809351
:10108000E203D093E503C093E4038CEE93E09093E6
:10109000E7038093E603DF91CF910895CF93DF9329
:1010A0001F92CDB7DEB76983DC01ED91FC91028020
:1010B000F381E02D41E050E0BE016F5F7F4F099565
:1010C0000F90DF91CF910895CF93DF93EC018C8542
:1010D0009D8597FF05C082E00E94F50B9D878C8758
:1010E0008C859D85DF91CF91089583E00C944A0E05
:1010F000FC018485958597FD06C082E00E949D0BCA
:1011000090E00196089582E00E949D0B90E0089582
:10111000FC018485958597FD05C02FEF3FEF35874E
:101120002487089582E00C94F50BCF93DF93EC01B4
:1011300080910D01882331F083E00E94260C18165F
:10114000190634F081E090E09B838A8380E090E090
:10115000DF91CF910895FC0120812E5F208342E42E
:1011600050E068EE70E080E80C94C10CFC018181D5
:101170009081913A59F4813209F03CC047E050E047
:1011800066E071E080E00E94C10C43C0913291F5AD
:10119000803239F467E070E086E091E00E94F20C62
:1011A00006C0823209F035C0828180930D018091A2
:1011B000060190910701A0910801B0910901803BBF
:1011C0009440A105B105C1F480910D0180FD14C0CA
:1011D00087E797E790930108809300082BE088E168
:1011E00090E00FB6F894A895809360000FBE20930E
:1011F00060000FC080E0089588E10FB6F8948093F6
:101200006000109260000FBEA89510920108109225
:10121000000881E008952FEF3FEFFC013587248718
:101220000895CF93C0910D016AE070E080E090E0F6
:101230000E94011781E0C11101C080E0CF910895A3
:101240001092F1031092F00388EE93E0A0E0B0E07A
:101250008093F2039093F303A093F403B093F50308
:101260008CE493E09093EF038093EE038FEF9FEF76
:101270009093FB038093FA030895FC01818D228DE6
:1012800090E0805C9F4F821B91098F73992708958E
:10129000FC01918D828D981731F0828DE80FF11D40
:1012A000858D90E008958FEF9FEF0895FC01918D5B
:1012B000828D981761F0828DDF01A80FB11D5D96B8
:1012C0008C91928D9F5F9F73928F90E008958FEF26
:1012D0009FEF08958DE59AE1892B49F080E090E039
:1012E000892B29F00E945D1A81110C940000089549
:1012F000FC01848DDF01A80FB11DA35ABF4F2C91B3
:10130000848D90E001968F739927848FA689B78981
:101310002C93A089B1898C9180648C93938D848D5A
:10132000981306C00288F389E02D80818F7D808329
:101330000895CF93DF93EC01888D8823C9F0EA8963
:10134000FB89808185FD05C0A889B9898C9186FDBE
:101350000FC00FB607FCF5CF808185FFF2CFA889BB
:10136000B9898C9185FFEDCFCE010E947809E7CF36
:10137000DF91CF910895CF92DF92FF920F931F9349
:10138000CF93DF931F92CDB7DEB76C0181E0D6011A
:1013900058968C9358975B969C915B975C968C9132
:1013A0005C97981307C05096ED91FC9151978081FE
:1013B00085FD2EC0F601038D10E00F5F1F4F0F73E8
:1013C0001127F02EF601848DF81211C00FB607FC1C
:1013D000F9CFD6015096ED91FC915197808185FF10
:1013E000F1CFC60169830E9478096981EBCF838DB3
:1013F000E80FF11DE35AFF4F6083D6015B960C9313
:101400005B975296ED91FC915397808180620CC05E
:10141000D6015696ED91FC91579760835096ED91C9
:10142000FC91519780818064808381E090E00F90EF
:10143000DF91CF911F910F91FF90DF90CF90089592
:10144000BF92CF92DF92EF92FF92CF93DF93EC01A6
:101450006A017B01B22EE889F98982E08083411517
:1014600081EE580761057105A1F060E079E08DE338
:1014700090E0A70196010E94BF1A2150310941094D
:1014800051095695479537952795211580E13807DD
:1014900098F0E889F989108260E874E88EE190E0BC
:1014A000A70196010E94BF1A215031094109510933
:1014B0005695479537952795EC85FD853083EE85C4
:1014C000FF852083188EEC89FD89B082EA89FB892B
:1014D000808180618083EA89FB8980818860808344
:1014E000EA89FB89808180688083EA89FB89808121
:1014F0008F7D8083DF91CF91FF90EF90DF90CF9031
:10150000BF900895CF92DF92EF92FF920F931F93B7
:10151000CF93DF936C017A01EB01E60EF71E00E03A
:1015200010E0CE15DF0561F06991D601ED91FC91D7
:101530000190F081E02DC6010995080F191FF1CF28
:10154000C801DF91CF911F910F91FF90EF90DF9035
:10155000CF9008956115710581F0DB010D90002099
:10156000E9F7AD0141505109461B570BDC01ED91E4
:10157000FC910280F381E02D099480E090E00895D1
:10158000EF92FF920F931F93CF93DF938C01FB0198
:10159000C0E0D0E064917F018FEFE81AF80A66237B
:1015A00061F0D801ED91FC910190F081E02DC8012E
:1015B0000995C80FD91FF701EDCFCE01DF91CF916B
:1015C0001F910F91FF90EF900895DC01ED91FC9138
:1015D000DB0114964D915C9115976D917C91028081
:1015E000F381E02D09940C94AA0ADC01ED91FC91A1
:1015F0000190F081E02D09946AE171E00C94AA0A4F
:101600000F931F93CF93DF93EC010E94E50A8C01A7
:10161000CE010E94FC0A800F911FDF91CF911F9194
:101620000F9108950F931F93CF93DF93EC010E94C6
:10163000AA0A8C01CE010E94FC0A800F911FDF9143
:10164000CF911F910F91089540914204509143040E
:10165000209140043091410442175307B4F4909113
:10166000E8009570E1F39091E80092FD19C0809335
:10167000F100809142049091430401968F73992761
:10168000892B19F48EEF8093E800809142049091A9
:1016900043040196909343048093420481E00895AB
:1016A00080E00895CF92DF92FF920F931F93CF9324
:1016B000DF931F92CDB7DEB7082F162F862F880F26
:1016C0008E5F99830E94240B83E00E94240BF02EEE
:1016D000C02E9981D92E8C2D8F19811778F4F6019F
:1016E00084910E94240B082F80E00E94240B802309
:1016F000FFEFCF1ADF0A8111EECF01C081E00F901A
:10170000DF91CF911F910F91FF90DF90CF900895BF
:10171000615030F02091F100FC0120830196F8CF58
:10172000289884E68093450408952FB7FC01208310
:10173000F89467706093E9000895CF93DF931F9248
:10174000CDB7DEB7682FCE0101960E94950B809130
:10175000F20099819FBF0F90DF91CF910895FF9282
:101760000F931F93CF93DF9300D0CDB7DEB7F62E44
:101770008A0190914404992311F057FF03C08FEF21
:101780009FEF2BC0682FCE0101967A830E94950BA4
:101790008091F20090E0A8017A81801791070CF403
:1017A000AC01EF2DF72FF40E84E6FE1639F02898E1
:1017B000809345049091F1009193F7CF4115510525
:1017C00021F08091F200882321F089818FBFCA0126
:1017D00004C08BE68093E800F8CF0F900F90DF9164
:1017E000CF911F910F91FF900895CF93DF931F9298
:1017F000CDB7DEB741E050E0BE016F5F7F4F0E9482
:10180000AF0B019719F4898190E002C08FEF9FEF31
:101810000F90DF91CF910895CF93DF931F92CDB7B3
:10182000DEB7682FCE0101960E94950B9091E800DB
:10183000892F807295FF04C09091F20080E4891B8B
:1018400099819FBF0F90DF91CF9108956F927F9202
:101850008F929F92AF92BF92CF92DF92EF92FF92C0
:101860000F931F93CF93DF931F92CDB7DEB7782EE0
:101870007B01C42EB52E80914404882369F0042F87
:10188000152F8AEFD82E872D8072982E9AE3A92ED5
:10189000872D8074882E11C08FEF9FEF57C0872D42
:1018A0000E940C0C682E81110CC0DA94A9F361E03F
:1018B00070E080E090E00E9401170115110579F7B2
:1018C0003BC0282F30E0021713070CF4602E672D61
:1018D000CE0101960E94950B8091E80085FF29C0FA
:1018E000262D30E0021B130B992039F06A948FEFFC
:1018F0006816B1F01092F100F9CFF701862D77FE4E
:1019000007C0815058F094919093F1003196F9CF2F
:10191000815020F091919093F100FACFE20EF31EE6
:101920008091E80085FF0FC00115110511F48110A9
:101930000AC089818FBFC1CF5D9884E68093460439
:101940008C2D9B2D03C0A092E800F3CF0F90DF9168
:10195000CF911F910F91FF90EF90DF90CF90BF90AC
:10196000AF909F908F907F906F9008951092E900B4
:1019700010924304109242049093410480934004D7
:101980000895CF92DF92FF920F931F93CF93DF932F
:1019900000D0CDB7DEB7F82E8A016B010115110515
:1019A000B1F0F601F7FE02C0849101C08081498345
:1019B0005A830E94240B01501109FFEFCF1ADF0A4E
:1019C00049815A818111EACF8FEF9FEF01C0CA018F
:1019D0000F900F90DF91CF911F910F91FF90DF90AB
:1019E000CF9008951F93CF93DF931F92CDB7DEB7AB
:1019F000162F2091E80022FFFCCF612F79830E94EF
:101A0000880B8BEF8093E800812F7981972F0F90BF
:101A1000DF91CF911F910895CF93DF931F92CDB7A0
:101A2000DEB71982CE0101960E94AB08CE01019665
:101A30000E94E018898190E00F90DF91CF91089586
:101A40001F920F920FB60F921124EF92FF920F93F5
:101A50001F932F933F934F935F936F937F938F9336
:101A60009F93AF93BF93EF93FF93CF93DF93CDB744
:101A7000DEB76297DEBFCDBF1092E9008091E8002B
:101A800083FFEBC068E0CE010A960E94880B82EFCC
:101A90008093E8009A8597FF05C08091E80080FF59
:101AA000FCCF03C08EEF8093E800892F807609F089
:101AB000B9C08B85811105C01092F1001092F10020
:101AC000C5C0282F2D7F213009F4C0C0853049F4CE
:101AD0008091E80080FFFCCF8C8580688093E300D4
:101AE000B5C0863009F076C02D85E888F9882230A7
:101AF00071F580E090E02A8B0E94B60C0E940C0DDC
:101B000099E08E010F5F1F4FF801392F11923A951E
:101B1000E9F799832A892A8391E09E8390E8988740
:101B20009AEF99872091420430914304275F3F4FF9
:101B30003C832B838D83C7010E94B60C49E050E0A3
:101B4000B80180E00E94C10C0E940C0D7FC0C7014B
:101B50002A8B0E94B60C2A89223241F482E290E05C
:101B60000E94EB18892B09F071C074C0213069F410
:101B700088899989089711F420933F0480913F0444
:101B8000811118C061E471E01AC0233009F062C00D
:101B90008C85882391F0823021F46CE08FE591E010
:101BA00006C0813009F056C06BE083E591E00E94E9
:101BB000520B4AC06FE271E002C06CE671E0611541
:101BC000710509F447C0FB01449150E080E80E9490
:101BD000C10C3CC0873009F43DC0883021F481E05D
:101BE0008093F10033C0893089F5937099F5EBE269
:101BF000F1E081E021E096E38093E9002093EB009F
:101C000034913093EC009093ED008F5F31968530E6
:101C100099F78EE78093EA001092EA008C85809312
:101C2000440414C0888999890E94B60C8E8581115C
:101C300005C0CE010A960E94B60806C0823051F453
:101C4000CE010A960E941319882321F08EEF80930B
:101C5000E80003C081E28093EB0062960FB6F8942F
:101C6000DEBF0FBECDBFDF91CF91FF91EF91BF914E
:101C7000AF919F918F917F916F915F914F913F9124
:101C80002F911F910F91FF90EF900F900FBE0F902B
:101C90001F9018958093E9008091F200882319F035
:101CA0008AE38093E80008951F920F920FB60F9277
:101CB00011242F933F934F935F936F937F938F9351
:101CC0009F93AF93BF93EF93FF938091E1001092A6
:101CD000E10083FF0FC01092E90091E09093EB00C8
:101CE0001092EC0092E39093ED001092440498E07F
:101CF0009093F00082FF1DC083E00E944A0E809105
:101D00004604882339F0809146048150809346042C
:101D1000882369F080914504882359F08091450417
:101D2000815080934504811104C0289A02C05D9AB5
:101D3000F1CFFF91EF91BF91AF919F918F917F91E3
:101D40006F915F914F913F912F910F900FBE0F9028
:101D50001F9018951092440481E08093D70080EA88
:101D60008093D80082E189BD09B400FEFDCF61E017
:101D700070E080E090E00E94011780E98093D80035
:101D80008CE08093E2001092E000559A209A08952A
:101D9000FC01808191810C94931BCF93DF93EC0124
:101DA00088819981009711F00E94931B19821882F3
:101DB0001D821C821B821A82DF91CF9108950F939E
:101DC0001F93CF93DF93EC018B016F5F7F4F88816F
:101DD00099810E94221C009731F0998388831B838C
:101DE0000A8381E001C080E0DF91CF911F910F91C4
:101DF0000895CF93DF93EC0188819981892B29F095
:101E00008A819B818617970760F4CE010E94DF0EBE
:101E1000882341F08C819D81892B19F4E881F98117
:101E2000108281E0DF91CF910895EF92FF920F939E
:101E30001F93CF93DF93EC017B018A01BA010E94CB
:101E4000F90E811104C0CE010E94CD0E07C01D8382
:101E50000C83B701888199810E94F51CCE01DF9126
:101E6000CF911F910F91FF90EF900895FC01118287
:101E7000108213821282158214826115710559F045
:101E8000FB0101900020E9F7AF0141505109461BC9
:101E9000570B0C94150F0895CF93DF93EC01FB01C2
:101EA0008617970761F0608171816115710529F0CE
:101EB000448155810E94150F02C00E94CD0ECE01B3
:101EC000DF91CF910895FC0111821082138212825A
:101ED000158214820C944C0FCF93DF93EC016115A3
:101EE000710561F0FB0101900020E9F7AF0141505D
:101EF0005109461B570B0E94150F02C00E94CD0EC0
:101F0000CE01DF91CF9108950F931F93CF93DF936D
:101F1000CDB7DEB762970FB6F894DEBF0FBECDBF68
:101F20008C01CB01F801118210821382128215827A
:101F3000148250E0BE016F5F7F4F0E94FC1CBE0107
:101F40006F5F7F4FC8010E946C0F62960FB6F894C6
:101F5000DEBF0FBECDBFDF91CF911F910F910895CE
:101F6000EF92FF920F931F93CF93DF93EC017B01CE
:101F70000C811D816115710511F480E016C04115B9
:101F8000510591F0040F151FB8010E94F90E882326
:101F9000A1F3288139818C819D81B701820F931F24
:101FA0000E94F51C1D830C8381E0DF91CF911F916E
:101FB0000F91FF90EF900895FB014481558160815E
:101FC00071810C94B00F6115710559F0FB010190FE
:101FD0000020E9F7AF0141505109461B570B0C9403
:101FE000B00F80E00895FC01238134812627022E62
:101FF0002295207F2025032E322F22952F70022636
:10200000269532272327220F220F220F2025FC019D
:10201000348323830895CF93DF93EC018D819E81D8
:10202000DC01ED91FC916C810190F081E02D09952E
:102030008D819E81DC01ED91FC910190F081E02D7C
:102040006B81DF91CF9109948F929F92AF92BF9253
:10205000CF92DF92EF92FF92CF93DF93EC016B016F
:102060000E94D2164B015C01E12CF12C8D819E81E6
:10207000DC01ED91FC910680F781E02D099597FF39
:102080000DC00E94D216681979098A099B096C153E
:102090007D058E059F0550F38FEF9FEFDF91CF9168
:1020A000FF90EF90DF90CF90BF90AF909F908F9078
:1020B0000895CF93DF93EC018D819E81DC01ED913A
:1020C000FC910480F581E02D09951816190654F449
:1020D0008D819E81DC01ED91FC910680F781E02DE0
:1020E0000995EACFDF91CF9108952F923F924F92B9
:1020F0005F926F927F928F929F92AF92BF92CF9298
:10210000DF92EF92FF920F931F93CF93DF93CDB7A0
:10211000DEB72D970FB6F894DEBF0FBECDBF3C01E2
:102120001B013C832B83BF82AE825801AC0CBD1CCB
:10213000A40EB51EBD824B2C512CCA01860F971FD1
:1021400099878887D901A00FB11FBB87AA87F6019D
:10215000EE0DFF1DFD87EC87D30118968C91581664
:1021600008F026C1EFEFFFEFD3011496FC93EE9336
:10217000139715968D919C911697DC01ED91FC912A
:102180000190F081E02D6FEF09956FEFC3010E9480
:10219000F30FF30185819681DC01ED91FC910190B3
:1021A000F081E02DD3016C910995F3016081C301A9
:1021B0000E94F30FD30115968D919C911697DC0127
:1021C000ED91FC910190F081E02D6D810995642DD8
:1021D000C3010E94F30FF30185819681DC01ED912B
:1021E000FC910190F081E02D6A2D09956A2DC301C3
:1021F0000E94F30F610188859985C816D906A1F060
:10220000F301858196818601DC01ED91FC910190BD
:10221000F081E02DD6016D916D010995F801608185
:10222000C3010E94F30FE7CFCB80DC808A859B85BA
:10223000C816D906B1F0D30115968D919C911697C9
:102240008601DC01ED91FC910190F081E02DD60139
:102250006D916D010995F8016081C3010E94F30F32
:10226000E5CF87018C859D8508171907B1F0D3014B
:1022700015968D919C9116976801DC01ED91FC916A
:102280000190F081E02DD8016D918D010995F60145
:102290006081C3010E94F30FE5CFC3010E940B10C0
:1022A00064E670E0C3010E9424108F3F910509F09D
:1022B00074C0EFEFFFEFD3011496FC93EE931397E6
:1022C0006FEFC3010E94F30F65E070E0C3010E944D
:1022D0002410D3016C91262F30E08217930709F068
:1022E0005CC0C3010E94F30F6AE070E0C3010E946A
:1022F00024108C0197FD51C0682FC3010E94F30F79
:102300006AE070E0C3010E9424106C0197FD45C093
:10231000682FC3010E94F30F0A83198209811A8171
:102320000C0D1D1DC12CD12C65E070E0C301C01641
:10233000D106A1F0C814D90489F00E94241097FD99
:1023400009C0EE81FF81EC0DFD1D8083682FC30164
:102350000E94F30FBFEFCB1ADB0AE6CF0E942410D6
:102360006C0197FD1AC065E070E0C3010E94241063
:1023700097FD13C0DC2CCC24C80ED91EF301838139
:1023800094818C159D0549F480818F5F8083C801FD
:102390008016910678F4C4010DC0539464E670E091
:1023A00080E090E00E940117C3010E945910D4CE32
:1023B0008FEF9FEF2D960FB6F894DEBF0FBECDBF07
:1023C000DF91CF911F910F91FF90EF90DF90CF9011
:1023D000BF90AF909F908F907F906F905F904F9045
:1023E0003F902F9008953F924F925F926F927F920D
:1023F0008F929F92AF92BF92CF92DF92EF92FF9215
:102400000F931F93CF93DF93CDB7DEB72E970FB601
:10241000F894DEBF0FBECDBF3C01DC0117968C9156
:1024200017978111CFC081E017968C93C3010E944A
:10243000591068EE73E080E090E00E940117F3010C
:1024400085819681DC01ED91FC910480F581E02D80
:1024500009951816190654F355E0552E4424439453
:1024600062E3362EE0E1F1E0DE011696852D019063
:102470000D928A95E1F7F3014086812C912CA12CD5
:10248000B12CC12CD12CE12CF12C00E010E020E08B
:1024900030E045E050E0BE016A5F7F4FC3010E941B
:1024A000751063E0D30115968D919C9116970E944B
:1024B000F50A6AEF70E080E090E00E9401176EE795
:1024C00071E0F301858196810E94C00A6AEF70E095
:1024D00080E090E00E9401176CE771E0D30115964F
:1024E0008D919C9116970E94C00A64EF71E080E084
:1024F00090E00E94011760E771E0F3018581968109
:102500000E94C00A64EF71E080E090E00E94011731
:10251000C3010E945910E5E1F1E0DE011196852D1D
:1025200001900D928A95E1F7D30118963C9244E010
:10253000842E912CFE013B965F0120E030E045E0C7
:1025400050E0BE016F5F7F4FC3010E9475108F3F47
:10255000FFEF9F0739F468EE73E080E090E00E949F
:10256000011780CF2B852111FFCF049711F52C8502
:1025700030E02053310944E6429FC001439F900D53
:1025800011242D8530E0205331096AE0629FA001BB
:10259000639F500D1124840F951F2E8530E020532A
:1025A0003109820F931FD30112969C938E9311973A
:1025B00005C084E690E0F3019283818382E3D30136
:1025C00018968C932E960FB6F894DEBF0FBECDBF33
:1025D000DF91CF911F910F91FF90EF90DF90CF90FF
:1025E000BF90AF909F908F907F906F905F904F9033
:1025F0003F900895109247048AE694E090934D042A
:1026000080934C0410924E0410924F049093510406
:10261000809350040895CF93DF931F92CDB7DEB718
:102620006983DC01ED91FC910280F381E02D41E0B2
:1026300050E0BE016F5F7F4F09950F90DF91CF9102
:10264000089508956F927F928F929F92AF92BF925A
:10265000CF92DF92EF92FF920F931F93CF93DF936E
:1026600000D01F92CDB7DEB79B013A01FC01E85ABA
:10267000FF4F40814F3F21F147E64983319640812A
:102680004A83399788248394912CCE0103965C0168
:10269000C12CD12CE12CF12C830142E050E0BE0191
:1026A0006F5F7F4F808191810E9475108B8188239D
:1026B00029F090E091958195910904C0C30102C071
:1026C0008FEF9FEF0F900F900F90DF91CF911F91A1
:1026D0000F91FF90EF90DF90CF90BF90AF909F90C1
:1026E0008F907F906F9008958F929F92AF92BF923C
:1026F000CF92DF92EF92FF920F931F9348015901FF
:10270000C12CD12CE12CF12C00E010E020E030E0D5
:102710000E9475101F910F91FF90EF90DF90CF9066
:10272000BF90AF909F908F9008952F923F924F92BD
:102730005F926F927F928F929F92AF92BF92CF9251
:10274000DF92EF92FF920F931F93CF93DF93CDB75A
:10275000DEB728970FB6F894DEBF0FBECDBF3C01A1
:102760008B01FC011382128288EE93E0A0E0B0E0BE
:1027700084839583A683B78384EA93E091838083DF
:102780001301F0E52F0E311CF10131832083730119
:10279000F2E5EF0EF11C6CE171E0C70148870E9481
:1027A000360F230188E5480E511C4885F20140830D
:1027B000B801C7010E946C0F82E7898387E78A838B
:1027C00081E68B8386E48E83F2018081FE01E80F2F
:1027D000F11D81818F8381E090E0F30197878687E7
:1027E000EA5AFF4F00811181F7012081318192E087
:1027F000892E912CCE0104965C01C12CD12CE12CA8
:10280000F12C42E050E0BE016A5F7F4FF101808110
:1028100091810E9475108C81882321F08FEFF20145
:10282000808307C0F301E75AFF4F8D818083F30156
:10283000148628960FB6F894DEBF0FBECDBFDF9189
:10284000CF911F910F91FF90EF90DF90CF90BF90AD
:10285000AF909F908F907F906F905F904F903F9040
:102860002F900895FC01E85AFF4F81E090819F3F2F
:1028700009F480E00895EF92FF920F931F93CF9396
:10288000DF9300D01F92CDB7DEB77C01FC018485B9
:10289000811124C0158687E489838FE38B83E75AEF
:1028A000FF4F80818A8300E410E09701205F3F4F53
:1028B00043E050E0BE016F5F7F4F39978081918187
:1028C0000E947413F7018487811102C0148606C028
:1028D000F70195859F5F9587815084870F900F90B2
:1028E0000F90DF91CF911F910F91FF90EF9008957E
:1028F000CF93DF93EC010E943B148C85882359F021
:1029000081508C878D8591E0980F9D87C80FD11DD0
:10291000888990E002C08FEF9FEFDF91CF910895FB
:10292000CF93DF93EC010E943B148C85882331F018
:102930008D85C80FD11D888990E002C08FEF9FEF71
:10294000DF91CF910895CF93DF93EC010E943B1468
:102950008C8590E0DF91CF910895EF92FF920F93D5
:102960001F93CF93DF9300D01F92CDB7DEB77C01CA
:1029700028E5E20EF11CF70120812F3FB9F026E691
:102980002983319620812A83399701E010E09E0146
:102990002D5F3F4F42E050E0BE016F5F7F4F80816F
:1029A00091810E9474138FEFF70180830F900F9035
:1029B0000F90DF91CF911F910F91FF90EF900895AD
:1029C000CF93DF93EC0184EA93E099838883CE016F
:1029D0000E94AD14CE018E5A9F4FDF91CF910C947F
:1029E000C80E81E00895CF93DF93EC01BA01422F26
:1029F00027E434E00E949513CE01DF91CF91089532
:102A000087E494E0909353048093520408950895CA
:102A10000F931F93CF93DF9300D01F92CDB7DEB7F4
:102A200029E42983FC0126852A836B8300E010E0DA
:102A300020E030E043E050E0BE016F5F7F4F8485CF
:102A400095850E94741381E090E00F900F900F9095
:102A5000DF91CF911F910F910895EF92FF920F9305
:102A60001F93CF93DF9300D01F92CDB7DEB77C01C9
:102A7000FC018389811117C0148A8FE489838685BC
:102A80008A8380E48B8397012B5E3F4F00E410E044
:102A900043E050E0BE016F5F7F4F848595850E94C3
:102AA0007413F701838B0F900F900F90DF91CF91EC
:102AB0001F910F91FF90EF900895CF93DF93EC015A
:102AC0000E942D158B8990E0DF91CF910895CF93CF
:102AD000DF93EC010E942D158B89882359F08150DA
:102AE0008B8B8C8991E0980F9C8BC80FD11D8D89A1
:102AF00090E002C08FEF9FEFDF91CF910895CF93C9
:102B0000DF93EC010E942D158B89882331F08C898D
:102B1000C80FD11D8D8990E002C08FEF9FEFDF912C
:102B2000CF9108950F931F93CF93DF93EC018B0107
:102B300060EB73E0888999890E94E30FB801888966
:102B40009989DF91CF911F910F910C94DC0F6F92B7
:102B50007F928F929F92AF92BF92CF92DF92EF922D
:102B6000FF920F931F93CF93DF9300D01F92CDB7A7
:102B7000DEB73C0182E58B83D3015096ED91FC9149
:102B80005197048115812081318182E0882E912C1A
:102B9000FE0131965F01C12CD12CE12CF12C41E0DA
:102BA00050E0BE016D5F7F4F1C968D919C911D97EB
:102BB0000E9475108A8190E0D3011F969C938E939A
:102BC0001E9750960D911C9151970115110531F0EA
:102BD000C8010E94C80EC8010E948616F301118A1E
:102BE000108A8981811102C081E0828B0F900F9041
:102BF0000F90DF91CF911F910F91FF90EF90DF9099
:102C0000CF90BF90AF909F908F907F906F900895DE
:102C10000F931F93CF93DF9300D01F92CDB7DEB7F2
:102C200022E72983FC0126852A8301E010E09E012A
:102C30002D5F3F4F42E050E0BE016F5F7F4F8485C4
:102C400095850E94741381E09B81913009F080E0AA
:102C50000F900F900F90DF91CF911F910F910895DA
:102C6000EF92FF920F931F93CF93DF9300D0CDB7D6
:102C7000DEB77C01FC018289882389F087E789839C
:102C800086858A8300E010E020E030E042E050E0FA
:102C9000BE016F5F7F4F848595850E947413F70195
:102CA000128A0F900F90DF91CF911F910F91FF909B
:102CB000EF90089522EC33E0FC01318320830C94E3
:102CC0003016EF92FF920F931F93CF93DF9300D0B4
:102CD000CDB7DEB77C0169837A830E94301686E027
:102CE00090E00E9484168C0169817A810E94630FB2
:102CF000F701118B008B0F900F90DF91CF911F91F7
:102D00000F91FF90EF9008950C94FB1A0C94931B75
:102D10001F920F920FB60F9211242F933F938F9310
:102D20009F93AF93BF938091550490915604A091C7
:102D30005704B09158043091540423E0230F2D37E9
:102D400020F40196A11DB11D05C026E8230F0296AF
:102D5000A11DB11D209354048093550490935604F3
:102D6000A0935704B09358048091590490915A0449
:102D7000A0915B04B0915C040196A11DB11D8093EC
:102D8000590490935A04A0935B04B0935C04BF91E0
:102D9000AF919F918F913F912F910F900FBE0F9008
:102DA0001F9018952FB7F8946091550470915604B0
:102DB00080915704909158042FBF08953FB7F8941D
:102DC0008091590490915A04A0915B04B0915C04E5
:102DD00026B5A89B05C02F3F19F00196A11DB11D76
:102DE0003FBF6627782F892F9A2F620F711D811D93
:102DF000911D42E0660F771F881F991F4A95D1F7F2
:102E00000895CF92DF92EF92FF92CF93DF936B0101
:102E10007C010E94DE16EB01C114D104E104F1042F
:102E200089F00E94AA1A0E94DE166C1B7D0B683E78
:102E3000734090F381E0C81AD108E108F108C85145
:102E4000DC4FEACFDF91CF91FF90EF90DF90CF90F2
:102E50000895789484B5826084BD84B5816084BD12
:102E600085B5826085BD85B5816085BDEEE6F0E003
:102E7000808181608083E1E8F0E01082808182605F
:102E80008083808181608083E0E8F0E080818160E0
:102E90008083E1E9F0E080818260808380818160CD
:102EA0008083E0E9F0E0808181608083E1ECF0E004
:102EB0008081846080838081826080838081816062
:102EC0008083E3ECF0E0808181608083E0ECF0E0DF
:102ED000808182608083E2ECF0E080818160808389
:102EE000EAE7F0E080818460808380818260808373
:102EF00080818160808380818068808308951F93B2
:102F0000CF93DF93182FEB0161E00E9453182097B5
:102F100011F460E004C0CF3FD10539F461E0812FA6
:102F2000DF91CF911F910C948C18E12FF0E0E058C5
:102F3000FE4F449150E0FA013197EF30F10508F06F
:102F40006CC0EA5AFF4F0C94E11A84B5806884BDC6
:102F5000C7BD68C084B5806284BDC8BD63C08091B0
:102F60008000806880938000D0938900C09388009F
:102F700059C080918000806280938000D0938B0044
:102F8000C0938A004FC08091800088608093800049
:102F9000D0938D00C0938C0045C0809190008068D4
:102FA00080939000D0939900C09398003BC080918B
:102FB0009000806280939000D0939B00C0939A0011
:102FC00031C080919000886080939000D0939D00E4
:102FD000C0939C0027C08091C00080688093C0008F
:102FE0008091C0008F7B8093C000C093CF001AC037
:102FF0008091C00080628093C000C093D00012C056
:103000008091C20088608093C2008091C2008B7F53
:103010008093C200C093D20005C0C038D1050CF027
:103020007DCF77CFDF91CF911F91089590E0FC0184
:103030003197EF30F105B0F5EB59FF4F0C94E11AE1
:10304000809180008F7703C0809180008F7D809376
:103050008000089580918000877FF9CF84B58F77B5
:1030600002C084B58F7D84BD0895809190008F77D4
:1030700007C0809190008F7D03C080919000877F72
:103080008093900008958091C0008F7703C0809155
:10309000C0008F7D8093C00008958091C200877F1B
:1030A0008093C2000895CF93DF9390E0FC01E25635
:1030B000FE4F2491FC01E454FE4F8491882349F192
:1030C00090E0880F991FFC01E851FE4FA591B49143
:1030D00086529E4FFC01C591D4919FB7611108C0E3
:1030E000F8948C91209582238C93888182230AC046
:1030F000623051F4F8948C91322F309583238C9365
:103100008881822B888304C0F8948C91822B8C93C5
:103110009FBFDF91CF9108950F931F93CF93DF93BC
:103120001F92CDB7DEB7282F30E0F901E058FE4FEF
:103130008491F901E256FE4F1491F901E454FE4FD7
:1031400004910023C9F0882321F069830E94161896
:103150006981E02FF0E0EE0FFF1FE652FE4FA591D0
:10316000B4919FB7F8948C91611103C0109581239D
:1031700001C0812B8C939FBF0F90DF91CF911F9146
:103180000F910895FF920F931F93CF93DF93EC015C
:10319000F62EE881F9810480F581E02D09958C01F6
:1031A000E881F9810680F781E02D6F2DCE01099528
:1031B000C8019927DF91CF911F910F91FF9008953A
:1031C000FC0120812F5F208349E150E066E772E037
:1031D00080E80C94C10C45E650E06FE872E080E8AE
:1031E0000C94C10CEF92FF920F931F93CF93DF9338
:1031F0001F92CDB7DEB789838B017A0141E050E0A1
:10320000BE016F5F7F4F84E00E94260CA701B801CA
:1032100084E40E94260C0F90DF91CF911F910F91B3
:10322000FF90EF900895FC0191818081813A31F403
:1032300081E0913091F0933089F411C0813271F4C2
:103240009B3021F4828180930F0105C09A3031F4C4
:10325000828180930E0181E00895089580E00895B1
:1032600048E050E082E00C94F218CF93DF93DC0149
:10327000683818F0E8E7E60F25C0E62FF0E067FFB2
:1032800011C0E058F10981E090E001C0880FEA9593
:10329000EAF714969C911497982B14969C93149784
:1032A000E0E010C0EA50FE4FE491EE2309F440C084
:1032B000E7FF08C014968C911497826014968C9343
:1032C0001497EF7716968C9116978E1741F11796F3
:1032D0008C9117978E1719F118968C9118978E1755
:1032E000F1F019968C9119978E17C9F01A968C9156
:1032F0001A978E17A1F01B968C911B978E1779F059
:1033000080E090E0ED01C80FD91F2E81211102C08D
:10331000EE8305C0019686309105A1F709C0BD0175
:103320006C5F7F4FCD010E94301981E090E008C0B2
:1033300081E090E013969C938E93129780E090E04A
:10334000DF91CF910895683818F0E8E7E60F25C0BF
:10335000E62FF0E067FF12C0E058F10921E030E00D
:1033600001C0220FEA95EAF72095DC0114963C9102
:103370001497322314963C93E0E00FC0EA50FE4FBE
:10338000E491EE2329F1E7FF08C0DC0114962C91AB
:1033900014972D7F14962C93EF7720E030E0EE23E6
:1033A00051F0DC01A20FB31F16964C9116974E13E5
:1033B00002C016961C922F5F3F4F2630310579F7D9
:1033C000BC016C5F7F4F0E94301981E090E008954E
:1033D00080E090E00895FC01168217821086118625
:1033E000128613861482BC016C5F7F4F0C943019D7
:1033F000109269041092600410925F0482ED93E0D1
:1034000090935E0480935D0408951F920F920FB60F
:103410000F9211242F938F939F93EF93FF93E0913B
:103420007A04F0917B048081E0918004F091810422
:1034300082FD12C09081809183048F5F8F732091F1
:103440008404821751F0E0918304F0E0E659FB4FC9
:10345000958F8093830401C08081FF91EF919F91AC
:103460008F912F910F900FBE0F901F9018951F9264
:103470000F920FB60F9211242F933F934F935F93A8
:103480006F937F938F939F93AF93BF93EF93FF932C
:103490008AE694E00E947809FF91EF91BF91AF9185
:1034A0009F918F917F916F915F914F913F912F915C
:1034B0000F900FBE0F901F9018958AE694E00E941F
:1034C0003D0921E0892B09F420E0822F0895109214
:1034D0006D0410926C0488EE93E0A0E0B0E080935D
:1034E0006E0490936F04A0937004B09371048CE504
:1034F00093E090936B0480936A048DEC90E090933A
:103500007704809376048CEC90E090937904809318
:10351000780488EC90E090937B0480937A0489ECA3
:1035200090E090937D0480937C048AEC90E09093EB
:103530007F0480937E048EEC90E0909381048093CE
:1035400080041092830410928404109285041092D7
:1035500086040895089597FB072E16F4009407D06B
:1035600077FD09D00E94E71A07FC05D03EF490953C
:1035700081959F4F0895709561957F4F0895A1E2C1
:103580001A2EAA1BBB1BFD010DC0AA1FBB1FEE1FDD
:10359000FF1FA217B307E407F50720F0A21BB30B28
:1035A000E40BF50B661F771F881F991F1A9469F7A4
:1035B00060957095809590959B01AC01BD01CF0100
:1035C0000895EE0FFF1F0590F491E02D0994AA1BBA
:1035D000BB1B51E107C0AA1FBB1FA617B70710F0FE
:1035E000A61BB70B881F991F5A95A9F78095909530
:1035F000BC01CD010895CF93DF938230910510F483
:1036000082E090E0E0910905F0910A0520E030E0C9
:10361000A0E0B0E0309739F1408151814817590757
:10362000B8F04817590771F482819381109729F0F7
:1036300013969C938E9312972CC090930A058093B7
:10364000090527C02115310531F04217530718F03D
:10365000A901DB0101C0EF019A01BD01DF01028078
:10366000F381E02DD7CF21153105F9F0281B390B57
:103670002430310580F48A819B816115710521F028
:10368000FB019383828304C090930A05809309050C
:10369000FE01329644C0FE01E20FF31F8193919325
:1036A00022503109398328833AC02091070530918F
:1036B0000805232B41F4209102013091030130933E
:1036C0000805209307052091000130910101211583
:1036D000310541F42DB73EB74091040150910501E9
:1036E000241B350BE0910705F0910805E217F3075D
:1036F000A0F42E1B3F0B2817390778F0AC014E5F62
:103700005F4F2417350748F04E0F5F1F5093080591
:10371000409307058193919302C0E0E0F0E0CF0170
:10372000DF91CF910895CF93DF93009709F487C07D
:10373000FC01329713821282C0910905D0910A05CB
:10374000209781F420813181280F391F809107054E
:10375000909108058217930779F5F0930805E09397
:1037600007056DC0DE0120E030E0AE17BF0750F462
:1037700012964D915C9113979D014115510509F1E8
:10378000DA01F3CFB383A28340815181840F951F67
:103790008A179B0771F48D919C911197840F951F47
:1037A00002969183808312968D919C9113979383B7
:1037B00082832115310529F4F0930A05E093090568
:1037C0003EC0D9011396FC93EE9312974D915D91F3
:1037D000A40FB51FEA17FB0779F480819181840F4C
:1037E000951F0296D90111969C938E9382819381A5
:1037F00013969C938E931297E0E0F0E08A819B8170
:10380000009719F0FE01EC01F9CFCE010296288154
:103810003981820F931F20910705309108052817E1
:10382000390769F4309729F410920A0510920905B6
:1038300002C013821282D0930805C0930705DF915E
:10384000CF910895A0E0B0E0E8E2FCE10C94DA1F2B
:10385000EC01CB01209719F40E94FB1AB8C0FE01BD
:10386000E60FF71F9E0122503109E217F30708F413
:10387000ACC0D9010D911C91119706171707B8F02C
:103880000530110508F49FC0A8014450510946179E
:10389000570708F498C002501109061B170B019333
:1038A00011936D937C93CF010E94931B8CC05B019D
:1038B000A01AB10A4E01800E911EA0910905B09187
:1038C0000A05612C712C60E070E0109709F449C082
:1038D000A815B905C9F5ED90FC901197670142E074
:1038E000C40ED11CCA14DB0478F147018A189B0866
:1038F000640142E0C40ED11C1296BC90129713963C
:10390000AC91B5E0CB16D10440F0B282A383918292
:103910008082D9018D939C9309C00E5F1F4F0E0DBD
:103920001F1DF90111830083EB2DFA2F611571051D
:1039300031F0DB011396FC93EE93129744C0F093A1
:103940000A05E09309053FC06D917C9111976616B9
:10395000770608F43B01BD0112960D90BC91A02D95
:10396000B4CF609107057091080568157905E9F4F1
:1039700068167906D0F4409100015091010141157B
:10398000510541F44DB75EB7609104017091050196
:10399000461B570BE417F507C0F4F0930805E093B6
:1039A0000705F901918380830EC00E94FB1A7C01F8
:1039B000009759F0A801BE010E94EC1CCE010E94A4
:1039C000931BC70104C0CE0102C080E090E0CDB7D8
:1039D000DEB7EEE00C94F61FFB01DC0102C00190A3
:1039E0000D9241505040D8F70895FB01DC01019041
:1039F0000D920020E1F708954532510520F4423040
:103A000010F00C94071DFB011082CB010895BB2719
:103A10004A3031F4992322F4BDE2909581959F4F6D
:103A20000C94131DBB27FB015527AA27880F991F4C
:103A3000AA1FA41710F0A41B83955051B9F7A05DDD
:103A4000AA3308F0A95DA193009779F7B111B1935A
:103A50001192CB010C94361FAEE0B0E0E2E3FDE141
:103A60000C94E41F0D891E8986E08C831A830983D8
:103A70008FEF9FE79E838D83AE01475E5F4F6F8917
:103A8000788DCE0101960E944E1DEF81F885E00FE2
:103A9000F11F10822E96E4E00C940020ACE0B0E020
:103AA000E4E5FDE10C94D61F7C016B018A01FC0169
:103AB00017821682838181FFBDC1CE0101964C0120
:103AC000F7019381F60193FD859193FF81916F0139
:103AD000882309F4ABC1853239F493FD859193FFB6
:103AE00081916F01853229F4B70190E00E94461F51
:103AF000E7CF512C312C20E02032A0F48B3269F03A
:103B000030F4803259F0833269F420612CC08D3258
:103B100039F0803339F4216026C02260246023C04C
:103B2000286021C027FD27C030ED380F3A3078F4E7
:103B300026FF06C0FAE05F9E300D1124532E13C0FD
:103B40008AE0389E300D1124332E20620CC08E3254
:103B500021F426FD6BC1206406C08C3611F4206868
:103B600002C0883641F4F60193FD859193FF81915F
:103B70006F018111C1CF982F9F7D9554933028F408
:103B80000C5F1F4FFFE3F9830DC0833631F083379D
:103B900071F0833509F05BC022C0F8018081898310
:103BA0000E5F1F4F44244394512C540115C038011B
:103BB000F2E06F0E711CF801A080B18026FF03C0F7
:103BC000652D70E002C06FEF7FEFC5012C870E946A
:103BD0002B1F2C0183012C852F77222E17C0380133
:103BE000F2E06F0E711CF801A080B18026FF03C0C7
:103BF000652D70E002C06FEF7FEFC5012C870E943A
:103C0000201F2C012C852068222E830123FC1BC041
:103C1000832D90E048165906B0F4B70180E290E099
:103C20000E94461F3A94F4CFF50127FC859127FEA8
:103C300081915F01B70190E00E94461F31103A94D4
:103C4000F1E04F1A51084114510471F7E5C0843670
:103C500011F0893639F5F80127FF07C060817181BD
:103C6000828193810C5F1F4F08C06081718188271A
:103C700077FD8095982F0E5F1F4F2F76B22E97FFFE
:103C800009C090958095709561957F4F8F4F9F4F9C
:103C90002068B22E2AE030E0A4010E94781FA82EEE
:103CA000A81844C0853729F42F7EB22E2AE030E0D0
:103CB00025C0F22FF97FBF2E8F36C1F018F488355A
:103CC00079F0B4C0803719F0883721F0AFC02F2FBA
:103CD0002061B22EB4FE0DC08B2D8460B82E09C0B9
:103CE00024FF0AC09F2F9660B92E06C028E030E05E
:103CF00005C020E130E002C020E132E0F801B7FE6B
:103D000007C060817181828193810C5F1F4F06C063
:103D10006081718180E090E00E5F1F4FA4010E94DE
:103D2000781FA82EA818FB2DFF77BF2EB6FE0BC05C
:103D30002B2D2E7FA51450F4B4FE0AC0B2FC08C08F
:103D40002B2D2E7E05C07A2C2B2D03C07A2C01C082
:103D5000752C24FF0DC0FE01EA0DF11D808180331A
:103D600011F4297E09C022FF06C07394739404C025
:103D7000822F867809F0739423FD13C020FF06C0BC
:103D80005A2C731418F4530C5718732C731468F4CA
:103D9000B70180E290E02C870E94461F73942C8527
:103DA000F5CF731410F4371801C0312C24FF12C062
:103DB000B70180E390E02C870E94461F2C8522FFEC
:103DC00017C021FF03C088E590E002C088E790E0BB
:103DD000B7010CC0822F867859F021FD02C080E225
:103DE00001C08BE227FD8DE2B70190E00E94461FE3
:103DF000A51438F4B70180E390E00E94461F5A945E
:103E0000F7CFAA94F401EA0DF11D8081B70190E08B
:103E10000E94461FA110F5CF332009F451CEB701FF
:103E200080E290E00E94461F3A94F6CFF701868127
:103E3000978102C08FEF9FEF2C96E2E10C94F21F66
:103E4000FC010590615070400110D8F78095909565
:103E50008E0F9F1F0895FC0161507040019001106A
:103E6000D8F7809590958E0F9F1F0895DC01FC0177
:103E7000672F71917723E1F7329704C07C916D939E
:103E800070836291AE17BF07C8F308950F931F9315
:103E9000CF93DF93182F092FEB018B8181FD03C096
:103EA0008FEF9FEF20C082FF10C04E815F812C8179
:103EB0003D81421753077CF4E881F9819F012F5F10
:103EC0003F4F39832883108306C0E885F985812F09
:103ED0000995892B29F72E813F812F5F3F4F3F8323
:103EE0002E83812F902FDF91CF911F910F910895F5
:103EF000FA01AA27283051F1203181F1E8946F931B
:103F00006E7F6E5F7F4F8F4F9F4FAF4FB1E03ED0C0
:103F1000B4E03CD0670F781F891F9A1FA11D680F5E
:103F2000791F8A1F911DA11D6A0F711D811D911D91
:103F3000A11D20D009F468943F912AE0269F112406
:103F40003019305D3193DEF6CF010895462F47706A
:103F5000405D4193B3E00FD0C9F7F6CF462F4F70C5
:103F6000405D4A3318F0495D31FD4052419302D023
:103F7000A9F7EACFB4E0A6959795879577956795C9
:103F8000BA95C9F700976105710508959B01AC01C9
:103F90000A2E06945795479537952795BA95C9F7F0
:103FA000620F731F841F951FA01D08952F923F92CB
:103FB0004F925F926F927F928F929F92AF92BF9239
:103FC000CF92DF92EF92FF920F931F93CF93DF93E5
:103FD000CDB7DEB7CA1BDB0B0FB6F894DEBF0FBE42
:103FE000CDBF09942A88398848885F846E847D848F
:103FF0008C849B84AA84B984C884DF80EE80FD8091
:104000000C811B81AA81B981CE0FD11D0FB6F89406
:0E401000DEBF0FBECDBFED010895F894FFCFC7
:10401E0000000B05800000E100000000000001011F
:10402E00585858585858583130300D0A0000000072
:10403E0000BC01F3012A026902AB01AC01536574A5
:10404E0074696E6720757020487565206F6E2059F3
:10405E00756E002F7573722F426162794875652FE8
:10406E002E2F646F537461727459756E4875652E78
:10407E0073680053746F72696E67206C6967687439
:10408E0020737461746573002F7573722F426162B1
:10409E00794875652F2E2F646F53746F7265477252
:1040AE006F75704C696768747353746174652E73A1
:1040BE006800526573746F72696E67206C69676809
:1040CE007420737461746573002F7573722F42615F
:1040DE0062794875652F2E2F646F526573746F72F7
:1040EE006547726F75704C69676874735374617449
:1040FE00652E736800747275650066616C73650079
:10410E0053657474696E67206C696768747320698F
:10411E006E2067726F757020746F206F6E3A257304
:10412E002C206272693A25642C206875653A2564E4
:10413E002C207361743A2564002F7573722F4261BF
:10414E0062794875652F2E2F646F53657447726FB1
:10415E0075704C696768747353746174652E7368F7
:10416E000052657665616C696E67206C696768746C
:10417E007320696E2067726F7570002F7573722FC2
:10418E00426162794875652F2E2F646F4E6F746988
:10419E00667947726F75702E736800444D50202DEE
:1041AE002000202D20454E4400545243202D200047
:1041BE00444247202D2000494E46202D20005752C4
:1041CE004E202D2000455252202D20004641494CB4
:1041DE0021202D200000000000320650066A0688BD
:1041EE0006C706240600000000D206EF060A0727BF
:1041FE000744075B07537461727465640048756504
:10420E0020696E6974004E6F74696679696E6720F5
:10421E0077652772652074686572650053746F72D6
:10422E0065207374617465730053657420746F2018
:10423E0072656400526573746F7265207374617475
:10424E006573002F746D702F61726475696E6F2DBA
:10425E006C6F672E74787400000000004E0895088D
:10426E00780888086408750800000000BB09820AF7
:10427E003D095609480999096E616E00696E66001E
:10428E006F7666002E006C732000207C2061776BA9
:10429E0020274E523D3D0027002F006C73006D6BA2
:1042AE00646972002D7000726D00726D6469720027
:1042BE00000000000B132213A31478149014211382
:1042CE00FE002F62696E2F617368002D630000007F
:1042DE0000000815820A5D1567157F150715000089
:0C42EE000000C218820A3519A319EB1950
:00000001FF
