:100000000C9483010C94AB010C94AB010C94AB01E8
:100010000C94AB010C94AB010C94AB010C94AB01B0
:100020000C94AB010C94AB010C949F190C946B18BD
:100030000C94AB010C94AB010C94AB010C94AB0190
:100040000C94AB010C94AB010C94AB010C94AB0180
:100050000C94AB010C94AB010C94AB010C94B82341
:100060000C94AB010C9435270C9467270C94AB01CE
:100070000C94AB010C94AB010C94AB010C94AB0150
:100080000C94AB010C94AB010C94AB010C94AB0140
:100090000C94AB010C94AB010C94AB010C94AB0130
:1000A0000C94AB010C94AB010C94AB01D524DA2475
:1000B000DF24E924F3243D253D253D25FD240725A6
:1000C00011251B2528253D2530255E256125502538
:1000D00054255A25822582258225652569256D2589
:1000E0007325772582257D25080B00020202010079
:1000F000090400000102020000052400100105248B
:1001000001010104240206052406000107058103FC
:1001100010004009040100020A0000000705020265
:100120004000000705830240000000C18081C11229
:100130000100020200004041234180000101020051
:100140000112010002000000404123418000010132
:1001500002000141726475696E6F204C4C4300557A
:10016000534220494F20426F617264000403090426
:1001700072756E2D6272696467650A000A000A0072
:100180000000000200090F0000030401000C000041
:100190000000000000000000000000000000040853
:1001A000020110408040102040804080080204017D
:1001B00080402010020110801020404004040404FC
:1001C00004030405020202020403020202020606FC
:1001D00006060606040402020204000000002500D0
:1001E00028002B002E003100000000002400270012
:1001F0002A002D00300000000000000000002A2B23
:1002000028000000000000000000000000000000C6
:100210000000000000002C9EB4A0A1A2A434A6A758
:10022000A5AE362D3738271E1F2021222324252650
:10023000B333B62EB7B89F8485868788898A8B8C1E
:100240008D8E8F909192939495969798999A9B9C66
:100250009D2F3130A3AD350405060708090A0B0CA4
:100260000D0E0F101112131415161718191A1B1C46
:100270001DAFB1B0B5000904020001030000000980
:1002800021010100012265000705840340000105EA
:10029000010902A1010901A100850105091901292E
:1002A00003150025019503750181029501750581EE
:1002B0000305010930093109381581257F75089535
:1002C000038106C0C005010906A1018502050719C1
:1002D000E029E71500250175019508810295017552
:1002E000088103950675081500256505071900297D
:1002F000658100C02D0AAB119E12E91FEF2128274E
:1003000097275B0AC41111241FBECFEFDAE0DEBFCE
:10031000CDBF14E0A0E0B1E0EEECF6E502C0059040
:100320000D92AA39B107D9F726E0AAE9B4E001C0D5
:100330001D92A634B207E1F712E0C2E0D3E004C098
:100340002297FE010E941328C43FD107C9F70E94DB
:1003500098110C945A2B0C9400000895CF93DF93BE
:10036000EC01FB014281538122E06DE875E00E94BF
:10037000E221CE01DF91CF9108950F931F93CF9388
:10038000DF93CDB7DEB7CA55D1090FB6F894DEBFFB
:100390000FBECDBF8B01BC01CE0101960E94AE0104
:1003A000CE0101960E942121882359F0B801CE0187
:1003B00001960E9471148C01CE0101960E949C212D
:1003C00002C000E010E0CE0101960E94CF21C801DA
:1003D000C65ADF4F0FB6F894DEBF0FBECDBFDF9118
:1003E000CF911F910F9108950F931F93CF93DF9398
:1003F000CDB7DEB7CA55D1090FB6F894DEBF0FBE30
:10040000CDBF162FBC01CE0101960E94AE01CE01D8
:1004100001960E942121882359F0612FCE01019677
:100420000E9473148C01CE0101960E949C2102C08F
:1004300000E010E0CE0101960E94CF21C801C65A0B
:10044000DF4F0FB6F894DEBF0FBECDBFDF91CF9167
:100450001F910F9108950F931F93CF93DF93CDB703
:10046000DEB7CA55D1090FB6F894DEBF0FBECDBFB7
:100470008B01BC01CE0101960E94AE01CE01019616
:100480000E942121882399F0B801CE0101960E9493
:1004900071148C016AE171E0CE0101960E94711421
:1004A000080F191FCE0101960E949C2102C000E096
:1004B00010E0CE0101960E94CF21C801C65ADF4F3D
:1004C0000FB6F894DEBF0FBECDBFDF91CF911F9165
:1004D0000F9108950F931F93CF93DF93CDB7DEB79E
:1004E000CA55D1090FB6F894DEBF0FBECDBF8B0140
:1004F000BC01CE0101960E94AE01CE0101960E9480
:100500002121882399F0B801CE0101960E9463143D
:100510008C016AE171E0CE0101960E947114080F0E
:10052000191FCE0101960E949C2102C000E010E03C
:10053000CE0101960E94CF21C801C65ADF4F0FB6E7
:10054000F894DEBF0FBECDBFDF91CF911F910F9109
:100550000895AF92BF92CF92DF92EF92FF920F93E6
:100560001F93CF93DF93CDB7DEB762970FB6F894A2
:10057000DEBF0FBECDBF5C018B016CE171E00E945C
:10058000811AFF24F394D801ED91FC910480F58148
:10059000E02DC8010995181619060CF0B0C042E20A
:1005A000B801CE010D960E9447166BE271E0CE01B4
:1005B0000D960E94BE1B882331F06BE271E0C501ED
:1005C0000E94B71A02C0F11011C061E371E0CE01C0
:1005D0000D960E94BE1B811159C0F12C66E371E09B
:1005E000CE010D960E94BE1B81116DC062E471E0C8
:1005F000CE010D960E94BE1B882311F0FF24F394B8
:100600006AE471E0CE010D960E94BE1B8823C9F1F9
:1006100042E2B801CE0101960E944716CE01019632
:100620000E94131A42E2B801CE0101960E944716B9
:10063000BE016F5F7F4FC5010E94971ACE010196E0
:100640000E94131A63E571E0CE0107960E94811A99
:10065000B501CE0107960E94831BBC01CE01019615
:100660000E94AE1ABE016F5F7F4F84E295E00E9448
:10067000DB0ECE0101960E94131ACE0107960E944E
:10068000131ACE010D960E94131A7DCFC8010E9445
:1006900044166B017C016E597E4FCE0101960E947B
:1006A000811ABE016F5F7F4F84E295E00E94370F91
:1006B000CE0101960E94131AB601695E7C4FC501F6
:1006C0000E942E1B8ACF42E2B801CE0101960E9401
:1006D0004716CE0101960E94131A42E2B801CE01DC
:1006E00001960E944716BE016F5F7F4F84E295E03E
:1006F0000E94370FCE0101960E94131A77CFC501D1
:1007000062960FB6F894DEBF0FBECDBFDF91CF91DA
:100710001F910F91FF90EF90DF90CF90BF90AF901F
:100720000895CF93DF93EC0140E050E084E295E040
:100730000E94100E6CE171E0CE010E94811ACE0180
:10074000DF91CF910895CF92DF92EF92FF920F93B6
:100750001F93CF93DF93CDB7DEB72C970FB6F894E6
:10076000DEBF0FBECDBF7C016B0107E010E042E2AF
:10077000B601CE0101960E944716CE0101960E9455
:10078000131A0150110999F742E2B601CE010796FA
:100790000E9447166FE671E0CE0101960E94811A11
:1007A000BE01695F7F4FCE0101960E94831B67E700
:1007B00071E00E94961BBC01C7010E94AE1ACE01D7
:1007C00001960E94131ACE0107960E94131AC701C0
:1007D0002C960FB6F894DEBF0FBECDBFDF91CF9140
:1007E0001F910F91FF90EF90DF90CF900895EF92BF
:1007F000FF920F931F93CF93DF9300D000D000D0D0
:10080000CDB7DEB78C017B016E5F7F4FCE010196C5
:100810000E94AE1AB701685F7F4FCE0101960E9419
:10082000831B6DE771E00E94961BBC01C8010E940A
:10083000AE1ACE0101960E94131AC80126960FB671
:10084000F894DEBF0FBECDBFDF91CF911F910F9106
:10085000FF90EF900895EF92FF920F931F93CF9325
:10086000DF93CDB7DEB72C970FB6F894DEBF0FBE7F
:10087000CDBF8C017A01CE0107960E94F703BE011D
:10088000695F7F4FCE0101960E94AE1AB701CE017B
:1008900001960E94B01B66E871E00E94961BBC01A5
:1008A000C8010E94AE1ACE0101960E94131ACE0111
:1008B00007960E94131AC8012C960FB6F894DEBF53
:1008C0000FBECDBFDF91CF911F910F91FF90EF90A1
:1008D0000895EF92FF920F931F93CF93DF93CDB7BD
:1008E000DEB72C970FB6F894DEBF0FBECDBF8C01DC
:1008F000EE24E394F12CD801ED91FC910480F58174
:10090000E02DC8010995181619060CF04BC042E2FB
:10091000B801CE0107960E94471661E371E0CE014F
:1009200007960E94BE1B8823A9F0C8010E944416A6
:100930007B016E597E4FCE0101960E94811ABE0145
:100940006F5F7F4F84E295E00E94370FCE010196E2
:100950000E94131A66E371E0CE0107960E94BE1B47
:100960008823D9F042E2B801CE0101960E944716D1
:10097000CE0101960E94131A42E2B801CE010196FF
:100980000E944716BE016F5F7F4F84E295E00E9490
:10099000370FCE0101960E94131ACE0107960E94CE
:1009A000131AA9CFC7012C960FB6F894DEBF0FBE5D
:1009B000CDBFDF91CF911F910F91FF90EF900895E0
:1009C0008F929F92AF92BF92CF92DF92EF92FF925F
:1009D0000F931F93CF93DF93CDB7DEB76E970FB60C
:1009E000F894DEBF0FBECDBF5C017B0169E971E009
:1009F000CE0149960E94811AC12CD12C00E010E052
:100A0000D701ED91FC910480F581E02DC701099596
:100A1000181619060CF06AC042E2B701CE014396DF
:100A20000E9447166BE7CE0143960E94561C97FD25
:100A300002C00F5F1F4F6DE7CE0143960E94561C08
:100A400097FD02C0015011096FE971E0CE010196D6
:100A50000E94811ABE016F5F7F4FCE0143960E94B4
:100A6000761C4C01CE0101960E94131A97FC02C01D
:100A7000015011096EE971E0CE0101960E94811AC0
:100A8000BE016F5F7F4FCE0143960E94761C4C01E2
:100A9000CE0101960E94131A97FC02C00150110961
:100AA0006BE271E0CE0143960E94BE1B882369F081
:100AB000C7010E9469044AE0BC01C5010E94CF1A27
:100AC000CE0143960E94131A20C10130110581F511
:100AD000CE0143960E947A1C1616170618061906B0
:100AE0000CF094C0BFEFCB1ADB0A90C04AE0B6010D
:100AF000CE0107960E94CF1A62EC71E0CE010196FA
:100B00000E94811A4F81588569817A8182E895E037
:100B10000E94851ECE0101960E94131ACE010796EF
:100B20000E94131A62E471E0C5010E94811AEDC0AF
:100B30000230110521F562EA71E0CE0143960E9470
:100B4000BE1B882309F462C062EA71E0CE014996B7
:100B50000E94B71A61E371E0CE0143960E94BE1B6A
:100B6000811159C06EE471E0CE0143960E94BE1B14
:100B700081118EC0CE0143960E94131A41CF0330DB
:100B8000110509F043C062EA71E0CE0149960E9466
:100B9000BE1B882379F368EA71E0CE0143960E9478
:100BA000BE1B882339F34AE3B701CE0101960E94A8
:100BB0004716CE0101960E94131AD701ED91FC91C0
:100BC0000680F781E02DC70109958437E1F063E9DC
:100BD00071E0CE0101960E94811A4AE0B601CE0171
:100BE0000D960E94CF1A62EB71E0CE0107960E942B
:100BF000811ABE01635F7F4FCE0107960E94831B5F
:100C000068EB71E06AC06EE871E0E3CF0230110575
:100C100009F0B0CF9FCF42E2B701CE0101960E940A
:100C20004716CE0101960E94131A42E2B701CE0187
:100C300001960E9447164AE0B601CE010D960E9429
:100C4000CF1A62EB71E0CE0107960E94811ABE01B5
:100C5000635F7F4FCE0107960E94831B6DEC71E0AE
:100C60000E94961B49815A81FC016081718182E852
:100C700095E00E94851ECE0107960E94131ACE01B0
:100C80000D960E94131ACE0101960E94131A6ACF84
:100C900042E2B701CE0101960E944716CE010196AD
:100CA0000E94131A42E2B701CE0101960E94471634
:100CB0004AE0B601CE010D960E94CF1A62EB71E0B8
:100CC000CE0107960E94811ABE01635F7F4FCE015D
:100CD00007960E94831B62ED71E00E94961B49817A
:100CE0005A81DC016D917C9182E895E00E94851E1D
:100CF000CE0107960E94131ACE010D960E94131A78
:100D0000CE0101960E94131A35CFCE0149960E945A
:100D1000131AC5016E960FB6F894DEBF0FBECDBF95
:100D2000DF91CF911F910F91FF90EF90DF90CF90C7
:100D3000BF90AF909F908F900895EF92FF920F9386
:100D40001F93CF93DF9300D000D000D0CDB7DEB794
:100D50007C01CE0101960E94F70300E010E020EE36
:100D600034E0AE014F5F5F4F6BEB74E0C7010E9450
:100D70005F0ACE0101960E94131AC70126960FB68C
:100D8000F894DEBF0FBECDBFDF91CF911F910F91C1
:100D9000FF90EF900895AF92BF92CF92DF92EF92C3
:100DA000FF920F931F93CF93DF93CDB7DEB7629778
:100DB0000FB6F894DEBF0FBECDBF5C016B0182E0C1
:100DC000C80ED11C67ED71E0CE0101960E94811A18
:100DD000B601CE0107960E94AE1AE12CF12C09EA69
:100DE00012E09E012F5F3F4FAE01495F5F4F6BEBFB
:100DF00074E0CE010D960E948A0CCE0107960E94E7
:100E0000131ACE0101960E94131A6BE271E0CE0113
:100E100001960E94811ABE016F5F7F4FCE010D9631
:100E20000E94011C81110BC06CE171E0CE010D9696
:100E30000E94BE1B11E0811103C010E001C011E04F
:100E4000CE0101960E94131A112379F024E130E0BB
:100E50004DE050E06AE070E080ED97E00E94B10D57
:100E6000CE010D960E94131AADCFBE01635F7F4F76
:100E7000C5010E94AE1ACE010D960E94131AC5013B
:100E800062960FB6F894DEBF0FBECDBFDF91CF9153
:100E90001F910F91FF90EF90DF90CF90BF90AF9098
:100EA0000895AF92BF92CF92DF92EF92FF920F938D
:100EB0001F93CF93DF93CDB7DEB763970FB6F89448
:100EC000DEBF0FBECDBF7C018B01FB01A080B180D6
:100ED0002AE9C22E24E0D22EC5018A5994405C0131
:100EE000C5018C0D9D1D0E94FD2AF60181936F01A5
:100EF000FBEBCF16F4E0DF0699F780919A04181601
:100F000054F56AE974E0CE0101960E94811ABE018F
:100F10006F5F7F4FC80108960E94971ACE01019615
:100F20000E94131AB801CE0101960E949D0662E448
:100F300071E0CE0101960E94BE1B882341F06AE950
:100F400074E0C7010E94811ACE01019686C0CE01CD
:100F500001960E94131A68EF71E0CE0101960E947B
:100F6000811ABE016F5F7F4F84E295E00E94DB0E25
:100F7000CE0101960E94131AB801CE010D960E946F
:100F8000CB066CE171E0CE010D960E94BE1B88235A
:100F900019F06CE171E05CC06EE172E0CE01079681
:100FA0000E94811ABE01635F7F4FCE0107960E94A7
:100FB000831BBC01CE0101960E94AE1ABE016F5F79
:100FC0007F4F84E295E00E94DB0ECE0101960E94E5
:100FD000131ACE0107960E94131A20E030E041E276
:100FE00050E06AE974E0CE010D960E94101CF801F1
:100FF000C080D1809AE9A92E94E0B92EF5016191C3
:101000005F01C6016B8B0E94FD2A6B89681719F07E
:10101000C6010E94052BFFEFCF1ADF0A8BEBA81643
:1010200084E0B80659F7B801CE0101960E949D06EA
:1010300062E471E0CE0101960E94BE1B182FCE0122
:1010400001960E94131A112309F4A3CF6AE974E0F0
:10105000C7010E94811ACE010D960E94131AC70182
:1010600063960FB6F894DEBF0FBECDBFDF91CF9170
:101070001F910F91FF90EF90DF90CF90BF90AF90B6
:101080000895DF92EF92FF920F931F93CF93DF9318
:10109000CDB7DEB768970FB6F894DEBF0FBECDBFF1
:1010A0008C017B01D42E6BE572E0CE0101960E948B
:1010B000811ABE016F5F7F4F84E295E00E947E0E31
:1010C000CE0101960E94131AA701B801CE014396E2
:1010D0000E942B04DD2019F064E372E002C067E493
:1010E00072E0CE0107960E94811ABE016D5E7F4FAD
:1010F000CE010D960E94AE1AE12CF12C01E913E00D
:101100009E01295F3F4FAE01435F5F4F6BEB74E081
:10111000CE0101960E94500BCE0101960E94131A37
:10112000CE010D960E94131ACE0107960E94131A43
:10113000CE0143960E94131A68960FB6F894DEBF4C
:101140000FBECDBFDF91CF911F910F91FF90EF9018
:10115000DF9008950F931F93CF93DF93CDB7DEB742
:1011600027970FB6F894DEBF0FBECDBF8C01CE011E
:1011700001964F830E94AE1A4F8161E070E0C80172
:101180000E944108CE0101960E94131A27960FB6BD
:10119000F894DEBF0FBECDBFDF91CF911F910F91AD
:1011A0000895EF92FF920F931F93CF93DF93CDB7E4
:1011B000DEB768970FB6F894DEBF0FBECDBF8C01C7
:1011C0007B016AE672E0CE0101960E94811ABE019F
:1011D0006F5F7F4F84E295E00E947E0ECE01019604
:1011E0000E94131AA701B801CE0143960E942B0456
:1011F0006AE772E0CE0107960E94811ABE016D5E19
:101200007F4FCE010D960E94AE1AE12CF12C01E920
:1012100013E09E01295F3F4FAE01435F5F4F6BEBD1
:1012200074E0CE0101960E94500BCE0101960E94FF
:10123000131ACE010D960E94131ACE0107960E9432
:10124000131ACE0143960E94131A68960FB6F894AB
:10125000DEBF0FBECDBFDF91CF911F910F91FF90E9
:10126000EF9008950F931F93CF93DF9300D000D09A
:1012700000D0CDB7DEB78C01CE0101960E94AE1A28
:1012800061E070E0C8010E94D108CE0101960E9481
:10129000131A26960FB6F894DEBF0FBECDBFDF91AE
:1012A000CF911F910F910895EF92FF920F931F938B
:1012B000CF93DF9300D000D000D0CDB7DEB77C0154
:1012C0006BE872E0CE0101960E94811A00E010E006
:1012D00023EA33E0AE014F5F5F4F6BEB74E0C70171
:1012E0000E945F0ACE0101960E94131A6CEA72E016
:1012F000CE0101960E94811AF701408151816981D6
:101300007A8182E895E00E94851ECE0101960E94B6
:10131000131AC70126960FB6F894DEBF0FBECDBFD5
:10132000DF91CF911F910F91FF90EF900895EF9271
:10133000FF920F931F93CF93DF93CDB7DEB76297E2
:101340000FB6F894DEBF0FBECDBF7C018C010E5FDF
:101350001F4F6CE171E0C8010E94BE1B882309F198
:10136000B701CE0101960E945409BE016F5F7F4F05
:10137000C8010E94971ACE0101960E94131A6CE1CF
:1013800071E0C8010E94BE1B882319F324E130E0FC
:101390004DE050E06AE070E080E197E20E94B10D1C
:1013A000D8CF62EB72E0CE0107960E94811AB80195
:1013B000CE0107960E94831BBC01CE0101960E94BC
:1013C000AE1ABE016F5F7F4F84E295E00E94DB0E94
:1013D000CE0101960E94131ACE0107960E94131A9D
:1013E000B701CE010D960E94510761EC72E0CE016B
:1013F00007960E94811ABE01635F7F4FCE01079658
:101400000E94831BBC01CE0101960E94AE1ABE0150
:101410006F5F7F4F84E295E00E94DB0ECE01019664
:101420000E94131ACE0107960E94131A6CE171E014
:10143000CE010D960E94BE1BCE010D960E94131A7E
:1014400062960FB6F894DEBF0FBECDBFDF91CF918D
:101450001F910F91FF90EF9008951092C404109285
:10146000C30488EE93E0A0E0B0E08093C5049093BD
:10147000C604A093C704B093C8048FE794E0909388
:10148000C2048093C10482E895E09093CE048093D7
:10149000CD041092D3041092D4041092D50481E0AC
:1014A0008093BB048093BC0482E090E09093BE04E0
:1014B0008093BD04089581EC94E00C948A238F926C
:1014C0009F92AF92BF92CF92DF92EF92FF920F93D3
:1014D0001F93CF93DF93CDB7DEB7CB55D1090FB6AE
:1014E000F894DEBF0FBECDBF7C014B016A015901EC
:1014F00062ED72E0CE018A5A9F4F0E94811AB601B6
:10150000CE018A5A9F4F0E94831BBC01CE010196D7
:101510000E94AE1ABE016F5F7F4FC40101960E9408
:101520007E0ECE0101960E94131ACE018A5A9F4F59
:101530000E94131A1C821B8288EE93E0A0E0B0E0A8
:101540008D839E83AF83B8878FE794E09A838983E6
:1015500082E895E09E878D871B8A1C8A1D8A63EE30
:1015600072E0CE018A5A9F4F0E94811ABE016A5AC8
:101570007F4FCE0101960E949123CE018A5A9F4F40
:101580000E94131A68EE72E0CE018A5A9F4F0E94A1
:10159000811ABE016A5A7F4FCE0101960E948122B4
:1015A000CE018A5A9F4F0E94131A6BEE72E0CE0151
:1015B0008A5A9F4F0E94811ABE016A5A7F4FCE01FC
:1015C00001960E948122CE018A5A9F4F0E94131ACF
:1015D000B601CE0101960E948122CE0101960E94A1
:1015E0004A236C01181619063CF56EEE72E089E28A
:1015F00095E00E9471144AE050E0B60189E295E05E
:101600000E94451589E295E00E94F311011511052C
:1016100029F0B601CE010196F8010995CE01019697
:101620000E94F621CE0101960E9460236CE171E0D8
:10163000C7010E94811A1BC0BE016F5F7F4FCE01A0
:101640008A5A9F4FF5010995CE0101960E94F62115
:10165000CE0101960E946023BE016A5A7F4FC701E6
:101660000E94AE1ACE018A5A9F4F0E94131ACE01D1
:1016700001960E948A23C701C55ADF4F0FB6F8941E
:10168000DEBF0FBECDBFDF91CF911F910F91FF90B5
:10169000EF90DF90CF90BF90AF909F908F90089584
:1016A0006F927F928F929F92AF92BF92CF92DF9272
:1016B000EF92FF920F931F93CF93DF93CDB7DEB7D7
:1016C000CB55D1090FB6F894DEBF0FBECDBF6C016C
:1016D0003B015A0149016BEF72E0CE018A5A9F4FDC
:1016E0000E94811AB501CE018A5A9F4F0E94831B26
:1016F0006CE073E00E94961BB4010E94831BBC0146
:10170000CE0101960E94AE1ABE016F5F7F4FC301EA
:1017100001960E947E0ECE0101960E94131ACE0100
:101720008A5A9F4F0E94131A1C821B8288EE93E0F4
:10173000A0E0B0E08D839E83AF83B8878FE794E00D
:101740009A83898382E895E09E878D871B8A1C8A0D
:101750001D8A63EE72E0CE018A5A9F4F0E94811A61
:10176000BE016A5A7F4FCE0101960E949123CE019D
:101770008A5A9F4F0E94131A6AE173E0CE018A5A77
:101780009F4F0E94811ABE016A5A7F4FCE01019677
:101790000E948122CE018A5A9F4F0E94131A6DE146
:1017A00073E0CE018A5A9F4F0E94811ABE016A5A85
:1017B0007F4FCE0101960E948122CE018A5A9F4F0F
:1017C0000E94131A6EE373E0CE018A5A9F4F0E9463
:1017D000811ABE016A5A7F4FCE0101960E94812272
:1017E000CE018A5A9F4F0E94131A61E473E0CE0122
:1017F0008A5A9F4F0E94811ABE016A5A7F4FCE01BA
:1018000001960E948122CE018A5A9F4F0E94131A8C
:1018100065E473E0CE018A5A9F4F0E94811ABE018F
:101820006A5A7F4FCE0101960E948122CE018A5AC8
:101830009F4F0E94131AB401CE0101960E9481228B
:10184000B501CE0101960E948122CE0101960E942F
:101850004A235C01181619063CF56EEE72E089E227
:1018600095E00E9471144AE050E0B50189E295E0EC
:101870000E94451589E295E00E94F311E114F104FC
:1018800029F0B501CE010196F7010995CE01019627
:101890000E94F621CE0101960E9460236CE171E066
:1018A000C6010E94811A1BC0BE016F5F7F4FCE012F
:1018B0008A5A9F4FF8010995CE0101960E94F621A0
:1018C000CE0101960E946023BE016A5A7F4FC60175
:1018D0000E94AE1ACE018A5A9F4F0E94131ACE015F
:1018E00001960E948A23C601C55ADF4F0FB6F894AD
:1018F000DEBF0FBECDBFDF91CF911F910F91FF9043
:10190000EF90DF90CF90BF90AF909F908F907F909F
:101910006F9008958F929F92AF92BF92CF92DF9275
:10192000EF92FF920F931F93CF93DF93CDB7DEB764
:10193000CB55D1090FB6F894DEBF0FBECDBF6C01F9
:101940005A01490168E473E0CE0101960E94811AB0
:10195000B501CE0101960E94831B6CE073E00E94EA
:10196000961BB4010E94831BBC0189E295E00E9492
:101970007E14CE0101960E94131A1C821B8288EEEF
:1019800093E0A0E0B0E08D839E83AF83B8878FE7BC
:1019900094E09A83898382E895E09E878D871B8AED
:1019A0001C8A1D8A63EE72E0CE018A5A9F4F0E9404
:1019B000811ABE016A5A7F4FCE0101960E9491237F
:1019C000CE018A5A9F4F0E94131A6AE173E0CE013A
:1019D0008A5A9F4F0E94811ABE016A5A7F4FCE01D8
:1019E00001960E948122CE018A5A9F4F0E94131AAB
:1019F0006DE173E0CE018A5A9F4F0E94811ABE01A9
:101A00006A5A7F4FCE0101960E948122CE018A5AE6
:101A10009F4F0E94131A6EE373E0CE018A5A9F4FC4
:101A20000E94811ABE016A5A7F4FCE0101960E9420
:101A30008122CE018A5A9F4F0E94131A6AE573E0F1
:101A4000CE018A5A9F4F0E94811ABE016A5A7F4F67
:101A5000CE0101960E948122CE018A5A9F4F0E9498
:101A6000131A65E473E0CE018A5A9F4F0E94811ACF
:101A7000BE016A5A7F4FCE0101960E948122CE019B
:101A80008A5A9F4F0E94131AB401CE0101960E94F8
:101A90008122B501CE0101960E948122CE010196DC
:101AA0000E944A235C01181619063CF56EEE72E09E
:101AB00089E295E00E9471144AE050E0B50189E2A4
:101AC00095E00E94451589E295E00E94F311E1142A
:101AD000F10429F0B501CE010196F7010995CE0177
:101AE00001960E94F621CE0101960E9460236CE1CE
:101AF00071E0C6010E94811A1BC0BE016F5F7F4F5B
:101B0000CE018A5A9F4FF8010995CE0101960E9495
:101B1000F621CE0101960E946023BE016A5A7F4FD2
:101B2000C6010E94AE1ACE018A5A9F4F0E94131A14
:101B3000CE0101960E948A23C601C55ADF4F0FB617
:101B4000F894DEBF0FBECDBFDF91CF911F910F91F3
:101B5000FF90EF90DF90CF90BF90AF909F908F90CD
:101B600008953F924F925F926F927F928F929F92D1
:101B7000AF92BF92CF92DF92EF92FF920F931F939B
:101B8000CF93DF93EC018B01342E290161E0842F88
:101B90000E948325CE01B2010E94DB275B01680110
:101BA000E12CF12CC0E0D0E088249924801A910A1D
:101BB000662457FC6094762CAE14BF04DCF0BE01A2
:101BC000832D0E94AF24CC0DDD1D1C161D063CF498
:101BD000CF3FD1053CF06401CFEFD0E003C06801F6
:101BE000C0E0D0E0C301B2010E9431248FEFE81AB7
:101BF000F80AE2CF60E070E0832DDF91CF911F9172
:101C00000F91FF90EF90DF90CF90BF90AF909F909B
:101C10008F907F906F905F904F903F900C94AF2487
:101C20000F931F93CF93DF938C01EB01DC0113968D
:101C30008D919C911497892B09F45BC011968D911D
:101C40009C911297481759070CF448C089E295E017
:101C50000E948F12882309F441C0F8018381948186
:101C6000DC01ED91FC910190F081E02D6FE573E0D6
:101C70000995E881F9810480F581E02DCE0109956F
:101C8000892BA1F0E881F9810680F781E02DCE0152
:101C90000995F801A381B481ED91FC91119702801F
:101CA000F381E02D682FCD010995E3CFD80113967C
:101CB0008D919C911497DC01ED91FC910480F5814C
:101CC000E02D6CE171E00995F80183819481DC01DC
:101CD000ED91FC910084F185E02D06C0E881F98149
:101CE0000284F385E02DCE01DF91CF911F910F91FA
:101CF0000994DF91CF911F910F910895CF92DF92B8
:101D0000EF92FF920F931F93CF93DF9300D000D0F9
:101D100000D0CDB7DEB78C016B01DC0113968D913D
:101D20009C911497892BC1F111968D919C911297DA
:101D3000181619068CF189E295E00E948F1288230B
:101D400059F1D8011396ED91FC9114970190F0810F
:101D5000E02DE680F78066E673E0CE0101960E94F2
:101D6000811AB601CE0101960E94831BBC01F801C5
:101D700083819481F7010995CE0101960E94131A7F
:101D8000D80113968D919C911497DC01ED91FC91F3
:101D90000084F185E02D099526960FB6F894DEBFF4
:101DA0000FBECDBFDF91CF911F910F91FF90EF90AC
:101DB000DF90CF900895CF92DF92EF92FF920F9332
:101DC0001F93CF93DF9300D000D000D0CDB7DEB704
:101DD0008C016B01DC0113968D919C911497892BDA
:101DE000B9F111968D919C91129703978CF589E228
:101DF00095E00E948F12882359F1D8011396ED9136
:101E0000FC9114970190F081E02DE680F78064E763
:101E100073E0CE0101960E94811AB601CE010196AF
:101E20000E94831BBC01F80183819481F70109950D
:101E3000CE0101960E94131AD80113968D919C91A0
:101E40001497DC01ED91FC910084F185E02D09955A
:101E500026960FB6F894DEBF0FBECDBFDF91CF91AF
:101E60001F910F91FF90EF90DF90CF900895CF9248
:101E7000DF92EF92FF920F931F93CF93DF9300D0E7
:101E800000D000D0CDB7DEB78C016B01DC0113961A
:101E90008D919C911497892BB9F111968D919C91FC
:101EA000129704978CF589E295E00E948F1288239F
:101EB00059F1D8011396ED91FC9114970190F0819E
:101EC000E02DE680F7806BE773E0CE0101960E947B
:101ED000811AB601CE0101960E94831BBC01F80154
:101EE00083819481F7010995CE0101960E94131A0E
:101EF000D80113968D919C911497DC01ED91FC9182
:101F00000084F185E02D099526960FB6F894DEBF82
:101F10000FBECDBFDF91CF911F910F91FF90EF903A
:101F2000DF90CF900895FC01748363830895CF936D
:101F3000DF9300D0CDB7DEB789E295E069837A837D
:101F40000E948F1269817A81882341F089E295E0AD
:101F50000F900F90DF91CF910C94711480E090E07E
:101F60000F900F90DF91CF910895CF93DF931F9241
:101F7000CDB7DEB789E295E069830E948F1269814F
:101F8000882339F089E295E00F90DF91CF910C948E
:101F9000731480E090E00F90DF91CF910895CF937C
:101FA000DF9300D0CDB7DEB789E295E069837A830D
:101FB0000E948F1269817A81882341F089E295E03D
:101FC0000F900F90DF91CF910C94901480E090E0EF
:101FD0000F900F90DF91CF910895CF93DF9300D0B2
:101FE000CDB7DEB789E295E069837A830E948F12CC
:101FF00069817A81882341F089E295E00F900F9002
:10200000DF91CF910C947E1480E090E00F900F90C0
:10201000DF91CF910895CF93C42F2FE833E0FC01D7
:1020200031832083AB01662757FD6095762F89E2C7
:1020300095E00E948912CC2369F089E295E00E9424
:102040008F12811107C064E670E080E090E00E948A
:102050003124F3CFCF91089589E295E00E948F1249
:10206000882321F089E295E00C94F31108950F93F1
:102070001F93CF93DF93EC018B018A819B81DC015D
:10208000ED91FC910190F081E02D09958C819D816D
:10209000DC01ED91FC910190F081E02DB801DF9120
:1020A000CF911F910F9109941F93CF93DF93EC0170
:1020B000162F8A819B81DC01ED91FC910280F381D6
:1020C000E02D09958C819D81DC01ED91FC910280D0
:1020D000F381E02D612FDF91CF911F9109940F9330
:1020E0001F93CF93DF93EC018B018A819B81DC01ED
:1020F000ED91FC910480F581E02D09958C819D8105
:10210000DC01ED91FC910480F581E02DB801DF91B7
:10211000CF911F910F9109940F931F93CF93DF934A
:10212000EC018B018A819B81DC01ED91FC910680A1
:10213000F781E02D09958C819D81DC01ED91FC9169
:102140000680F781E02DB801DF91CF911F910F91AB
:102150000994CF93DF93EC018A819B81DC01ED919F
:10216000FC910084F185E02D09958C819D81DC0135
:10217000ED91FC910084F185E02DDF91CF910994E0
:102180000895CF93DF9300D000D000D0CDB7DEB755
:1021900067EA73E0CE0101960E94811ABE016F5F6B
:1021A0007F4F84E295E00E94DB0ECE0101960E94F3
:1021B000131A86E195E00E94970960EB73E0CE0167
:1021C00001960E94811ABE016F5F7F4F84E295E005
:1021D0000E94DB0ECE0101960E94131A66EC73E09A
:1021E000CE0101960E94811A40E0BE016F5F7F4FD1
:1021F00086E195E00E94AA08CE0101960E94131A7A
:1022000024E130E04DE050E061E070E080E197E2F1
:102210000E94B10D66EC73E0CE0101960E94811A16
:10222000BE016F5F7F4F86E195E00E943209CE01CB
:1022300001960E94131A26960FB6F894DEBF0FBEC1
:10224000CDBFDF91CF910895EF92FF920F931F932F
:10225000CF93DF93CDB7DEB762970FB6F894DEBFAA
:102260000FBECDBF26E040E950ED63E070E0809105
:102270008B0590918C050E949E1382E895E00E9448
:10228000E21E8E010F5E1F4F40E060E875E2C8015C
:102290000E940B1081E291E09E878D8782ED93E092
:1022A000988B8F878DE895E00E94E0217E018DE07C
:1022B000E80EF11C67EE73E0C7010E942B028DE966
:1022C00093E098878F83FA86E9861C870B87BE0187
:1022D000695F7F4F84E295E00E94930F6DEF73E09A
:1022E000CE0101960E94811ABE016F5F7F4F84E28A
:1022F00095E00E94DB0ECE0101960E94131A0E9407
:10230000C11062960FB6F894DEBF0FBECDBFDF914D
:10231000CF911F910F91FF90EF90089524E130E04D
:102320004DE050E065E070E088E893E10C94B10D79
:102330000E9459240E94C01089E795E00E94F51977
:102340000E942411C8EED2E10E948E112097E1F381
:102350000E94E812F9CF81E08093240582E090E0AA
:102360009093260580932505109217051092160567
:102370006CE171E088E195E00E94811A6CE171E006
:102380008EE195E00C94811A8EE195E00E94131A7B
:1023900088E195E00C94131ACF93DF931F92CDB789
:1023A000DEB76983DC01ED91FC910280F381E02DC1
:1023B00041E050E0BE016F5F7F4F09950F90DF91C4
:1023C000CF910895CF93DF93EC018C859D8597FF86
:1023D00005C082E00E9440179D878C878C859D8573
:1023E000DF91CF91089583E00C949519FC018485C9
:1023F000958597FD06C082E00E94E81690E0019660
:10240000089582E00E94E81690E00895FC0184851A
:10241000958597FD05C02FEF3FEF358724870895F9
:1024200082E00C944017CF93DF93EC0180910D0173
:10243000882331F083E00E9471171816190634F0D2
:1024400081E090E09B838A8380E090E0DF91CF91F0
:102450000895FC0120812E5F208342E450E068EE65
:1024600070E080E80C940C18FC0181819081913A15
:1024700059F4813209F03CC047E050E066E071E079
:1024800080E00E940C1843C0913291F5803239F4FB
:1024900067E070E086E091E00E943D1806C082325D
:1024A00009F035C0828180930D01809106019091E1
:1024B0000701A0910801B0910901803B9440A1055A
:1024C000B105C1F480910D0180FD14C087E797E745
:1024D00090930108809300082BE088E190E00FB60C
:1024E000F894A895809360000FBE209360000FC001
:1024F00080E0089588E10FB6F89480936000109210
:1025000060000FBEA895109201081092000881E0AB
:1025100008952FEF3FEFFC01358724870895CF936F
:10252000C0910D016AE070E080E090E00E943124EB
:1025300081E0C11101C080E0CF91089510922C0577
:1025400010922B0588EE93E0A0E0B0E080932D057B
:1025500090932E05A0932F05B093300589E094E069
:1025600090932A05809329058FEF9FEF909336056E
:10257000809335050895FC01818D228D90E0805C6B
:102580009F4F821B91098F7399270895FC01918DAC
:10259000828D981731F0828DE80FF11D858D90E0C6
:1025A00008958FEF9FEF0895FC01918D828D98170C
:1025B00061F0828DDF01A80FB11D5D968C91928D27
:1025C0009F5F9F73928F90E008958FEF9FEF089524
:1025D0008DE897E2892B49F080E090E0892B29F083
:1025E0000E948D2781110C9400000895FC01848DB8
:1025F000DF01A80FB11DA35ABF4F2C91848D90E02D
:1026000001968F739927848FA689B7892C93A08907
:10261000B1898C9180648C93938D848D981306C0BE
:102620000288F389E02D80818F7D80830895CF9388
:10263000DF93EC01888D8823C9F0EA89FB898081CA
:1026400085FD05C0A889B9898C9186FD0FC00FB69C
:1026500007FCF5CF808185FFF2CFA889B9898C91DD
:1026600085FFEDCFCE010E94F612E7CFDF91CF912B
:102670000895CF92DF92FF920F931F93CF93DF9332
:102680001F92CDB7DEB76C0181E0D60158968C93CE
:1026900058975B969C915B975C968C915C9798138E
:1026A00007C05096ED91FC915197808185FD2EC019
:1026B000F601038D10E00F5F1F4F0F731127F02EEF
:1026C000F601848DF81211C00FB607FCF9CFD601C0
:1026D0005096ED91FC915197808185FFF1CFC60115
:1026E00069830E94F6126981EBCF838DE80FF11D9B
:1026F000E35AFF4F6083D6015B960C935B9752962B
:10270000ED91FC915397808180620CC0D601569662
:10271000ED91FC91579760835096ED91FC91519704
:1027200080818064808381E090E00F90DF91CF9181
:102730001F910F91FF90DF90CF900895BF92CF929D
:10274000DF92EF92FF92CF93DF93EC016A017B015E
:10275000B22EE889F98982E08083411581EE58071D
:1027600061057105A1F060E079E08DE390E0A701DB
:1027700096010E94EF2721503109410951095695D0
:10278000479537952795211580E1380798F0E88916
:10279000F989108260E874E88EE190E0A701960163
:1027A0000E94EF272150310941095109569547955B
:1027B00037952795EC85FD853083EE85FF85208351
:1027C000188EEC89FD89B082EA89FB89808180615D
:1027D0008083EA89FB89808188608083EA89FB891C
:1027E000808180688083EA89FB8980818F7D8083F6
:1027F000DF91CF91FF90EF90DF90CF90BF90089541
:10280000CF92DF92EF92FF920F931F93CF93DF93BC
:102810006C017A01EB01E60EF71E00E010E0CE1528
:10282000DF0561F06991D601ED91FC910190F08195
:10283000E02DC6010995080F191FF1CFC801DF91DE
:10284000CF911F910F91FF90EF90DF90CF9008955F
:102850006115710581F0DB010D900020E9F7AD01F4
:1028600041505109461B570BDC01ED91FC91028050
:10287000F381E02D099480E090E00895EF92FF92BB
:102880000F931F93CF93DF938C01FB01C0E0D0E047
:1028900064917F018FEFE81AF80A662361F0D8018E
:1028A000ED91FC910190F081E02DC8010995C80FD0
:1028B000D91FF701EDCFCE01DF91CF911F910F917D
:1028C000FF90EF900895DC01ED91FC91DB011496EF
:1028D0004D915C9115976D917C910280F381E02D73
:1028E00009940C942814DC01ED91FC910190F08185
:1028F000E02D09946AE171E00C9428140F931F9362
:10290000CF93DF93EC010E9463148C01CE010E94EF
:102910007A14800F911FDF91CF911F910F9108952D
:102920000F931F93CF93DF93EC010E9428148C0127
:10293000CE010E947A14800F911FDF91CF911F91D9
:102940000F9108958F929F92AF92BF92CF92DF9294
:10295000EF92FF920F931F93CF93DF93CDB7DEB724
:10296000A1970FB6F894DEBF0FBECDBF7C01C42E79
:10297000E52FCB01D22E19A221E02D1510F02AE06F
:10298000D22E8E010F5D1F4F8D2C912CA12CB12CBE
:102990006C2D7E2FA50194010E94EF278C2DD29ED5
:1029A00080191124015011098A3014F4805D01C08E
:1029B000895CF8018083211531054105510521F01D
:1029C000C22EE32FCA01E4CFB801C7010E94281428
:1029D000A1960FB6F894DEBF0FBECDBFDF91CF91A9
:1029E0001F910F91FF90EF90DF90CF90BF90AF902D
:1029F0009F908F900895CF92DF92EF92FF920F9366
:102A00001F93CF93DF93EC016A017B012115310500
:102A100079F4E881F9810190F081E02D642FDF9154
:102A2000CF911F910F91FF90EF90DF90CF9009947D
:102A30002A303105E9F477FF1AC06DE20E94731461
:102A40008C0144275527BA014C195D096E097F098D
:102A50002AE0CE010E94A214800F911FDF91CF9136
:102A60001F910F91FF90EF90DF90CF9008952AE093
:102A7000B701A601CE01DF91CF911F910F91FF9079
:102A8000EF90DF90CF900C94A2140F931F93CF93ED
:102A9000DF93EC019A01AB01662757FD6095762F15
:102AA0000E94FB148C01CE010E947A14800F911FAA
:102AB000DF91CF911F910F9108950F931F93CF93A3
:102AC000DF93EC010E940224688779878A879B87BD
:102AD000E881F9810680F781E02DCE01099597FF05
:102AE00015C00E940224088519852A853B85601B34
:102AF000710B820B930B0C811D812E813F8160171E
:102B000071078207930720F38FEF9FEFDF91CF913B
:102B10001F910F9108950F931F93CF93DF93EC01B3
:102B20000E940224688779878A879B87E881F981D8
:102B30000084F185E02DCE01099597FF15C00E9414
:102B40000224088519852A853B85601B710B820B41
:102B5000930B0C811D812E813F81601771078207C5
:102B6000930720F38FEF9FEFDF91CF911F910F918C
:102B70000895CF93DF93EC01CE010E948B1597FD52
:102B800011C08D32910571F09C01205331092A301A
:102B9000310540F0E881F9810680F781E02DCE0112
:102BA0000995EACFDF91CF910895CF92DF92FF92FE
:102BB0000F931F93CF93DF9300D000D0CDB7DEB734
:102BC0006C01062F0E94B915FC0197FD4BC020E057
:102BD00030E0A901F12C112707FD1095E017F1074E
:102BE000E9F0ED32F105C1F0CF01C0970A97B0F4DA
:102BF000AAE0B0E00E9417289B01AC01CF01AA27F0
:102C000097FDA095BA2F280F391F4A1F5B1F20532D
:102C100031094109510902C0FF24F394D601ED9115
:102C2000FC910680F781E02DC60129833A834B830E
:102C30005C830995C6010E948B15FC01C097298110
:102C40003A814B815C810A9748F2E017F10731F233
:102C5000FF2061F066277727CB01621B730B840B83
:102C6000950B06C060E070E0CB0102C0CA01B9015B
:102C70000F900F900F900F90DF91CF911F910F91B8
:102C8000FF90DF90CF90089561E00C94D515EF92FE
:102C9000FF920F931F93CF93DF93EC018B01E42EF0
:102CA0006CE171E00E94811AC8010E945D15FF2449
:102CB000E7FCF09497FD0BC08E159F0541F0682F3F
:102CC000CE010E943E1BC8010E945D15F3CFCE01CC
:102CD000DF91CF911F910F91FF90EF900895409158
:102CE0007D0550917E0520917B0530917C05421732
:102CF0005307B4F49091E8009570E1F39091E800E7
:102D000092FD19C08093F10080917D0590917E0520
:102D100001968F739927892B19F48EEF8093E80021
:102D200080917D0590917E05019690937E0580931C
:102D30007D0581E0089580E00895CF92DF92FF92B3
:102D40000F931F93CF93DF931F92CDB7DEB7082F5A
:102D5000162F862F880F8E5F99830E946F1683E04F
:102D60000E946F16F02EC02E9981D92E8C2D8F19AE
:102D7000811778F4F60184910E946F16082F80E085
:102D80000E946F168023FFEFCF1ADF0A8111EECF6A
:102D900001C081E00F90DF91CF911F910F91FF90C3
:102DA000DF90CF900895615030F02091F100FC0148
:102DB00020830196F8CF289884E6809380050895B3
:102DC0002FB7FC012083F89467706093E9000895A1
:102DD000CF93DF931F92CDB7DEB7682FCE01019658
:102DE0000E94E0168091F20099819FBF0F90DF91C1
:102DF000CF910895FF920F931F93CF93DF9300D04D
:102E0000CDB7DEB7F62E8A0190917F05992311F098
:102E100057FF03C08FEF9FEF2BC0682FCE010196A5
:102E20007A830E94E0168091F20090E0A8017A81F6
:102E3000801791070CF4AC01EF2DF72FF40E84E608
:102E4000FE1639F02898809380059091F1009193B7
:102E5000F7CF4115510521F08091F200882321F030
:102E600089818FBFCA0104C08BE68093E800F8CF48
:102E70000F900F90DF91CF911F910F91FF900895C8
:102E8000CF93DF931F92CDB7DEB741E050E0BE0194
:102E90006F5F7F4F0E94FA16019719F4898190E0C5
:102EA00002C08FEF9FEF0F90DF91CF910895CF93E6
:102EB000DF931F92CDB7DEB7682FCE0101960E9437
:102EC000E0169091E800892F807295FF04C09091E0
:102ED000F20080E4891B99819FBF0F90DF91CF9111
:102EE00008956F927F928F929F92AF92BF92CF92EE
:102EF000DF92EF92FF920F931F93CF93DF931F9276
:102F0000CDB7DEB7782E7B01C42EB52E80917F051C
:102F1000882369F0042F152F8AEFD82E872D807211
:102F2000982E9AE3A92E872D8074882E11C08FEFDA
:102F30009FEF57C0872D0E945717682E81110CC034
:102F4000DA94A9F361E070E080E090E00E9431241F
:102F50000115110579F73BC0282F30E00217130740
:102F60000CF4602E672DCE0101960E94E016809130
:102F7000E80085FF29C0262D30E0021B130B9920A5
:102F800039F06A948FEF6816B1F01092F100F9CF22
:102F9000F701862D77FE07C0815058F094919093E9
:102FA000F1003196F9CF815020F091919093F1008A
:102FB000FACFE20EF31E8091E80085FF0FC00115E5
:102FC000110511F481100AC089818FBFC1CF5D98AE
:102FD00084E6809381058C2D9B2D03C0A092E80090
:102FE000F3CF0F90DF91CF911F910F91FF90EF9052
:102FF000DF90CF90BF90AF909F908F907F906F9019
:1030000008951092E90010927E0510927D0590932C
:103010007C0580937B050895CF92DF92FF920F93FA
:103020001F93CF93DF9300D0CDB7DEB7F82E8A0180
:103030006B0101151105B1F0F601F7FE02C0849194
:1030400001C0808149835A830E946F160150110983
:10305000FFEFCF1ADF0A49815A818111EACF8FEF42
:103060009FEF01C0CA010F900F90DF91CF911F9188
:103070000F91FF90DF90CF9008951F93CF93DF9330
:103080001F92CDB7DEB7162F2091E80022FFFCCFAC
:10309000612F79830E94D3168BEF8093E800812FF4
:1030A0007981972F0F90DF91CF911F910895CF9342
:1030B000DF931F92CDB7DEB71982CE0101960E9431
:1030C0002912CE0101960E941026898190E00F906E
:1030D000DF91CF9108951F920F920FB60F92112496
:1030E000EF92FF920F931F932F933F934F935F9312
:1030F0006F937F938F939F93AF93BF93EF93FF93C0
:10310000CF93DF93CDB7DEB76297DEBFCDBF10920E
:10311000E9008091E80083FFEBC068E0CE010A96E9
:103120000E94D31682EF8093E8009A8597FF05C02E
:103130008091E80080FFFCCF03C08EEF8093E80011
:10314000892F807609F0B9C08B85811105C0109256
:10315000F1001092F100C5C0282F2D7F213009F415
:10316000C0C0853049F48091E80080FFFCCF8C8599
:1031700080688093E300B5C0863009F076C02D8565
:10318000E888F988223071F580E090E02A8B0E946F
:1031900001180E94571899E08E010F5F1F4FF80128
:1031A000392F11923A95E9F799832A892A8391E078
:1031B0009E8390E898879AEF998720917D053091BA
:1031C0007E05275F3F4F3C832B838D83C7010E9481
:1031D000011849E050E0B80180E00E940C180E94FC
:1031E00057187FC0C7012A8B0E9401182A892232F2
:1031F00041F482E290E00E941B26892B09F071C005
:1032000074C0213069F488899989089711F4209352
:103210007A0580917A05811118C061E471E01AC0C5
:10322000233009F062C08C85882391F0823021F42C
:103230006CE08FE591E006C0813009F056C06BE08C
:1032400083E591E00E949D164AC06FE271E002C0E2
:103250006CE671E06115710509F447C0FB0144910A
:1032600050E080E80E940C183CC0873009F43DC053
:10327000883021F481E08093F10033C0893089F5F2
:10328000937099F5EBE2F1E081E021E096E3809321
:10329000E9002093EB0034913093EC009093ED0023
:1032A0008F5F3196853099F78EE78093EA00109210
:1032B000EA008C8580937F0514C0888999890E94D3
:1032C00001188E85811105C0CE010A960E94341224
:1032D00006C0823051F4CE010A960E94432688230C
:1032E00021F08EEF8093E80003C081E28093EB0031
:1032F00062960FB6F894DEBF0FBECDBFDF91CF91BF
:10330000FF91EF91BF91AF919F918F917F916F91BD
:103310005F914F913F912F911F910F91FF90EF90EF
:103320000F900FBE0F901F9018958093E900809129
:10333000F200882319F08AE38093E80008951F9231
:103340000F920FB60F9211242F933F934F935F93D9
:103350006F937F938F939F93AF93BF93EF93FF935D
:103360008091E1001092E10083FF0FC01092E9000C
:1033700091E09093EB001092EC0092E39093ED00BB
:1033800010927F0598E09093F00082FF1DC083E0CB
:103390000E94951980918105882339F080918105DB
:1033A000815080938105882369F08091800588236E
:1033B00059F080918005815080938005811104C06F
:1033C000289A02C05D9AF1CFFF91EF91BF91AF9122
:1033D0009F918F917F916F915F914F913F912F912D
:1033E0000F900FBE0F901F90189510927F0581E0EF
:1033F0008093D70080EA8093D80082E189BD09B428
:1034000000FEFDCF61E070E080E090E00E9431249A
:1034100080E98093D8008CE08093E2001092E00075
:10342000559A209A0895FC01808191810C94DD28A1
:10343000CF93DF93EC0188819981009711F00E946E
:10344000DD28198218821D821C821B821A82DF915C
:10345000CF9108950F931F93CF93DF93EC018B01CE
:103460006F5F7F4F888199810E946C29009731F0AE
:10347000998388831B830A8381E001C080E0DF9108
:10348000CF911F910F910895CF93DF93EC01888125
:103490009981892B29F08A819B818617970760F48F
:1034A000CE010E942A1A882341F08C819D81892BAC
:1034B00019F4E881F981108281E0DF91CF910895BC
:1034C000EF92FF920F931F93CF93DF93EC017B0159
:1034D0008A01BA010E94441A811104C0CE010E94DF
:1034E000181A07C01D830C83B701888199810E9437
:1034F0007A2ACE01DF91CF911F910F91FF90EF902B
:103500000895FC01118210821382128215821482A6
:103510006115710559F0FB0101900020E9F7AF0139
:1035200041505109461B570B0C94601A0895CF93D4
:10353000DF93EC01FB018617970761F060817181D1
:103540006115710529F0448155810E94601A02C0FD
:103550000E94181ACE01DF91CF910895FC011182CB
:10356000108213821282158214820C94971ACF93C0
:10357000DF93EC016115710561F0FB010190002002
:10358000E9F7AF0141505109461B570B0E94601AE1
:1035900002C00E94181ACE01DF91CF9108950F93B7
:1035A0001F93CF93DF93CDB7DEB762970FB6F89432
:1035B000DEBF0FBECDBF8C01CB01F801118210829E
:1035C000138212821582148250E0BE016F5F7F4F1A
:1035D0000E94B82ABE016F5F7F4FC8010E94B71AD0
:1035E00062960FB6F894DEBF0FBECDBFDF91CF91CC
:1035F0001F910F910895EF92FF920F931F93CF9316
:10360000DF93EC017B010C811D816115710511F4C3
:1036100080E016C04115510591F0040F151FB80147
:103620000E94441A8823A1F3288139818C819D81CD
:10363000B701820F931F0E947A2A1D830C8381E0B9
:10364000DF91CF911F910F91FF90EF900895FB01B3
:1036500044815581608171810C94FB1A611571055B
:1036600059F0FB0101900020E9F7AF0141505109E9
:10367000461B570B0C94FB1A80E00895CF93DF9301
:1036800000D0CDB7DEB769831A8241E050E0BE01B9
:103690006F5F7F4F0E94FB1A0F900F90DF91CF91C9
:1036A0000895EF92FF920F931F93CF93DF93CDB7BF
:1036B000DEB728970FB6F894DEBF0FBECDBF7C01F2
:1036C000CB014AE050E08E010F5F1F4FB8010E940E
:1036D000B82AF80101900020E9F7AF0141505109E3
:1036E000401B510BB801C7010E94FB1A28960FB668
:1036F000F894DEBF0FBECDBFDF91CF911F910F9128
:10370000FF90EF900895CF93DF93EC01FB0144818C
:103710005581608171810E94FB1A811103C0CE0125
:103720000E94181ACE01DF91CF910895CF93DF93B5
:10373000EC016115710569F0FB0101900020E9F7CA
:10374000AF0141505109461B570B0E94FB1A8111D2
:1037500003C0CE010E94181ACE01DF91CF910895C7
:10376000CF93DF93EC010E94511B811103C0CE0166
:103770000E94181ACE01DF91CF910895FC01248197
:103780003581232B31F421E061157105A1F0FB0196
:1037900008C0FC01808191816115710531F421E03F
:1037A000FC018081882339F005C00E94712A21E044
:1037B000892B09F020E0822F0895FA01DB0114968D
:1037C0004D915C911597DC0114962D913C911597C4
:1037D000241B350B2E173F0788F08D919C91009785
:1037E00069F0DB016D917C916115710539F08E0FE7
:1037F0009F1F0E94812A21E0892B09F020E0822F5F
:103800000895FC0144815581FB01248135814217D3
:10381000530720F040E050E00C94DD1B80E0089559
:103820000F931F93CF93DF93EB0141155105E9F0FF
:103830002097D9F0FC016481758126173707A0F421
:10384000621B730B8A01015011096017710708F49C
:103850008B01FC0160817181620F731FA801CE0191
:103860000E948F2AC00FD11F1882DF91CF911F9124
:103870000F910895CF93DF93FC01848195814817C0
:10388000590778F4C081D181772767FD7095CE0103
:10389000840F951F0E94662A009719F08C1B9D0BC0
:1038A00002C08FEF9FEFDF91CF91089540E050E08D
:1038B0000C943A1CCF93DF93FC01848195814817C7
:1038C000590778F4C081D181FB0160817181CE01FB
:1038D000840F951F0E949E2A009719F08C1B9D0B48
:1038E00002C08FEF9FEFDF91CF91089540E050E04D
:1038F0000C945A1CFC0180819181009711F00C946A
:10390000362A60E070E0CB010895FC012381348108
:103910002627022E2295207F2025032E322F229546
:103920002F700226269532272327220F220F220FDF
:103930002025FC01348323830895CF93DF93EC018A
:103940008D819E81DC01ED91FC916C810190F08173
:10395000E02D09958D819E81DC01ED91FC91019016
:10396000F081E02D6B81DF91CF9109948F929F922E
:10397000AF92BF92CF92DF92EF92FF92CF93DF93FD
:10398000EC016B010E9402244B015C01E12CF12C43
:103990008D819E81DC01ED91FC910680F781E02D07
:1039A000099597FF0DC00E940224681979098A09B8
:1039B0009B096C157D058E059F0550F38FEF9FEFDA
:1039C000DF91CF91FF90EF90DF90CF90BF90AF90BD
:1039D0009F908F900895CF93DF93EC018D819E810E
:1039E000DC01ED91FC910480F581E02D099518161C
:1039F000190654F48D819E81DC01ED91FC910680C5
:103A0000F781E02D0995EACFDF91CF9108952F92AC
:103A10003F924F925F926F927F928F929F92AF925E
:103A2000BF92CF92DF92EF92FF920F931F93CF93AB
:103A3000DF93CDB7DEB72D970FB6F894DEBF0FBE7C
:103A4000CDBF3C011B013C832B83BF82AE8258015A
:103A5000AC0CBD1CA40EB51EBD824B2C512CCA0152
:103A6000860F971F99878887D901A00FB11FBB8741
:103A7000AA87F601EE0DFF1DFD87EC87D30118968E
:103A80008C91581608F026C1EFEFFFEFD301149682
:103A9000FC93EE93139715968D919C911697DC01EC
:103AA000ED91FC910190F081E02D6FEF09956FEFA2
:103AB000C3010E94851CF30185819681DC01ED9193
:103AC000FC910190F081E02DD3016C910995F301F7
:103AD0006081C3010E94851CD30115968D919C9134
:103AE0001697DC01ED91FC910190F081E02D6D8144
:103AF0000995642DC3010E94851CF301858196817F
:103B0000DC01ED91FC910190F081E02D6A2D099589
:103B10006A2DC3010E94851C610188859985C8169C
:103B2000D906A1F0F301858196818601DC01ED9132
:103B3000FC910190F081E02DD6016D916D01099508
:103B4000F8016081C3010E94851CE7CFCB80DC8037
:103B50008A859B85C816D906B1F0D30115968D913B
:103B60009C9116978601DC01ED91FC910190F0810A
:103B7000E02DD6016D916D010995F8016081C301B9
:103B80000E94851CE5CF87018C859D850817190744
:103B9000B1F0D30115968D919C9116976801DC01C7
:103BA000ED91FC910190F081E02DD8016D918D0196
:103BB0000995F6016081C3010E94851CE5CFC30110
:103BC0000E949D1C64E670E0C3010E94B61C8F3FFA
:103BD000910509F074C0EFEFFFEFD3011496FC9349
:103BE000EE9313976FEFC3010E94851C65E070E0B0
:103BF000C3010E94B61CD3016C91262F30E08217BE
:103C0000930709F05CC0C3010E94851C6AE070E064
:103C1000C3010E94B61C8C0197FD51C0682FC301DF
:103C20000E94851C6AE070E0C3010E94B61C6C0112
:103C300097FD45C0682FC3010E94851C0A83198225
:103C400009811A810C0D1D1DC12CD12C65E070E07D
:103C5000C301C016D106A1F0C814D90489F00E948E
:103C6000B61C97FD09C0EE81FF81EC0DFD1D808320
:103C7000682FC3010E94851CBFEFCB1ADB0AE6CF79
:103C80000E94B61C6C0197FD1AC065E070E0C3018C
:103C90000E94B61C97FD13C0DC2CCC24C80ED91E84
:103CA000F301838194818C159D0549F480818F5F98
:103CB0008083C8018016910678F4C4010DC0539426
:103CC00064E670E080E090E00E943124C3010E942D
:103CD000EB1CD4CE8FEF9FEF2D960FB6F894DEBF7E
:103CE0000FBECDBFDF91CF911F910F91FF90EF904D
:103CF000DF90CF90BF90AF909F908F907F906F900C
:103D00005F904F903F902F9008956F927F928F9287
:103D10009F92AF92BF92CF92DF92EF92FF920F935A
:103D20001F93CF93DF93CDB7DEB727970FB6F894E5
:103D3000DEBF0FBECDBF3C018B017A0163E374E0AF
:103D4000CE0101960E94811AB801CE0101960E940F
:103D50002E1B65E374E0CE0101960E942E1BB70175
:103D6000CE0101960E942E1B4D815E8169817A8170
:103D700088248394912CCE0107965C01C12CD12C10
:103D8000E12CF12C00E010E020E030E0C3010E94C3
:103D9000071DCE0101960E94131A27960FB6F894BC
:103DA000DEBF0FBECDBFDF91CF911F910F91FF906E
:103DB000EF90DF90CF90BF90AF909F908F907F90CB
:103DC0006F9008953F924F925F926F927F928F9281
:103DD0009F92AF92BF92CF92DF92EF92FF920F939A
:103DE0001F93CF93DF93CDB7DEB72E970FB6F8941E
:103DF000DEBF0FBECDBF3C01DC0117968C9117973B
:103E00008111CFC081E017968C93C3010E94EB1CF7
:103E100068EE73E080E090E00E943124F301858138
:103E20009681DC01ED91FC910480F581E02D0995EE
:103E30001816190654F355E0552E4424439462E3B2
:103E4000362EE0E1F1E0DE011696852D01900D920F
:103E50008A95E1F7F3014086812C912CA12CB12C9D
:103E6000C12CD12CE12CF12C00E010E020E030E05E
:103E700045E050E0BE016A5F7F4FC3010E94071D0D
:103E800063E0D30115968D919C9116970E9473144F
:103E90006AEF70E080E090E00E9431246EE771E00C
:103EA000F301858196810E943E146AEF70E080E004
:103EB00090E00E9431246CE771E0D30115968D915A
:103EC0009C9116970E943E1464EF71E080E090E0B0
:103ED0000E94312460E771E0F301858196810E94A0
:103EE0003E1464EF71E080E090E00E943124C30151
:103EF0000E94EB1CE5E1F1E0DE011196852D0190B9
:103F00000D928A95E1F7D30118963C9244E0842EF5
:103F1000912CFE013B965F0120E030E045E050E04F
:103F2000BE016F5F7F4FC3010E94071D8F3FFFEFF0
:103F30009F0739F468EE73E080E090E00E9431243E
:103F400080CF2B852111FFCF049711F52C8530E010
:103F50002053310944E6429FC001439F900D112434
:103F60002D8530E0205331096AE0629FA001639FF4
:103F7000500D1124840F951F2E8530E020533109F8
:103F8000820F931FD30112969C938E93119705C0B5
:103F900084E690E0F3019283818382E3D301189653
:103FA0008C932E960FB6F894DEBF0FBECDBFDF9177
:103FB000CF911F910F91FF90EF90DF90CF90BF9026
:103FC000AF909F908F907F906F905F904F903F90B9
:103FD00008951092820585EA95E090938805809374
:103FE00087051092890510928A0590938C0580931D
:103FF0008B050895CF93DF931F92CDB7DEB769830A
:10400000DC01ED91FC910280F381E02D41E050E074
:10401000BE016F5F7F4F09950F90DF91CF9108959B
:1040200008956F927F928F929F92AF92BF92CF929C
:10403000DF92EF92FF920F931F93CF93DF9300D005
:104040001F92CDB7DEB79B013A01FC01E85AFF4F42
:1040500040814F3F21F147E64983319640814A83B1
:10406000399788248394912CCE0103965C01C12C4E
:10407000D12CE12CF12C830142E050E0BE016F5FB6
:104080007F4F808191810E94071D8B81882329F0B9
:1040900090E091958195910904C0C30102C08FEF12
:1040A0009FEF0F900F900F90DF91CF911F910F9185
:1040B000FF90EF90DF90CF90BF90AF909F908F9048
:1040C0007F906F9008958F929F92AF92BF92CF9200
:1040D000DF92EF92FF920F931F9348015901C12C79
:1040E000D12CE12CF12C00E010E020E030E00E9427
:1040F000071D1F910F91FF90EF90DF90CF90BF9021
:10410000AF909F908F9008952F923F924F925F9221
:104110006F927F928F929F92AF92BF92CF92DF92D7
:10412000EF92FF920F931F93CF93DF93CDB7DEB73C
:1041300028970FB6F894DEBF0FBECDBF3C018B01B0
:10414000FC011382128288EE93E0A0E0B0E0848349
:104150009583A683B78383E694E0918380831301DC
:10416000F0E52F0E311CF101318320837301F2E55C
:10417000EF0EF11C6CE171E0C70148870E94811AC3
:10418000230188E5480E511C4885F2014083B8019F
:10419000C7010E94B71A82E7898387E78A8381E68D
:1041A0008B8386E48E83F2018081FE01E80FF11D8E
:1041B00081818F8381E090E0F30197878687EA5AB7
:1041C000FF4F00811181F7012081318192E0892E1A
:1041D000912CCE0104965C01C12CD12CE12CF12C48
:1041E00042E050E0BE016A5F7F4FF1018081918122
:1041F0000E94071D8C81882321F08FEFF2018083BC
:1042000007C0F301E75AFF4F8D818083F3011486C5
:1042100028960FB6F894DEBF0FBECDBFDF91CF91C9
:104220001F910F91FF90EF90DF90CF90BF90AF90D4
:104230009F908F907F906F905F904F903F902F90C6
:104240000895FC01E85AFF4F81E090819F3F09F4F7
:1042500080E00895EF92FF920F931F93CF93DF9327
:1042600000D01F92CDB7DEB77C01FC01848581119F
:1042700024C0158687E489838FE38B83E75AFF4F39
:1042800080818A8300E410E09701205F3F4F43E084
:1042900050E0BE016F5F7F4F3997808191810E940E
:1042A0006320F7018487811102C0148606C0F701DC
:1042B00095859F5F9587815084870F900F900F9011
:1042C000DF91CF911F910F91FF90EF900895CF93C1
:1042D000DF93EC010E942A218C85882359F08150BC
:1042E0008C878D8591E0980F9D87C80FD11D888997
:1042F00090E002C08FEF9FEFDF91CF910895CF93B1
:10430000DF93EC010E942A218C85882331F08D8572
:10431000C80FD11D888990E002C08FEF9FEFDF9119
:10432000CF910895CF93DF93EC010E942A218C85D1
:1043300090E0DF91CF910895EF92FF920F931F933A
:10434000CF93DF9300D01F92CDB7DEB77C0128E575
:10435000E20EF11CF70120812F3FB9F026E62983F8
:10436000319620812A83399701E010E09E012D5F6C
:104370003F4F42E050E0BE016F5F7F4F80819181EF
:104380000E9463208FEFF70180830F900F900F90B2
:10439000DF91CF911F910F91FF90EF900895CF93F0
:1043A000DF93EC0183E694E099838883CE010E9439
:1043B0009C21CE018E5A9F4FDF91CF910C94131AFE
:1043C00081E00895CF93DF93EC01BA01422F22E8F8
:1043D00035E00E948420CE01DF91CF91089582E8DC
:1043E00095E090938E0580938D05089508950F9321
:1043F0001F93CF93DF9300D01F92CDB7DEB729E490
:104400002983FC0126852A836B8300E010E020E0ED
:1044100030E043E050E0BE016F5F7F4F84859585BB
:104420000E94632081E090E00F900F900F90DF9149
:10443000CF911F910F910895EF92FF920F931F93C9
:10444000CF93DF9300D01F92CDB7DEB77C01FC0184
:104450008389811117C0148A8FE4898386858A83B2
:1044600080E48B8397012B5E3F4F00E410E043E034
:1044700050E0BE016F5F7F4F848595850E94632069
:10448000F701838B0F900F900F90DF91CF911F91C9
:104490000F91FF90EF900895CF93DF93EC010E946E
:1044A0001C228B8990E0DF91CF910895CF93DF9309
:1044B000EC010E941C228B89882359F081508B8B40
:1044C0008C8991E0980F9C8BC80FD11D8D8990E04D
:1044D00002C08FEF9FEFDF91CF910895CF93DF93CD
:1044E000EC010E941C228B89882331F08C89C80F33
:1044F000D11D8D8990E002C08FEF9FEFDF91CF91AA
:1045000008950F931F93CF93DF93EC018B0165E325
:1045100074E0888999890E942E1BB801888999893D
:10452000DF91CF911F910F910C94271B6F927F9277
:104530008F929F92AF92BF92CF92DF92EF92FF92B3
:104540000F931F93CF93DF9300D01F92CDB7DEB7A9
:104550003C0182E58B83D3015096ED91FC915197FC
:10456000048115812081318182E0882E912CFE0109
:1045700031965F01C12CD12CE12CF12C41E050E0AF
:10458000BE016D5F7F4F1C968D919C911D970E947F
:10459000071D8A8190E0D3011F969C938E931E97EE
:1045A00050960D911C9151970115110531F0C801DC
:1045B0000E94131AC8010E94B623F301118A108ABF
:1045C0008981811102C081E0828B0F900F900F9042
:1045D000DF91CF911F910F91FF90EF90DF90CF90DF
:1045E000BF90AF909F908F907F906F9008950F93A2
:1045F0001F93CF93DF9300D01F92CDB7DEB722E792
:104600002983FC0126852A8301E010E09E012D5FAD
:104610003F4F42E050E0BE016F5F7F4F848595853C
:104620000E94632081E09B81913009F080E00F902F
:104630000F900F90DF91CF911F910F9108950F93DD
:104640001F93CF93DF9300D000D0CDB7DEB727E51F
:104650002B83FC0126852C8302E010E09E012F5F56
:104660003F4F42E050E0BE016D5F7F4F84859585EE
:104670000E946320898190E0982F88272A81820FE9
:10468000911D0F900F900F900F90DF91CF911F9180
:104690000F910895CF93DF93EC010E949622CE01F3
:1046A0000E94F722882339F064E670E080E090E011
:1046B0000E943124F4CFCE01DF91CF910C941F23BF
:1046C000EF92FF920F931F93CF93DF9300D0CDB75C
:1046D000DEB77C01FC018289882389F087E7898322
:1046E00086858A8300E010E020E030E042E050E080
:1046F000BE016F5F7F4F848595850E946320F7011F
:10470000128A0F900F90DF91CF911F910F91FF9020
:10471000EF9008952FE734E0FC01318320830C945F
:104720006023EF92FF920F931F93CF93DF9300D0FC
:10473000CDB7DEB77C0169837A830E94602386E06F
:1047400090E00E94B4238C0169817A810E94AE1AA4
:10475000F701118B008B0F900F90DF91CF911F917C
:104760000F91FF90EF9008950C9445280C94DD284C
:104770001F920F920FB60F9211242F933F938F9396
:104780009F93AF93BF938091900590919105A091D5
:104790009205B091930530918F0523E0230F2D37BB
:1047A00020F40196A11DB11D05C026E8230F029635
:1047B000A11DB11D20938F058093900590939105C5
:1047C000A0939205B09393058091940590919505DF
:1047D000A0919605B09197050196A11DB11D8093FA
:1047E000940590939505A0939605B0939705BF9176
:1047F000AF919F918F913F912F910F900FBE0F908E
:104800001F9018952FB7F8946091900570919105BD
:1048100080919205909193052FBF08953FB7F8942A
:104820008091940590919505A0919605B09197057A
:1048300026B5A89B05C02F3F19F00196A11DB11DFB
:104840003FBF6627782F892F9A2F620F711D811D18
:10485000911D42E0660F771F881F991F4A95D1F777
:104860000895CF92DF92EF92FF92CF93DF936B0187
:104870007C010E940E24EB01C114D104E104F10477
:1048800089F00E94DA270E940E246C1B7D0B683E83
:10489000734090F381E0C81AD108E108F108C851CB
:1048A000DC4FEACFDF91CF91FF90EF90DF90CF9078
:1048B0000895789484B5826084BD84B5816084BD98
:1048C00085B5826085BD85B5816085BDEEE6F0E089
:1048D000808181608083E1E8F0E0108280818260E5
:1048E0008083808181608083E0E8F0E08081816066
:1048F0008083E1E9F0E08081826080838081816053
:104900008083E0E9F0E0808181608083E1ECF0E089
:1049100080818460808380818260808380818160E7
:104920008083E3ECF0E0808181608083E0ECF0E064
:10493000808182608083E2ECF0E08081816080830E
:10494000EAE7F0E0808184608083808182608083F8
:1049500080818160808380818068808308951F9337
:10496000CF93DF93182FEB0161E00E9483252097FE
:1049700011F460E004C0CF3FD10539F461E0812F2C
:10498000DF91CF911F910C94BC25E12FF0E0E0580E
:10499000FE4F449150E0FA013197EF30F10508F0F5
:1049A0006CC0EA5AFF4F0C94112884B5806884BD0E
:1049B000C7BD68C084B5806284BDC8BD63C0809136
:1049C0008000806880938000D0938900C093880025
:1049D00059C080918000806280938000D0938B00CA
:1049E000C0938A004FC080918000886080938000CF
:1049F000D0938D00C0938C0045C08091900080685A
:104A000080939000D0939900C09398003BC0809110
:104A10009000806280939000D0939B00C0939A0096
:104A200031C080919000886080939000D0939D0069
:104A3000C0939C0027C08091C00080688093C00014
:104A40008091C0008F7B8093C000C093CF001AC0BC
:104A50008091C00080628093C000C093D00012C0DB
:104A60008091C20088608093C2008091C2008B7FD9
:104A70008093C200C093D20005C0C038D1050CF0AD
:104A80007DCF77CFDF91CF911F91089590E0FC010A
:104A90003197EF30F105B0F5EB59FF4F0C94112829
:104AA000809180008F7703C0809180008F7D8093FC
:104AB0008000089580918000877FF9CF84B58F773B
:104AC00002C084B58F7D84BD0895809190008F775A
:104AD00007C0809190008F7D03C080919000877FF8
:104AE0008093900008958091C0008F7703C08091DB
:104AF000C0008F7D8093C00008958091C200877FA1
:104B00008093C2000895CF93DF9390E0FC01E256BA
:104B1000FE4F2491FC01E454FE4F8491882349F117
:104B200090E0880F991FFC01E851FE4FA591B491C8
:104B300086529E4FFC01C591D4919FB7611108C068
:104B4000F8948C91209582238C93888182230AC0CB
:104B5000623051F4F8948C91322F309583238C93EA
:104B60008881822B888304C0F8948C91822B8C934B
:104B70009FBFDF91CF9108950F931F93CF93DF9342
:104B80001F92CDB7DEB7282F30E0F901E058FE4F75
:104B90008491F901E256FE4F1491F901E454FE4F5D
:104BA00004910023C9F0882321F069830E944625DF
:104BB0006981E02FF0E0EE0FFF1FE652FE4FA59156
:104BC000B4919FB7F8948C91611103C01095812323
:104BD00001C0812B8C939FBF0F90DF91CF911F91CC
:104BE0000F910895FF920F931F93CF93DF93EC01E2
:104BF000F62EE881F9810480F581E02D09958C017C
:104C0000E881F9810680F781E02D6F2DCE010995AD
:104C1000C8019927DF91CF911F910F91FF900895BF
:104C2000FC0120812F5F208349E150E066E772E0BC
:104C300080E80C940C1845E650E06FE872E080E8DC
:104C40000C940C18EF92FF920F931F93CF93DF9366
:104C50001F92CDB7DEB789838B017A0141E050E026
:104C6000BE016F5F7F4F84E00E947117A701B801FA
:104C700084E40E9471170F90DF91CF911F910F91E3
:104C8000FF90EF900895FC0191818081813A31F489
:104C900081E0913091F0933089F411C0813271F448
:104CA0009B3021F4828180930F0105C09A3031F44A
:104CB000828180930E0181E00895089580E0089537
:104CC00048E050E082E00C942226CF93DF93DC0191
:104CD000683818F0E8E7E60F25C0E62FF0E067FF38
:104CE00011C0E058F10981E090E001C0880FEA9519
:104CF000EAF714969C911497982B14969C9314970A
:104D0000E0E010C0EA50FE4FE491EE2309F440C009
:104D1000E7FF08C014968C911497826014968C93C8
:104D20001497EF7716968C9116978E1741F1179678
:104D30008C9117978E1719F118968C9118978E17DA
:104D4000F1F019968C9119978E17C9F01A968C91DB
:104D50001A978E17A1F01B968C911B978E1779F0DE
:104D600080E090E0ED01C80FD91F2E81211102C013
:104D7000EE8305C0019686309105A1F709C0BD01FB
:104D80006C5F7F4FCD010E94602681E090E008C0FB
:104D900081E090E013969C938E93129780E090E0D0
:104DA000DF91CF910895683818F0E8E7E60F25C045
:104DB000E62FF0E067FF12C0E058F10921E030E093
:104DC00001C0220FEA95EAF72095DC0114963C9188
:104DD0001497322314963C93E0E00FC0EA50FE4F44
:104DE000E491EE2329F1E7FF08C0DC0114962C9131
:104DF00014972D7F14962C93EF7720E030E0EE236C
:104E000051F0DC01A20FB31F16964C9116974E136A
:104E100002C016961C922F5F3F4F2630310579F75E
:104E2000BC016C5F7F4F0E94602681E090E0089596
:104E300080E090E00895FC011682178210861186AA
:104E4000128613861482BC016C5F7F4F0C9460261F
:104E50001092A40510929B0510929A058FE894E099
:104E6000909399058093980508951F920F920FB61D
:104E70000F9211242F938F939F93EF93FF93E091C1
:104E8000B505F091B6058081E091BB05F091BC05B8
:104E900082FD12C090818091BE058F5F8F7320913B
:104EA000BF05821751F0E091BE05F0E0EB55FA4FD7
:104EB000958F8093BE0501C08081FF91EF919F91F6
:104EC0008F912F910F900FBE0F901F9018951F92EA
:104ED0000F920FB60F9211242F933F934F935F932E
:104EE0006F937F938F939F93AF93BF93EF93FF93B2
:104EF00085EA95E00E94F612FF91EF91BF91AF9184
:104F00009F918F917F916F915F914F913F912F91E1
:104F10000F900FBE0F901F90189585EA95E00E94A4
:104F2000BB1221E0892B09F420E0822F0895109212
:104F3000A8051092A70588EE93E0A0E0B0E080936A
:104F4000A9059093AA05A093AB05B093AC0589E1A0
:104F500094E09093A6058093A5058DEC90E0909346
:104F6000B2058093B1058CEC90E09093B4058093EA
:104F7000B30588EC90E09093B6058093B50589EC75
:104F800090E09093B8058093B7058AEC90E09093F9
:104F9000BA058093B9058EEC90E09093BC058093A0
:104FA000BB051092BE051092BF051092C00510926D
:104FB000C1050895089597FB072E16F4009407D0B5
:104FC00077FD09D00E94222807FC05D03EF4909579
:104FD00081959F4F0895709561957F4F0895A1E247
:104FE0001A2EAA1BBB1BFD010DC0AA1FBB1FEE1F63
:104FF000FF1FA217B307E407F50720F0A21BB30BAE
:10500000E40BF50B661F771F881F991F1A9469F729
:1050100060957095809590959B01AC01BD01CF0185
:105020000895EE0FFF1F0590F491E02D09940E9462
:105030003628A59F900DB49F900DA49F800D911DC3
:1050400011240895AA1BBB1B51E107C0AA1FBB1F57
:10505000A617B70710F0A61BB70B881F991F5A9504
:10506000A9F780959095BC01CD010895A29FB0014C
:10507000B39FC001A39F700D811D1124911DB29F8C
:10508000700D811D1124911D0895CF93DF938230FF
:10509000910510F482E090E0E0914406F09145061D
:1050A00020E030E0A0E0B0E0309739F1408151815C
:1050B00048175907B8F04817590771F4828193814E
:1050C000109729F013969C938E9312972CC090936F
:1050D00045068093440627C02115310531F042175B
:1050E000530718F0A901DB0101C0EF019A01BD01CE
:1050F000DF010280F381E02DD7CF21153105F9F0D2
:10510000281B390B2430310580F48A819B8161157D
:10511000710521F0FB019383828304C090934506BF
:1051200080934406FE01329644C0FE01E20FF31F55
:105130008193919322503109398328833AC0209179
:10514000420630914306232B41F420910201309115
:1051500003013093430620934206209100013091D1
:1051600001012115310541F42DB73EB740910401ED
:1051700050910501241B350BE0914206F091430646
:10518000E217F307A0F42E1B3F0B2817390778F01E
:10519000AC014E5F5F4F2417350748F04E0F5F1F7D
:1051A00050934306409342068193919302C0E0E0FE
:1051B000F0E0CF01DF91CF910895CF93DF93009777
:1051C00009F487C0FC01329713821282C091440611
:1051D000D0914506209781F420813181280F391F15
:1051E00080914206909143068217930779F5F093D8
:1051F0004306E09342066DC0DE0120E030E0AE17CA
:10520000BF0750F412964D915C9113979D01411583
:10521000510509F1DA01F3CFB383A28340815181B3
:10522000840F951F8A179B0771F48D919C9111979C
:10523000840F951F02969183808312968D919C9185
:105240001397938382832115310529F4F093450642
:10525000E09344063EC0D9011396FC93EE93129757
:105260004D915D91A40FB51FEA17FB0779F480817A
:105270009181840F951F0296D90111969C938E936C
:105280008281938113969C938E931297E0E0F0E0D5
:105290008A819B81009719F0FE01EC01F9CFCE01C4
:1052A000029628813981820F931F20914206309106
:1052B00043062817390769F4309729F410924506F8
:1052C0001092440602C013821282D0934306C09308
:1052D0004206DF91CF910895A0E0B0E0E2E7F9E265
:1052E0000C94272BEC01CB01209719F40E94452840
:1052F000B8C0FE01E60FF71F9E0122503109E217E8
:10530000F30708F4ACC0D9010D911C911197061751
:105310001707B8F00530110508F49FC0A8014450E4
:1053200051094617570708F498C002501109061B87
:10533000170B019311936D937C93CF010E94DD288D
:105340008CC05B01A01AB10A4E01800E911EA09183
:105350004406B0914506612C712C60E070E0109716
:1053600009F449C0A815B905C9F5ED90FC9011974D
:10537000670142E0C40ED11CCA14DB0478F1470176
:105380008A189B08640142E0C40ED11C1296BC909E
:1053900012971396AC91B5E0CB16D10440F0B282CF
:1053A000A38391828082D9018D939C9309C00E5F63
:1053B0001F4F0E0D1F1DF90111830083EB2DFA2FD6
:1053C0006115710531F0DB011396FC93EE93129792
:1053D00044C0F0934506E09344063FC06D917C9134
:1053E00011976616770608F43B01BD0112960D90E1
:1053F000BC91A02DB4CF6091420670914306681510
:105400007905E9F468167906D0F4409100015091CD
:1054100001014115510541F44DB75EB7609104019A
:1054200070910501461B570BE417F507C0F4F09384
:105430004306E0934206F901918380830EC00E94E7
:1054400045287C01009759F0A801BE010E945D2A01
:10545000CE010E94DD28C70104C0CE0102C080E059
:1054600090E0CDB7DEB7EEE00C94432B1F93FC0128
:1054700099278827BC01E89411911032E9F319307B
:1054800010F01E30C8F31B3251F01D3249F46894FD
:1054900006C00E94CE2A610F711D811D911D1191C0
:1054A00010531A30B0F33EF4909580957095619545
:1054B0007F4F8F4F9F4F1F910895FB01DC0102C06A
:1054C00001900D9241505040D8F70895FC01819110
:1054D000861721F08823D9F7992708953197CF01AE
:1054E0000895FB01DC018D91019080190110D9F321
:1054F000990B0895FB01DC0101900D920020E1F76A
:105500000895FB01DC014150504030F08D91019035
:10551000801919F40020B9F7881B990B0895FB0135
:10552000DC014150504048F001900D920020C9F735
:1055300001C01D9241505040E0F70895FB01519188
:105540005523A9F0BF01DC014D9145174111E1F749
:1055500059F4CD010190002049F04D9140154111C1
:10556000C9F3FB014111EFCF81E090E0019708956D
:105570004532510520F4423010F00C94C32AFB014F
:105580001082CB010895BB274A3031F4992322F4CD
:10559000BDE2909581959F4F0C94E42A592F482F96
:1055A000372F262F660F771F881F991F660F771FCB
:1055B000881F991F620F731F841F951F660F771F27
:1055C000881F991F0895BB27FB015527AA27880F1D
:1055D000991FAA1FA41710F0A41B83955051B9F767
:1055E000A05DAA3308F0A95DA193009779F7B111E6
:1055F000B1931192CB010C94132BF999FECF92BD6C
:1056000081BDF89A992780B50895262FF999FECF84
:105610001FBA92BD81BD20BD0FB6F894FA9AF99ACF
:105620000FBE01960895DC01FC01672F719177236D
:10563000E1F7329704C07C916D9370836291AE174D
:10564000BF07C8F308952F923F924F925F926F92D7
:105650007F928F929F92AF92BF92CF92DF92EF9202
:10566000FF920F931F93CF93DF93CDB7DEB7CA1B83
:10567000DB0B0FB6F894DEBF0FBECDBF09942A88AE
:10568000398848885F846E847D848C849B84AA8456
:10569000B984C884DF80EE80FD800C811B81AA81E3
:1056A000B981CE0FD11D0FB6F894DEBF0FBECDBFAE
:1056B000ED01089513E0C2E0D3E004C0FE010E94B2
:0E56C00013282296C630D107C9F7F894FFCF01
:1056CE0000004606800000E100000000000001011D
:1056DE00585858585858583130300D0A00000000AC
:1056EE0000BD01F4012B026A02AD016572726F7288
:1056FE000074797065006465736372697074696FA4
:10570E006E007375636365737300757365726E6196
:10571E006D65004E657720757365724E616D653AE5
:10572E0020004572726F7220636F64653A200068C4
:10573E007474703A2F2F002F6170692F002F6C69CF
:10574E00676874732F002F73746174652F00747201
:10575E0075650066616C736500726F6F74007D7D98
:10576E007D00737461746500726561636861626C5B
:10577E0065006C6967687400417661696C61626C82
:10578E0065006E724F664C69676874730054797069
:10579E0065004E616D65007B226465766963657494
:1057AE00797065223A2241726475696E6F23426187
:1057BE006279487565227D004E6F202876616C698E
:1057CE00642920757365722C2073657474696E6715
:1057DE002075702061206E6577206F6E65005265B2
:1057EE006769737465726564206E6577207573657D
:1057FE00723A20007B22616C657274223A227365C4
:10580E006C656374227D007B22616C657274223A32
:10581E00226C73656C656374227D00456E61626CEB
:10582E00696E6720616C6572740044697361626CA5
:10583E00696E6720616C657274007B22616C6572A3
:10584E0074223A226E6F6E65227D00687474703A0F
:10585E002F2F7777772E6D6565746875652E636F5C
:10586E006D2F6170692F6E75706E70004875655280
:10587E004C005573696E6720487565206F6E3A202F
:10588E00005573696E6720757365726E616D653A4A
:10589E0020004578656375746520474554206F6E0A
:1058AE003A20006375726C002D4C002D6B00435531
:1058BE00524C206572726F723A200045786563759E
:1058CE00746520505554206F6E3A20002C20776955
:1058DE00746820646174613A20002D480022436F81
:1058EE006E74656E742D547970653A206170706CAB
:1058FE0069636174696F6E2F6A736F6E22002D5823
:10590E0000505554002D640045786563757465200C
:10591E00504F5354206F6E3A2000504F5354004452
:10592E004D50202D2000545243202D20004442473C
:10593E00202D2000494E46202D2000455252202D6C
:10594E0020004641494C21202D20000000000097E8
:10595E000FB50FCF0FED0F2C1000000000371054B5
:10596E00106F108C10A91048756520696E6974004F
:10597E004E6F74696679696E672077652772652048
:10598E00746865726500436F6C6F72204C6967684E
:10599E0074002F746D702F61726475696E6F2D6C4B
:1059AE006F672E747874000D0A0D0A2D2D2D2D2083
:1059BE0053746172746564202D2D2D2D0053746106
:1059CE00727465640000000000CC111312F611060B
:1059DE0012E211F3110000000039130014BB12D4AF
:1059EE0012C61217136E616E00696E66006F7666D0
:1059FE00002E004400FE006C732000207C20617796
:105A0E006B20274E523D3D0027006C73006D6B647A
:105A1E006972002D7000726D00726D646972000003
:105A2E00000000FA1F1120922167217F2110202FE4
:105A3E0062696E2F617368002D630000000000F72D
:105A4E002100144C2256226E22F62100000000F294
:0A5A5E002500146526D3261B27003F
:00000001FF
