:100000000C9484010C94AC010C94AC010C94AC01E4
:100010000C94AC010C94AC010C94AC010C94AC01AC
:100020000C94AC010C94AC010C94AB0A0C947709C1
:100030000C94AC010C94AC010C94AC010C94AC018C
:100040000C94AC010C94AC010C94AC010C94AC017C
:100050000C94AC010C94AC010C94AC010C94B01059
:100060000C94AC010C942D140C945F140C94AC0102
:100070000C94AC010C94AC010C94AC010C94AC014C
:100080000C94AC010C94AC010C94AC010C94AC013C
:100090000C94AC010C94AC010C94AC010C94AC012C
:1000A0000C94AC010C94AC010C94AC01CD11D211A8
:1000B000D711E111EB11351235123512F511FF117F
:1000C0000912131220123512281256125912481210
:1000D0004C1252127A127A127A125D126112651261
:1000E0006B126F127A127512080B000202020100E5
:1000F000090400000102020000052400100105248B
:1001000001010104240206052406000107058103FC
:1001100010004009040100020A0000000705020265
:100120004000000705830240000000C18081C11229
:100130000100020200004041234180000101020051
:100140000112010002000000404123418000010132
:1001500002000141726475696E6F204C4C4300557A
:10016000534220494F20426F617264000403090426
:1001700072756E2D6272696467650A000A000A0072
:100180000000000200090F0000030401000C000041
:100190000000000000000000000000000000040853
:1001A000020110408040102040804080080204017D
:1001B00080402010020110801020404004040404FC
:1001C00004030405020202020403020202020606FC
:1001D00006060606040402020204000000002500D0
:1001E00028002B002E003100000000002400270012
:1001F0002A002D00300000000000000000002A2B23
:1002000028000000000000000000000000000000C6
:100210000000000000002C9EB4A0A1A2A434A6A758
:10022000A5AE362D3738271E1F2021222324252650
:10023000B333B62EB7B89F8485868788898A8B8C1E
:100240008D8E8F909192939495969798999A9B9C66
:100250009D2F3130A3AD350405060708090A0B0CA4
:100260000D0E0F101112131415161718191A1B1C46
:100270001DAFB1B0B5000904020001030000000980
:1002800021010100012265000705840340000105EA
:10029000010902A1010901A100850105091901292E
:1002A00003150025019503750181029501750581EE
:1002B0000305010930093109381581257F75089535
:1002C000038106C0C005010906A1018502050719C1
:1002D000E029E71500250175019508810295017552
:1002E000088103950675081500256505071900297D
:1002F000658100C00C0262031A049E047705CA0ED1
:10030000FC0E20148F143D0411241FBECFEFDAE041
:10031000DEBFCDBF16E0A0E0B1E0E0EDFEE202C03E
:1003200005900D92A430B107D9F727E0A4E0B6E01C
:1003300001C01D92AB3CB207E1F712E0C6E0D3E08A
:1003400004C02297FE010E940B15C43FD107C9F7D4
:100350000E948B040C945B170C940000CF93DF93E6
:10036000CDB7DEB7CB55D1090FB6F894DEBF0FBEBF
:10037000CDBF40E050E06AED71E082E596E00E947A
:1003800051031C821B8288EE93E0A0E0B0E08D83D5
:100390009E83AF83B88789EE95E09A83898387E04F
:1003A00097E09E878D871B8A1C8A1D8A60EF71E00B
:1003B000CE018A5A9F4F0E948D0BBE016A5A7F4F11
:1003C000CE0101960E948910CE018A5A9F4F0E9449
:1003D0001F0BCE0101960E94421045E050E0BE0185
:1003E0006F5F7F4F82E596E00E947402CE01019616
:1003F0000E94030FCE0101960E945810CE01019673
:100400000E948210C55ADF4F0FB6F894DEBF0FBEB0
:10041000CDBFDF91CF91089510920506109204068A
:1004200008953F924F925F926F927F928F929F9228
:10043000AF92BF92CF92DF92EF92FF920F931F93F2
:10044000CF93DF93EC018B01342E290161E0842FDF
:100450000E947B12CE01B2010E94D3145B0168019D
:10046000E12CF12CC0E0D0E088249924801A910A74
:10047000662457FC6094762CAE14BF04DCF0BE01F9
:10048000832D0E94A711CC0DDD1D1C161D063CF40A
:10049000CF3FD1053CF06401CFEFD0E003C068014D
:1004A000C0E0D0E0C301B2010E9429118FEFE81A29
:1004B000F80AE2CF60E070E0832DDF91CF911F91C9
:1004C0000F91FF90EF90DF90CF90BF90AF909F90F3
:1004D0008F907F906F905F904F903F900C94A711FA
:1004E000FC01728361830895EF92FF920F931F9333
:1004F000CF93DF938C01EB017A01DC0113968D9190
:100500009C911497009709F45BC0DC01ED91FC917C
:100510000284F385E02D0995F801818192818E1581
:100520009F050CF440C083819481DC01ED91FC9126
:100530000190F081E02D6CE475E00995E881F98186
:100540000480F581E02DCE010995892BA1F0E88189
:10055000F9810680F781E02DCE010995F801A3818C
:10056000B481ED91FC9111970280F381E02D682F09
:10057000CD010995E3CFD80113968D919C911497E5
:10058000DC01ED91FC910480F581E02D68ED75E0D2
:100590000995F80183819481DC01ED91FC9100843F
:1005A000F185E02D06C0E881F9810284F385E02D14
:1005B000CE01DF91CF911F910F91FF90EF900994A1
:1005C000DF91CF911F910F91FF90EF900895AF921F
:1005D000BF92CF92DF92EF92FF920F931F93CF9330
:1005E000DF93EC015B016A0179018B819C810097AB
:1005F00009F44CC0DC01ED91FC910284F385E02DFF
:10060000099589819A818A159B050CF43FC08B81DD
:100610009C81DC01ED91FC910190F081E02DB6010F
:1006200009958B819C81DC01ED91FC910190F08119
:10063000E02DB70109950115110551F08B819C81C1
:10064000DC01ED91FC910190F081E02DB80109955C
:100650008B819C81DC01ED91FC910480F581E02D82
:1006600068ED75E009958B819C81DC01ED91FC9131
:100670000084F185E02DDF91CF911F910F91FF90C4
:10068000EF90DF90CF90BF90AF900994DF91CF9122
:100690001F910F91FF90EF90DF90CF90BF90AF90A0
:1006A00008950F931F939B018A0141E655E064E092
:1006B00070E00E94E7021F910F910895FC0174837E
:1006C0006383089581E08093520684E090E09093E4
:1006D00054068093530608959091BC068091BD0600
:1006E000981739F06AE070E080E090E00E942911EC
:1006F000F3CF0895CF93DF9300D0CDB7DEB78EEA66
:1007000096E069837A830E94680569817A818823EB
:1007100041F08EEA96E00F900F90DF91CF910C940C
:100720004A0780E090E00F900F90DF91CF910895FD
:10073000CF93DF931F92CDB7DEB78EEA96E0698341
:100740000E9468056981882339F08EEA96E00F904F
:10075000DF91CF910C944C0780E090E00F90DF91F7
:10076000CF910895CF93DF9300D0CDB7DEB78EEA57
:1007700096E069837A830E94680569817A8188237B
:1007800041F08EEA96E00F900F90DF91CF910C949C
:10079000690780E090E00F900F90DF91CF9108956E
:1007A000CF93DF9300D0CDB7DEB78EEA96E06983B2
:1007B0007A830E94680569817A81882341F08EEAF4
:1007C00096E00F900F90DF91CF910C94570780E047
:1007D00090E00F900F90DF91CF910895CF93C42FA9
:1007E00023E835E0FC0131832083AB01662757FD08
:1007F0006095762F8EEA96E00E946205CC2369F020
:100800008EEA96E00E946805811107C064E670E0F8
:1008100080E090E00E942911F3CFCF9108958EEAF5
:1008200096E00E946805882321F08EEA96E00C94F9
:10083000CC04089510925A061092590688EE93E05F
:10084000A0E0B0E080935B0690935C06A0935D0609
:10085000B0935E0689EE95E0909358068093570614
:1008600087E097E090936406809363061092690690
:1008700010926A0610926B06089587E596E00C9434
:10088000821024E130E04DE050E06AE070E080E169
:1008900097E20C941102089526E040E950ED63E0E0
:1008A00070E080911007909111070E94770687E011
:1008B00097E00E94C30D6CEA76E082E596E00E9424
:1008C0005E0365E070E082E596E00E94700240E021
:1008D00050E06FE875E082E596E00E94510340E049
:1008E00050E067E975E082E596E00E94510361E41B
:1008F00074E084E096E00E94AE0140E050E060EADF
:1009000075E082E596E00C94510364E670E080E0C7
:1009100090E00C9429110E9451110E944B048EEF1B
:1009200096E00E94010B0E944C04C1ECD5E00E94AD
:1009300085042097E1F30E94C105F9CF40E060E80B
:1009400075E28CEA96E00C94EE03CF93DF931F924E
:10095000CDB7DEB76983DC01ED91FC910280F381B4
:10096000E02D41E050E0BE016F5F7F4F09950F9091
:10097000DF91CF910895CF93DF93EC018C859D8516
:1009800097FF05C082E00E944C089D878C878C856C
:100990009D85DF91CF91089583E00C94A10AFC011D
:1009A0008485958597FD06C082E00E94F40790E05B
:1009B0000196089582E00E94F40790E00895FC01FA
:1009C0008485958597FD05C02FEF3FEF35872487F8
:1009D000089582E00C944C08CF93DF93EC01809152
:1009E0000D01882331F083E00E947D081816190656
:1009F00034F081E090E09B838A8380E090E0DF9197
:100A0000CF910895FC0120812E5F208342E450E0C5
:100A100068EE70E080E80C941809FC0181819081F7
:100A2000913A59F4813209F03CC047E050E066E069
:100A300071E080E00E94180943C0913291F5803244
:100A400039F467E070E086E091E00E94490906C051
:100A5000823209F035C0828180930D0180910601B8
:100A600090910701A0910801B0910901803B944049
:100A7000A105B105C1F480910D0180FD14C087E787
:100A800097E790930108809300082BE088E190E0BD
:100A90000FB6F894A895809360000FBE2093600075
:100AA0000FC080E0089588E10FB6F894809360004D
:100AB000109260000FBEA8951092010810920008D5
:100AC00081E008952FEF3FEFFC01358724870895DB
:100AD000CF93C0910D016AE070E080E090E00E9449
:100AE000291181E0C11101C080E0CF9108951092D9
:100AF000B1061092B00688EE93E0A0E0B0E08093DB
:100B0000B2069093B306A093B406B093B5068AEBF1
:100B100095E09093AF068093AE068FEF9FEF909392
:100B2000BB068093BA060895FC01818D228D90E06A
:100B3000805C9F4F821B91098F7399270895FC0158
:100B4000918D828D981731F0828DE80FF11D858D82
:100B500090E008958FEF9FEF0895FC01918D828DB5
:100B6000981761F0828DDF01A80FB11D5D968C9101
:100B7000928D9F5F9F73928F90E008958FEF9FEF0C
:100B8000089585E894E1892B49F080E090E0892B75
:100B900029F00E94851481110C9400000895FC0135
:100BA000848DDF01A80FB11DA35ABF4F2C91848DF6
:100BB00090E001968F739927848FA689B7892C932B
:100BC000A089B1898C9180648C93938D848D9813C6
:100BD00006C00288F389E02D80818F7D808308958F
:100BE000CF93DF93EC01888D8823C9F0EA89FB89D4
:100BF000808185FD05C0A889B9898C9186FD0FC0CB
:100C00000FB607FCF5CF808185FFF2CFA889B9899F
:100C10008C9185FFEDCFCE010E94CF05E7CFDF910C
:100C2000CF910895CF92DF92FF920F931F93CF93AE
:100C3000DF931F92CDB7DEB76C0181E0D6015896E5
:100C40008C9358975B969C915B975C968C915C9784
:100C5000981307C05096ED91FC915197808185FDC6
:100C60002EC0F601038D10E00F5F1F4F0F73112789
:100C7000F02EF601848DF81211C00FB607FCF9CFE3
:100C8000D6015096ED91FC915197808185FFF1CF6F
:100C9000C60169830E94CF056981EBCF838DE80F80
:100CA000F11DE35AFF4F6083D6015B960C935B976F
:100CB0005296ED91FC915397808180620CC0D601D1
:100CC0005696ED91FC91579760835096ED91FC916B
:100CD000519780818064808381E090E00F90DF9164
:100CE000CF911F910F91FF90DF90CF900895BF9209
:100CF000CF92DF92EF92FF92CF93DF93EC016A01E4
:100D00007B01B22EE889F98982E08083411581EE6A
:100D1000580761057105A1F060E079E08DE390E08E
:100D2000A70196010E94E714215031094109510998
:100D30005695479537952795211580E1380798F006
:100D4000E889F989108260E874E88EE190E0A701F3
:100D500096010E94E7142150310941095109569525
:100D6000479537952795EC85FD853083EE85FF8582
:100D70002083188EEC89FD89B082EA89FB89808105
:100D800080618083EA89FB89808188608083EA8929
:100D9000FB89808180688083EA89FB8980818F7DDF
:100DA0008083DF91CF91FF90EF90DF90CF90BF9045
:100DB0000895CF92DF92EF92FF920F931F93CF93FC
:100DC000DF936C017A01EB01E60EF71E00E010E004
:100DD000CE15DF0561F06991D601ED91FC9101908E
:100DE000F081E02DC6010995080F191FF1CFC80148
:100DF000DF91CF911F910F91FF90EF90DF90CF90F7
:100E000008956115710581F0DB010D900020E9F76F
:100E1000AD0141505109461B570BDC01ED91FC918E
:100E20000280F381E02D099480E090E00895EF9234
:100E3000FF920F931F93CF93DF938C01FB01C0E0D0
:100E4000D0E064917F018FEFE81AF80A662361F021
:100E5000D801ED91FC910190F081E02DC801099538
:100E6000C80FD91FF701EDCFCE01DF91CF911F91B0
:100E70000F91FF90EF900895DC01ED91FC91DB0163
:100E800014964D915C9115976D917C910280F38140
:100E9000E02D09940C940107DC01ED91FC91019087
:100EA000F081E02D099466ED75E00C9401070F9335
:100EB0001F93CF93DF93EC010E943C078C01CE017E
:100EC0000E945307800F911FDF91CF911F910F91C7
:100ED00008950F931F93CF93DF93EC010E940107B6
:100EE0008C01CE010E945307800F911FDF91CF919B
:100EF0001F910F910895409102075091030720918F
:100F000000073091010742175307B4F49091E800AD
:100F10009570E1F39091E80092FD19C08093F10083
:100F2000809102079091030701968F739927892B6F
:100F300019F48EEF8093E8008091020790910307E7
:100F40000196909303078093020781E0089580E063
:100F50000895CF92DF92FF920F931F93CF93DF9369
:100F60001F92CDB7DEB7082F162F862F880F8E5F02
:100F700099830E947B0783E00E947B07F02EC02E9E
:100F80009981D92E8C2D8F19811778F4F6018491CF
:100F90000E947B07082F80E00E947B078023FFEFE1
:100FA000CF1ADF0A8111EECF01C081E00F90DF91EF
:100FB000CF911F910F91FF90DF90CF9008956150D6
:100FC00030F02091F100FC0120830196F8CF2898A1
:100FD00084E68093050708952FB7FC012083F894D9
:100FE00067706093E9000895CF93DF931F92CDB7A8
:100FF000DEB7682FCE0101960E94EC078091F200C7
:1010000099819FBF0F90DF91CF910895FF920F9329
:101010001F93CF93DF9300D0CDB7DEB7F62E8A01B2
:1010200090910407992311F057FF03C08FEF9FEFB2
:101030002BC0682FCE0101967A830E94EC07809125
:10104000F20090E0A8017A81801791070CF4AC01BE
:10105000EF2DF72FF40E84E6FE1639F028988093D2
:1010600005079091F1009193F7CF4115510521F0BB
:101070008091F200882321F089818FBFCA0104C0CA
:101080008BE68093E800F8CF0F900F90DF91CF911F
:101090001F910F91FF900895CF93DF931F92CDB7CB
:1010A000DEB741E050E0BE016F5F7F4F0E9406084F
:1010B000019719F4898190E002C08FEF9FEF0F90A4
:1010C000DF91CF910895CF93DF931F92CDB7DEB715
:1010D000682FCE0101960E94EC079091E800892FBD
:1010E000807295FF04C09091F20080E4891B998181
:1010F0009FBF0F90DF91CF9108956F927F928F9253
:101100009F92AF92BF92CF92DF92EF92FF920F9396
:101110001F93CF93DF931F92CDB7DEB7782E7B015D
:10112000C42EB52E80910407882369F0042F152F53
:101130008AEFD82E872D8072982E9AE3A92E872DBC
:101140008074882E11C08FEF9FEF57C0872D0E94AB
:101150006308682E81110CC0DA94A9F361E070E095
:1011600080E090E00E9429110115110579F73BC03C
:10117000282F30E0021713070CF4602E672DCE01E4
:1011800001960E94EC078091E80085FF29C0262D7A
:1011900030E0021B130B992039F06A948FEF681628
:1011A000B1F01092F100F9CFF701862D77FE07C05C
:1011B000815058F094919093F1003196F9CF81507D
:1011C00020F091919093F100FACFE20EF31E8091FE
:1011D000E80085FF0FC00115110511F481100AC048
:1011E00089818FBFC1CF5D9884E6809306078C2DDF
:1011F0009B2D03C0A092E800F3CF0F90DF91CF9119
:101200001F910F91FF90EF90DF90CF90BF90AF9024
:101210009F908F907F906F9008951092E9001092A8
:101220000307109202079093010780930007089527
:10123000CF92DF92FF920F931F93CF93DF9300D053
:10124000CDB7DEB7F82E8A016B0101151105B1F09B
:10125000F601F7FE02C0849101C0808149835A8360
:101260000E947B0701501109FFEFCF1ADF0A498165
:101270005A818111EACF8FEF9FEF01C0CA010F9011
:101280000F90DF91CF911F910F91FF90DF90CF9042
:1012900008951F93CF93DF931F92CDB7DEB7162F1C
:1012A0002091E80022FFFCCF612F79830E94DF07A5
:1012B0008BEF8093E800812F7981972F0F90DF913A
:1012C000CF911F910895CF93DF931F92CDB7DEB7D3
:1012D0001982CE0101960E940205CE0101960E945C
:1012E0000813898190E00F90DF91CF9108951F92AC
:1012F0000F920FB60F921124EF92FF920F931F934C
:101300002F933F934F935F936F937F938F939F930D
:10131000AF93BF93EF93FF93CF93DF93CDB7DEB738
:101320006297DEBFCDBF1092E9008091E80083FF95
:10133000EBC068E0CE010A960E94DF0782EF80933F
:10134000E8009A8597FF05C08091E80080FFFCCFF8
:1013500003C08EEF8093E800892F807609F0B9C032
:101360008B85811105C01092F1001092F100C5C06B
:10137000282F2D7F213009F4C0C0853049F4809199
:10138000E80080FFFCCF8C8580688093E300B5C0C7
:10139000863009F076C02D85E888F988223071F50D
:1013A00080E090E02A8B0E940D090E94630999E079
:1013B0008E010F5F1F4FF801392F11923A95E9F70F
:1013C00099832A892A8391E09E8390E898879AEFEF
:1013D00099872091020730910307275F3F4F3C8395
:1013E0002B838D83C7010E940D0949E050E0B801AD
:1013F00080E00E9418090E9463097FC0C7012A8B00
:101400000E940D092A89223241F482E290E00E9472
:101410001313892B09F071C074C0213069F48889D5
:101420009989089711F42093FF068091FF06811196
:1014300018C061E471E01AC0233009F062C08C85E5
:10144000882391F0823021F46CE08FE591E006C0B2
:10145000813009F056C06BE083E591E00E94A90756
:101460004AC06FE271E002C06CE671E0611571057F
:1014700009F447C0FB01449150E080E80E9418093C
:101480003CC0873009F43DC0883021F481E080936E
:10149000F10033C0893089F5937099F5EBE2F1E002
:1014A00081E021E096E38093E9002093EB00349102
:1014B0003093EC009093ED008F5F3196853099F773
:1014C0008EE78093EA001092EA008C8580930407EF
:1014D00014C0888999890E940D098E85811105C0E3
:1014E000CE010A960E940D0506C0823051F4CE014D
:1014F0000A960E943B13882321F08EEF8093E80028
:1015000003C081E28093EB0062960FB6F894DEBFD1
:101510000FBECDBFDF91CF91FF91EF91BF91AF9102
:101520009F918F917F916F915F914F913F912F91FB
:101530001F910F91FF90EF900F900FBE0F901F9093
:1015400018958093E9008091F200882319F08AE3CE
:101550008093E80008951F920F920FB60F92112406
:101560002F933F934F935F936F937F938F939F93AB
:10157000AF93BF93EF93FF938091E1001092E1004E
:1015800083FF0FC01092E90091E09093EB0010925E
:10159000EC0092E39093ED001092040798E0909392
:1015A000F00082FF1DC083E00E94A10A809106071F
:1015B000882339F08091060781508093060788239D
:1015C00069F080910507882359F0809105078150C3
:1015D00080930507811104C0289A02C05D9AF1CF5B
:1015E000FF91EF91BF91AF919F918F917F916F91FB
:1015F0005F914F913F912F910F900FBE0F901F90D1
:1016000018951092040781E08093D70080EA8093B8
:10161000D80082E189BD09B400FEFDCF61E070E031
:1016200080E090E00E94291180E98093D8008CE04E
:101630008093E2001092E000559A209A0895FC01F0
:10164000808191810C94BB15CF93DF93EC0188814D
:101650009981009711F00E94BB15198218821D8292
:101660001C821B821A82DF91CF9108950F931F93E2
:10167000CF93DF93EC018B016F5F7F4F888199815E
:101680000E944A16009731F0998388831B830A834E
:1016900081E001C080E0DF91CF911F910F9108950B
:1016A000CF93DF93EC0188819981892B29F08A817E
:1016B0009B818617970760F4CE010E94360B882322
:1016C00041F08C819D81892B19F4E881F981108288
:1016D00081E0DF91CF910895EF92FF920F931F93D6
:1016E000CF93DF93EC017B018A01BA010E94500B7A
:1016F000811104C0CE010E94240B07C01D830C83FE
:10170000B701888199810E941D17CE01DF91CF9189
:101710001F910F91FF90EF900895FC0111821082AC
:1017200013821282158214826115710559F0FB0132
:1017300001900020E9F7AF0141505109461B570BBA
:101740000C946C0B0895CF93DF93EC01FB0186178B
:10175000970761F0608171816115710529F04481FD
:1017600055810E946C0B02C00E94240BCE01DF91B8
:10177000CF910895FC01118210821382128215828A
:1017800014820C94A30BFC01238134812627022EA2
:101790002295207F2025032E322F22952F7002269E
:1017A000269532272327220F220F220F2025FC0106
:1017B000348323830895CF93DF93EC018D819E8141
:1017C000DC01ED91FC916C810190F081E02D099597
:1017D0008D819E81DC01ED91FC910190F081E02DE5
:1017E0006B81DF91CF9109948F929F92AF92BF92BC
:1017F000CF92DF92EF92FF92CF93DF93EC016B01D8
:101800000E94FA104B015C01E12CF12C8D819E812C
:10181000DC01ED91FC910680F781E02D099597FFA1
:101820000DC00E94FA10681979098A099B096C1584
:101830007D058E059F0550F38FEF9FEFDF91CF91D0
:10184000FF90EF90DF90CF90BF90AF909F908F90E0
:101850000895CF93DF93EC018D819E81DC01ED91A2
:10186000FC910480F581E02D09951816190654F4B1
:101870008D819E81DC01ED91FC910680F781E02D48
:101880000995EACFDF91CF9108952F923F924F9221
:101890005F926F927F928F929F92AF92BF92CF9200
:1018A000DF92EF92FF920F931F93CF93DF93CDB709
:1018B000DEB72D970FB6F894DEBF0FBECDBF3C014B
:1018C0001B013C832B83BF82AE825801AC0CBD1C34
:1018D000A40EB51EBD824B2C512CCA01860F971F3A
:1018E00099878887D901A00FB11FBB87AA87F60106
:1018F000EE0DFF1DFD87EC87D30118968C915816CD
:1019000008F026C1EFEFFFEFD3011496FC93EE939E
:10191000139715968D919C911697DC01ED91FC9192
:101920000190F081E02D6FEF09956FEFC3010E94E8
:10193000C30BF30185819681DC01ED91FC9101904F
:10194000F081E02DD3016C910995F3016081C30111
:101950000E94C30BD30115968D919C911697DC01C3
:10196000ED91FC910190F081E02D6D810995642D40
:10197000C3010E94C30BF30185819681DC01ED91C7
:10198000FC910190F081E02D6A2D09956A2DC3012B
:101990000E94C30B610188859985C816D906A1F0FC
:1019A000F301858196818601DC01ED91FC91019026
:1019B000F081E02DD6016D916D010995F8016081EE
:1019C000C3010E94C30BE7CFCB80DC808A859B8557
:1019D000C816D906B1F0D30115968D919C91169732
:1019E0008601DC01ED91FC910190F081E02DD601A2
:1019F0006D916D010995F8016081C3010E94C30BCF
:101A0000E5CF87018C859D8508171907B1F0D301B3
:101A100015968D919C9116976801DC01ED91FC91D2
:101A20000190F081E02DD8016D918D010995F601AD
:101A30006081C3010E94C30BE5CFC3010E94DB0B91
:101A400064E670E0C3010E94F40B8F3F910509F03A
:101A500074C0EFEFFFEFD3011496FC93EE9313974E
:101A60006FEFC3010E94C30B65E070E0C3010E94E9
:101A7000F40BD3016C91262F30E08217930709F005
:101A80005CC0C3010E94C30B6AE070E0C3010E9406
:101A9000F40B8C0197FD51C0682FC3010E94C30B4A
:101AA0006AE070E0C3010E94F40B6C0197FD45C031
:101AB000682FC3010E94C30B0A83198209811A810E
:101AC0000C0D1D1DC12CD12C65E070E0C301C016AA
:101AD000D106A1F0C814D90489F00E94F40B97FD37
:101AE00009C0EE81FF81EC0DFD1D8083682FC301CD
:101AF0000E94C30BBFEFCB1ADB0AE6CF0E94F40BA8
:101B00006C0197FD1AC065E070E0C3010E94F40B00
:101B100097FD13C0DC2CCC24C80ED91EF3018381A1
:101B200094818C159D0549F480818F5F8083C80165
:101B30008016910678F4C4010DC0539464E670E0F9
:101B400080E090E00E942911C3010E94290CD4CEAC
:101B50008FEF9FEF2D960FB6F894DEBF0FBECDBF6F
:101B6000DF91CF911F910F91FF90EF90DF90CF9079
:101B7000BF90AF909F908F907F906F905F904F90AD
:101B80003F902F9008953F924F925F926F927F9275
:101B90008F929F92AF92BF92CF92DF92EF92FF927D
:101BA0000F931F93CF93DF93CDB7DEB72E970FB66A
:101BB000F894DEBF0FBECDBF3C01DC0117968C91BF
:101BC00017978111CFC081E017968C93C3010E94B3
:101BD000290C68EE73E080E090E00E942911F30187
:101BE00085819681DC01ED91FC910480F581E02DE9
:101BF00009951816190654F355E0552E44244394BC
:101C000062E3362EE0E1F1E0DE011696852D0190CB
:101C10000D928A95E1F7F3014086812C912CA12C3D
:101C2000B12CC12CD12CE12CF12C00E010E020E0F3
:101C300030E045E050E0BE016A5F7F4FC3010E9483
:101C4000450C63E0D30115968D919C9116970E94E7
:101C50004C076AEF70E080E090E00E9429116EE787
:101C600071E0F301858196810E9417076AEF70E0A9
:101C700080E090E00E9429116CE771E0D301159695
:101C80008D919C9116970E94170764EF71E080E098
:101C900090E00E94291160E771E0F301858196814F
:101CA0000E94170764EF71E080E090E00E94291124
:101CB000C3010E94290CE5E1F1E0DE011196852DBA
:101CC00001900D928A95E1F7D30118963C9244E079
:101CD000842E912CFE013B965F0120E030E045E030
:101CE00050E0BE016F5F7F4FC3010E94450C8F3FE4
:101CF000FFEF9F0739F468EE73E080E090E00E9408
:101D0000291180CF2B852111FFCF049711F52C8548
:101D100030E02053310944E6429FC001439F900DBB
:101D200011242D8530E0205331096AE0629FA00123
:101D3000639F500D1124840F951F2E8530E0205392
:101D40003109820F931FD30112969C938E931197A2
:101D500005C084E690E0F3019283818382E3D3019E
:101D600018968C932E960FB6F894DEBF0FBECDBF9B
:101D7000DF91CF911F910F91FF90EF90DF90CF9067
:101D8000BF90AF909F908F907F906F905F904F909B
:101D90003F900895109207078AE297E090930D070D
:101DA00080930C0710920E0710920F079093110763
:101DB0008093100708958F929F92AF92BF92CF9217
:101DC000DF92EF92FF920F931F9348015901C12CAC
:101DD000D12CE12CF12C00E010E020E030E00E945A
:101DE000450C1F910F91FF90EF90DF90CF90BF9027
:101DF000AF909F908F90089587E097E0909313079E
:101E000080931207089508950F931F93CF93DF9344
:101E100000D01F92CDB7DEB729E42983FC012685C7
:101E20002A836B8300E010E020E030E043E050E0E4
:101E3000BE016F5F7F4F848595850E94DB0E81E038
:101E400090E00F900F900F90DF91CF911F910F9125
:101E50000895EF92FF920F931F93CF93DF9300D0DB
:101E60001F92CDB7DEB77C01FC018389811117C0B9
:101E7000148A8FE4898386858A8380E48B83970123
:101E80002B5E3F4F00E410E043E050E0BE016F5F87
:101E90007F4F848595850E94DB0EF701838B0F9021
:101EA0000F900F90DF91CF911F910F91FF90EF90C6
:101EB0000895CF93DF93EC010E94290F8B8990E066
:101EC000DF91CF910895CF93DF93EC010E94290F0A
:101ED0008B89882359F081508B8B8C8991E0980FE6
:101EE0009C8BC80FD11D8D8990E002C08FEF9FEFB2
:101EF000DF91CF910895CF93DF93EC010E94290FDA
:101F00008B89882331F08C89C80FD11D8D8990E091
:101F100002C08FEF9FEFDF91CF9108956F927F9274
:101F20008F929F92AF92BF92CF92DF92EF92FF92E9
:101F30000F931F93CF93DF9300D01F92CDB7DEB7DF
:101F40003C0182E58B83D3015096ED91FC91519732
:101F5000048115812081318182E0882E912CFE013F
:101F600031965F01C12CD12CE12CF12C41E050E0E5
:101F7000BE016D5F7F4F1C968D919C911D970E94B5
:101F8000450C8A8190E0D3011F969C938E931E97F7
:101F900050960D911C9151970115110531F0C80112
:101FA0000E941F0BC8010E94AE10F301118A108A13
:101FB0008981811102C081E0828B0F900F900F9078
:101FC000DF91CF911F910F91FF90EF90DF90CF9015
:101FD000BF90AF909F908F907F906F9008950F93D8
:101FE0001F93CF93DF9300D01F92CDB7DEB722E7C8
:101FF0002983FC0126852A8301E010E09E012D5FE4
:102000003F4F42E050E0BE016F5F7F4F8485958572
:102010000E94DB0E81E09B81913009F080E00F90FF
:102020000F900F90DF91CF911F910F9108950F9313
:102030001F93CF93DF9300D000D0CDB7DEB727E555
:102040002B83FC0126852C8302E010E09E012F5F8C
:102050003F4F42E050E0BE016D5F7F4F8485958524
:102060000E94DB0E898190E0982F88272A81820FB9
:10207000911D0F900F900F900F90DF91CF911F91B6
:102080000F910895CF93DF93EC010E948E0FCE0144
:102090000E94EF0F882339F064E670E080E090E062
:1020A0000E942911F4CFCE01DF91CF910C9417102B
:1020B000EF92FF920F931F93CF93DF9300D0CDB792
:1020C000DEB77C01FC018289882389F087E7898358
:1020D00086858A8300E010E020E030E042E050E0B6
:1020E000BE016F5F7F4F848595850E94DB0EF701EF
:1020F000128A0F900F90DF91CF911F910F91FF9057
:10210000EF90089529EE35E0FC01318320830C9493
:102110005810EF92FF920F931F93CF93DF9300D04D
:10212000CDB7DEB77C0169837A830E94581086E0C0
:1021300090E00E94AC108C0169817A810E94BA0BF8
:10214000F701118B008B0F900F90DF91CF911F91B2
:102150000F91FF90EF9008950C9423150C94BB15EC
:102160001F920F920FB60F9211242F933F938F93CC
:102170009F93AF93BF938091150790911607A091FD
:102180001707B09118073091140723E0230F2D375C
:1021900020F40196A11DB11D05C026E8230F02966B
:1021A000A11DB11D20931407809315079093160766
:1021B000A0931707B09318078091190790911A07F9
:1021C000A0911B07B0911C070196A11DB11D809322
:1021D000190790931A07A0931B07B0931C07BF9190
:1021E000AF919F918F913F912F910F900FBE0F90C4
:1021F0001F9018952FB7F8946091150770911607E6
:1022000080911707909118072FBF08953FB7F89452
:102210008091190790911A07A0911B07B0911C0794
:1022200026B5A89B05C02F3F19F00196A11DB11D31
:102230003FBF6627782F892F9A2F620F711D811D4E
:10224000911D42E0660F771F881F991F4A95D1F7AD
:102250000895CF92DF92EF92FF92CF93DF936B01BD
:102260007C010E940611EB01C114D104E104F104C8
:1022700089F00E94D2140E9406116C1B7D0B683EEF
:10228000734090F381E0C81AD108E108F108C85101
:10229000DC4FEACFDF91CF91FF90EF90DF90CF90AE
:1022A0000895789484B5826084BD84B5816084BDCE
:1022B00085B5826085BD85B5816085BDEEE6F0E0BF
:1022C000808181608083E1E8F0E01082808182601B
:1022D0008083808181608083E0E8F0E0808181609C
:1022E0008083E1E9F0E08081826080838081816089
:1022F0008083E0E9F0E0808181608083E1ECF0E0C0
:10230000808184608083808182608083808181601D
:102310008083E3ECF0E0808181608083E0ECF0E09A
:10232000808182608083E2ECF0E080818160808344
:10233000EAE7F0E08081846080838081826080832E
:1023400080818160808380818068808308951F936D
:10235000CF93DF93182FEB0161E00E947B1220974F
:1023600011F460E004C0CF3FD10539F461E0812F62
:10237000DF91CF911F910C94B412E12FF0E0E0585F
:10238000FE4F449150E0FA013197EF30F10508F02B
:102390006CC0EA5AFF4F0C94091584B5806884BD5F
:1023A000C7BD68C084B5806284BDC8BD63C080916C
:1023B0008000806880938000D0938900C09388005B
:1023C00059C080918000806280938000D0938B0000
:1023D000C0938A004FC08091800088608093800005
:1023E000D0938D00C0938C0045C080919000806890
:1023F00080939000D0939900C09398003BC0809147
:102400009000806280939000D0939B00C0939A00CC
:1024100031C080919000886080939000D0939D009F
:10242000C0939C0027C08091C00080688093C0004A
:102430008091C0008F7B8093C000C093CF001AC0F2
:102440008091C00080628093C000C093D00012C011
:102450008091C20088608093C2008091C2008B7F0F
:102460008093C200C093D20005C0C038D1050CF0E3
:102470007DCF77CFDF91CF911F91089590E0FC0140
:102480003197EF30F105B0F5EB59FF4F0C9409157A
:10249000809180008F7703C0809180008F7D809332
:1024A0008000089580918000877FF9CF84B58F7771
:1024B00002C084B58F7D84BD0895809190008F7790
:1024C00007C0809190008F7D03C080919000877F2E
:1024D0008093900008958091C0008F7703C0809111
:1024E000C0008F7D8093C00008958091C200877FD7
:1024F0008093C2000895CF93DF9390E0FC01E256F1
:10250000FE4F2491FC01E454FE4F8491882349F14D
:1025100090E0880F991FFC01E851FE4FA591B491FE
:1025200086529E4FFC01C591D4919FB7611108C09E
:10253000F8948C91209582238C93888182230AC001
:10254000623051F4F8948C91322F309583238C9320
:102550008881822B888304C0F8948C91822B8C9381
:102560009FBFDF91CF9108950F931F93CF93DF9378
:102570001F92CDB7DEB7282F30E0F901E058FE4FAB
:102580008491F901E256FE4F1491F901E454FE4F93
:1025900004910023C9F0882321F069830E943E1230
:1025A0006981E02FF0E0EE0FFF1FE652FE4FA5918C
:1025B000B4919FB7F8948C91611103C01095812359
:1025C00001C0812B8C939FBF0F90DF91CF911F9102
:1025D0000F910895FF920F931F93CF93DF93EC0118
:1025E000F62EE881F9810480F581E02D09958C01B2
:1025F000E881F9810680F781E02D6F2DCE010995E4
:10260000C8019927DF91CF911F910F91FF900895F5
:10261000FC0120812F5F208349E150E066E772E0F2
:1026200080E80C94180945E650E06FE872E080E815
:102630000C941809EF92FF920F931F93CF93DF939F
:102640001F92CDB7DEB789838B017A0141E050E05C
:10265000BE016F5F7F4F84E00E947D08A701B80133
:1026600084E40E947D080F90DF91CF911F910F911C
:10267000FF90EF900895FC0191818081813A31F4BF
:1026800081E0913091F0933089F411C0813271F47E
:102690009B3021F4828180930F0105C09A3031F480
:1026A000828180930E0181E00895089580E008956D
:1026B00048E050E082E00C941A13CF93DF93DC01E2
:1026C000683818F0E8E7E60F25C0E62FF0E067FF6E
:1026D00011C0E058F10981E090E001C0880FEA954F
:1026E000EAF714969C911497982B14969C93149740
:1026F000E0E010C0EA50FE4FE491EE2309F440C040
:10270000E7FF08C014968C911497826014968C93FE
:102710001497EF7716968C9116978E1741F11796AE
:102720008C9117978E1719F118968C9118978E1710
:10273000F1F019968C9119978E17C9F01A968C9111
:102740001A978E17A1F01B968C911B978E1779F014
:1027500080E090E0ED01C80FD91F2E81211102C049
:10276000EE8305C0019686309105A1F709C0BD0131
:102770006C5F7F4FCD010E94581381E090E008C04C
:1027800081E090E013969C938E93129780E090E006
:10279000DF91CF910895683818F0E8E7E60F25C07B
:1027A000E62FF0E067FF12C0E058F10921E030E0C9
:1027B00001C0220FEA95EAF72095DC0114963C91BE
:1027C0001497322314963C93E0E00FC0EA50FE4F7A
:1027D000E491EE2329F1E7FF08C0DC0114962C9167
:1027E00014972D7F14962C93EF7720E030E0EE23A2
:1027F00051F0DC01A20FB31F16964C9116974E13A1
:1028000002C016961C922F5F3F4F2630310579F794
:10281000BC016C5F7F4F0E94581381E090E00895E7
:1028200080E090E00895FC011682178210861186E0
:10283000128613861482BC016C5F7F4F0C94581370
:10284000109229071092200710921F0789EF95E038
:1028500090931E0780931D0708951F920F920FB645
:102860000F9211242F938F939F93EF93FF93E091F7
:102870003A07F0913B078081E0914007F0914107D2
:1028800082FD12C09081809143078F5F8F732091EA
:102890004407821751F0E0914307F0E0E65DF84FFE
:1028A000958F8093430701C08081FF91EF919F91A5
:1028B0008F912F910F900FBE0F901F9018951F9220
:1028C0000F920FB60F9211242F933F934F935F9364
:1028D0006F937F938F939F93AF93BF93EF93FF93E8
:1028E0008AE297E00E94CF05FF91EF91BF91AF91EF
:1028F0009F918F917F916F915F914F913F912F9118
:102900000F900FBE0F901F9018958AE297E00E94DB
:10291000940521E0892B09F420E0822F089510927C
:102920002D0710922C0788EE93E0A0E0B0E0809392
:102930002E0790932F07A0933007B09331078AECAE
:1029400095E090932B0780932A078DEC90E090936D
:102950003707809336078CEC90E09093390780938B
:10296000380788EC90E090933B0780933A0789EC16
:1029700090E090933D0780933C078AEC90E0909321
:102980003F0780933E078EEC90E090934107809341
:102990004007109243071092440710924507109287
:1029A00046070895089597FB072E16F4009407D064
:1029B00077FD09D00E940F1507FC05D03EF49095D5
:1029C00081959F4F0895709561957F4F0895A1E27D
:1029D0001A2EAA1BBB1BFD010DC0AA1FBB1FEE1F99
:1029E000FF1FA217B307E407F50720F0A21BB30BE4
:1029F000E40BF50B661F771F881F991F1A9469F760
:102A000060957095809590959B01AC01BD01CF01BB
:102A10000895EE0FFF1F0590F491E02D0994AA1B75
:102A2000BB1B51E107C0AA1FBB1FA617B70710F0B9
:102A3000A61BB70B881F991F5A95A9F780959095EB
:102A4000BC01CD010895CF93DF938230910510F43E
:102A500082E090E0E091C907F091CA0720E030E001
:102A6000A0E0B0E0309739F1408151814817590713
:102A7000B8F04817590771F482819381109729F0B3
:102A800013969C938E9312972CC09093CA078093B1
:102A9000C90727C02115310531F04217530718F037
:102AA000A901DB0101C0EF019A01BD01DF01028034
:102AB000F381E02DD7CF21153105F9F0281B390B13
:102AC0002430310580F48A819B816115710521F0E4
:102AD000FB019383828304C09093CA078093C90744
:102AE000FE01329644C0FE01E20FF31F81939193E1
:102AF00022503109398328833AC02091C707309189
:102B0000C807232B41F42091020130910301309337
:102B1000C8072093C70720910001309101012115BA
:102B2000310541F42DB73EB74091040150910501A4
:102B3000241B350BE091C707F091C807E217F30794
:102B4000A0F42E1B3F0B2817390778F0AC014E5F1D
:102B50005F4F2417350748F04E0F5F1F5093C8078B
:102B60004093C7078193919302C0E0E0F0E0CF016A
:102B7000DF91CF910895CF93DF93009709F487C039
:102B8000FC01329713821282C091C907D091CA0703
:102B9000209781F420813181280F391F8091C70748
:102BA0009091C8078217930779F5F093C807E093CF
:102BB000C7076DC0DE0120E030E0AE17BF0750F45C
:102BC00012964D915C9113979D014115510509F1A4
:102BD000DA01F3CFB383A28340815181840F951F23
:102BE0008A179B0771F48D919C911197840F951F03
:102BF00002969183808312968D919C911397938373
:102C000082832115310529F4F093CA07E093C9079F
:102C10003EC0D9011396FC93EE9312974D915D91AE
:102C2000A40FB51FEA17FB0779F480819181840F07
:102C3000951F0296D90111969C938E938281938160
:102C400013969C938E931297E0E0F0E08A819B812B
:102C5000009719F0FE01EC01F9CFCE010296288110
:102C60003981820F931F2091C7073091C807281719
:102C7000390769F4309729F41092CA071092C907EE
:102C800002C013821282D093C807C093C707DF9196
:102C9000CF910895A0E0B0E0E0E5F6E10C942817AC
:102CA000EC01CB01209719F40E942315B8C0FE0156
:102CB000E60FF71F9E0122503109E217F30708F4CF
:102CC000ACC0D9010D911C91119706171707B8F0E8
:102CD0000530110508F49FC0A8014450510946175A
:102CE000570708F498C002501109061B170B0193EF
:102CF00011936D937C93CF010E94BB158CC05B0137
:102D0000A01AB10A4E01800E911EA091C907B09180
:102D1000CA07612C712C60E070E0109709F449C07B
:102D2000A815B905C9F5ED90FC901197670142E02F
:102D3000C40ED11CCA14DB0478F147018A189B0821
:102D4000640142E0C40ED11C1296BC9012971396F7
:102D5000AC91B5E0CB16D10440F0B282A38391824E
:102D60008082D9018D939C9309C00E5F1F4F0E0D79
:102D70001F1DF90111830083EB2DFA2F61157105D9
:102D800031F0DB011396FC93EE93129744C0F0935D
:102D9000CA07E093C9073FC06D917C9111976616F1
:102DA000770608F43B01BD0112960D90BC91A02D51
:102DB000B4CF6091C7077091C80768157905E9F429
:102DC00068167906D0F44091000150910101411537
:102DD000510541F44DB75EB7609104017091050152
:102DE000461B570BE417F507C0F4F093C807E093B0
:102DF000C707F901918380830EC00E9423157C01CF
:102E0000009759F0A801BE010E941417CE010E943C
:102E1000BB15C70104C0CE0102C080E090E0CDB771
:102E2000DEB7EEE00C944417FB01DC0102C0019018
:102E30000D9241505040D8F70895FB01DC010190FC
:102E40000D920020E1F708952F923F924F925F92EA
:102E50006F927F928F929F92AF92BF92CF92DF92AA
:102E6000EF92FF920F931F93CF93DF93CDB7DEB70F
:102E7000CA1BDB0B0FB6F894DEBF0FBECDBF0994A3
:102E80002A88398848885F846E847D848C849B84FA
:102E9000AA84B984C884DF80EE80FD800C811B8108
:102EA000AA81B981CE0FD11D0FB6F894DEBF0FBE37
:102EB000CDBFED01089513E0C6E0D3E004C0FE01EC
:102EC0000E940B152296C830D107C9F7F894FFCF9E
:102ED0000000CB07800000E10000000000000101BD
:102EE000585858585858583130306572726F7200BF
:102EF00074797065006465736372697074696F6E6C
:102F0000007375636365737300757365726E616DCD
:102F100065004E657720757365724E616D653A2068
:102F2000004572726F7220636F64653A20007061B1
:102F30007273654C6967687453746174650062727A
:102F4000690073617400687565007B7D007D7D2C70
:102F5000005573696E67207765616B2064657465E1
:102F6000726D696E6174696F6E206F66206964208E
:102F7000666F722067726F75707300426162794884
:102F800075650050617273696E6720616E73776555
:102F900072006964006C69676874730068747470A7
:102FA0003A2F2F002F6170692F0053657474696E7A
:102FB0006720757020487565206F6E2059756E000A
:102FC0002F7573722F426162794875652F2E2F47D6
:102FD0006574417069416464726573732E7368002F
:102FE000547279696E6720746F20637265617465CD
:102FF00020737472696E67206C6F6E6765722074DF
:1030000068616E20617661696C61626C65206275D1
:1030100066666572004275696C7420737472696EBD
:10302000673A20002F6C69676874732F002F6772EE
:103030006F7570732F004261627948756547726FD2
:1030400075704964005573696E672067726F75709B
:103050002069643A20002F616374696F6E2F0074D9
:103060007275650066616C736500726F6F74007DC8
:103070007D7D00737461746500726561636861626F
:103080006C65006C6967687400417661696C6162A7
:103090006C65006E724F664C696768747300547992
:1030A0007065004E616D65004C696768740053740B
:1030B0006F72696E6720737461746520696E204257
:1030C00072696467650047726F75702069643A20A1
:1030D000007B226C6967687473223A5B2231225D3F
:1030E0002C226E616D65223A2242616279487565D3
:1030F000227D005061727365642067726F75702065
:1031000069643A20004572726F7220696E2067729E
:103110006F757020726567697374726174696F6E20
:103120002C2072657472792E007B22646576696347
:103130006574797065223A2241726475696E6F23F5
:1031400042616279487565227D0050726573732013
:103150007468652048756520627574746F6E2066AA
:103160006F7220757365722072656769737472611E
:1031700074696F6E2E004E6F202876616C69642929
:1031800020757365722C2073657474696E67207581
:10319000702061206E6577206F6E650052656769EB
:1031A000737465726564206E657720757365723A15
:1031B000200043616E6E6F7420676574206C6967D0
:1031C0006874732077697468206E657720757365FD
:1031D00072007B22616C657274223A2273656C65A1
:1031E0006374227D007B22616C657274223A226CCA
:1031F00073656C656374227D00456E61626C696EF7
:103200006720616C6572740044697361626C696EF9
:103210006720616C657274007B22616C6572742238
:103220003A226E6F6E65227D00687474703A2F2F9B
:103230007777772E6D6565746875652E636F6D2F72
:103240006170692F6E75706E7000487565524C0024
:103250004C696768742025642069643A20256400FD
:103260007B226F6E223A2025732C20226272692203
:103270003A2025642C2022687565223A2025642C8A
:103280002022736174223A2025647D007B226272C1
:1032900069223A2025642C2022687565223A20256F
:1032A000642C2022736174223A2025642C20226F22
:1032B0006E223A2025737D00687474703A2F2F3186
:1032C00039322E3136382E322E322F6170692F313D
:1032D0003333336537393533336665373630373115
:1032E0003466633834363131366635613333332FE3
:1032F0006C69676874732F312F73746174652F0064
:10330000526573746F72696E67207374617465209F
:1033100066726F6D2042726964676500444D50208B
:103320002D2000545243202D2000444247202D20C0
:1033300000494E46202D200057524E202D2000459A
:103340005252202D20004641494C21202D200000C2
:103350000000007A039803B203D0030F046C0353F8
:103360007461727465640048756520696E697400E3
:103370004E6F74696679696E67207765277265207C
:1033800074686572650000000000A504EC04CF04B9
:10339000DF04BB04CC04000000001206D90694052B
:1033A000AD059F05F0050D0A006E616E00696E6641
:1033B000006F76660000000000040FD906590F6305
:1033C0000F7B0F030F00000000EA12D9065D13CB3C
:0433D00013131400BF
:00000001FF
